:020000040800F2
:10000000800E0020651B000825020008270200085A
:1000100000000000000000000000000000000000E0
:100020000000000000000000000000002B0200089B
:1000300000000000000000002D0200082F02000850
:10004000771B0008771B0008771B0008771B000848
:10005000771B0008771B0008771B0008771B000838
:10006000771B0008771B0008771B0008771B000828
:10007000771B0008771B0008771B00083F02000869
:1000800047020008771B000800000000771B0008EB
:10009000771B0008771B0008771B0008771B0008F8
:1000A000771B0008771B0008771B00083702000841
:1000B000771B000800000000771B0008000000000C
:1000C0000448854606F004FB00480047E3010008A9
:1000D000C046C046800E002048480078002804D062
:1000E00046480078401E4549087045480088002869
:1000F00004D043480088401E4149088041480078A8
:10010000002804D03F480078401E3E4908703E4811
:100110000078002804D03C480078401E3A49087016
:100120003A480088002804D038480088401E3749E3
:10013000088037480088002804D035480088401ED1
:100140003349088033480078002804D031480078CB
:10015000401E3049087030480088401C2E490880F5
:10016000704710B500F070F900F07DF900F0F9F972
:1001700000F015FA05F0E2FC00F09DFA04F0C1FE73
:1001800005F092FB05F09AFA00F0D1F900F0AFFA11
:1001900010BD1CB505F027F908226946002004F0BF
:1001A0008DFE002308221D49684603F0CEFF08207B
:1001B00004F0F4FD1A4908700846007803F086FD43
:1001C000092004F0EBFD044601F0E3FB05F000FE1E
:1001D00005F016FC00F0D8FA05F005F900F097F9E3
:1001E0001CBDFFF7BEFFFFF7D4FF05E002F079F872
:1001F00000F08DFA00F01DFBF8E700000000002081
:10020000060000200100002002000020080000205D
:100210000A000020030000200400002091050020B7
:10022000D9010020704700BFFEE77047704710B546
:10023000FFF752FF10BD10B504F00CFB10BD10B558
:1002400004F078FD10BD10B504F0D9FA10BD00001F
:100250000CB500200190009073480068012109044A
:1002600008437149086000BF6F48006801214904D4
:10027000084000900198401C01900098002804D18B
:100280000521090201988842EED1674800680121E2
:1002900049040840002802D00120009001E000201D
:1002A00000900098012839D11120604908605E480B
:1002B00040685D49486008464068486008464068B4
:1002C0003F21090488435849486008464068112185
:1002D000090408435449486008460068012109069A
:1002E00008435149086000BF4F4800680121490692
:1002F00008400028F8D04C484068800880004A49EF
:10030000486008464068022108434749486000BFEA
:10031000454840680C2108400828F9D10CBD10B5AB
:1003200041480068012108433F4908600846406889
:100330003F4908403C494860084600683D4908403C
:100340003949086008460068012189048843364914
:100350000860084640683F210904884332494860E4
:100360000846C06A00090001C8620846006BFF2108
:10037000543188432C4908630846406B40084000CC
:10038000486300208860FFF763FF10BDF8B50025C3
:10039000002400260027244840680C210840054618
:1003A000002D04D0042D06D0082D2AD107E02248C4
:1003B0002249086029E020482049086025E01A48C1
:1003C00040680F218904084004461748406801210D
:1003D000090408400646A00C841C002E04D11848CD
:1003E0006043164908600BE00F48C06A0007000F21
:1003F000471C3946104805F09BFD60430F490860D3
:1004000003E00D480D49086000BF00BF0648406882
:10041000F021084000090B490D5C08480068E840DD
:1004200006490860F8BD00000010024000200240AC
:100430000CB8FFF8FFFFF6FE00127A000C00002057
:1004400000093D001000002010B5012103204004E8
:1004500002F03BFA0121880302F045FA0121032052
:1004600002F04FFA10BD1CB5FF20F13000900121C1
:10047000684601710021817103214171694609209B
:10048000C00601F06FFE072000900121684601714F
:10049000002181710321417169460920C00601F0E4
:1004A00061FE032000900021684601710121C171A5
:1004B0006946F74801F056FE012207210920C006CF
:1004C00001F0D9FE01220921C80601F0D4FE012263
:1004D0000A210920C00601F0CEFE03204002009050
:1004E0000221684601710021817103214171694631
:1004F0000920C00601F036FE0920C006808AB0221D
:10050000104301460920C00601F0B3FE1CBD1CB516
:100510008020009002216846017100218171032131
:10052000417169460920C00601F01CFE1CBD10B5D2
:10053000D849D948006805F0FBFC0446601ED7493D
:10054000884200D90CE0601ED54948610321081F8C
:1005500000F01BFF0020D24988610720086100BF1E
:1005600010BD00B587B0CF4803F08CF84B20C00118
:100570000190002002900390049006900C200590BA
:1005800001A9C84803F09AF80122C749C54803F0F9
:10059000C3FA0121C34803F02AF907B000BD00B532
:1005A00089B0C24802F088FAFF20F43007902F216A
:1005B0006846018300210184418306A9BB4802F0FB
:1005C000E1FA0121B94802F06BFF01221146B74858
:1005D00002F050FF6021684681800121C180022124
:1005E00001820020039001A9B04802F0C4FB082159
:1005F000AE4802F006FD0121AC4802F048FB0120A4
:10060000800702F059FA63200790A94968460183E0
:1006100000210184418306A90120800702F0B2FA7B
:100620000121880702F03CFF01221146900702F0E9
:1006300021FF0121880702F02AFB09B000BD00B5A7
:1006400085B00121084602F04EF90121880402F02C
:100650003CF905216846017000214170012181703B
:1006600001F05CFE03200390002168460174022122
:1006700041740021C17403A9854801F073FD012074
:1006800001F024FD022001F021FD0021012002F0F3
:10069000D7F90121084602F0D3F903200190002187
:1006A00068460172102141720121817201A801F096
:1006B0009DFC05B000BD08B51B21684601700021F6
:1006C00041700121817001F029FE102168460170FE
:1006D00001214170817001F021FE0F2168460170F7
:1006E000022141700121817001F018FE08BD10B592
:1006F000704801F0EDFD012001F0EDFD7D2040018D
:1007000001F0ECFD01F0EDFD01F0F2FD10BD10B5C2
:10071000002403F098FA0446002C02D0204604F08E
:1007200002F804F0EBF80446002C02D0204604F056
:1007300089F961480088002809D17D2000015E49BF
:10074000088005F001FA05F0B3FB5C4908805C48BD
:100750000078002806D164205949087005F050F946
:1007600004F014F857480078002805D040210920EB
:10077000C00601F074FD04E040210920C00601F02C
:1007800070FD01F0A7F910BD10B5002404F02BFE98
:1007900010234DA20221002004F00CFF10234FA2D1
:1007A0000421002004F006FF00BF3FE003212046A3
:1007B00005F0D4FB00290DD110210920C00601F05D
:1007C00050FD322003F027FA10210920C00601F065
:1007D00046FD26E00321204605F0C0FB01290DD18E
:1007E00020210920C00601F03CFD322003F013FA5D
:1007F00020210920C00601F032FD12E0032120462D
:1008000005F0ACFB02290CD180210920C00601F0C3
:1008100028FD322003F0FFF980210920C00601F0F5
:100820001EFD1E2003F0F7F9601CC4B20F2CBDDBC7
:1008300010BDF8B50025002600242D4800882D495C
:10084000884224DC2C4800782C49484328490988F0
:10085000884274DA2848007828494843C830244937
:10086000098888426BDD00BF5BE023480078844242
:1008700048DABA20610061187C22511A204A50548B
:10088000610061187B22511A1D4A505447E062E012
:1008900000040048701700000C000020FFFFFF005C
:1008A00000E000E0003801400501050000040040C0
:1008B0007FBB0000555500000A0000208601002083
:1008C000020000200100002020204155544F2055F7
:1008D00053422056312E3020200000002020205A84
:1008E00065726F2053747564696F202020000000CA
:1008F00004000020A861000091010020881300007E
:10090000200000208220610061187C22511AFE4ADA
:100910005054610061187B22511AFB4A5054601CEC
:10092000C4B2042CA1DBF9480078401CF7490870D8
:1009300008460078042801DD002008700125002DFC
:100940000CD00025F04802238022002100900846A8
:1009500004F07AFE02E00020ED490880ED480078BE
:1009600000287DD1FA20EB490870EB480078002878
:1009700077D1EA4989797D2212018818511005F052
:10098000EDFA3030E649C870E44989797D221201D8
:100990008818642105F0E2FA07460A2105F0DEFA1C
:1009A0003031C8B2DE490871DC4989797D221201F3
:1009B00088180A2105F0D2FA07460A2105F0CEFA76
:1009C0003031C8B2D6494871D44989797D221201A3
:1009D00088180A2105F0C2FA3031C8B2D0498871AE
:1009E0002D20C871CD4908790A2105F0B7FA3030B9
:1009F000CB490872C94908790A2105F0AFFA3031AC
:100A0000C8B2C74948722D208872C449C8780A21E3
:100A100005F0A4FA3030C249C872C049C8780A212A
:100A200005F09CFA3031C8B2BD490873BB498878DB
:100A30000A2105F093FA3030BA490871B74988782D
:100A40000A2105F08BFA3031C8B2B64948713A2014
:100A50008871B24948780A2105F080FA303001E007
:100A6000F6E34DE0AF49C871AC4948780A2105F07A
:100A700075FA3031C8B2AB4908723A204872A749BA
:100A800008780A2105F06AFA3030A6498872A3492D
:100A900008780A2105F062FA3031C8B2A149C8725B
:100AA0005220A149087030208870FF2101310920AF
:100AB000C00601F0BAFB30309B49C8704720C871AE
:100AC000452008724E204872202088724220087308
:100AD0009648007804280CDD4E2088734320C873A4
:100AE00020210920C00601F0BAFB002090490870BF
:100AF00004E04C208C4988734520C8730126F4E338
:100B00008548007801287DD18A480078401C8949B1
:100B1000087008460078142801DD00200870854818
:100B200000780A286FDA844989797D2212018818B1
:100B3000511005F013FA30307949C8707E4989792F
:100B40007D2212018818642105F008FA07460A215F
:100B500005F004FA3031C8B27149087176498979D3
:100B60007D22120188180A2105F0F8F907460A21AA
:100B700005F0F4F93031C8B2694948716E49897994
:100B80007D22120188180A2105F0E8F93031C8B237
:100B9000634988712D20C871674908790A2105F0D9
:100BA000DDF930305E490872634908790A2105F0A1
:100BB000D5F93031C8B25A4948722D2088725E4941
:100BC000C8780A2105F0CAF930305549C8725A4927
:100BD000C8780A2105F0C2F93031C8B2504908730B
:100BE000554988780A2105F0B9F930304D49087126
:100BF000514988780A2105F0B1F93031C8B2494924
:100C0000487101E061E02FE03A2088714A49487854
:100C10000A2105F0A3F930304249C87146494878A5
:100C20000A2105F09BF93031C8B23E4908723A20DA
:100C30004872414908780A2105F090F93030394965
:100C400088723D4908780A2105F088F93031C8B228
:100C50003449C87253203449C87145200872542061
:100C60004872202088722EE034480078012803D191
:100C70005F202C49487126E030480078022803D1D3
:100C80005F20284908721EE02C480078032803D111
:100C90005F202449C87216E028480078042803D150
:100CA0005F201F4988710EE024480078052803D191
:100CB0005F201B49487206E020480078062802D1D0
:100CC0005F201749087301260FE3134800780228B4
:100CD0007DD118480078401C1649087008460078F5
:100CE000142801DD00200870124800780A286FDA05
:100CF000134989797D2212018818511005F02EF9C7
:100D000030300749C8701DE020000020910100200C
:100D10000400002006000020900500206F05002040
:100D2000200100205301002075010020E90100206E
:100D3000EB01002090010020C6010020D801002016
:100D4000CE010020FE4989797D2212018818642194
:100D500005F004F907460A2105F000F93031C8B260
:100D6000F8490871F64989797D22120188180A210B
:100D700005F0F4F807460A2105F0F0F83031C8B262
:100D8000F0494871EE4989797D22120188180A21BB
:100D900005F0E4F83031C8B2EA4988712D20C871F5
:100DA000E74908790A2105F0D9F83030E549087299
:100DB000E34908790A2105F0D1F83031C8B2E14998
:100DC00048722D208872DE49C8780A2101E080E04F
:100DD0004EE005F0C3F83030DA49C872D849C87817
:100DE0000A2105F0BBF83031C8B2D6490873D4499E
:100DF00088780A2105F0B2F83030D3490871D0491B
:100E000088780A2105F0AAF83031C8B2CE49487175
:100E10003A208871CA4948780A2105F09FF8303095
:100E2000C949C871C64948780A2105F097F8303198
:100E3000C8B2C54908723A204872C14908780A21E7
:100E400005F08CF83030C0498872BD4908780A2115
:100E500005F084F83031C8B2BB49C8724120BB49A3
:100E6000C8714C2008724D204872202088722EE0F4
:100E7000B7480078012803D15F20B349487126E0C4
:100E8000B3480078022803D15F20AF4908721EE002
:100E9000AF480078032803D15F20AB49C87216E041
:100EA000AB480078042803D15F20A64988710EE082
:100EB000A7480078052803D15F20A249487206E0C0
:100EC000A3480078062802D15F209E4908730126B6
:100ED0000BE2A04800780A287ED19F4989797D22BB
:100EE00012018818511005F039F830309549C87052
:100EF000994989797D2212018818642105F02EF81C
:100F000007460A2105F02AF83031C8B28D49087128
:100F1000914989797D22120188180A2105F01EF86D
:100F200007460A2105F01AF83031C8B285494871E0
:100F3000894989797D22120188180A2105F00EF865
:100F40003031C8B27F4988712D20C8718249087933
:100F50000A2105F003F830307A4908727E49087991
:100F60000A2104F0FBFF3031C8B2764948722D20C7
:100F700088727949C8780A2104F0F0FF303071494D
:100F8000C8727549C8780A2104F0E8FF3031C8B248
:100F90006C490873704988780A2104F0DFFF30300B
:100FA000694908716C4988780A2104F0D7FF30310B
:100FB000C8B2654948713A208871674948780A2162
:100FC00004F0CCFF30306049C871634948780A2189
:100FD00004F0C4FF303100E017E0C8B25A4908728B
:100FE0003A2048725C4908780A2104F0B7FF303093
:100FF00055498872584908780A2104F0AFFF30310A
:10100000C8B25149C87201266FE1524800780328DE
:101010007ED104F0CDFD0746504905F01EF8504939
:10102000086004F0DDFD07464E4905F016F84E490C
:10103000086052204349C870452008714620487115
:101040003A2088714648006805F0F2F907467D218C
:10105000C90004F06DFF30303A49C8712E20087283
:101060003F48006805F0E4F96421009004F060FF57
:1010700007460A2104F05CFF30313248417238489B
:10108000006805F0D5F90A21009004F051FF0746E9
:101090000A2104F04DFF30312A488172304800683F
:1010A00005F0C6F907460A2104F042FF3031254811
:1010B000C1725620234908735420234908713A20ED
:1010C00048712948006805F0B3F907467D21C90039
:1010D00004F02EFF30301C4988712348006805F069
:1010E000A7F96421009004F023FF07460A2104F0C9
:1010F0001FFF30311448C1712E20134908721A485D
:10110000006805F095F90A21009004F011FF00E055
:1011100035E007460A2104F00BFF30310A484172DE
:101120001148006805F084F907460A2104F000FF21
:1011300030310548817243200349C872034915E0E4
:10114000CE01002020010020530100207501002065
:10115000D8010020900500206F05002000007A448F
:101160008C0100200000C84288010020C871502076
:10117000087255204872202088720126B5E09E48EA
:101180000078042865D152209C4908706F2048706F
:1011900088706D20C8702020087154204871652027
:1011A00088716D20C87170200872652048727220A5
:1011B00088726120C8727420087375204873722089
:1011C00088736520C87354208D4908713A2048718E
:1011D0008C480021415E002903DA2D20884988715E
:1011E00002E02020864988716421864A0020105E32
:1011F00004F09EFE07460A2104F09AFE3031804832
:10120000C1710A217F4A0020105E04F091FE07465A
:101210000A2104F08DFE3031794801722E20784980
:1012200048720A21774A0020105E04F081FE3031B6
:101230007348817243207249C87254207249C87140
:10124000452008724D2048725020887201264CE0DB
:1012500067E069480078052830D156206A4908704F
:101260006A4948790A2104F079FE3030664988706D
:10127000664948790A2104F071FE3031C8B26249EA
:10128000C8704720C871412008724D20487245201F
:101290008872532008735D4908790A2104F05EFEC4
:1012A000303059498873594908790A2104F056FEAB
:1012B0003031C8B25449C873012616E04E48007850
:1012C000062809D14C205049C8714F200872572078
:1012D00048725020887208E047480078082803D0F8
:1012E00045480078092800D10126002E19D042482F
:1012F000007805280CD01023414A0221002004F078
:1013000059F904233D4A0521002004F053F901E076
:1013100000F08AF804233C4A0721002004F04AF92F
:1013200000263B48008800282CD10A203849088034
:1013300038480088002812D137480088401C3649B8
:10134000088008460088FF21F531884215DB01201E
:1013500030490880FF20F5302F4908800DE02E48E5
:101360000088401E2C49088008460088002804DCBC
:1013700000202849088028490880274801882748F4
:1013800001F0F9FD03F02EFCF8BD10B5002819DAC4
:10139000234A03071B0F083B9B089B00D258830777
:1013A000DC0EFF23A3409A438B071B0E8407E40E39
:1013B000A3401A431A4B0407240F083CA408A400B6
:1013C0001A5118E0174A03231B02D21883089B0006
:1013D000D2588307DC0EFF23A3409A438B071B0ED2
:1013E0008407E40EA3401A430E4B032424021B1966
:1013F0008408A4001A5110BD90050020200100208F
:101400005301002086010020750100209C0100206E
:1014100008000020940100209201002000040040F8
:101420001CED00E000E100E038B50024F948C07888
:10143000002811D100BF0DE0E001F74940180090ED
:10144000E01CC3B2A01CC1B28022002004F0FCF852
:10145000601CC4B2052CEFDB38BD17B582B000218B
:10146000039C029B01940093EC4B1B78002B1ED035
:10147000EA4B5B78002B1AD0E84B5B785B1EDB01F4
:10148000E54C1C19E54B1B785B1EDB00E0183F2385
:101490000370401C33230370401C21230370401C45
:1014A0000370401C33230370401C3F230370002152
:1014B0002EE06B465B785B1EDB01D74C1C196B463C
:1014C0001B785B1EDB00E0183F230370401C0029E3
:1014D0000AD10370401C33230370401C0370401C6E
:1014E0003F230370401C08E03F230370401C03703F
:1014F000401C0370401C0370401C3F230370019B81
:10150000002B03D0019C18CC019400934B1CD9B242
:101510009142CEDB05B010BD10B5C148006805F0A2
:1015200049F9082005F070F9BD49086000200968F4
:1015300048600120BA49096808700320B849096861
:1015400048700120B3490870042048700820B3494E
:10155000087002204870AF480278B148006803C89C
:10156000FFF77BFFFFF760FF0120AA49887000208A
:10157000C870087110BDA7494978012906D0022911
:1015800009D003290CD0042914D10EE0022801D07F
:10159000A04948700EE0012801D09E49487009E03A
:1015A000042801D09B49487004E0032801D09949E0
:1015B000487000BF00BF704710B504460120954930
:1015C000C870002088700621022003F0EBFE102373
:1015D00022460221002003F0EDFF10BD10B50246A7
:1015E0000B468F4800684168002400BF0DE0087872
:1015F000904204D14878984201D1012010BD48683A
:10160000002800D04968601CC4B282480078401E9F
:10161000A042ECDC0020F1E770B505460E4608203C
:1016200005F0F2F80446257066707D480068606039
:101630007B48046077480078401C7649087070BD8C
:10164000F1B5002400250027754806680068047875
:101650007348006845780098012806D002280AD00F
:1016600003280ED0042818D111E0681EC5B2012D40
:1016700000DA052511E0681CC5B2052D00DD012545
:101680000BE0601EC4B2012C00DA102405E0601CDF
:10169000C4B2102C00DD012400BF00BF002702E00F
:1016A0007668781CC7B25B480078401EB842F7DC09
:1016B000706805F07FF80020706056480078401E82
:1016C0005449087029462046FFF7A6FFF8BDF0B53B
:1016D00085B004460D4616460020049003905048FD
:1016E0000768002C01D1601CC4B2002D01D1681C18
:1016F000C5B20020049022E03878A04217D1787853
:10170000A84214D104F03EFC0621009004F026FC0F
:10171000C8B2029004F036FC1121009004F01EFCC7
:10172000C8B2324601900299FFF7D1FF0390786862
:10173000002800D07F680498401CC0B2049035484F
:10174000017804988142D7DC012003903470761C24
:101750003570039805B0F0BD70B504460D462D48B0
:101760004078012806D002280AD003280ED0042889
:1017700018D111E0681EC5B2012D00DA052511E06F
:10178000681CC5B2052D00DD01250BE0601EC4B24A
:10179000012C00DA102405E0601CC4B2102C00DD1E
:1017A000012400BF00BF29462046FFF735FF70BD6A
:1017B0007CB500251A48016803C90191009000BF5B
:1017C0001FE068464078401EC00113494118684632
:1017D0000078401EC0000C1800202070641C20708F
:1017E000641C2070641C2070641C2070641C2070B9
:1017F0000198002803D0019903C901910090681C49
:10180000C5B204480078A842DBDC0621022003F0C0
:10181000C9FD7CBD9C01002099050020A20100208B
:101820009801002070B55E48007804F0B4FB5C4875
:101830000078401C5A4908705A48007805285CD145
:10184000594841795648007804F088FB002954D162
:1018500055488078012850D1FFF7AAFF5348006807
:1018600000785349097888422BD150480068407865
:101870004F494978884224D14D4A51781078FFF772
:101880006BFF04F07FFB0646062104F067FBCCB239
:1018900004F078FB0646112104F060FBCDB2444A07
:1018A00021462846FFF713FF3F480079401C3E4978
:1018B0000871084600791D2814DB3EA0FFF77CFE66
:1018C00010E039494878FFF7BBFE384A1268517872
:1018D000364A12681078FFF781FE002802D03AA03D
:1018E000FFF76AFE3048C078002806D12E480278FB
:1018F0002E48006803C8FFF7B0FD70BD70B5002426
:101900002A4805680026002027498870FFF750FF05
:10191000002027490870487000BF0CE000202F49C4
:10192000085500212D488030015580300155803008
:101930000155601C84B2FF2CF0DD04E06E6828467F
:1019400004F038FF3546002DF8D100201749086013
:1019500070BD10B51448C078012804D1FFF7CEFF40
:10196000FFF7DAFD14E000200F498870084640793F
:10197000401C4871084640790F2801DD012048715C
:1019800009484179092003F034FA0120064988709A
:1019900010BD012800DA012003494871704700009A
:1019A000A4010020900500209C0100209801002047
:1019B000A2010020202047414D452057494E4E4569
:1019C0005221212120000000202047414D45204F79
:1019D0005645522021212120202000009905002079
:1019E00010B504460621022003F0DCFC1023224639
:1019F0000221002003F0DEFD10BD70B50446002575
:101A00004D480078072804D0082812D009285FD153
:101A100022E020784F280BD160784B2808D147A0CE
:101A2000FFF7DEFF4D204949487100204249087008
:101A30004EE0207848280ED103250AE0E81E205CFD
:101A40004349485528460830205C42494855681C9F
:101A5000C5B20D2DF2DB3BE020203D4908704870F7
:101A600088704220C870542008712D204871412090
:101A700088714420C87108725220487245208872CB
:101A80005320C8720873202048738873C873314983
:101A900008702078487060788870E078C870207985
:101AA00008713A204871A0798871E079C871607A2C
:101AB0000872A07A48723A208872207BC872607BD4
:101AC0000873E07B4873207C88732020C87300BFB4
:101AD00000BF70BD10B52048007800282AD1FF2033
:101AE0001D4908701D490878C10F0918491049009F
:101AF000411A012905D110210920C00600F0B1FBCF
:101B000004E010210920C00600F0A9FB1449087860
:101B1000C10F091849104900411A012905D1202196
:101B20000920C00600F09DFB04E020210920C0062A
:101B300000F095FB10BD00009005002020204254CD
:101B4000205245534554204F4B2120007501002061
:101B5000530100202001002003000020EA010020A2
:101B6000EB0100200448804704480047FEE7FEE7F9
:101B7000FEE7FEE7FEE7FEE71F030008C1000008DE
:101B800010B50446B548844207D10121401500F044
:101B9000D4FE0021601500F0D0FE10BD10B500226B
:101BA000C268AF4B1A400C7964030B6823438C68FE
:101BB0002343CC6823430C6923434C6923431A43D2
:101BC000C26010BD0021016001718160C1600161CE
:101BD00041617047002904D0826801231A43826062
:101BE00003E0826802231A4382607047002A03D010
:101BF00003690B43036102E003698B430361704790
:101C0000002905D0C2680123DB031A43C26004E047
:101C1000C2680123DB039A43C2607047002905D0E4
:101C2000C26801239B031A43C26004E0C268012317
:101C30009B039A43C2607047002905D0C268012304
:101C4000DB051A43C26004E0C2680123DB059A4346
:101C5000C26070470B0413430362704710B50A4615
:101C60000021C1681F24A4060B46A34319460B4656
:101C700013431946C16010BD002905D0C268012375
:101C80009B051A43C26004E0C26801239B059A4386
:101C9000C2607047002807D0724989680122D205C6
:101CA0001143704A916006E06E4989680122D205AD
:101CB00091436C4A91607047002807D06949896850
:101CC000012292051143674A916006E065498968DF
:101CD000012292059143634A91607047002807D022
:101CE000604989680122120611435E4A916006E04C
:101CF0005C4989680122120691435A4A91607047F3
:101D000010B50B460021846A1C43846200BF0C4658
:101D100014432146416110BD002905D0C26801234A
:101D20005B031A43C26004E0C26801235B039A4369
:101D3000C2607047002905D0C26801231B041A4302
:101D4000C26004E0C26801231B049A43C26070476A
:101D5000002905D0C26801231B031A43C26004E0B6
:101D6000C26801231B039A43C260704730B5014625
:101D70000020002200238C680125ED072C438C6095
:101D800000BF8C68E30FDB07521C0F242403A24220
:101D900001D0002BF5D18C68E40FE407002C01D1B1
:101DA000086C00E0002030BD816810221143816082
:101DB0007047816804221143816070470146086CB6
:101DC00080B27047002904D0C26801231A43C26060
:101DD00003E0C26852085200C2607047C268022322
:101DE0009A43C260C2680A43C2607047002A03D0A7
:101DF00043680B43436002E043688B434360704792
:101E000030B5024600200023012424060C40002C9B
:101E100005D0946801252D06AC43234600E01368E5
:101E20001C460C40002C01D0012000E0002030BDF9
:101E30000160704710B502460020002354680C4032
:101E4000234614680C40002C03D0002B01D0012045
:101E500000E0002010BD0160704700000024014038
:101E600003D2FFFF002701400168584A114001607A
:101E70000021016041608160C1605549884208D1FC
:101E80005349083949680F221143514A083A5160B1
:101E900035E04F491431884208D14D490839496825
:101EA000F02211434A4A083A516028E04849283153
:101EB000884209D14649083949680F221202114364
:101EC000434A083A51601AE041493C31884209D1FD
:101ED0003F49083949680F22120311433C4A083A26
:101EE00051600CE03A495031884208D138490839EC
:101EF00049680F2212041143354A083A516070476D
:101F000010B500220268334B1A400C6A8B682343D9
:101F10000C6923434C6923438C692343CC692343D5
:101F20004C6A23438C6A23431A430260CB684360A4
:101F30000B6883604B68C36010BD00210160416085
:101F40008160C160016141618161C1610162416281
:101F500081627047002904D0026801231A4302609D
:101F600003E00268194B1A400260704741607047F5
:101F70000146486880B27047002A03D003680B43CB
:101F8000036002E003688B43036070470146002052
:101F90000F4A083A12680A40002A01D0012000E0E6
:101FA000002070470A490839486070470146002000
:101FB000074A083A12680A40002A01D0012000E0CE
:101FC000002070470249083948607047FEFF000052
:101FD000080002400F80FFFF3E483F490860002094
:101FE00048608860C8603D484861704700213A49B0
:101FF0008279002A35D00A46126803689A430B4654
:102000001A600A46526803689A430B465A6002797E
:1020100051180A6803681A430A602F4A92680368D5
:102020009A432D4B9A601A46D26803689A432A4B0A
:10203000DA604279102A0CD11A46926803681A4372
:10204000254B9A601A46D26803681A43224BDA601D
:102050000DE02149427951180A6803681A430A6061
:1020600005E0027951180A6803689A430A607047CC
:102070000021016001710C214171002181717047C3
:10208000154909690143144A11617047014600204E
:10209000114A52690A40002A01D0012000E00020C4
:1020A00070470D49486170470146002000220A4BE5
:1020B0001B680B401A46084B5B690B40002B03D092
:1020C000002A01D0012000E0002070470249486149
:1020D000704700000000940F00040140FFFF6B00F8
:1020E00010B504460920C006844209D101214804E4
:1020F00000F015FC00210120400400F010FC30E04D
:102100006E48844208D10121000200F008FC002141
:10211000200200F004FC24E06948844208D1012137
:10212000000200F0FCFB0021200200F0F8FB18E0A8
:102130006448844209D10121080500F0F0FB002128
:102140000120000500F0EBFB0BE05F48844208D162
:102150000121880500F0E3FB00210120800500F04B
:10216000DEFB10BDF0B50A4600210023002400BFAD
:102170003DE001258D402B4615681D402C469C42B4
:1021800034D11579012D02D01579022D16D185682B
:102190004F000326BE40B543856055794E00B540DB
:1021A000866835438560858801268E40B5438580E5
:1021B000858896798E40B6B23543858005684F0094
:1021C0000326BE40B543056015794E00B54006684C
:1021D00035430560C5684F000326BE40B543C56062
:1021E000D5794E00B540C6683543C560491C1029F5
:1021F000BFD3F0BD35490160002101710221417159
:1022000000218171C171704708B50122120400924A
:10221000009A0A430092009AC261C161009AC261A9
:10222000C2690092C269009208BD02460020138A6A
:102230000B40002B01D0012000E000207047014638
:10224000088A704702460020938A0B40002B01D079
:10225000012000E0002070470146888A70478161B4
:10226000704701857047002A01D0816100E0018537
:10227000704781827047F0B5002300244D07EE0EB1
:102280001546B5402B46CD10AE0005462035AD595C
:102290004E07F70E0F26BE40B543CE10B6000746D8
:1022A0002037BD51CD10AE003D46AD591D432C46E3
:1022B000CD10AD003E467451F0BD00000004004852
:1022C00000080048000C004800140048FFFF000010
:1022D0000F49086070470E49486070470C49886094
:1022E00070470C480A4908607047094908617047FF
:1022F000094807490860704701460020044AD2682F
:102300000A40002A01D0012000E0002070470000B0
:1023100000300040AAAA0000CCCC00000021827846
:10232000002A27D0274A03231B02D21803789B10C8
:102330009B00D15802789207D30EFF229A400B4699
:102340009343194642789207120E03789B07DB0EDF
:102350009A4011431B4A03231B02D21803789B1097
:102360009B00D1500278D306DB0E01229A40154B18
:102370001A6007E00278D306DB0E01229A40114B67
:1023800080331A607047002905D00F4A1269024352
:102390000D4B1A6104E00C4A126982430A4B1A6120
:1023A0007047042806D10949096904221143074AE4
:1023B000116105E00549096904229143034A11614D
:1023C0007047000000E100E000ED00E000E000E008
:1023D000FD48006801210843FB4908600846406841
:1023E000FA490840F849486008460068F84908403A
:1023F000F549086008460068012189048843F249CC
:102400000860084640683F2109048843EE49486057
:102410000846C06A00090001C8620846006BFF2137
:1024200054318843E84908630846406B400840003F
:1024300048630020886070470021E34A917011468C
:102440008870704710B5024600210023002051110A
:10245000002902D1DC4C23680BE0012902D1DA4CBF
:10246000236A06E0022902D1D74C636A01E0D64C08
:10247000636BD106C90E01248C401C40002C01D096
:10248000012000E0002010BD38B50020009000249D
:10249000002500BF1120FFF7D5FF05460098401C1E
:1024A0000090052109020098884201D0002DF1D04A
:1024B0001120FFF7C7FF002801D0012400E000240D
:1024C000204638BD01460020BF4A1068F823024666
:1024D0009A431046CA001043BB4A10607047002858
:1024E00006D0B949096801221143B74A116005E0D5
:1024F000B549096849084900B34A11607047014667
:102500000020B14A506BF82302469A431046CA0095
:102510001043AD4A50637047002806D0AA49496B62
:1025200001221143A84A516305E0A749496B4908B4
:102530004900A54A51637047002806D0A249496B5B
:1025400004229143A04A516305E09F49496B04224C
:1025500011439D4A516370479B49096A49084900E4
:10256000994A11621146096A04229143964A1162FE
:102570001146096A0143116270479349096A18229A
:102580009143914A11621146096A014311627047F1
:10259000002806D08C49496A012211438A4A5162B7
:1025A00005E08949496A49084900874A51627047EC
:1025B000854A52683D231B049A43834B5A601A464E
:1025C000526803460B431A437F4B5A6070470028FA
:1025D00007D07D4909680122120611437A4A116029
:1025E00006E079490968012212069143764A116092
:1025F000704701460020744AD06A00090001024673
:102600000A431046704AD0627047002807D06E49CE
:1026100009680122D20411436B4A116006E06A493D
:1026200009680122D2049143674A116070476649E4
:10263000C871704701460020634A506880088000D6
:1026400002460A431046604A506070475E48406840
:102650000C2108407047014600205B4A5068F02377
:1026600002469A43104602460A431046564A5060B4
:10267000704701460020544A506807231B02024657
:102680009A43104602460A4310464F4A506070472C
:102690004D4949680122920391434B4A51601146CA
:1026A000496882B21143484A51601146096B92153C
:1026B0009143454A11631146096B020C1143424A8A
:1026C000116370474049096B402291433E4A1163B0
:1026D0001146096B0143116370473B49096B102296
:1026E0009143394A11631146096B014311637047E5
:1026F0003549096B89088900334A11631146096B12
:10270000014311637047FEB50446002500260020F2
:102710000190009000272C4840680C210840054695
:10272000002D04D0042D05D0082D28D105E029481E
:10273000206027E02748206024E0234840680F21DC
:1027400089040840064620484068012109040840E1
:102750000190B00C861C0198002803D11E487043DC
:1027600020600BE01848C06A0007000F401C009072
:102770001848009903F0DCFB7043206002E0154824
:10278000206000BF00BF10484068F02108400546A7
:102790002D091248475D2068F84060600A4840688B
:1027A00007210902084005462D0A0C48475D60686C
:1027B000F840A0600448006BFF21013108408842C6
:1027C00010D00748E0601BE0001002400CB8FFF892
:1027D000FFFFF6FE00127A0000093D00A50100206F
:1027E000809FD500754840680121890308408842D0
:1027F00003D0A0684008E06002E0A0688008E060C4
:102800006E48006B40210840402802D06C4820618F
:1028100002E00120C00320616848006B10210840DD
:10282000102802D06748606101E020686061634859
:10283000006B8007800F002802D1A068A06119E01A
:102840005E48006B8007800F012802D12068A061DC
:1028500010E05A48006B8007800F022802D18003E5
:10286000A06107E05548006B8007800F032801D165
:102870005448A061FEBD5149096A01434F4A1162A3
:102880007047002807D04D49096A0122D20311433D
:102890004A4A116206E04949096A0122D20391437A
:1028A000464A11627047002807D04449096A01224C
:1028B00012041143414A116206E04049096A0122AB
:1028C000120491433D4A11627047002905D03B4AEA
:1028D00052690243394B5A6104E0384A52698243D3
:1028E000364B5A617047002905D0344A9269024339
:1028F000324B9A6104E0314A926982432F4B9A61CC
:102900007047002905D02D4AD26902432B4BDA616A
:1029100004E02A4AD2698243284BDA6170470029D1
:1029200005D0264A926A0243244B9A6204E0234A65
:10293000926A8243214B9A627047002905D01F4A50
:10294000D26802431D4BDA6004E01C4AD26882431D
:102950001A4BDA607047002905D0184A1269024301
:10296000164B1A6104E0154A12698243134B1A612F
:102970007047002905D0114A527A02430F4B5A7210
:1029800004E00E4A527A82430C4B5A7270470B484D
:10299000406A012109060843084948627047014618
:1029A0000020064A92680A40002A01D0012000E077
:1029B00000207047014988727047000000100240F3
:1029C0001280000000127A003A4800688007800FE9
:1029D000384908600020886000213648C1600161E4
:1029E00041618069FF2101310843324988617047A4
:1029F000014600202F4A10688008800002460A43E2
:102A000010462C4A10607047002905D0294A1268E8
:102A10000243284B1A6004E0264A12688243254B81
:102A20001A607047002905D0224A12680243214BE0
:102A30001A6004E01F4A126882431E4B1A607047F6
:102A400030B500228B071C0F0F23A3401A46194BE9
:102A500008338C10A4001B599343164C08348D1076
:102A6000AD00635123468C10A4001B598C07250F21
:102A70000446AC4023430F4C08348D10AD00635125
:102A800030BD0C49896901430A4A9161704701468A
:102A90000020084A9269FF2301331A40002A01D01E
:102AA000012000E000207047024989690143014A82
:102AB000916170470000014010B50446FE48844211
:102AC00008D10121C014FFF738FF0021E014FFF7FF
:102AD00034FF56E001208007844208D101210846D6
:102AE000FFF739FF00210120FFF735FF49E0F348E8
:102AF000844208D101210220FFF72DFF002102208E
:102B0000FFF729FF3DE0EE48844208D10121102063
:102B1000FFF721FF00211020FFF71DFF31E0E948FA
:102B2000844208D101218015FFF715FF0021A0156F
:102B3000FFF711FF25E0E448844209D10121080490
:102B4000FFF7FBFE002101200004FFF7F6FE18E06E
:102B5000DE48844209D101214804FFF7EEFE00213E
:102B600001204004FFF7E9FE0BE0D948844208D178
:102B700001218804FFF7E1FE002101208004FFF716
:102B8000DCFE10BD00220288CB4B984206D0012308
:102B90009B07984202D0C94B984203D1CD4B1A40B3
:102BA0004B881A43C64B984203D0CB4B1A400B8933
:102BB0001A4302804B68C3620B880385BE4B984260
:102BC00008D0C14B984205D0C04B984202D0C04BB0
:102BD000984201D18B7A03860123838270470021BA
:102BE000C9434160002101800181418081727047A9
:102BF0000185828270470A4600210188B54B194041
:102C00000B46134319460180704741627047C16209
:102C100070470146486A70470146088D7047002991
:102C200004D0028802231A43028004E00288A94BE0
:102C30006E331A4002807047002904D002880423B2
:102C40001A43028004E00288A24B6C331A400280CF
:102C50007047002904D0028880231A43028004E0D0
:102C600002889C4B103B1A40028070470288994BA7
:102C700068331A40028002880A4302807047028843
:102C8000954B1A40028002880A430280704700294F
:102C900004D0028801231A43028004E002888D4B8D
:102CA0006F331A40028070470A884B881A438B881A
:102CB0001A43CB881A430B891A434B891A438B89D1
:102CC0001A4344231A5270470021018041808180B9
:102CD000C1800181418181817047002907D0442250
:102CE000125A0123DB031A4344231A5205E04422FB
:102CF000125A53045B0C44221352704770B50024DF
:102D000000220023058C734E6F3635400584028CFB
:102D10008388048B6F4D2C40B51E2C400D882C43AE
:102D2000751E2A408D892A434D882A43624DA84248
:102D300008D0654DA84205D0644DA84202D0644D2C
:102D4000A84212D1634D68352A40CD892A43614D8E
:102D50006C352A408D882A435E4D903D2B405F4D57
:102D60002B400D8A2B434D8A2B43838004838D682F
:102D70004563028470BD70B5002400220023058CD9
:102D8000544E603635400584028C8388048B544D44
:102D90002C40514D2C400D782D062D0C2C434D4DC3
:102DA00050352A408D892D052D0C2A434D882D053F
:102DB0002D0C2A43404DA84219D1464D103D2A40C2
:102DC000CD892D052D0C2A43424D30352A408D8862
:102DD0002D052D0C2A43434D2B40434D2B400D8A8E
:102DE000AD042D0C2B434D8AAD042D0C2B43838059
:102DF00004838D688563028470BD70B50024002251
:102E00000023058C334E903E35400584028C838828
:102E1000848B304D2C402F4D6D352C400D882C432C
:102E20002E4D2A400D7B2D062D0C2A438D782D0624
:102E30002D0C2A43204DA84217D12B4D2A408D7BC3
:102E40002D062D0C2A43274D2A400D792D062D0CD9
:102E50002A43264D2B40264D2B400D8A2D052D0C47
:102E60002B434D8A2D052D0C2B43838084838D6845
:102E7000C563028470BD70B5002200230024058C58
:102E80001A4E35400584038C8488828B144D2A4069
:102E9000114D2A400D782D062D0C2A43144D2B4040
:102EA0000D7B2D072D0C2B438D782D072D0C2B43DF
:102EB000014DA84224D11DE0002C01400004004037
:102EC000001000400020004000400140004401404C
:102ED000004801408FFF0000FFFC0000FFFD0000E4
:102EE000FF8F0000FFFB0000FFF70000FFEF000076
:102EF000FFDF0000FC4D2C400D8AAD052D0C2C434E
:102F0000848082838D680564038470BD0021018004
:102F10004180818081608181C181018241827047CD
:102F200070B50346002000241846183001258D4056
:102F3000ACB21D8CA5431D84002901D0082909D1FC
:102F40004D10281805687026B543056005681543BF
:102F500005600DE00D1F2D046D0C2818056807266F
:102F60003603B543056005681606360C3543056023
:102F700070BD4163704781637047C16370470164EE
:102F800070470A460021018BD84B19400B4613436A
:102F90001946018370470A460021018BD44B194022
:102FA00013061B0C1943018370470A460021818BCD
:102FB000CE4B19400B4613431946818370470A468E
:102FC0000021818BCA4B194013061B0C19438183C6
:102FD0007047002904D0828801231A43828004E0CC
:102FE0008288C24B6F331A40828070470A460021A4
:102FF000018BBE4B683319400B46134319460183BE
:1030000070470A460021018BBA4B194013061B0C6E
:103010001943018370470A460021818BB34B683303
:1030200019400B4613431946818370470A46002115
:10303000818BB04B194013061B0C194381837047D9
:103040000A460021018BA94B6C3319400B461343F0
:103050001946018370470A460021018BA64B19408F
:1030600013061B0C1943018370470A460021818B0C
:103070009E4B6C3319400B461343194681837047AE
:103080000A460021818B9C4B194013061B0C1943E7
:10309000818370470A460021018B944B103B1940F5
:1030A0000B4613431946018370470A460021018BE2
:1030B0004904490C13061B0C1943018370470A4647
:1030C0000021818B894B103B19400B461343194655
:1030D000818370470A460021818B4904490C1306FD
:1030E0001B0C1943818370470A460021018C7F4BDA
:1030F0006E3319400B4613431946018470470A4644
:103100000021018C794B683319400B461343194653
:10311000018470470A460021018C744B50331940DA
:1031200013051B0C1943018470470A460021018CCA
:103130006E4B103B194013051B0C1943018470475B
:103140000A460021018C6D4B194013061B0C1943D4
:10315000018470470A460021018C664B1940130612
:103160001B0C1943018470470A460021018C644BF3
:10317000194013071B0C19430184704702895B4BEC
:1031800068331A40028102890A430281704730B5D0
:10319000002301248C40A3B2048C9C430484048C3F
:1031A00015468D40ADB22C43048430BD30B50023AC
:1031B00004248C40A3B2048C9C430484048C1546E4
:1031C0008D40ADB22C43048430BD002904D08288E8
:1031D00004231A43828004E08288444B6C331A40F3
:1031E00082807047828B474B1A408283828B0B060A
:1031F0001B0C1A4382837047F8B50C46002100254A
:1032000000260096068C404F3E400684818B058C3C
:103210002607360C00963D4E31401606360C3143DB
:103220001E07360C31433A4E354001273F03009EBE
:103230003E43354381830584F8BD828B2B4B643339
:103240001A408283828B0A4382837047F8B50C460A
:103250000021002500260096068C244F903F3E401A
:103260000684818B058C2606360C00961F4E833E05
:1032700031401E05360C16433143264E3540FF279C
:103280000137009E3E43354381830584F8BD028BA0
:103290001C4B1A400283028B0B061B0C1A43028341
:1032A0007047F8B50C460021002500260096068CD4
:1032B0000E4F60373E400684018B058C2605360C88
:1032C0000096124E31401E07360C31431606360C5E
:1032D0003143064E303E35401027009E3E43354375
:1032E00001830584F8BD0000FFBF00008FFF0000D0
:1032F000FF8F0000FFF70000FFFB0000FFFD000054
:10330000FFDF0000FFF30000FFEF0000FF0C0000F4
:10331000FF5F0000FFF50000028BD84B1A400283CC
:10332000028B0A4302837047F0B50C46002100254A
:10333000068CD24F0B373E400684018B058CCF4E56
:10334000E73E31401E05360C16433143CB4EB61CCA
:10335000354001262643354301830584F0BD70B511
:1033600005460C46208800280AD12389A288618856
:103370002846FFF7D9FFE1882846FFF7CDFF25E073
:10338000208804280AD12389A28861882846FFF76B
:1033900088FFE1882846FFF77AFF17E02088082891
:1033A0000AD12389A28861882846FFF74FFFE18868
:1033B0002846FFF742FF09E02389A2886188284652
:1033C000FFF71AFFE1882846FFF70CFF70BD0021C8
:1033D00001804180012181800021C18001817047ED
:1033E000F8B505460C46002601276088002801D163
:1033F000022600E00026A088012801D1022700E073
:1034000001272088002814D12389A28861882846B2
:10341000FFF78AFFE1882846FFF77EFF23893A46B7
:1034200031462846FFF73DFFE1882846FFF72FFF8A
:1034300013E02389A28861882846FFF732FFE188DC
:103440002846FFF724FF23893A4631462846FFF7EE
:103450006BFFE1882846FFF75FFFF8BD0146486B28
:1034600070470146886B70470146C86B704701463C
:10347000086C7047002A03D083890B43838102E0E4
:1034800083898B4383817047818270470246002085
:10349000138A0B40002B01D0012000E00020704770
:1034A000CA430282704730B5024600200023002440
:1034B000158A0D402B4695890D402C46002B03D0D4
:1034C000002C01D0012000E0002030BDCA43028260
:1034D000704710B50B4613434824235210BD002AF1
:1034E00003D083890B43838102E083898B438381EB
:1034F0007047002904D0828808231A43828004E0A0
:1035000082885E4B1B1D1A408280704701895B4A8E
:10351000521D1140018170470A4600210189574B15
:10352000643B19400B46134319460181704730B57F
:1035300004460D4629462046FFF7EEFF2089072165
:103540000843208130BDF8B504460D4616461F4697
:10355000602D06D13B46012231462046FFF7A1FEF1
:1035600005E03B46012231462046FFF7DDFE2946B5
:103570002046FFF7D1FF2089072108432081F8BDAD
:1035800030B50C4600210189C9B21D062D0C15432A
:1035900025432943018130BDFFB505460E46174638
:1035A00000243A4631462846039BFFF7E9FF2C8961
:1035B0003248401D0440072004433048643804402A
:1035C000702004432C81FFBDF0B504460D4616461D
:1035D0001F463B46324629462046FFF7D1FF208949
:1035E0000121890308432081F0BD8288234B643B7D
:1035F0001A40828082880A438280704702891F4B6A
:103600005B1D1A40028102890A43028170470289C8
:103610001A4B743B1A40028102890A4302817047A7
:10362000F0B50C460021002500260189058B068C8B
:10363000124F7F1D39400F4627433946104F3D40FA
:10364000FF2702373D430D4F9E3F3E401F053F0C75
:1036500017433E43018105830684F0BD002904D051
:10366000828880231A43828004E08288034B743B63
:103670001A4082807047502211527047F3FF0000B9
:10368000FCFC000010B50446F748844209D1012132
:103690008803FFF752F9002101208003FFF74DF95D
:1036A0000BE0F248844208D101214804FFF753F9A6
:1036B000002101204004FFF74EF910BDF0B589B09C
:1036C00005460E4600240020089000BF00BF286871
:1036D0004008400028606C680321090320468843A5
:1036E0000446B06804436C602C68E1480440F1680B
:1036F000706808433169084304432C60AC680321B7
:10370000090220468843044670690443AC60684659
:10371000FEF7F9FFD448854202D10698089001E0EF
:103720000298089028680121C9030840002809D0A0
:10373000326851001923089A5A43104602F0F8FBE8
:10374000074608E0326891001923089A5A43104648
:1037500002F0EEFB07466421384602F0E9FB040163
:10376000200964214843381A079028680121C903B9
:10377000084000280AD00799C90008463230642161
:1037800002F0D6FB4007400F044309E00799090106
:1037900008463230642102F0CBFB0007000F0443DF
:1037A000AC8109B0F0BD4B21C9010160002141602D
:1037B0008160C1600C21016100214161704710B539
:1037C000002242680F2424021346A3431A464C6881
:1037D0000B6823438C682343CC6823431A4342601D
:1037E00010BD0021016041608160C1607047002907
:1037F00004D0026801231A43026003E00268520801
:10380000520002607047002A03D003680B43036034
:1038100002E003688B4303607047002905D002680B
:103820000123DB031A43026004E002680123DB0387
:103830009A4302607047002905D082680123DB02A9
:103840001A43826004E082680123DB029A438260AB
:103850007047002905D042680123DB041A43426007
:1038600004E042680123DB049A4342607047002968
:1038700005D0426801239B041A43426004E0426879
:1038800001239B049A4342607047002A03D0436897
:103890000B43436002E043688B4343607047002959
:1038A00005D042680123DB031A43426004E042680A
:1038B0000123DB039A4342607047002905D0426828
:1038C0000123DB051A43426004E042680123DB0563
:1038D0009A43426070474269120E12064261426981
:1038E0000A4342617047028AFF231B021A40028288
:1038F000028A0A4302827047002904D00268022328
:103900001A43026003E0026802239A430260704790
:10391000826803231B059A43826082680A4382609F
:103920007047002905D0426801231B051A434260F5
:1039300004E0426801231B059A43426070474268D5
:1039400003235B059A43426042680A434260704722
:10395000C1690122D2039143C1617047CA05D20DEA
:10396000028570470146888CC005C00D70474268CB
:103970001202120A426042680B061A434260704704
:10398000002905D0026801235B031A43026004E0AA
:10399000026801235B039A430260704702680123B7
:1039A000DB029A43026002680A4302607047426881
:1039B00010239A43426042680A434260704742685B
:1039C00020239A43426042680A43426070470029BC
:1039D00005D0426801239B031A43426004E0426819
:1039E00001239B039A4342607047002904D08268F8
:1039F00008231A43826003E0826808239A438260A6
:103A00007047028AD2B20282028A0B021A430282F1
:103A10007047002904D0826820231A43826003E0A3
:103A2000826820239A4382607047002904D082680C
:103A300010231A43826003E0826810239A43826055
:103A40007047826807235B049A43826082684B0454
:103A50001A438260704742691202120A4261426947
:103A60000B061A4342617047003801400044004091
:103A7000F3E9FFFF826804239A43826082680A4365
:103A800082607047002904D0826802231A43826052
:103A900003E0826802239A4382607047002905D0C0
:103AA000826801239B031A43826004E08268012339
:103AB0009B039A438260704782680123DB039A4329
:103AC000826082680A438260704702681F235B0538
:103AD0009A43026002684B051A430260704702680D
:103AE0001F231B049A43026002680B041A430260FE
:103AF0007047002A03D083680B43836002E0836829
:103B00008B4383607047826801235B039A43826022
:103B100082680A4382607047F8B503460024002695
:103B200000960025002018460E04340ECEB20096F2
:103B30000127009EB7403D46022C01D1001D02E046
:103B4000032C00D10830002A03D006682E430660FB
:103B500002E00668AE430660F8BD002A03D0038B7E
:103B60000B43038302E0038B8B430383704782681C
:103B700001231B039A43826082680A438260704774
:103B800002460020D3690B40002B01D0012000E049
:103B9000002070470162704770B502460B46002452
:103BA0000021002500201E04350ED9B201268E40CA
:103BB0003146012D02D11668314006E0022D02D1B6
:103BC0005668314001E0966831401C0C0126A64041
:103BD0003446D6693440002903D0002C01D001209E
:103BE00000E0002070BD10B5002300220B0C012462
:103BF0009C402246026210BD002106E00A2100BF5F
:103C00000A464B1E99B2002AFAD10246431E98B2C8
:103C1000002AF3D17047002106E0064900BF0A469A
:103C20004B1E99B2002AFAD10246431E98B2002ACE
:103C3000F3D17047E02E0000002101E04A1CD1B210
:103C40008142FBDB704730B5002500230024FE488D
:103C50000078002838D10220FB49087000BF31E00D
:103C60000920C006808AF94908400446F848C05C2B
:103C700020430921C90688823C20FFF7DDFFF54873
:103C8000008A8407A40F5800F349085AA04211D1B2
:103C9000F248C05C0F2804DAF048C05C401CEF49D1
:103CA000C854EE48C05C05280AD10125E043EC4920
:103CB000C85405E00020E949C8545800E6490C52B0
:103CC000581CC3B2032BCBDB284630BD10B50446CD
:103CD0002046E10F091849104900611A0AD1FF2155
:103CE00001310920C006FEF7BCFA3020DD4988709A
:103CF000C8700AE0FF2101310920C006FEF7AFFAC3
:103D00003020D84988703120C87010BD10B50446E5
:103D1000002C45D10021D448FDF75CFF0021012093
:103D20004002FEF7E0FDD048FDF72AFF0021CF4812
:103D3000FEF710F900210120FEF7C7FDCB48FEF782
:103D400093F8CB48FFF79EFC0021C948FFF74FFDD1
:103D5000002101208003FEF7C6FD0021C548FEF7C3
:103D600096FF002101208007FEF791FFC148FEF772
:103D7000A3FE0021BF48FEF7B0FF0920C006808ADD
:103D8000B022104301460920C006FEF772FA01F086
:103D9000FBFA0020FFF79AFF0120B749087015E0F1
:103DA000002101200007FEF7ACFDFCF74DFBFCF7FE
:103DB000D8FBFCF7F4FB01F0C1FEFCF77CFC01F042
:103DC000D5FA0020AC490870AC49087010BD10B598
:103DD000AA480078012808D10020A9490870A749FD
:103DE00008704D209F4948713AE0A54800780028A6
:103DF00024D0A3480078052802D1FDF77FFD06E016
:103E00009F480078062802D10120FFF77FFF01F0CC
:103E1000EAFA00209A49087020209A4908704870F0
:103E20008870C870087348738873C873964908709F
:103E30004870887048738873C87311E08E49087899
:103E4000C10F091849104900411A02D101F09CFA2A
:103E500001E001F08BFA88480078401C8649087020
:103E600010BD10B58548007801287CD187480078BE
:103E7000401E8649087008460078012801DA0A20A9
:103E8000087082480078030002F076FC0B6C071182
:103E90001B252F39434D57626C0047207149C8716B
:103EA000452008724E204872202088725AE0532024
:103EB0006C49C871452008725420487220208872CD
:103EC00050E041206749C8714C2008724D2048726B
:103ED0002020887246E043206249C8715020087251
:103EE00055204872202088723CE054205D49C871FA
:103EF000452008724D2048725020887232E04720D9
:103F00005849C871412008724D2048724520887276
:103F100028E04C205349C8714F200872572048723E
:103F2000502088721EE042204E49C8715420087209
:103F3000522048725320887214E042204949C871C7
:103F40005420087256204872452088720AE00AE020
:103F500042204449C87154200872412048724420CC
:103F6000887200BFF0E046480078012858D14848E0
:103F70000078030002F000FC075305111D293743A8
:103F8000530044488078401C424988700846807835
:103F9000172801DD0020887041E03E484078401C31
:103FA0003C494870084640783B2801DD00204870B5
:103FB00035E038480078401C3649087008460078DB
:103FC0003B2801DD0020087029E032488079401C40
:103FD00030498871084680792F49884202DD3320B4
:103FE0002C4988711BE02B480079401C2949087135
:103FF000084600790C2801DD012008710FE02548F2
:10400000C078401C2349C8700846C0780979234A03
:10401000515C884202DD01201E49C87000BF93E058
:1040200017480078022876D119480078030002F07A
:10403000A3FB078305404C586673830018488078BB
:10404000401C174988702DE000000020F0FF0000A0
:10405000C301002000040048DE010020DB01002035
:10406000BA01002075010020002401400800024030
:104070000038014000040040DA010020D701002090
:10408000900500205301002020010020D6010020CF
:10409000D8010020C6010020330800007468000821
:1040A000CE01002008468078172801DD00208870A6
:1040B00042E0FA484078401CF84948700846407889
:1040C0003B2801DD0020487036E0F4480078401CB1
:1040D000F2490870084600783B2801DD002008708E
:1040E0002AE0EE488079401CEC49887108468079C6
:1040F000EB49884202DD3320E84988711CE0E7483B
:104100000079401CE5490871084600790C2801DD5A
:104110000120087110E010E0E048C078401CDF4941
:10412000C8700846C0780979DE4A515C884202DDD1
:104130000120DA49C87000BF06E0DB480078052896
:1041400002D10220FDF717FA10BD70B50024C51882
:1041500000BF05E02E780E706D1C491C661CF4B281
:104160009442F7DB70BD10B5D0480078012871D1BA
:10417000CF480078401ECC4908700020CB49087019
:104180000120CC490870C8480078012809D10023D3
:104190000822C949C948FFF7D8FF4D20C8494871CE
:1041A00073E0C1480078022809D100230822BB49E6
:1041B000C248FFF7CAFF4D20C149487165E0BA48BF
:1041C0000078002803D14D20BD4948715DE0B64814
:1041D0000078032803D14D20B949487155E0B24811
:1041E0000078042803D14D20B54948714DE0AE4810
:1041F0000078052805D14D20B1494871FDF78CF9AB
:1042000043E0A9480078062806D14D20AC49487102
:104210000020FFF77BFD38E0A3480078072802D193
:1042200000F0BFFC31E0A0480078082806D14D20FE
:10423000A3494871012000F0BBFC26E09A480078B1
:10424000092822D14D209E494871022000F0B0FC7F
:104250001BE0FFE794480078012803D092480078DB
:1042600002280BD193480078401C924908700846F8
:104270000078042809DD0120087006E08A480078EB
:10428000052802D10420FDF776F910BD10B50822EB
:104290008249002000F023FE10BDF0B587B0002059
:1042A00006908248007801287FD07F480078002857
:1042B00003D07D48007803280BD101207B4908708A
:1042C0007B49087053207E4948710A20764908705E
:1042D0006BE075480078012854D1774880790690C2
:1042E000754948780A2101F039FE0701724948787A
:1042F0000A2101F033FE0F43FCB26F4988780A218E
:1043000001F02CFE07016C4988780A2101F026FE95
:104310000F43FDB26849C8780A2101F01FFE07016A
:104320006549C8780A2101F019FE0F43FEB26249BF
:1043300008790A2101F012FE07015F4908790A2174
:1043400001F00CFE0F43F8B20A210590069801F027
:1043500005FE07010A21069801F000FE0F43F8B29E
:104360000490002001902B4632460094029005995B
:10437000049801F01BFBC8205249087000204A49EC
:10438000087012E048480078022808D1FFF77EFF45
:10439000C8204C49087000204349087005E0424895
:1043A0000078052801D1FDF7D4FA07B0F0BD10B5AB
:1043B0003E480078012870D13D480078401C3C49B7
:1043C0000870084600780A2801DD01200870384886
:1043D0000078030002F0D0F90B8207111B252F395A
:1043E000434D5778820047203549C87145200872EF
:1043F0004E2048722020887270E053203049C871E6
:1044000045200872542048722020887266E04120BE
:104410002B49C8714C2008724D20487220208872A8
:104420005CE043202649C87150200872552048722C
:104430002020887252E054202149C871452008721A
:104440004D2048725020887248E047201C49C871AE
:10445000412008724D204872452088723EE04C2071
:104460001749C8714F20087257204872502088722F
:1044700034E042201249C871542008725220487218
:10448000532088722AE042200D49C87154200872D6
:10449000562048724520887220E020E0CE0100209E
:1044A000330800007468000890050020D701002040
:1044B000D6010020D8010020C60100206F05002091
:1044C00075010020010000204220D349C87154200A
:1044D0000872412048724420887200BFC4E0CF486F
:1044E000007801285AD1CE480078030002F044F940
:1044F000075505111D2938445500CA488078401ECB
:10450000C849887008468078FF2801D11720887034
:1045100043E0C4484078401EC2494870084640788D
:10452000FF2801D13B20487037E0BE480078401E8C
:10453000BC49087008460078FF2801D13B2008706C
:104540002BE0B8488079401EB649887108468079CA
:104550007D210901884202DAD020B24988711CE02D
:10456000B0480079401EAF4908710846007901281B
:1045700001DA0C20087110E0AA48C078401EA94951
:10458000C8700846C078012806DA08460079401E3F
:10459000A549085CA349C87000BF65E09F48007842
:1045A00002285AD19E480078030002F0E5F807552A
:1045B00005111D29384455009C484078401E9B49F0
:1045C000487008464078FF2801D11720487043E022
:1045D00096484078401E9549487008464078FF2824
:1045E00001D13B20487037E090480078401E8F4949
:1045F000087008460078FF2801D13B2008702BE0A6
:104600008A488079401E89498871084680797D21D1
:104610000901884202DAD020844988711CE083486D
:104620000079401E8149087108460079012801DAA5
:104630000C20087110E07D48C078401E7B49C8708E
:104640000846C078012806DA08460079401E7649F7
:10465000085C7649C87000BF06E0704800780528FD
:1046600002D10120FCF787FF10BD10B5704800781B
:1046700001280AD06A480078401E69490870084637
:104680000078012801DA06200870644800780028C4
:1046900003D062480078032818D166480078401C8F
:1046A0006449087008460078FFF710FB61480478F9
:1046B000E00F001940104000201A01D0012000E056
:1046C00000200146082000F094FB06E053480078E3
:1046D000052802D10320FCF74EFF10BD10B504469B
:1046E0005548005D00281DD06420544908702300FF
:1046F00002F042F80604070A0D101316FFF7B5FF83
:104700000FE0FFF754FE0CE0FFF7C7FD09E0FFF7ED
:104710002AFD06E0FFF7A5FB03E0FFF758FB00E0EA
:1047200000BF00BF10BDFEB506460296029EF00710
:10473000C00F002829D0002425E04148005D4149F0
:10474000095D48400190019800281AD0002516E024
:104750000120A840C7B260004019C0B2009039489B
:10476000015D3940344A009811543548005D784065
:10477000334908550098FFF7B1FF681CC5B2022DF8
:10478000E6DB601CC4B2032CD7DBFEBD10B52348AA
:104790000078002832D12C488078244989788842D2
:1047A0002CD12948407821494978884226D1264889
:1047B0000078142822DCFF202049087001201D49C0
:1047C000087008460078FFF781FA204800781949F8
:1047D0000978884212D017480478E00F0019401079
:1047E0004000201A01D0012000E0002001460820EE
:1047F00000F0FFFA0F4800781449087010BD10B59A
:1048000001211348FEF74FFE002803D00121104874
:10481000FEF75CFE10BD0000750100209005002031
:10482000D8010020C601002074680008CE010020D5
:10483000D7010020D9010020BD0100200100002087
:10484000E4010020BA0100206F050020E7010020EC
:104850000004004010B50024FD49FE48FFF79CF914
:1048600000284AD02021FB48FFF794F9F849F9487D
:10487000FFF7B9F9F74820308088C4B2F02C01D096
:104880004F2C02D10020F4490870F448F24909780D
:104890004454F1480078401CEF490870F72C01D0CF
:1048A0004B2C06D1EC480078ED4908700020EA490D
:1048B0000870EC48007808280BD1E74800781528E4
:1048C00007DBE5480078E64908700020E2490870F7
:1048D0000EE0E448007809280AD1DF480078132860
:1048E00006DBDD480078DE4908700020DA490870F0
:1048F000DD480078401CDC49087010BD30B500214F
:1049000000200023D94AD64C2478002C12D0D44C55
:1049100023780024D24D2C7000BF08E0CF4C645C9B
:104920001470521C0024CD4D6C544C1CE1B29942C1
:10493000F4DB012030BD70B505460E4600240CE0C6
:10494000295DC448FFF70AF800BF4021C148FFF7BE
:1049500017F90028F9D0601CC4B2B442F0DBC44897
:104960000078401CC249087070BDF0B589B004469B
:10497000C0A103C90891079060790002A17940188D
:104980007D210901401A80B20690A07A0A2101F027
:10499000E5FA0701A07A0A2101F0E0FA0F43FDB21F
:1049A000607A0A2101F0DAFA0701607A0A2101F03F
:1049B000D5FA0F43FEB2207A0A2101F0CFFA07019F
:1049C000207A0A2101F0CAFA0F43F8B20590E07983
:1049D0000A2101F0C3FA0701E0790A2101F0BEFAC9
:1049E0000F43F8B20A210490069801F0B7FA0701C4
:1049F0000A21069801F0B2FA0F43F8B203900020A2
:104A0000019033460095029003A807C800F0CEFF3E
:104A1000072107A8FFF78FFF09B0F0BD1CB597A1CC
:104A200003C90191009007216846FFF784FF00BF8A
:104A3000BFF34F8F93489449C860BFF34F8F00BFB7
:104A400000BFFEE770B50546002D72D0874800789C
:104A5000F0286FD1854840785A28FAD18348807869
:104A6000A528F6D181484079F7286CD17F48C078D5
:104A7000030001F081FE0966061626366666664664
:104A800066007A480079012805D110210920C00666
:104A9000FDF7E7FB04E010210920C006FDF7DFFB6E
:104AA00050E072480079012805D120210920C00674
:104AB000FDF7D7FB04E020210920C006FDF7CFFB5E
:104AC00040E06A480079012805D140210920C0064C
:104AD000FDF7C7FB04E040210920C006FDF7BFFB3E
:104AE00030E062480079012805D180210920C00604
:104AF000FDF7B7FB04E080210920C006FDF7AFFBFE
:104B000020E05A480079002802D16049087002E08C
:104B100001205E4908705D480078FFF7D7F85B48D0
:104B20000478E00F001940104000201A03D0012043
:104B300002E021E031E000200146082000F059F9B0
:104B400000E000BF2CE049488079F72815D147489C
:104B5000C078062801D1FFF761FF4448C0780728D4
:104B60001ED1424800797F281AD140484079012857
:104B700016D100204649087012E03C48007BF72817
:104B80000ED13A48C07805280AD138480079402823
:104B900006D13648FFF7E9FE02E03448FCF72DFF66
:104BA00070BD10B508213BA0FFF7C5FE012010BD68
:104BB00010B50446002C04D0012C07D0022C0FD1D4
:104BC00009E0022136A0FFF7B6FE09E00A2135A070
:104BD000FFF7B1FE04E0092135A0FFF7ACFE00BFEE
:104BE00000BF10BD7FB56C46344800783449097861
:104BF000884267D03148007831490870F020207031
:104C0000641C5A202070641CA5202070641C0420A1
:104C10002070641C40202070641C284989797D2202
:104C200012018818C117090E091809122170641C95
:104C3000224989798818C117090E09180912090231
:104C4000411A2170641C1D4800792070641C3AE0F0
:104C50000501050000380140EC0100201908002082
:104C6000E801002090050020EB0100204B08002007
:104C7000EA010020F05AA5050001F700F05AA50648
:104C80000001F7000400FA0500ED00E0D901002062
:104C9000E901002041542B524553455400000000C7
:104CA0004154000041542B56455253494F4E000089
:104CB00041542B414444523D3F0000006F05002009
:104CC000ED01002035E02F48C0782070641C2D488D
:104CD00080782070641C2B4840782070641C294820
:104CE00000782070641C6421274A0020105E01F0C7
:104CF0001FF905460A2101F01BF92170641C0A21E5
:104D0000214A0020105E01F013F905460A2101F046
:104D10000FF92170641C0A211B4A0020105E01F06B
:104D200007F92170641CF720207010216846FFF7F6
:104D300002FE7FBD1CB515A103C9019100900121A0
:104D40008807FEF7B0FB00281AD001218807FEF77C
:104D5000BDFB0A210F48007801F000F9002908D1B5
:104D600007216846FFF7E7FD0B480078401C0A4919
:104D7000087008480078401C06490870FCF752FD8E
:104D80001CBD00006F05002086010020F05AA50719
:104D9000017FF700EE010020E901002070B5044614
:104DA000002600F0E5F82546E117090E4919091219
:104DB0004900A031C8B200F095F900F020F9E117E0
:104DC000090E491909120902611AC8B200F08AF9DC
:104DD00000F015F900F0CCF8A12000F083F900F004
:104DE0000EF9002000F0B7F9064600F0E3F830466F
:104DF00070BD70B504460E4600F0BAF82546E117BE
:104E0000090E491909124900A031C8B200F06AF927
:104E100000F0F5F8E117090E491909120902611AA3
:104E2000C8B200F05FF900F0EAF8304600F05AF935
:104E300000F0E5F800F0BEF80A20FEF7ECFE70BDC9
:104E4000F8B505460E461746002409E0E200334651
:104E5000D340D9B22A1990B2FFF7CBFF601CC4B27D
:104E6000BC42F3DBF8BDF8B507460C46002600252A
:104E700009E036023919491B491E88B2FFF78EFF37
:104E80008619681CC5B2A542F3DB3046F8BD10B5E3
:104E9000FF20FFF783FF0446552C01D1002010BDF1
:104EA0005521FF20FFF7A5FFFF20FFF777FF0446FE
:104EB000552C01D10020F2E70120F0E770B506463D
:104EC0000C46154608E03046721C96B2FFF766FFA6
:104ED0002070641C681E85B2002DF4D170BD70B5C1
:104EE00005460C46164606E021782846FFF781FF66
:104EF000681C85B2641C3046711E8EB20028F3D146
:104F000070BD1CB50320C0020090012168460171EC
:104F1000002181710321417169460920C006FDF716
:104F200021F90321C9020920C006FDF798F91CBD2B
:104F30001CB5012000030090002168460171012189
:104F4000C17169460920C006FDF70CF91CBD1CB5EE
:104F50000120000300900121684601710021817148
:104F60000321417169460920C006FDF7FBF81CBD0D
:104F700010B5FFF7ECFF012109030920C006FDF77A
:104F80006EF90121C9020920C006FDF768F9042065
:104F9000FEF732FE012109030920C006FDF761F981
:104FA0000420FEF729FE0121C9020920C006FDF7F1
:104FB00058F910BD10B5FFF7CAFF0121C902092039
:104FC000C006FDF74EF9012109030920C006FDF7CF
:104FD00048F90420FEF710FE0121C9020920C0068D
:104FE000FDF73DF90420FEF707FE01210903092022
:104FF000C006FDF734F90420FEF7FEFD10BD10B524
:105000000024FFF795FF012109030920C006FDF7E1
:1050100026F90120FEF7F0FD0121C9020920C00692
:10502000FDF71DF90120FEF7E7FD07E0601CC4B2A3
:10503000FA2C03DDFFF7BEFF012010BD012109039B
:105040000920C006FDF7F1F80028EFD10121C902BF
:105050000920C006FDF705F90020EEE710B5012193
:10506000C9020920C006FDF7FCF8FFF770FF012117
:1050700009030920C006FDF7F4F80220FEF7BCFD85
:105080000121C9020920C006FDF7E9F80220FEF758
:10509000B3FD0121C9020920C006FDF7E2F810BDE9
:1050A00010B50121C9020920C006FDF7DAF8FFF7A3
:1050B0004EFF012109030920C006FDF7D0F80220A8
:1050C000FEF79AFD0121C9020920C006FDF7C7F8C5
:1050D0000220FEF791FD0121C9020920C006FDF75B
:1050E000C0F810BD70B50446FFF731FF0121C902B9
:1050F0000920C006FDF7B5F8002529E080202040F2
:10510000002806D0012109030920C006FDF7A7F8F1
:1051100005E0012109030920C006FDF7A2F8600699
:10512000040E0220FEF768FD0121C9020920C00615
:10513000FDF795F80220FEF75FFD0121C902092065
:10514000C006FDF78EF80220FEF756FD681CC5B2BA
:10515000082DD3DB70BD70B505460024FFF7E8FECF
:1051600000261FE00121C9020920C006FDF779F8D9
:105170000220FEF741FD0121C9020920C006FDF70A
:105180006EF86006040E012109030920C006FDF730
:105190004CF8002801D0601CC4B20120FEF72CFDA1
:1051A000701CC6B2082EDDDB002D02D1FFF778FFA0
:1051B00001E0FFF753FF204670BD000010B540210D
:1051C000F848FDF74CF88021F648FDF748F88021B3
:1051D000F448FDF746F84021F248FDF742F810BDCB
:1051E00010B54021EF48FDF73AF88021ED48FDF772
:1051F00038F88021EB48FDF732F810BD10B540219A
:10520000E848FDF72CF84021E648FDF72AF810BDE4
:10521000F8B505462C464021E248FDF722F8002665
:1052200019E0274680200740802F04D18021DD48E7
:10523000FDF715F803E08021DA48FDF712F8600663
:10524000040E4021D748FDF70AF84021D548FDF764
:1052500008F8701CC6B2082EE3DBF8BD10B5044692
:10526000FFF7ACFF7820FFF7D3FFFFF7C7FF002061
:10527000FFF7CEFFFFF7C2FF2046FFF7C9FFFFF79A
:10528000BDFFFFF7ADFF10BD10B50446FFF796FF59
:105290007820FFF7BDFFFFF7B1FF4020FFF7B8FF11
:1052A000FFF7ACFF2046FFF7B3FFFFF7A7FFFFF7BD
:1052B00097FF10BD70B504460D46002D03D0E0B237
:1052C000FFF7E2FF02E0E0B2FFF7C8FF70BD70B584
:1052D0000646002418E02046B0300021FFF7EAFF20
:1052E00000210220FFF7E6FF00211020FFF7E2FF78
:1052F000002505E001213046FFF7DCFF681CC5B240
:10530000802DF7DB601CC4B2082CE4DB70BD05E027
:10531000A54900E0491E0029FCD1401E0028F7D114
:105320007047014605E0002001E0421CD0B27B2816
:10533000FBDB0A46491E002AF5D1704770B50446CA
:105340000D462846B0300021FFF7B4FFA11CF02223
:1053500011400911084610300021FFF7ABFFA11CD6
:105360000807000F0021FFF7A5FF70BD10B5002151
:105370008D20FFF79FFF00211420FFF79BFF0021E6
:10538000AF20FFF797FF10BD10B500218D20FFF76C
:1053900091FF00211020FFF78DFF0021AE20FFF7C5
:1053A00089FF10BDF8B505460E462C4618E020468C
:1053B000B0300021FFF77EFF00210220FFF77AFFC7
:1053C00000211020FFF776FF002705E001210020D3
:1053D000FFF770FF781CC7B2802FF7DB601CC4B2E8
:1053E000B442E4DBF8BD70B5002418E02046B030CC
:1053F0000021FFF75FFF00210220FFF75BFF002184
:105400001020FFF757FF002505E001210020FFF7DE
:1054100051FF681CC5B2802DF7DB601CC4B2082C9C
:10542000E4DB70BD70B5002418E02046B0300021E8
:10543000FFF740FF00210220FFF73CFF0021102072
:10544000FFF738FF002505E001210846FFF732FF8E
:10545000681CC5B2802DF7DB601CC4B2082CE4DBED
:1054600070BDFFB581B007460D46002600240398A5
:105470002038C6B27F2F02DD0027A81CC5B20498D1
:10548000102824D129463846FFF758FF002408E0A9
:1054900031010919454A505C0121FFF70BFF601CDF
:1054A000C4B2082CF4DB681CC1B23846FFF746FFD3
:1054B000002409E03101091908313C4A505C0121FE
:1054C000FFF7F8FE601CC4B2082CF3DB11E029469C
:1054D0003846FFF733FF002409E006217143344AC0
:1054E0008918085D0121FFF7E5FE601CC4B2062C97
:1054F000F3DB05B0F0BD10B50246012002E0034623
:10550000534318460B464C1EE1B2002BF7D110BD99
:10551000FFB583B01E460C9C0020029000253CE0A5
:10552000701B401EC1B20A20FFF7E5FF0146009044
:10553000059800F0FDFC0A21019000F0F9FC0F46EF
:105540000298002815D1701EA84212DD002F0ED13E
:10555000E00F001940106843019403994018C0B24D
:105560002346202200900499FFF77BFF13E00120DF
:105570000290E00F0019401068430194039940180D
:10558000C0B2009038463030C2B223460499009829
:10559000FFF767FF00BF681CC5B2B542C0DB07B0AC
:1055A000F0BD00000004004865180000A86A00086B
:1055B00080680008FFB581B004460F4615460026F6
:1055C0000FE0AA5D39462046049BFFF74AFF2046BC
:1055D0000830C4B2782C02DD0024B81CC7B2701C9D
:1055E000C6B2A85D0028ECD105B0F0BDF7B50E46F7
:1055F0001546002731460098FFF7A0FE00240AE078
:10560000A901704A8918085D0121FFF753FE781C33
:10561000C7B2601CC4B2102CF2DB701CC1B200987F
:10562000FFF78CFE00240CE06900491C4901654A23
:105630008918085D0121FFF73DFE781CC7B2601C88
:10564000C4B2102CF0DBFEBDFFB583B006460F469A
:105650001C46002002902046E117490F0918C91086
:10566000C900611A05D1E117490F091849050D0E46
:1056700006E02046E117490F0918C910491CCDB2B0
:105680003D4617E029463046FFF758FE01960BE0ED
:1056900002994A1C02920C9A505C0121FFF70AFE03
:1056A0000198401CC0B20190059901988842EFDB37
:1056B000681CC5B2A542E5DB07B0F0BD1CB5C02033
:1056C000009001216846017100218171032141711F
:1056D00069463D48FCF746FDC0213B48FCF7BFFD4D
:1056E00019204001FEF797FA0021AE20FFF7E2FDF6
:1056F00000210220FFF7DEFD00211020FFF7DAFD78
:1057000000214020FFF7D6FD0021B020FFF7D2FD99
:1057100000218120FFF7CEFD0021FF20FFF7CAFD09
:105720000021A120FFF7C6FD0021A620FFF7C2FD42
:105730000021A820FFF7BEFD00213F20FFF7BAFDA2
:105740000021C820FFF7B6FD0021D320FFF7B2FDEE
:1057500000210846FFF7AEFD0021D520FFF7AAFD86
:1057600000218020FFF7A6FD0021D820FFF7A2FD31
:1057700000210520FFF79EFD0021D920FFF79AFDAB
:105780000021F120FFF796FD0021DA20FFF792FDBE
:1057900000211220FFF78EFD0021DB20FFF78AFD9C
:1057A00000213020FFF786FD00218D20FFF782FDCC
:1057B00000211420FFF77EFD0021AF20FFF77AFDC6
:1057C0001CBD0000EF010020000400481CB51020A3
:1057D000009001216846017100218171032141710E
:1057E00069469548FCF7BEFC1CBD70B50446002513
:1057F000FFF7ECFF0120FEF7FFF900BF27E08E481E
:10580000808A082188438C498882E007C00F0028DD
:1058100007D00846808A1021884310308649888244
:1058200005E08548808A10218843834988820120C9
:10583000FEF7E2F98048808A0821884308307E49D3
:1058400088820120FEF7D8F96410681CC5B2082DC3
:10585000D5DB70BD70B505460C467748808A20219F
:105860008843754988820846808A0821884372499E
:1058700088820846808A2021884320306E498882A9
:105880002846FFF7B2FF2046FFF7AFFF6A48808A3D
:10589000082188430830684988820846808A202188
:1058A00088436549888270BD1CB52820009001217D
:1058B00068460171002181710321417169465E488A
:1058C000FCF750FC5C48808A082188435A4988824A
:1058D00000218020FFF7BEFFA8219020FFF7BAFF2C
:1058E00080218E20FFF7B6FF1CBD1CB51020009054
:1058F000002168460171C17169464F48FCF732FCCE
:105900001CBD70B50024FFF7F0FF0120FEF774F90D
:1059100000251DE064104848808A0821884308302B
:10592000454988820120FEF767F94348808A0821AB
:105930008843414988820120FEF75EF910213E48E4
:10594000FCF773FC012801D180200443681CC5B218
:10595000082DDFDB204670BD70B504463648808ACE
:1059600020218843344988820846808A0821884358
:10597000314988820846808A2021884320302E4978
:1059800088822046FFF731FFFFF7BBFF05462A4814
:10599000808A082188430830274988820846808AFF
:1059A0002021884324498882284670BDF8B50446E2
:1059B0000F4615461E4600218E20FFF74BFF802024
:1059C0000799FFF747FF82200699FFF743FF31460B
:1059D0008420FFF73FFF29468620FFF73BFF39462B
:1059E0008820FFF737FF8A200899FFF733FF214609
:1059F0008C20FFF72FFF80218E20FFF72BFFF8BDB3
:105A000010B5002414E061008131C8B2FFF7A4FF93
:105A10000A4908550846005D00110A214843074914
:105A2000095D0907090F401804490855601CC4B2F4
:105A3000072CE8DB10BD0000000400486F050020C3
:105A400000B58BB09348FCF70FFA93480090934849
:105A500001900020029002200390002004908020FA
:105A600005904000069080000790202008900002DA
:105A7000099000200A9069468648FCF741FA012106
:105A80008448FCF767FA012202218248FCF774FA85
:105A9000022181484038FCF7A1F901217E484038B5
:105AA000FCF790F97C484038FCF783F90BB000BD57
:105AB00000B587B001214802FCF715FF0121084617
:105AC000FCF703FF74484038FCF75AF801A8FCF7CC
:105AD00079F80020019001206946087200200390A7
