:020000040800F2
:10000000880E0020911B000801020008030200086E
:1000100000000000000000000000000000000000E0
:1000200000000000000000000000000007020008BF
:100030000000000000000000090200080B02000898
:10004000A31B0008A31B0008A31B0008A31B000898
:10005000A31B0008A31B0008A31B0008A31B000888
:10006000A31B0008A31B0008A31B0008A31B000878
:10007000A31B0008A31B0008A31B00081B02000809
:1000800023020008A31B000800000000A31B0008B7
:10009000A31B0008A31B0008A31B0008A31B000848
:1000A000A31B0008A31B0008A31B000813020008E1
:1000B000A31B000800000000A31B000800000000B4
:1000C0000448854606F00AFB00480047E1010008A5
:1000D000C046C046880E002047480078002804D05B
:1000E00045480078401E444908704348008900286C
:1000F00004D041480089401E3F4908813E4840786D
:10010000002804D03C484078401E3B4948703A489B
:100110008078002804D038488078401E364988709E
:1001200035484089002804D033484089401E324970
:10013000488131488089002804D02F488089401E9A
:100140002D4988812C48C078002804D02A48C078DE
:10015000401E2949C8702848C088401C2649C880CC
:10016000704710B500F05EF900F06BF900F021FA6D
:1001700000F03DFA05F0E8FC00F0C5FA04F0C7FE17
:1001800005F098FB05F0A0FA00F0F9F900F0D7FAB5
:1001900010BD1CB505F02DF908226946002004F0B9
:1001A00093FE002308221549684603F0E4FF082067
:1001B00004F0FAFD10494871487903F09DFD0920CB
:1001C00004F0F2FD044601F0FCFB05F007FE05F02B
:1001D0001DFC00F001FB05F00CF900F086F91CBDD8
:1001E000FFF7BFFFFFF7D5FF05E002F090F800F042
:1001F000B6FA00F073FBF8E7000000209505002038
:10020000704700BFFEE77047704710B5FFF764FF07
:1002100010BD10B504F02AFB10BD10B504F091FD1F
:1002200010BD10B504F0FBFA10BD00000CB50020A5
:100230000190009073480068012109040843714946
:10024000086000BF6F480068012149040840009021
:100250000198401C01900098002804D10521090252
:1002600001988842EED1674800680121490408409E
:10027000002802D00120009001E0002000900098AA
:10028000012839D11120604908605E4840685D4905
:100290004860084640684860084640683F210904B5
:1002A00088435849486008464068112109040843BA
:1002B000544948600846006801210906084351492D
:1002C000086000BF4F480068012149060840002827
:1002D000F8D04C484068800880004A494860084689
:1002E0004068022108434749486000BF45484068CC
:1002F0000C2108400828F9D10CBD10B54148006810
:10030000012108433F490860084640683F490840CA
:100310003C494860084600683D4908403949086042
:100320000846006801218904884336490860084668
:1003300040683F2109048843324948600846C06A42
:1003400000090001C8620846006BFF215431884350
:100350002C4908630846406B400840004863002071
:100360008860FFF763FF10BDF8B500250024002664
:100370000027244840680C2108400546002D04D081
:10038000042D06D0082D2AD107E022482249086012
:1003900029E020482049086025E01A4840680F21DC
:1003A00089040840044617484068012109040840B0
:1003B0000646A00C841C002E04D118486043164940
:1003C00008600BE00F48C06A0007000F471C394661
:1003D000104805F0B3FD60430F49086003E00D4885
:1003E0000D49086000BF00BF06484068F021084082
:1003F00000090B490D5C08480068E84006490860A0
:10040000F8BD000000100240002002400CB8FFF8C8
:10041000FFFFF6FE00127A001000002000093D00E8
:100420001400002010B501210320400402F063FAFB
:100430000121880302F06DFA0121032002F077FA0E
:1004400010BD1CB5FF20F1300090012168460171FC
:10045000002181710321417169460920C00601F024
:1004600097FE0720009001216846017100218171EB
:100470000321417169460920C00601F089FE03206D
:1004800000900021684601710121C1716946FD4853
:1004900001F07EFE012207210920C00601F001FFC4
:1004A00001220921C80601F0FCFE01220A210920CF
:1004B000C00601F0F6FE03204002009002216846CB
:1004C0000171002181710321417169460920C00633
:1004D00001F05EFE0920C006808AB022104301466A
:1004E0000920C00601F0DBFE1CBD1CB58020009079
:1004F0000221684601710021817103214171694621
:100500000920C00601F044FE1CBD1CB5302000903F
:100510000121684601710021817103214171694601
:100520000920C00601F034FE8020009002216846B8
:100530000171002181710321417169460920C006C2
:1005400001F026FE1CBD1CB530200090002168463D
:10055000017181710321417169460920C00601F0D2
:1005600017FE8020009000216846017181710321EF
:10057000417169460920C00601F00AFE1CBD10B594
:10058000C149C248006805F0D9FC0446601EC04954
:10059000884200D90CE0601EBE4948610321081F53
:1005A00000F009FF0020BB4988610720086100BFF7
:1005B00010BD00B587B0B84803F07AF84B20C001F1
:1005C0000190002002900390049006900C2005906A
:1005D00001A9B14803F088F80122B049AE4803F000
:1005E000B1FA0121AC4803F018F907B000BD00B51D
:1005F00089B0AB4802F076FAFF20F43007902F2143
:100600006846018300210184418306A9A44802F0C1
:10061000CFFA0121A24802F059FF01221146A04859
:1006200002F03EFF6021684681800121C1800221E5
:1006300001820020039001A9994802F0B2FB082131
:10064000974802F0F4FC0121954802F036FB0120A6
:10065000800702F047FA63200790924968460183B9
:1006600000210184418306A90120800702F0A0FA3D
:100670000121880702F02AFF01221146900702F0AB
:100680000FFF0121880702F018FB09B000BD00B57B
:1006900085B00121084602F03CF90121880402F0EE
:1006A0002AF90521684601700021417001218170FD
:1006B00001F04AFE032003900021684601740221E4
:1006C00041740021C17403A96E4801F061FD01204D
:1006D00001F012FD022001F00FFD0021012002F0C7
:1006E000C5F90121084602F0C1F90320019000215B
:1006F00068460172102141720121817201A801F046
:100700008BFC05B000BD08B51B21684601700021B7
:1007100041700121817001F017FE102168460170BF
:1007200001214170817001F00FFE0F2168460170B8
:10073000022141700121817001F006FE08BD10B553
:10074000594801F0DBFD012001F0DBFD7D20400177
:1007500001F0DAFD01F0DBFD01F0E0FD10BD10B5A8
:10076000002403F086FA0446002C02D0204603F051
:10077000ECFF04F0CFF80446002C02D0204604F031
:100780006DF94A488089002809D17D200001474938
:10079000888105F0DFF905F091FB45490880434861
:1007A0008078002806D164204049887005F02EF931
:1007B00003F0FEFF3D484078002805D04021092085
:1007C000C00601F062FD04E040210920C00601F0EE
:1007D0005EFD01F097F910BD10B5002404F009FE8C
:1007E000102334A20221002004F0EAFE102336A2D6
:1007F0000421002004F0E4FE00BF3FE00321204676
:1008000005F0B2FB00290DD110210920C00601F02E
:100810003EFD322003F015FA10210920C00601F038
:1008200034FD26E00321204605F09EFB01290DD171
:1008300020210920C00601F02AFD322003F001FA30
:1008400020210920C00601F020FD12E003212046EE
:1008500005F08AFB02290CD180210920C00601F095
:1008600016FD322003F0EDF980210920C00601F0C9
:100870000CFD1E2003F0E5F9601CC4B20F2CBDDB9B
:1008800010BD000000040048701700001000002098
:10089000FFFFFF0000E000E0003801400501050017
:1008A000000400407FBB0000555500000000002000
:1008B0008A01002020204155544F20555342205694
:1008C000312E3020200000002020205A65726F2039
:1008D00053747564696F202020000000F8B500256E
:1008E00000260024F948C088F94988424CDCF748C2
:1008F000C188F8480078F84A5043814238DDF3480F
:10090000C188F44800785043C830814230DA00BFD3
:1009100020E0F048007884420DDABA2061006118C6
:100920007C22511AED4A5054610061187B22511A01
:10093000EA4A50540CE08220610061187C22511A6E
:10094000E64A5054610061187B22511AE34A505420
:10095000601CC4B2042CDCDBDE480078401CDD499E
:10096000087008460078042801DD00200870012581
:10097000002D0CD00025D9480223802200210090B0
:10098000084604F067FE02E00020D049C880CF4846
:10099000008900287ED1FA20CC490881D04800780F
:1009A000002878D1CF4989797D2212018818511009
:1009B00005F0DAFA3030CC49C870CA4989797D220D
:1009C00012018818642105F0CFFA07460A2105F0C4
:1009D000CBFA3031C8B2C4490871C24989797D2245
:1009E000120188180A2105F0BFFA07460A2105F00E
:1009F000BBFA3031C8B2BC494871BA4989797D2205
:100A0000120188180A2105F0AFFA3031C8B2B64990
:100A100088712D20C871B34908790A2105F0A4FA1C
:100A20003030B1490872AF4908790A2105F09CFAC3
:100A30003031C8B2AC4948722D208872A949C878B3
:100A40000A2105F091FA3030A749C872A549C87843
:100A50000A2105F089FA3031C8B2A3490873A149C7
:100A600088780A2105F080FA3030A04908719D4944
:100A700088780A2105F078FA3031C8B29B4948716C
:100A80003A208871974948780A2105F06DFA30308C
:100A9000964901E0F2E34CE0C871924948780A2196
:100AA00005F062FA3031C8B2904908723A204872B3
:100AB0008C4908780A2105F057FA30308B49887242
:100AC000884908780A2105F04FFA3031C8B28749C1
:100AD000C87252208649087030208870FF21013189
:100AE0000920C00601F0B7FB30308149C8704720AB
:100AF000C871452008724E2048722020887242201A
:100B000008737C48407804280CDD4E20887343200D
:100B1000C87320210920C00601F0B7FB00207549E9
:100B2000C87004E04C20724988734520C8730126C0
:100B3000F1E36B48007801287ED16F480078401CB3
:100B40006D49087008460078142801DD00200870FF
:100B5000694800780A2870DA684989797D2212018B
:100B60008818511005F000FA30305F49C8706349A9
:100B700089797D2212018818642105F0F5F907466C
:100B80000A2105F0F1F93031C8B2574908715B49C3
:100B900089797D22120188180A2105F0E5F90746B6
:100BA0000A2105F0E1F93031C8B24F494871534983
:100BB00089797D22120188180A2105F0D5F9303192
:100BC000C8B2494988712D20C8714C4908790A2159
:100BD00005F0CAF9303044490872484908790A21B9
:100BE00005F0C2F93031C8B23F4948722D208872F1
:100BF0004249C8780A2105F0B7F930303A49C8723D
:100C00003E49C8780A2105F0AFF93031C8B23649FB
:100C100008733A4988780A2105F0A6F9303033493B
:100C20000871364988780A2105F09EF93031C8B23A
:100C30002E4948713A2001E07BE02EE088712F496F
:100C400048780A2105F090F930302849C8712B49BD
:100C500048780A2105F088F93031C8B22349087272
:100C60003A204872254908780A2105F07DF930308C
:100C70001E498872214908780A2105F075F930313A
:100C8000C8B21A49C87253201949C8714520087260
:100C9000542048722020887249E00C4800790128CD
:100CA00003D15F201149487141E0084800790228CA
:100CB00003D15F200D49087239E004480079032808
:100CC0001ED15F200949C87231E0000000000020F9
:100CD000A861000095010020881300002400002076
:100CE00094050020710500202401002057010020F8
:100CF00079010020EA01002094010020CA010020AF
:100D0000FE480079042803D15F20FD4988710EE078
:100D1000FA480079052803D15F20F949487206E0B6
:100D2000F6480079062802D15F20F54908730126AC
:100D3000F1E2F448007802287ED1F3480078401CA4
:100D4000F149087008460078142801DD0020087079
:100D5000ED4800780A2870DAEC4989797D22120181
:100D60008818511005F000F93030E549C870E7499E
:100D700089797D2212018818642105F0F5F807466B
:100D80000A2105F0F1F83031C8B2DD490871DF49B8
:100D900089797D22120188180A2105F0E5F80746B5
:100DA0000A2105F0E1F83031C8B2D5494871D74978
:100DB00089797D22120188180A2105F0D5F8303191
:100DC000C8B2CF4988712D20C871D04908790A214D
:100DD00005F0CAF83030CA490872CC4908790A21AE
:100DE00005F0C2F83031C8B2C54948722D2088726A
:100DF000C649C8780A2105F0B7F83030C049C87232
:100E0000C249C8780A2105F0AFF83031C8B2BC49F0
:100E10000873BE4988780A2105F0A6F83030BC492D
:100E20000871BA4988780A2105F09EF83031C8B2B5
:100E3000B74948713A2001E060E02EE08871B3497B
:100E400048780A2105F090F83030B149C871AF49AF
:100E500048780A2105F088F83031C8B2AC490872E8
:100E60003A204872A94908780A2105F07DF8303007
:100E7000A7498872A54908780A2105F075F830312C
:100E8000C8B2A349C8724120A249C8714C20087257
:100E90004D204872202088722EE098480079012861
:100EA00003D15F209A49487126E0944800790228CE
:100EB00003D15F20964908721EE09048007903280C
:100EC00003D15F209249C87216E08C48007904284B
:100ED00003D15F208A4988710EE08848007905288F
:100EE00003D15F208649487206E0844800790628CD
:100EF00002D15F208249087301260CE28148007804
:100F00000A287DD1844989797D22120188185110DF
:100F100005F02AF830307A49C8707F4989797D22F6
:100F200012018818642105F01FF807460A2105F010
:100F30001BF83031C8B272490871774989797D222E
:100F4000120188180A2105F00FF807460A2105F05A
:100F50000BF83031C8B26A4948716F4989797D22EE
:100F6000120188180A2104F0FFFF3031C8B2644929
:100F700088712D20C871684908790A2104F0F4FFAE
:100F800030305F490872644908790A2104F0ECFFA7
:100F90003031C8B25A4948722D2088725E49C878EB
:100FA0000A2104F0E1FF30305549C8725A49C87827
:100FB0000A2104F0D9FF3031C8B2514908735649AB
:100FC00088780A2104F0D0FF303051490871524925
:100FD00088780A2104F0C8FF3031C8B24C49487102
:100FE0003A2088714C4948780A2104F0BDFF30301E
:100FF0004749C871484948780A2104F0B5FF00E024
:1010000018E03031C8B2424908723A204872424969
:1010100008780A2104F0A8FF30303D4988723E4923
:1010200008780A2104F0A0FF3031C8B23849C872EC
:10103000012670E133480078032877D104F0BEFD23
:101040000746364905F00FF83549086004F0CEFD33
:101050000746344905F007F833490860522028490B
:10106000C87045200871462048713A2088712C4884
:10107000006805F0E3F907467D21C90004F05EFF32
:1010800030301F49C8712E2008722548006805F0CD
:10109000D5F96421009004F051FF07460A2104F0BD
:1010A0004DFF3031164841721D48006805F0C6F901
:1010B0000A21009004F042FF07460A2104F03EFF97
:1010C00030310F4881721648006805F0B7F90746BD
:1010D0000A2104F033FF30310948C1725620084913
:1010E000087354200A4908713A2048710E48006874
:1010F00005F0A4F907467D21C90018E00000002092
:10110000240100209405002094010020D201002039
:1011100057010020790100207105002000007A4469
:10112000900100200000C8428C0100203DE004F046
:1011300005FF3030BB498871BB48006805F07EF977
:101140006421009004F0FAFE07460A2104F0F6FE3E
:101150003031B448C1712E20B2490872B2480068DB
:1011600005F06CF90A21009004F0E8FE07460A2118
:1011700004F0E4FE3031AB484172AB48006805F042
:101180005DF907460A2104F0D9FE3031A548817285
:101190004320A449C872A549C8715020087255203F
:1011A0004872202088720126B5E0A1480078042802
:1011B00065D152209F4908706F20487088706D205B
:1011C000C8702020087154204871652088716D20F6
:1011D000C871702008726520487272208872612080
:1011E000C872742008737520487372208873652054
:1011F000C87354208B4908713A2048718E480021E9
:10120000415E002903DA2D208649887102E0202002
:10121000844988716421884A0020105E04F08EFEA3
:1012200007460A2104F08AFE30317E48C1710A2146
:10123000814A0020105E04F081FE07460A2104F076
:101240007DFE3031774801722E20764948720A219E
:10125000794A0020105E04F071FE303171488172CD
:1012600043207049C87254207049C87145200872E3
:101270004D2048725020887201264CE067E06C488F
:101280000078052830D15620684908706B494879A4
:101290000A2104F069FE3030644988706749487952
:1012A0000A2104F061FE3031C8B26049C87047209D
:1012B000C871412008724D20487245208872532021
:1012C00008735E4908790A2104F04EFE3030574910
:1012D00088735A4908790A2104F046FE3031C8B2B1
:1012E0005249C873012616E051480078062809D1F2
:1012F0004C204E49C8714F20087257204872502028
:10130000887208E04A480078082803D048480078E6
:10131000092800D10126002E19D04548007805285B
:101320000CD010233F4A0221002004F049F9042385
:10133000404A0521002004F043F901E000F08CF858
:1013400004233A4A0721002004F03AF900263C48D9
:10135000408900282CD10A20394948813948008821
:10136000002812D138480088401C374908800846B8
:101370000088FF21F531884215DB012031490880C2
:10138000FF20F530304908800DE02F480088401ECE
:101390002D49088008460088002804DC00202949DF
:1013A00008802949088028480188284801F0F9FD6B
:1013B00003F024FCF8BD10B5002819DA244A03070D
:1013C0001B0F083B9B089B00D2588307DC0EFF23B2
:1013D000A3409A438B071B0E8407E40EA3401A43D5
:1013E0001B4B0407240F083CA408A4001A5118E062
:1013F000184A03231B02D21883089B00D258830784
:10140000DC0EFF23A3409A438B071B0E8407E40ED8
:10141000A3401A430F4B032424021B198408A40081
:101420001A5110BD570100208C01002079010020C5
:1014300094050020240100208A010020A001002042
:1014400000000020980100209601002000040040C8
:101450001CED00E000E100E038B50024F948C07858
:10146000002811D100BF0DE0E001F74940180090BD
:10147000E01CC3B2A01CC1B28022002004F0EAF834
:10148000601CC4B2052CEFDB38BD17B582B000215B
:10149000039C029B01940093EC4B1B78002B1ED005
:1014A000EA4B5B78002B1AD0E84B5B785B1EDB01C4
:1014B000E54C1C19E54B1B785B1EDB00E0183F2355
:1014C0000370401C33230370401C21230370401C15
:1014D0000370401C33230370401C3F230370002122
:1014E0002EE06B465B785B1EDB01D74C1C196B460C
:1014F0001B785B1EDB00E0183F230370401C0029B3
:101500000AD10370401C33230370401C0370401C3D
:101510003F230370401C08E03F230370401C03700E
:10152000401C0370401C0370401C3F230370019B50
:10153000002B03D0019C18CC019400934B1CD9B212
:101540009142CEDB05B010BD10B5C148006805F072
:1015500037F9082005F05EF9BD49086000200968E8
:1015600048600120BA49096808700320B849096831
:1015700048700120B3490870042048700820B3491E
:10158000087002204870AF480278B148006803C86C
:10159000FFF77BFFFFF760FF0120AA49887000205A
:1015A000C870087110BDA7494978012906D00229E1
:1015B00009D003290CD0042914D10EE0022801D04F
:1015C000A04948700EE0012801D09E49487009E00A
:1015D000042801D09B49487004E0032801D09949B0
:1015E000487000BF00BF704710B504460120954900
:1015F000C870002088700621022003F0D9FE102355
:1016000022460221002003F0DBFF10BD10B5024688
:101610000B468F4800684168002400BF0DE0087841
:10162000904204D14878984201D1012010BD486809
:10163000002800D04968601CC4B282480078401E6F
:10164000A042ECDC0020F1E770B505460E4608200C
:1016500005F0E0F80446257066707D48006860601B
:101660007B48046077480078401C7649087070BD5C
:10167000F1B5002400250027754806680068047845
:101680007348006845780098012806D002280AD0DF
:1016900003280ED0042818D111E0681EC5B2012D10
:1016A00000DA052511E0681CC5B2052D00DD012515
:1016B0000BE0601EC4B2012C00DA102405E0601CAF
:1016C000C4B2102C00DD012400BF00BF002702E0DF
:1016D0007668781CC7B25B480078401EB842F7DCD9
:1016E000706805F06DF80020706056480078401E64
:1016F0005449087029462046FFF7A6FFF8BDF0B50B
:1017000085B004460D4616460020049003905048CC
:101710000768002C01D1601CC4B2002D01D1681CE7
:10172000C5B20020049022E03878A04217D1787822
:10173000A84214D104F02CFC0621009004F014FC03
:10174000C8B2029004F024FC1121009004F00CFCBB
:10175000C8B2324601900299FFF7D1FF0390786832
:10176000002800D07F680498401CC0B2049035481F
:10177000017804988142D7DC012003903470761CF4
:101780003570039805B0F0BD70B504460D462D4880
:101790004078012806D002280AD003280ED0042859
:1017A00018D111E0681EC5B2012D00DA052511E03F
:1017B000681CC5B2052D00DD01250BE0601EC4B21A
:1017C000012C00DA102405E0601CC4B2102C00DDEE
:1017D000012400BF00BF29462046FFF735FF70BD3A
:1017E0007CB500251A48016803C90191009000BF2B
:1017F0001FE068464078401EC00113494118684602
:101800000078401EC0000C1800202070641C20705E
:10181000641C2070641C2070641C2070641C207088
:101820000198002803D0019903C901910090681C18
:10183000C5B204480078A842DBDC0621022003F090
:10184000B7FD7CBDA00100209D050020A601002061
:101850009C01002070B55E48007804F0A2FB5C4853
:101860000078401C5A4908705A48007805285CD115
:10187000594841795648007804F076FB002954D144
:1018800055488078012850D1FFF7AAFF53480068D7
:1018900000785349097888422BD150480068407835
:1018A0004F494978884224D14D4A51781078FFF742
:1018B0006BFF04F06DFB0646062104F055FBCCB22D
:1018C00004F066FB0646112104F04EFBCDB2444AFB
:1018D00021462846FFF713FF3F480079401C3E4948
:1018E0000871084600791D2814DB3EA0FFF77CFE36
:1018F00010E039494878FFF7BBFE384A1268517842
:10190000364A12681078FFF781FE002802D03AA00C
:10191000FFF76AFE3048C078002806D12E480278CA
:101920002E48006803C8FFF7B0FD70BD70B50024F5
:101930002A4805680026002027498870FFF750FFD5
:10194000002027490870487000BF0CE000202F4994
:10195000085500212D4880300155803001558030D8
:101960000155601C84B2FF2CF0DD04E06E6828464F
:1019700004F026FF3546002DF8D1002017490860F5
:1019800070BD10B51448C078012804D1FFF7CEFF10
:10199000FFF7DAFD14E000200F498870084640790F
:1019A000401C4871084640790F2801DD012048712C
:1019B00009484179092003F022FA0120064988707C
:1019C00010BD012800DA012003494871704700006A
:1019D000A801002094050020A00100209C01002007
:1019E000A6010020202047414D452057494E4E4535
:1019F0005221212120000000202047414D45204F49
:101A00005645522021212120202000009D05002044
:101A100010B504460621022003F0CAFC102322461A
:101A20000221002003F0CCFD10BD70B50446002556
:101A30004D480078072804D0082812D009285FD123
:101A400022E020784F280BD160784B2808D147A09E
:101A5000FFF7DEFF4D2049494871002042490870D8
:101A60004EE0207848280ED103250AE0E81E205CCD
:101A70004349485528460830205C42494855681C6F
:101A8000C5B20D2DF2DB3BE020203D4908704870C7
:101A900088704220C870542008712D204871412060
:101AA00088714420C871087252204872452088729B
:101AB0005320C8720873202048738873C873314953
:101AC00008702078487060788870E078C870207955
:101AD00008713A204871A0798871E079C871607AFC
:101AE0000872A07A48723A208872207BC872607BA4
:101AF0000873E07B4873207C88732020C87300BF84
:101B000000BF70BD10B52048C07800282AD1FF2042
:101B10001D49C8701D498878C10F0918491049002E
:101B2000411A012905D110210920C00600F0AFFBA0
:101B300004E010210920C00600F0A7FB1349C87873
:101B4000C10F091849104900411A012905D1202166
:101B50000920C00600F09BFB04E020210920C006FC
:101B600000F093FB10BD000094050020202042549B
:101B7000205245534554204F4B212000790100202D
:101B8000570100202401002000000020EA0100206D
:101B90000448804704480047FEE7FEE7FEE7FEE70B
:101BA000FEE7FEE7FB020008C100000810B504468E
:101BB000B548844207D10121401500F0D4FE002130
:101BC000601500F0D0FE10BD10B50022C268AF4B0A
:101BD0001A400C7964030B6823438C682343CC6858
:101BE00023430C6923434C6923431A43C26010BD4D
:101BF0000021016001718160C16001614161704734
:101C0000002904D0826801231A43826003E08268BD
:101C100002231A4382607047002A03D003690B43F2
:101C2000036102E003698B4303617047002905D01B
:101C3000C2680123DB031A43C26004E0C2680123C7
:101C4000DB039A43C2607047002905D0C2680123B4
:101C50009B031A43C26004E0C26801239B039A43BA
:101C6000C2607047002905D0C2680123DB051A4312
:101C7000C26004E0C2680123DB059A43C26070477A
:101C80000B0413430362704710B50A460021C16874
:101C90001F24A4060B46A34319460B4613431946BB
:101CA000C16010BD002905D0C26801239B051A43FD
:101CB000C26004E0C26801239B059A43C26070477A
:101CC000002807D0724989680122D2051143704A61
:101CD000916006E06E4989680122D20591436C4A01
:101CE00091607047002807D06949896801229205F0
:101CF0001143674A916006E06549896801229205AF
:101D00009143634A91607047002807D06049896811
:101D10000122120611435E4A916006E05C4989681F
:101D20000122120691435A4A9160704710B50B4642
:101D30000021846A1C43846200BF0C461443214680
:101D4000416110BD002905D0C26801235B031A431D
:101D5000C26004E0C26801235B039A43C26070471B
:101D6000002905D0C26801231B041A43C26004E0A5
:101D7000C26801231B049A43C2607047002905D042
:101D8000C26801231B031A43C26004E0C268012336
:101D90001B039A43C260704730B501460020002201
:101DA00000238C680125ED072C438C6000BF8C68F4
:101DB000E30FDB07521C0F242403A24201D0002BA7
:101DC000F5D18C68E40FE407002C01D1086C00E029
:101DD000002030BD81681022114381607047816806
:101DE00004221143816070470146086C80B270473D
:101DF000002904D0C26801231A43C26003E0C2680C
:101E000052085200C2607047C26802239A43C260FF
:101E1000C2680A43C2607047002A03D043680B437C
:101E2000436002E043688B434360704730B502462D
:101E300000200023012424060C40002C05D09468C7
:101E400001252D06AC43234600E013681C460C40D8
:101E5000002C01D0012000E0002030BD016070475F
:101E600010B502460020002354680C402346146835
:101E70000C40002C03D0002B01D0012000E00020FA
:101E800010BD0160704700000024014003D2FFFF35
:101E9000002701400168584A11400160002101609B
:101EA00041608160C1605549884208D15349083971
:101EB00049680F221143514A083A516035E04F49B1
:101EC0001431884208D14D4908394968F02211433C
:101ED0004A4A083A516028E048492831884209D1E5
:101EE0004649083949680F2212021143434A083A09
:101EF00051601AE041493C31884209D13F490839D3
:101F000049680F22120311433C4A083A51600CE021
:101F10003A495031884208D13849083949680F2276
:101F200012041143354A083A5160704710B5002237
:101F30000268334B1A400C6A8B6823430C692343B5
:101F40004C6923438C692343CC6923434C6A234364
:101F50008C6A23431A430260CB6843600B6883603A
:101F60004B68C36010BD0021016041608160C160A9
:101F7000016141618161C1610162416281627047B9
:101F8000002904D0026801231A43026003E00268BA
:101F9000194B1A400260704741607047014648681B
:101FA00080B27047002A03D003680B43036002E04D
:101FB00003688B4303607047014600200F4A083ACC
:101FC00012680A40002A01D0012000E0002070477A
:101FD0000A4908394860704701460020074A083A14
:101FE00012680A40002A01D0012000E0002070475A
:101FF0000249083948607047FEFF000008000240AF
:102000000F80FFFF3E483F4908600020486088601D
:10201000C8603D484861704700213A498279002AEA
:1020200035D00A46126803689A430B461A600A467E
:10203000526803689A430B465A60027951180A683D
:1020400003681A430A602F4A926803689A432D4B2B
:102050009A601A46D26803689A432A4BDA6042793A
:10206000102A0CD11A46926803681A43254B9A60CD
:102070001A46D26803681A43224BDA600DE0214900
:10208000427951180A6803681A430A6005E0027928
:1020900051180A6803689A430A607047002101607A
:1020A00001710C2141710021817170471549096945
:1020B0000143144A1161704701460020114A5269D8
:1020C0000A40002A01D0012000E0002070470D499D
:1020D000486170470146002000220A4B1B680B40F4
:1020E0001A46084B5B690B40002B03D0002A01D035
:1020F000012000E00020704702494861704700005D
:102100000000940F00040140FFFF6B0010B504466F
:102110000920C006844209D10121480400F015FCC1
:1021200000210120400400F010FC30E06E488442A1
:1021300008D10121000200F008FC0021200200F07B
:1021400004FC24E06948844208D10121000200F027
:10215000FCFB0021200200F0F8FB18E064488442F8
:1021600009D10121080500F0F0FB00210120000544
:1021700000F0EBFB0BE05F48844208D101218805A9
:1021800000F0E3FB00210120800500F0DEFB10BD24
:10219000F0B50A4600210023002400BF3DE00125E0
:1021A0008D402B4615681D402C469C4234D1157934
:1021B000012D02D01579022D16D185684F00032616
:1021C000BE40B543856055794E00B54086683543BD
:1021D0008560858801268E40B543858085889679FF
:1021E0008E40B6B23543858005684F000326BE4059
:1021F000B543056015794E00B54006683543056066
:10220000C5684F000326BE40B543C560D5794E0072
:10221000B540C6683543C560491C1029BFD3F0BD21
:102220003549016000210171022141710021817154
:10223000C171704708B5012212040092009A0A4346
:102240000092009AC261C161009AC261C2690092A3
:10225000C269009208BD02460020138A0B40002B81
:1022600001D0012000E0002070470146088A704735
:1022700002460020938A0B40002B01D0012000E091
:10228000002070470146888A704781617047018548
:102290007047002A01D0816100E00185704781828A
:1022A0007047F0B5002300244D07EE0E1546B540EB
:1022B0002B46CD10AE0005462035AD594E07F70E22
:1022C0000F26BE40B543CE10B60007462037BD519D
:1022D000CD10AE003D46AD591D432C46CD10AD008E
:1022E0003E467451F0BD000000040048000800485C
:1022F000000C004800140048FFFF00000F49086070
:1023000070470E49486070470C49886070470C4818
:102310000A49086070470949086170470948074938
:102320000860704701460020044AD2680A40002A2B
:1023300001D0012000E00020704700000030004084
:10234000AAAA0000CCCC000000218278002A27D065
:10235000274A03231B02D21803789B109B00D158F5
:1023600002789207D30EFF229A400B4693431946F8
:1023700042789207120E03789B07DB0E9A401143B6
:102380001B4A03231B02D21803789B109B00D150D9
:102390000278D306DB0E01229A40154B1A6007E043
:1023A0000278D306DB0E01229A40114B80331A606B
:1023B0007047002905D00F4A126902430D4B1A617C
:1023C00004E00C4A126982430A4B1A6170470428E0
:1023D00006D10949096904221143074A116105E040
:1023E0000549096904229143034A116170470000BD
:1023F00000E100E000ED00E000E000E0FD480068E2
:1024000001210843FB49086008464068FA49084032
:10241000F849486008460068F8490840F5490860EE
:1024200008460068012189048843F249086008468B
:1024300040683F2109048843EE4948600846C06A65
:1024400000090001C8620846006BFF21543188432F
:10245000E84908630846406B400840004863002094
:10246000886070470021E34A917011468870704778
:1024700010B502460021002300205111002902D18D
:10248000DC4C23680BE0012902D1DA4C236A06E018
:10249000022902D1D74C636A01E0D64C636BD106A6
:1024A000C90E01248C401C40002C01D0012000E00A
:1024B000002010BD38B5002000900024002500BF8A
:1024C0001120FFF7D5FF05460098401C009005211C
:1024D00009020098884201D0002DF1D01120FFF7A9
:1024E000C7FF002801D0012400E00024204638BDA9
:1024F00001460020BF4A1068F82302469A4310465E
:10250000CA001043BB4A10607047002806D0B94982
:10251000096801221143B74A116005E0B54909680D
:1025200049084900B34A1160704701460020B14A8A
:10253000506BF82302469A431046CA001043AD4A36
:1025400050637047002806D0AA49496B0122114305
:10255000A84A516305E0A749496B49084900A54AC3
:1025600051637047002806D0A249496B0422914369
:10257000A04A516305E09F49496B042211439D4ADB
:10258000516370479B49096A49084900994A116299
:102590001146096A04229143964A11621146096A5A
:1025A0000143116270479349096A18229143914A85
:1025B00011621146096A014311627047002806D072
:1025C0008C49496A012211438A4A516205E08949CE
:1025D000496A49084900874A51627047854A5268EA
:1025E0003D231B049A43834B5A601A4652680346A4
:1025F0000B431A437F4B5A607047002807D07D4930
:1026000009680122120611437A4A116006E07949ED
:102610000968012212069143764A1160704701460B
:102620000020744AD06A0009000102460A4310469D
:10263000704AD0627047002807D06E4909680122AD
:10264000D20411436B4A116006E06A49096801220D
:10265000D2049143674A116070476649C871704758
:1026600001460020634A50688008800002460A4301
:102670001046604A506070475E4840680C21084030
:102680007047014600205B4A5068F02302469A4397
:10269000104602460A431046564A506070470146AB
:1026A0000020544A506807231B0202469A431046F2
:1026B00002460A4310464F4A506070474D494968E8
:1026C0000122920391434B4A51601146496882B2FC
:1026D0001143484A51601146096B92159143454A8E
:1026E00011631146096B020C1143424A1163704792
:1026F0004049096B402291433E4A11631146096BE0
:102700000143116370473B49096B10229143394AD9
:1027100011631146096B0143116370473549096B19
:1027200089088900334A11631146096B014311631B
:102730007047FEB504460025002600200190009059
:1027400000272C4840680C2108400546002D04D085
:10275000042D05D0082D28D105E02948206027E068
:102760002748206024E0234840680F21890408405E
:102770000646204840680121090408400190B00C39
:10278000861C0198002803D11E48704320600BE08E
:102790001848C06A0007000F401C009018480099B4
:1027A00003F0CCFB7043206002E01548206000BFBE
:1027B00000BF10484068F021084005462D09124826
:1027C000475D2068F84060600A48406807210902B8
:1027D000084005462D0A0C48475D6068F840A06037
:1027E0000448006BFF2101310840884210D007489F
:1027F000E0601BE0001002400CB8FFF8FFFFF6FE9F
:1028000000127A0000093D00A9010020809FD50038
:1028100075484068012189030840884203D0A068B8
:102820004008E06002E0A0688008E0606E48006B4D
:1028300040210840402802D06C48206102E001207D
:10284000C00320616848006B10210840102802D0A6
:102850006748606101E0206860616348006B800741
:10286000800F002802D1A068A06119E05E48006BCB
:102870008007800F012802D12068A06110E05A482B
:10288000006B8007800F022802D18003A06107E05F
:102890005548006B8007800F032801D15448A06180
:1028A000FEBD5149096A01434F4A11627047002831
:1028B00007D04D49096A0122D20311434A4A1162E5
:1028C00006E04949096A0122D2039143464A11624E
:1028D0007047002807D04449096A012212041143B5
:1028E000414A116206E04049096A012212049143FB
:1028F0003D4A11627047002905D03B4A52690243A4
:10290000394B5A6104E0384A52698243364B5A6166
:102910007047002905D0344A92690243324B9A61CC
:1029200004E0314A926982432F4B9A617047002933
:1029300005D02D4AD26902432B4BDA6104E02A4AC2
:10294000D2698243284BDA617047002905D0264AB4
:10295000926A0243244B9A6204E0234A926A8243B9
:10296000214B9A627047002905D01F4AD268024362
:102970001D4BDA6004E01C4AD26882431A4BDA60CD
:102980007047002905D0184A12690243164B1A6194
:1029900004E0154A12698243134B1A6170470029FB
:1029A00005D0114A527A02430F4B5A7204E00E4A84
:1029B000527A82430C4B5A7270470B48406A01218D
:1029C0000906084308494862704701460020064A44
:1029D00092680A40002A01D0012000E000207047E0
:1029E0000149887270470000001002401280000008
:1029F00000127A003A4800688007800F3849086062
:102A00000020886000213648C16001614161806911
:102A1000FF21013108433249886170470146002097
:102A20002F4A10688008800002460A4310462C4A4C
:102A300010607047002905D0294A12680243284BCC
:102A40001A6004E0264A12688243254B1A607047D8
:102A5000002905D0224A12680243214B1A6004E083
:102A60001F4A126882431E4B1A60704730B500221D
:102A70008B071C0F0F23A3401A46194B08338C10E9
:102A8000A4001B599343164C08348D10AD006351BC
:102A900023468C10A4001B598C07250F0446AC401C
:102AA00023430F4C08348D10AD00635130BD0C49E9
:102AB000896901430A4A9161704701460020084A2A
:102AC0009269FF2301331A40002A01D0012000E05F
:102AD00000207047024989690143014A91617047AA
:102AE0000000014010B50446FE48844208D101218F
:102AF000C014FFF738FF0021E014FFF734FF56E061
:102B000001208007844208D101210846FFF739FFE0
:102B100000210120FFF735FF49E0F348844208D146
:102B200001210220FFF72DFF00210220FFF729FFDE
:102B30003DE0EE48844208D101211020FFF721FF3B
:102B400000211020FFF71DFF31E0E948844208D141
:102B500001218015FFF715FF0021A015FFF711FFD8
:102B600025E0E448844209D101210804FFF7FBFE77
:102B7000002101200004FFF7F6FE18E0DE48844241
:102B800009D101214804FFF7EEFE00210120400495
:102B9000FFF7E9FE0BE0D948844208D101218804FF
:102BA000FFF7E1FE002101208004FFF7DCFE10BDED
:102BB00000220288CB4B984206D001239B07984203
:102BC00002D0C94B984203D1CD4B1A404B881A43CF
:102BD000C64B984203D0CB4B1A400B891A43028054
:102BE0004B68C3620B880385BE4B984208D0C14B2B
:102BF000984205D0C04B984202D0C04B984201D1B8
:102C00008B7A03860123838270470021C943416088
:102C1000002101800181418081727047018582829B
:102C200070470A4600210188B54B19400B461343F3
:102C300019460180704741627047C1627047014682
:102C4000486A70470146088D7047002904D0028801
:102C500002231A43028004E00288A94B6E331A4013
:102C600002807047002904D0028804231A4302809E
:102C700004E00288A24B6C331A400280704700299E
:102C800004D0028880231A43028004E002889C4B0F
:102C9000103B1A40028070470288994B68331A40F3
:102CA000028002880A43028070470288954B1A40CE
:102CB000028002880A4302807047002904D00288FB
:102CC00001231A43028004E002888D4B6F331A40BF
:102CD000028070470A884B881A438B881A43CB8836
:102CE0001A430B891A434B891A438B891A4344238D
:102CF0001A5270470021018041808180C18001818A
:102D0000418181817047002907D04422125A012352
:102D1000DB031A4344231A5205E04422125A530497
:102D20005B0C44221352704770B50024002200232C
:102D3000058C734E6F3635400584028C8388048B76
:102D40006F4D2C40B51E2C400D882C43751E2A401B
:102D50008D892A434D882A43624DA84208D0654D8B
:102D6000A84205D0644DA84202D0644DA84212D1B9
:102D7000634D68352A40CD892A43614D6C352A4020
:102D80008D882A435E4D903D2B405F4D2B400D8A30
:102D90002B434D8A2B43838004838D6845630284D3
:102DA00070BD70B5002400220023058C544E60369F
:102DB00035400584028C8388048B544D2C40514D42
:102DC0002C400D782D062D0C2C434D4D50352A40AE
:102DD0008D892D052D0C2A434D882D052D0C2A4358
:102DE000404DA84219D1464D103D2A40CD892D05B0
:102DF0002D0C2A43424D30352A408D882D052D0C4F
:102E00002A43434D2B40434D2B400D8AAD042D0CDE
:102E10002B434D8AAD042D0C2B43838004838D6896
:102E20008563028470BD70B5002400220023058CE8
:102E3000334E903E35400584028C8388848B304D20
:102E40002C402F4D6D352C400D882C432E4D2A40A3
:102E50000D7B2D062D0C2A438D782D062D0C2A4333
:102E6000204DA84217D12B4D2A408D7B2D062D0CCD
:102E70002A43274D2A400D792D062D0C2A43264D35
:102E80002B40264D2B400D8A2D052D0C2B434D8AB2
:102E90002D052D0C2B43838084838D68C5630284AC
:102EA00070BD70B5002200230024058C1A4E3540F9
:102EB0000584038C8488828B144D2A40114D2A404E
:102EC0000D782D062D0C2A43144D2B400D7B2D071C
:102ED0002D0C2B438D782D072D0C2B43014DA84233
:102EE00024D11DE0002C01400004004000100040EF
:102EF00000200040004001400044014000480140E3
:102F00008FFF0000FFFC0000FFFD0000FF8F0000AE
:102F1000FFFB0000FFF70000FFEF0000FFDF0000F5
:102F2000FC4D2C400D8AAD052D0C2C4384808283F2
:102F30008D680564038470BD00210180418081801B
:102F400081608181C18101824182704770B50346F1
:102F5000002000241846183001258D40ACB21D8C8D
:102F6000A5431D84002901D0082909D14D10281836
:102F700005687026B54305600568154305600DE0DA
:102F80000D1F2D046D0C2818056807263603B54360
:102F9000056005681606360C3543056070BD416353
:102FA000704781637047C1637047016470470A4688
:102FB0000021018BD84B19400B461343194601835E
:102FC00070470A460021018BD44B194013061B0C95
:102FD0001943018370470A460021818BCE4B19406B
:102FE0000B4613431946818370470A460021818BA3
:102FF000CA4B194013061B0C1943818370470029E3
:1030000004D0828801231A43828004E08288C24B64
:103010006F331A40828070470A460021018BBE4BF5
:10302000683319400B4613431946018370470A461B
:103030000021018BBA4B194013061B0C1943018365
:1030400070470A460021818BB34B683319400B4609
:1030500013431946818370470A460021818BB04B88
:10306000194013061B0C1943818370470A4600213F
:10307000018BA94B6C3319400B461343194601834E
:1030800070470A460021018BA64B194013061B0C02
:103090001943018370470A460021818B9E4B6C3394
:1030A00019400B4613431946818370470A46002195
:1030B000818B9C4B194013061B0C1943818370476D
:1030C0000A460021018B944B103B19400B461343D9
:1030D0001946018370470A460021018B4904490CB7
:1030E00013061B0C1943018370470A460021818B8C
:1030F000894B103B19400B46134319468183704797
:103100000A460021818B4904490C13061B0C194304
:10311000818370470A460021018C7F4B6E33194032
:103120000B4613431946018470470A460021018C5F
:10313000794B683319400B46134319460184704795
:103140000A460021018C744B5033194013051B0CA7
:103150001943018470470A460021018C6E4B103BD5
:10316000194013051B0C1943018470470A460021BE
:10317000018C6D4B194013061B0C194301847047D9
:103180000A460021018C664B194013061B0C19439B
:10319000018470470A460021018C644B19401307D3
:1031A0001B0C19430184704702895B4B68331A403A
:1031B000028102890A430281704730B5002301244D
:1031C0008C40A3B2048C9C430484048C15468D402F
:1031D000ADB22C43048430BD30B5002304248C40B0
:1031E000A3B2048C9C430484048C15468D40ADB27C
:1031F0002C43048430BD002904D0828804231A4360
:10320000828004E08288444B6C331A40828070478D
:10321000828B474B1A408283828B0B061B0C1A430E
:1032200082837047F8B50C460021002500260096E1
:10323000068C404F3E400684818B058C2607360C59
:1032400000963D4E31401606360C31431E07360CB3
:1032500031433A4E354001273F03009E3E433543FC
:1032600081830584F8BD828B2B4B64331A408283A3
:10327000828B0A4382837047F8B50C4600210025F3
:1032800000260096068C244F903F3E400684818B9A
:10329000058C2606360C00961F4E833E31401E05D7
:1032A000360C16433143264E3540FF270137009E2A
:1032B0003E43354381830584F8BD028B1C4B1A4085
:1032C0000283028B0B061B0C1A4302837047F8B56E
:1032D0000C460021002500260096068C0E4F603714
:1032E0003E400684018B058C2605360C0096124E56
:1032F00031401E07360C31431606360C3143064E5C
:10330000303E35401027009E3E43354301830584FF
:10331000F8BD0000FFBF00008FFF0000FF8F00001E
:10332000FFF70000FFFB0000FFFD0000FFDF0000D3
:10333000FFF30000FFEF0000FF0C0000FF5F000044
:10334000FFF50000028BD84B1A400283028B0A4320
:1033500002837047F0B50C4600210025068CD24F41
:103360000B373E400684018B058CCF4EE73E314043
:103370001E05360C16433143CB4EB61C3540012694
:103380002643354301830584F0BD70B505460C46E0
:10339000208800280AD12389A28861882846FFF75F
:1033A000D9FFE1882846FFF7CDFF25E020880428D3
:1033B0000AD12389A28861882846FFF788FFE1881F
:1033C0002846FFF77AFF17E0208808280AD12389CA
:1033D000A28861882846FFF74FFFE1882846FFF75B
:1033E00042FF09E02389A28861882846FFF71AFF77
:1033F000E1882846FFF70CFF70BD00210180418065
:10340000012181800021C18001817047F8B5054606
:103410000C46002601276088002801D1022600E022
:103420000026A088012801D1022700E0012720887A
:10343000002814D12389A28861882846FFF78AFFD3
:10344000E1882846FFF77EFF23893A463146284621
:10345000FFF73DFFE1882846FFF72FFF13E02389A0
:10346000A28861882846FFF732FFE1882846FFF7E7
:1034700024FF23893A4631462846FFF76BFFE1884F
:103480002846FFF75FFFF8BD0146486B70470146CD
:10349000886B70470146C86B70470146086C7047DF
:1034A000002A03D083890B43838102E083898B4305
:1034B000838170478182704702460020138A0B4047
:1034C000002B01D0012000E000207047CA43028297
:1034D000704730B50246002000230024158A0D40B5
:1034E0002B4695890D402C46002B03D0002C01D093
:1034F000012000E0002030BDCA430282704710B5B1
:103500000B4613434824235210BD002A03D083895D
:103510000B43838102E083898B43838170470029B9
:1035200004D0828808231A43828004E082885E4B9C
:103530001B1D1A408280704701895B4A521D114051
:10354000018170470A4600210189574B643B1940AD
:103550000B46134319460181704730B504460D46AA
:1035600029462046FFF7EEFF2089072108432081E6
:1035700030BDF8B504460D4616461F46602D06D1EF
:103580003B46012231462046FFF7A1FE05E03B46BF
:10359000012231462046FFF7DDFE29462046FFF78F
:1035A000D1FF2089072108432081F8BD30B50C46A2
:1035B00000210189C9B21D062D0C1543254329435D
:1035C000018130BDFFB505460E46174600243A4638
:1035D00031462846039BFFF7E9FF2C893248401DFE
:1035E00004400720044330486438044070200443FA
:1035F0002C81FFBDF0B504460D4616461F463B46DE
:10360000324629462046FFF7D1FF20890121890350
:1036100008432081F0BD8288234B643B1A4082809E
:1036200082880A438280704702891F4B5B1D1A40C3
:10363000028102890A430281704702891A4B743B56
:103640001A40028102890A4302817047F0B50C4694
:103650000021002500260189058B068C124F7F1D55
:1036600039400F4627433946104F3D40FF27023768
:103670003D430D4F9E3F3E401F053F0C17433E43C9
:10368000018105830684F0BD002904D0828880234F
:103690001A43828004E08288034B743B1A40828084
:1036A0007047502211527047F3FF0000FCFC0000ED
:1036B00010B50446F748844209D101218803FFF779
:1036C00052F9002101208003FFF74DF90BE0F24889
:1036D000844208D101214804FFF753F90021012059
:1036E0004004FFF74EF910BDF0B589B005460E460F
:1036F00000240020089000BF00BF28684008400058
:1037000028606C6803210903204688430446B0689A
:1037100004436C602C68E1480440F1687068084319
:103720003169084304432C60AC6803210902204638
:103730008843044670690443AC606846FEF7F9FFAD
:10374000D448854202D10698089001E0029808907A
:1037500028680121C9030840002809D032685100B7
:103760001923089A5A43104602F0E8FB074608E07E
:10377000326891001923089A5A43104602F0DEFB82
:1037800007466421384602F0D9FB04012009642170
:103790004843381A079028680121C90308400028C7
:1037A0000AD00799C90008463230642102F0C6FBEE
:1037B0004007400F044309E00799090108463230E9
:1037C000642102F0BBFB0007000F0443AC8109B089
:1037D000F0BD4B21C9010160002141608160C160E1
:1037E0000C21016100214161704710B5002242683F
:1037F0000F2424021346A3431A464C680B68234344
:103800008C682343CC6823431A43426010BD0021D7
:10381000016041608160C1607047002904D0026886
:1038200001231A43026003E002685208520002605A
:103830007047002A03D003680B43036002E003686B
:103840008B4303607047002905D002680123DB0326
:103850001A43026004E002680123DB039A4302601A
:103860007047002905D082680123DB021A43826079
:1038700004E082680123DB029A43826070470029DA
:1038800005D042680123DB041A43426004E0426829
:103890000123DB049A4342607047002905D0426847
:1038A00001239B041A43426004E0426801239B0405
:1038B0009A4342607047002A03D043680B43436039
:1038C00002E043688B4343607047002905D042689B
:1038D0000123DB031A43426004E042680123DB0357
:1038E0009A4342607047002905D042680123DB05F6
:1038F0001A43426004E042680123DB059A434260B8
:1039000070474269120E1206426142690A434261DF
:103910007047028AFF231B021A400282028A0A436E
:1039200002827047002904D0026802231A43026011
:1039300003E0026802239A4302607047826803230F
:103940001B059A43826082680A438260704700299F
:1039500005D0426801231B051A43426004E0426817
:1039600001231B059A4342607047426803235B05AD
:103970009A43426042680A4342607047C16901222B
:10398000D2039143C1617047CA05D20D02857047C9
:103990000146888CC005C00D704742681202120AA9
:1039A000426042680B061A4342607047002905D006
:1039B000026801235B031A43026004E002680123EA
:1039C0005B039A430260704702680123DB029A435B
:1039D000026002680A4302607047426810239A43FB
:1039E000426042680A4342607047426820239A431B
:1039F000426042680A4342607047002905D042682D
:103A000001239B031A43426004E0426801239B03A5
:103A10009A4342607047002904D0826808231A4301
:103A2000826003E0826808239A4382607047028ABA
:103A3000D2B20282028A0B021A4302827047002924
:103A400004D0826820231A43826003E08268202326
:103A50009A4382607047002904D0826810231A4379
:103A6000826003E0826810239A4382607047826814
:103A700007235B049A43826082684B041A43826086
:103A8000704742691202120A426142690B061A43E8
:103A9000426170470038014000440040F3E9FFFFF5
:103AA000826804239A43826082680A438260704776
:103AB000002904D0826802231A43826003E08268EE
:103AC00002239A4382607047002905D0826801234F
:103AD0009B031A43826004E0826801239B039A439C
:103AE0008260704782680123DB039A4382608268A8
:103AF0000A438260704702681F235B059A43026095
:103B000002684B051A430260704702681F231B04BA
:103B10009A43026002680B041A4302607047002A4D
:103B200003D083680B43836002E083688B43836028
:103B30007047826801235B039A43826082680A436C
:103B400082607047F8B503460024002600960025E1
:103B5000002018460E04340ECEB200960127009EB7
:103B6000B7403D46022C01D1001D02E0032C00D1DC
:103B70000830002A03D006682E43066002E006687B
:103B8000AE430660F8BD002A03D0038B0B430383CA
:103B900002E0038B8B4303837047826801231B037E
:103BA0009A43826082680A4382607047024600201E
:103BB000D3690B40002B01D0012000E000207047AA
:103BC0000162704770B502460B46002400210025B3
:103BD00000201E04350ED9B201268E403146012D3B
:103BE00002D11668314006E0022D02D156683140FC
:103BF00001E0966831401C0C0126A6403446D66987
:103C00003440002903D0002C01D0012000E0002026
:103C100070BD10B5002300220B0C01249C402246ED
:103C2000026210BD002106E00A2100BF0A464B1EB9
:103C300099B2002AFAD10246431E98B2002AF3D163
:103C40007047002106E0064900BF0A464B1E99B2A4
:103C5000002AFAD10246431E98B2002AF3D17047D7
:103C6000E02E0000002101E04A1CD1B28142FBDBC2
:103C7000704730B5002500230024F848007800285C
:103C800038D10220F549087000BF31E00920C00694
:103C9000808AF34908400446F248C05C2043092169
:103CA000C90688823C20FFF7DDFFEF48008A8407C1
:103CB000A40F5800ED49085AA04211D1EC48C05C4D
:103CC0000F2804DAEA48C05C401CE949C854E848B7
:103CD000C05C05280AD10125E043E649C85405E047
:103CE0000020E349C8545800E0490C52581CC3B2A4
:103CF000032BCBDB284630BD10B504462046E10F30
:103D0000091849104900611A0AD1FF21013109201F
:103D1000C006FEF7BCFA3020D7498870C8700AE0A8
:103D2000FF2101310920C006FEF7AFFA3020D24949
:103D300088703120C87010BD10B50446002C47D1E2
:103D40000021CE48FDF75CFF002101204002FEF774
:103D5000E0FDCA48FDF72AFF0021C948FEF710F927
:103D600000210120FEF7C7FDC548FEF793F8C548BE
:103D7000FFF79EFC0021C348FFF74FFD0021012003
:103D80008003FEF7C6FD0021BF48FEF796FF002125
:103D900001208007FEF791FFBB48FEF7A3FE00213C
:103DA000B948FEF7B0FF0920C006808AB022104350
:103DB00001460920C006FEF772FAFCF7C4FB01F0C9
:103DC000E9FA0020FFF798FF0120B049087017E0DA
:103DD000002101200007FEF7AAFDFCF723FBFCF7FA
:103DE000E8FBFCF704FC01F0AFFEFCF78CFC01F0F3
:103DF000C3FAFCF78AFB0020A4490870A449487064
:103E000010BD10B5A2484078012808D10020A14972
:103E100008709F4948704D20974948713CE09D4883
:103E20000078002826D09B480078052804D1FDF7AB
:103E30007DFDFCF76AFB06E096480078062802D173
:103E40000120FFF779FF01F0D4FA002091490870B2
:103E500020209149087048708870C87008734873B2
:103E60008873C8738D490870487088704873887368
:103E7000C87311E085490878C10F09184910490035
:103E8000411A02D101F086FA01E001F075FA7F488B
:103E90000078401C7D49087010BD10B57C48407802
:103EA00001287CD17A480078401E7949087008467C
:103EB0000078012801DA0A200870754800780300AC
:103EC00002F060FC0B6C07111B252F39434D576224
:103ED0006C0047206849C871452008724E2048721E
:103EE000202088725AE053206349C8714520087227
:103EF000542048722020887250E041205E49C871E9
:103F00004C2008724D2048722020887246E04320E1
:103F10005949C87150200872552048722020887273
:103F20003CE054205449C871452008724D20487225
:103F30005020887232E047204F49C87141200872F2
:103F40004D2048724520887228E04C204A49C871AB
:103F50004F20087257204872502088721EE042207D
:103F60004549C87154200872522048725320887203
:103F700014E042204049C87154200872562048720B
:103F8000452088720AE00AE042203B49C87154206B
:103F90000872412048724420887200BFEAE03D4820
:103FA0000078012858D12D480079030002F0EAFB7F
:103FB000075305111D293743530039488078401CA9
:103FC0003749887008468078172801DD00208870FE
:103FD00041E033484078401C3149487008464078F9
:103FE0003B2801DD0020487035E02D480078401C5A
:103FF0002B490870084600783B2801DD0020087036
:1040000029E027488079401C254988710846807935
:104010002449884202DD3320214988711BE0204871
:104020000079401C1E490871084600790C2801DD02
:10403000012008710FE01A48C078401C1849C87068
:104040000846C0780979184A515C884202DD01208F
:104050001349C87000BF8DE028E000000000002078
:10406000F0FF0000C701002000040048E00100202C
:10407000DD010020BE010020790100200024014064
:10408000080002400038014000040040DA0100202E
:10409000DB010020940500205701002024010020AE
:1040A000CA0100203308000080680008F748007843
:1040B000022858D1F6480079030002F063FB075349
:1040C00005111D2937435300F2488078401CF149FF
:1040D000887008468078172801DD0020887041E04C
:1040E000EC484078401CEB494870084640783B2833
:1040F00001DD0020487035E0E6480078401CE549C5
:104100000870084600783B2801DD0020087029E08F
:10411000E0488079401CDF49887108468079DE4993
:10412000884202DD3320DB4988711BE0D9480079E1
:10413000401CD8490871084600790C2801DD01208F
:1041400008710FE0D348C078401CD249C8700846B7
:10415000C0780979D14A515C884202DD0120CD49FD
:10416000C87000BF06E0C9480078052802D10220C7
:10417000FDF719FA10BD70B50024C51800BF05E0A1
:104180002E780E706D1C491C661CF4B29442F7DB4D
:1041900070BD10B5C2484078012873D1C04800787E
:1041A000401EBA4908700020BD4948700120B84936
:1041B0000871B6480078012809D100230822B949BE
:1041C000B948FFF7D8FF4D20B849487175E0AF48AE
:1041D0000078022809D100230822AE49B248FFF72F
:1041E000CAFF4D20B149487167E0A848007800280F
:1041F00003D14D20AD4948715FE0A4480078032801
:1042000003D14D20A949487157E0A04800780428FF
:1042100003D14D20A54948714FE09C4800780528FE
:1042200007D1FCF790F94D20A0494871FDF78CF9B2
:1042300043E096480078062806D14D209B494871F6
:104240000020FFF779FD38E090480078072802D178
:1042500000F0B3FC31E08D480078082806D14D20ED
:1042600092494871012000F0AFFC26E087480078B1
:10427000092822D14D208D494871022000F0A4FC6C
:104280001BE0FFE781480078012803D07F480078D1
:1042900002280BD17E480079401C7D4908710846F0
:1042A0000079042809DD0120087106E077480078CC
:1042B000052802D10420FDF776F910BD10B50822BB
:1042C0007449002000F011FE10BDF0B587B0002049
:1042D00006907348407801287ED06C48007800280A
:1042E00003D06A48007803280AD101206C4948703D
:1042F000087053206D4948710A20644908706BE0CA
:1043000062480078012854D1664880790690654952
:1043100048780A2101F028FE0701624948780A21FD
:1043200001F022FE0F43FCB25E4988780A2101F0B9
:104330001BFE07015B4988780A2101F015FE0F4337
:10434000FDB25849C8780A2101F00EFE070155490F
:10435000C8780A2101F008FE0F43FEB251490879DE
:104360000A2101F001FE07014E4908790A2101F0F6
:10437000FBFD0F43F8B20A210590069801F0F4FD09
:1043800007010A21069801F0EFFD0F43F8B20490EF
:10439000002001902B463246009402900599049823
:1043A00001F00AFBC8203A494870002037490870DC
:1043B00012E036480078022808D1FFF77FFFC820B6
:1043C0003349487000203149087005E02F480078D3
:1043D000052801D1FDF7D5FA07B0F0BD10B530487A
:1043E0004078012878D12E480078401C2C4908706C
:1043F000084600780A2801DD012008702848007866
:10440000030002F0BFF90B7E07111B252F39555F02
:104410006A747E0047202549C871452008724E20E5
:104420004872202088726CE053202049C8714520D2
:104430000872542048722020887262E041201B4993
:10444000C8714C2008724D2048722020887258E0B4
:1044500043201649C8715020087255204872202008
:1044600088724EE054201149C871452008724D20D1
:1044700048725020887244E047200C49C87141209E
:1044800008724D204872452088723AE09405002059
:1044900000000020D20100203308000080680008DE
:1044A000DB010020CA0100207105002079010020F5
:1044B0004C20E149C8714F200872572048725020A3
:1044C00088721EE04220DC49C871542008725220D4
:1044D00048725320887214E014E04220D649C87113
:1044E00054200872562048724520887209E0422004
:1044F000D149C87154200872412048724420887202
:1045000000BFC4E0CD48007801285AD1CC480079DA
:10451000030002F037F9075505111D2938445500ED
:10452000C8488078401EC749887008468078FF28B0
:1045300001D11720887043E0C2484078401EC1492D
:10454000487008464078FF2801D13B20487037E08A
:10455000BC480078401EBB49087008460078FF2818
:1045600001D13B2008702BE0B6488079401EB54948
:104570008871084680797D210901884202DAD020BD
:10458000B04988711CE0AF480079401EAD49087100
:1045900008460079012801DA0C20087110E0A948CA
:1045A000C078401EA749C8700846C078012806DABE
:1045B00008460079401EA449085CA249C87000BFA3
:1045C00065E09E48007802285AD19D480079030092
:1045D00002F0D8F8075505111D29384455009B48AD
:1045E0004078401E9949487008464078FF2801D11C
:1045F0001720487043E095484078401E9349487022
:1046000008464078FF2801D13B20487037E08F48AA
:104610000078401E8D49087008460078FF2801D1B7
:104620003B2008702BE089488079401E87498871BB
:10463000084680797D210901884202DAD020834929
:1046400088711CE081480079401E80490871084645
:104650000079012801DA0C20087110E07B48C0784D
:10466000401E7A49C8700846C078012806DA084614
:104670000079401E7449085C7449C87000BF06E0A8
:104680006E480078052802D10120FCF78CFF10BD90
:1046900010B56F48407801280AD069480079401E5B
:1046A0006749087108460079012801DA0620087177
:1046B00062480078002803D060480078032817D1AA
:1046C0005F484079401C5E4948714879FFF714FB08
:1046D0005B484479E00F001940104000201A01D0D7
:1046E000012000E000200146082000F088FB06E0E1
:1046F00052480078052802D10320FCF754FF10BD72
:1047000010B504465348005D00281DD064204C4974
:104710004870230002F036F80604070A0D1013163D
:10472000FFF7B6FF0FE0FFF759FE0CE0FFF7CDFDF6
:1047300009E0FFF72EFD06E0FFF7AFFB03E0FFF710
:1047400060FB00E000BF00BF10BDFEB5064602964C
:10475000029EF007C00F002829D0002425E03E4823
:10476000005D3E49095D48400190019800281AD03B
:10477000002516E00120A840C7B260004019C0B271
:1047800000903648015D3940324A00981154324851
:10479000005D7840304908550098FFF7B1FF681C6C
:1047A000C5B2022DE6DB601CC4B2032CD7DBFEBD14
:1047B00010B522480078002830D129488078234954
:1047C000897888422AD12648407820494978884209
:1047D00024D123480078142820DCFF201849487091
:1047E000002048714879FFF787FA154840791D493C
:1047F0000978884212D012484479E00F001940101D
:104800004000201A01D0012000E0002001460820CD
:1048100000F0F5FA0A4840791249087010BD10B549
:1048200001211148FEF755FE002803D001210E4852
:10483000FEF762FE10BD0000790100209405002003
:1048400000000020CA01002080680008D20100207A
:10485000DB010020C1010020E6010020BE01002094
:1048600071050020E90100200004004010B500247B
:10487000FD49FE48FFF7A6F900284AD02021FB4851
:10488000FFF79EF9F849F948FFF7C3F9F7482030D8
:104890008088C4B2F02C01D04F2C02D10020F44902
:1048A0000870F448F24909784454F1480078401CF3
:1048B000EF490870F72C01D04B2C06D1EC4800785A
:1048C000ED4908700020EA490870EC480078082893
:1048D0000BD1E7480078152807DBE5480078E64962
:1048E00008700020E24908700EE0E44800780928CA
:1048F0000AD1DF480078132806DBDD480078DE495E
:1049000008700020DA490870DB48C078401CDA499A
:10491000C87010BD30B5002100200023D84AD64C05
:104920002478002C12D0D44C23780024D24D2C7043
:1049300000BF08E0CF4C645C1470521C0024CD4DC5
:104940006C544C1CE1B29942F4DB012030BD70B5CF
:1049500005460E4600240CE0295DC448FFF714F814
:1049600000BF4021C148FFF721F90028F9D0601CA1
:10497000C4B2B442F0DBC0488078401CBE498870A5
:1049800070BDF0B589B00446BEA103C90891079077
:1049900060790002A17940187D210901401A80B296
:1049A0000690A07A0A2101F0DFFA0701A07A0A2115
:1049B00001F0DAFA0F43FDB2607A0A2101F0D4FA6D
:1049C0000701607A0A2101F0CFFA0F43FEB2207A84
:1049D0000A2101F0C9FA0701207A0A2101F0C4FA7C
:1049E0000F43F8B20590E0790A2101F0BDFA070102
:1049F000E0790A2101F0B8FA0F43F8B20A210490D5
:104A0000069801F0B1FA07010A21069801F0ACFA04
:104A10000F43F8B2039000200190334600950290B6
:104A200003A807C800F0C8FF072107A8FFF78FFFFA
:104A300009B0F0BD1CB595A103C9019100900721F3
:104A40006846FFF784FF00BFBFF34F8F914892493C
:104A5000C860BFF34F8F00BF00BFFEE770B50546CB
:104A6000002D72D086480078F0286FD184484078B5
:104A70005A28FAD182488078A528F6D18048407912
:104A8000F7286CD17E48C078030001F07BFE0966F0
:104A9000061626366666664666007948007901285D
:104AA00005D110210920C006FDF7F1FB04E010211B
:104AB0000920C006FDF7E9FB50E0714800790128A4
:104AC00005D120210920C006FDF7E1FB04E02021EB
:104AD0000920C006FDF7D9FB40E0694800790128AC
:104AE00005D180210920C006FDF7D1FB04E080211B
:104AF0000920C006FDF7C9FB30E0614800790128B4
:104B000005D140210920C006FDF7BFFB04E040218C
:104B10000920C006FDF7BBFB20E0594800790028BA
:104B200002D15E49487102E001205C4948715B494D
:104B30004879FFF7E1F859484479E00F001940102F
:104B40004000201A03D0012002E021E031E00020E3
:104B50000146082000F053F900E000BF2CE048486F
:104B60008079F72815D14648C078062801D1FFF78B
:104B700061FF4348C07807281ED1414800797F284B
:104B80001AD13F484079012816D100203A4948708F
:104B900012E03B48007BF7280ED13948C07809283D
:104BA0000AD137480079402806D13548FFF7E9FE99
:104BB00002E03348FCF739FF70BD10B5082138A07A
:104BC000FFF7C5FE012010BD10B50446002C04D02F
:104BD000012C07D0022C0FD109E0022133A0FFF7EE
:104BE000B6FE09E00A2132A0FFF7B1FE04E0092178
:104BF00032A0FFF7ACFE00BF00BF10BD7FB56C4612
:104C0000314800783149097888427DD02E480078B3
:104C10002E490870F0202070641C5A202070641CFB
:104C2000A5202070641C05202070641C402020708A
:104C3000641C254989797D2212018818C117090E43
:104C4000091809122170641C1F4989798818C11735
:104C5000090E091809120902411A2170641C1A4828
:104C600000792070641C33E0050105000038014024
:104C7000EE0100201D080020EA010020940500201C
:104C80004F080020F05AA5090001F700F05AA506C8
:104C90000001F7000400FA0500ED00E0000000202C
:104CA00041542B524553455400000000415400002C
:104CB00041542B56455253494F4E000041542B410D
:104CC0004444523D3F00000071050020EF010020E8
:104CD0002F48C0782070641C2D4880782070641C98
:104CE0002B4840782070641C294800782070641C90
:104CF0006421284A0020105E01F020F905460A21AF
:104D000001F01CF9217000E01AE0641C0A21214A1C
:104D10000020105E01F012F905460A2101F00EF99B
:104D20002170641C0A211B4A0020105E01F006F964
:104D30002170641CF720207010216846FFF707FEE1
:104D40007FBD1CB514A103C9019100900121880702
:104D5000FEF7BFFB00281AD001218807FEF7CCFB25
:104D60000A210F48007801F0FFF8002908D1072137
:104D70006846FFF7ECFD0B484078401C0949487035
:104D800007480078401C06490870FCF763FD1CBD0D
:104D9000710500208A010020F05AA507017FF70065
:104DA000F0010020EA01002070B50446002600F062
:104DB000E5F82546E117090E491909124900A03105
:104DC000C8B200F095F900F020F9E117090E491971
:104DD00009120902611AC8B200F08AF900F015F947
:104DE00000F0CCF8A12000F083F900F00EF90020CB
:104DF00000F0B7F9064600F0E3F8304670BD70B534
:104E000004460E4600F0BAF82546E117090E491986
:104E100009124900A031C8B200F06AF900F0F5F8B3
:104E2000E117090E491909120902611AC8B200F006
:104E30005FF900F0EAF8304600F05AF900F0E5F8C2
:104E400000F0BEF80A20FEF7FCFE70BDF8B505467E
:104E50000E461746002409E0E2003346D340D9B29B
:104E60002A1990B2FFF7CBFF601CC4B2BC42F3DB3F
:104E7000F8BDF8B507460C460026002509E03602C5
:104E80003919491B491E88B2FFF78EFF8619681C25
:104E9000C5B2A542F3DB3046F8BD10B5FF20FFF7E1
:104EA00083FF0446552C01D1002010BD5521FF2061
:104EB000FFF7A5FFFF20FFF777FF0446552C01D130
:104EC0000020F2E70120F0E770B506460C461546D3
:104ED00008E03046721C96B2FFF766FF2070641C33
:104EE000681E85B2002DF4D170BD70B505460C4624
:104EF000164606E021782846FFF781FF681C85B238
:104F0000641C3046711E8EB20028F3D170BD1CB5F2
:104F10000320C002009001216846017100218171C7
:104F20000321417169460920C006FDF731F90321CB
:104F3000C9020920C006FDF7A8F91CBD1CB5012057
:104F4000000300900021684601710121C17169468A
:104F50000920C006FDF71CF91CBD1CB5012000038B
:104F60000090012168460171002181710321417186
:104F700069460920C006FDF70BF91CBD10B5FFF707
:104F8000ECFF012109030920C006FDF77EF901218C
:104F9000C9020920C006FDF778F90420FEF742FE99
:104FA000012109030920C006FDF771F90420FEF76D
:104FB00039FE0121C9020920C006FDF768F910BDBC
:104FC00010B5FFF7CAFF0121C9020920C006FDF78D
:104FD0005EF9012109030920C006FDF758F90420F4
:104FE000FEF720FE0121C9020920C006FDF74DF998
:104FF0000420FEF717FE012109030920C006FDF772
:1050000044F90420FEF70EFE10BD10B50024FFF792
:1050100095FF012109030920C006FDF736F901209B
:10502000FEF700FE0121C9020920C006FDF72DF997
:105030000120FEF7F7FD07E0601CC4B2FA2C03DD87
:10504000FFF7BEFF012010BD012109030920C006A2
:10505000FDF701F90028EFD10121C9020920C0069E
:10506000FDF715F90020EEE710B50121C90209206E
:10507000C006FDF70CF9FFF770FF012109030920B5
:10508000C006FDF704F90220FEF7CCFD0121C9029C
:105090000920C006FDF7F9F80220FEF7C3FD012143
:1050A000C9020920C006FDF7F2F810BD10B50121B4
:1050B000C9020920C006FDF7EAF8FFF74EFF0121FB
:1050C00009030920C006FDF7E0F80220FEF7AAFD5B
:1050D0000121C9020920C006FDF7D7F80220FEF71A
:1050E000A1FD0121C9020920C006FDF7D0F810BDBD
:1050F00070B50446FFF731FF0121C9020920C0063F
:10510000FDF7C5F8002529E080202040002806D0C2
:10511000012109030920C006FDF7B7F805E00121C8
:1051200009030920C006FDF7B2F86006040E02204C
:10513000FEF778FD0121C9020920C006FDF7A5F898
:105140000220FEF76FFD0121C9020920C006FDF70C
:105150009EF80220FEF766FD681CC5B2082DD3DB61
:1051600070BD70B505460024FFF7E8FE00261FE07D
:105170000121C9020920C006FDF789F80220FEF7C7
:1051800051FD0121C9020920C006FDF77EF8600625
:10519000040E012109030920C006FDF75CF8002870
:1051A00001D0601CC4B20120FEF73CFD701CC6B2E9
:1051B000082EDDDB002D02D1FFF778FF01E0FFF7BD
:1051C00053FF204670BD000010B54021F848FDF7A0
:1051D0005CF88021F648FDF758F88021F448FDF787
:1051E00056F84021F248FDF752F810BD10B54021A5
:1051F000EF48FDF74AF88021ED48FDF748F8802197
:10520000EB48FDF742F810BD10B54021E848FDF726
:105210003CF84021E648FDF73AF810BDF8B50546E0
:105220002C464021E248FDF732F8002619E02746D7
:1052300080200740802F04D18021DD48FDF725F82C
:1052400003E08021DA48FDF722F86006040E4021D1
:10525000D748FDF71AF84021D548FDF718F8701C1B
:10526000C6B2082EE3DBF8BD10B50446FFF7ACFF6D
:105270007820FFF7D3FFFFF7C7FF0020FFF7CEFF2F
:10528000FFF7C2FF2046FFF7C9FFFFF7BDFFFFF79B
:10529000ADFF10BD10B50446FFF796FF7820FFF76D
:1052A000BDFFFFF7B1FF4020FFF7B8FFFFF7ACFFEE
:1052B0002046FFF7B3FFFFF7A7FFFFF797FF10BDEB
:1052C00070B504460D46002D03D0E0B2FFF7E2FFB3
:1052D00002E0E0B2FFF7C8FF70BD70B506460024DB
:1052E00018E02046B0300021FFF7EAFF002102203D
:1052F000FFF7E6FF00211020FFF7E2FF002505E0A1
:1053000001213046FFF7DCFF681CC5B2802DF7DBBA
:10531000601CC4B2082CE4DB70BD05E0A54900E0C8
:10532000491E0029FCD1401E0028F7D170470146D4
:1053300005E0002001E0421CD0B27B28FBDB0A46DE
:10534000491E002AF5D1704770B504460D4628461F
:10535000B0300021FFF7B4FFA11CF0221140091169
:10536000084610300021FFF7ABFFA11C0807000F13
:105370000021FFF7A5FF70BD10B500218D20FFF7BC
:105380009FFF00211420FFF79BFF0021AF20FFF7B4
:1053900097FF10BD10B500218D20FFF791FF002170
:1053A0001020FFF78DFF0021AE20FFF789FF10BD11
:1053B000F8B505460E462C4618E02046B0300021D0
:1053C000FFF77EFF00210220FFF77AFF0021102067
:1053D000FFF776FF002705E001210020FFF770FFAF
:1053E000781CC7B2802FF7DB601CC4B2B442E4DB88
:1053F000F8BD70B5002418E02046B0300021FFF75A
:105400005FFF00210220FFF75BFF00211020FFF764
:1054100057FF002505E001210020FFF751FF681C20
:10542000C5B2802DF7DB601CC4B2082CE4DB70BD74
:1054300070B5002418E02046B0300021FFF740FF8F
:1054400000210220FFF73CFF00211020FFF738FF6A
:10545000002505E001210846FFF732FF681CC5B2B0
:10546000802DF7DB601CC4B2082CE4DB70BDFFB5F7
:1054700081B007460D460026002403982038C6B2A6
:105480007F2F02DD0027A81CC5B20498102824D164
:1054900029463846FFF758FF002408E03101091972
:1054A000454A505C0121FFF70BFF601CC4B2082C79
:1054B000F4DB681CC1B23846FFF746FF002409E060
:1054C0003101091908313C4A505C0121FFF7F8FE0F
:1054D000601CC4B2082CF3DB11E029463846FFF704
:1054E00033FF002409E006217143344A8918085D1E
:1054F0000121FFF7E5FE601CC4B2062CF3DB05B00A
:10550000F0BD10B50246012002E0034653431846A1
:105510000B464C1EE1B2002BF7D110BDFFB583B096
:105520001E460C9C0020029000253CE0701B401E93
:10553000C1B20A20FFF7E5FF01460090059800F090
:10554000FDFC0A21019000F0F9FC0F4602980028AA
:1055500015D1701EA84212DD002F0ED1E00F0019E8
:1055600040106843019403994018C0B2234620229A
:1055700000900499FFF77BFF13E001200290E00FF9
:10558000001940106843019403994018C0B200907C
:1055900038463030C2B2234604990098FFF767FFBF
:1055A00000BF681CC5B2B542C0DB07B0F0BD00004B
:1055B0000004004865180000B46A00088C68000800
:1055C000FFB581B004460F46154600260FE0AA5DE0
:1055D00039462046049BFFF74AFF20460830C4B2F4
:1055E000782C02DD0024B81CC7B2701CC6B2A85DBE
:1055F0000028ECD105B0F0BDF7B50E4615460027E2
:1056000031460098FFF7A0FE00240AE0A901704A85
:105610008918085D0121FFF753FE781CC7B2601C92
:10562000C4B2102CF2DB701CC1B20098FFF78CFEE4
:1056300000240CE06900491C4901654A8918085D8D
:105640000121FFF73DFE781CC7B2601CC4B2102CCC
:10565000F0DBFEBDFFB583B006460F461C460020BA
:1056600002902046E117490F0918C910C900611AB4
:1056700005D1E117490F091849050D0E06E020462E
:10568000E117490F0918C910491CCDB23D4617E072
:1056900029463046FFF758FE01960BE002994A1C56
:1056A00002920C9A505C0121FFF70AFE0198401CFF
:1056B000C0B20190059901988842EFDB681CC5B221
:1056C000A542E5DB07B0F0BD1CB5C020009001216C
:1056D00068460171002181710321417169463D488D
:1056E000FCF756FDC0213B48FCF7CFFD19204001D7
:1056F000FEF7A7FA0021AE20FFF7E2FD002102200D
:10570000FFF7DEFD00211020FFF7DAFD0021402029
:10571000FFF7D6FD0021B020FFF7D2FD0021812048
:10572000FFF7CEFD0021FF20FFF7CAFD0021A120D9
:10573000FFF7C6FD0021A620FFF7C2FD0021A8202B
:10574000FFF7BEFD00213F20FFF7BAFD0021C82072
:10575000FFF7B6FD0021D320FFF7B2FD0021084678
:10576000FFF7AEFD0021D520FFF7AAFD0021802024
:10577000FFF7A6FD0021D820FFF7A2FD002105209C
:10578000FFF79EFD0021D920FFF79AFD0021F120AF
:10579000FFF796FD0021DA20FFF792FD002112208D
:1057A000FFF78EFD0021DB20FFF78AFD002130206E
:1057B000FFF786FD00218D20FFF782FD00211420D8
:1057C000FFF77EFD0021AF20FFF77AFD1CBD000032
:1057D000F1010020000400481CB5102000900121B8
:1057E0006846017100218171032141716946954824
:1057F000FCF7CEFC1CBD70B504460025FFF7ECFF9E
:105800000120FEF70FFA00BF27E08E48808A0821AA
:1058100088438C498882E007C00F002807D00846DB
:10582000808A1021884310308649888205E08548A7
:10583000808A10218843834988820120FEF7F2F98B
:105840008048808A0821884308307E498882012068
:10585000FEF7E8F96410681CC5B2082DD5DB70BDF1
:1058600070B505460C467748808A202188437549E3
:1058700088820846808A08218843724988820846BF
:10588000808A2021884320306E4988822846FFF78D
:10589000B2FF2046FFF7AFFF6A48808A082188439D
:1058A0000830684988820846808A202188436549F3
:1058B000888270BD1CB528200090012168460171C6
:1058C000002181710321417169465E48FCF760FC4B
:1058D0005C48808A082188435A49888200218020B8
:1058E000FFF7BEFFA8219020FFF7BAFF80218E208E
:1058F000FFF7B6FF1CBD1CB51020009000216846C4
:105900000171C17169464F48FCF742FC1CBD70B57E
:105910000024FFF7F0FF0120FEF784F900251DE0C9
:1059200064104848808A08218843083045498882A5
:105930000120FEF777F94348808A082188434149CE
:1059400088820120FEF76EF910213E48FCF783FCA7
:10595000012801D180200443681CC5B2082DDFDB7B
:10596000204670BD70B504463648808A20218843A1
:10597000344988820846808A0821884331498882D0
:105980000846808A2021884320302E49888220467C
:10599000FFF731FFFFF7BBFF05462A48808A082141
:1059A00088430830274988820846808A2021884316
:1059B00024498882284670BDF8B504460F4615462E
:1059C0001E4600218E20FFF74BFF80200799FFF72E
:1059D00047FF82200699FFF743FF31468420FFF7F7
:1059E0003FFF29468620FFF73BFF39468820FFF717
:1059F00037FF8A200899FFF733FF21468C20FFF7F5
:105A00002FFF80218E20FFF72BFFF8BD10B500245B
:105A100014E061008131C8B2FFF7A4FF0A490855BC
:105A20000846005D00110A2148430749095D09073E
:105A3000090F401804490855601CC4B2072CE8DB64
:105A400010BD0000000400487105002000B58BB0B7
:105A50009348FCF71FFA9348009093480190002068
:105A600002900220039000200490802005904000C6
:105A700006908000079020200890000209900020E6
:105A80000A9069468648FCF751FA01218448FCF7E0
:105A900077FA012202218248FCF784FA0221814828
:105AA0004038FCF7B1F901217E484038FCF7A0F9F5
:105AB0007C484038FCF793F90BB000BD00B587B0C7
:105AC00001214802FCF725FF01210846FCF713FFDE
:105AD00074484038FCF76AF801A8FCF789F8002000
