:020000040800F2
:10000000C00E0020891C00080D0200080F02000825
:1000100000000000000000000000000000000000E0
:1000200000000000000000000000000013020008B3
:100030000000000000000000150200081702000880
:100040009B1C00089B1C00089B1C00089B1C0008B4
:100050009B1C00089B1C00089B1C00089B1C0008A4
:100060009B1C00089B1C00083F0200089B1C00080A
:100070009B1C00089B1C00089B1C00082702000812
:100080002F0200089B1C0008000000009B1C0008B9
:100090009B1C0008370200089B1C00089B1C0008E2
:1000A0009B1C00089B1C00089B1C00081F020008EA
:1000B0009B1C0008000000009B1C000800000000C2
:1000C0000448854606F02AFC00480047EB0100087A
:1000D000C046C046C00E00204A480078002804D020
:1000E00048480078401E4749087046484089002823
:1000F00004D044484089401E4249488141484078E4
:10010000002804D03F484078401E3E4948703D4892
:100110008078002804D03B488078401E3949887098
:1001200038488089002804D036488089401E3549E7
:1001300088813448C089002804D03248C089401ED4
:100140003049C8812F48C078002804D02D48C07895
:10015000401E2C49C8702B480089401C2949088141
:10016000704710B500F072F900F080F900F036FA2F
:1001700000F088FA05F0ECFD00F057FA00F02AFBD9
:1001800004F0C9FF05F09AFC05F0A3FB00F00CFA9F
:1001900000F04EFB10BD1CB505F02FFA0822694691
:1001A000002004F095FF002308221749684604F058
:1001B000A9FA082004F0FCFE12494871487904F0BD
:1001C00018F9092004F0F4FE044601F07EFC05F065
:1001D00009FF05F01FFD00F0A0FB05F00EFA00F08E
:1001E00099F90020074908811CBDFFF7BAFFFFF706
:1001F000D2FF05E002F007F900F02AFB00F0E6FB71
:10020000F8E700000000002085050020704700BFCF
:10021000FEE77047704710B5FFF75EFF10BD10B5E1
:1002200004F0EDFB10BD10B504F063FE10BD10B579
:1002300004F0D0FB10BD10B504F08AFE10BD10B55F
:10024000202001F045FF002802D0202001F04CFFC3
:1002500010BD00000CB500200190009073480068AC
:100260000121090408437149086000BF6F48006814
:1002700001214904084000900198401C0190009819
:10028000002804D10521090201988842EED167486F
:100290000068012149040840002802D00120009094
:1002A00001E0002000900098012839D11120604918
:1002B00008605E4840685D4948600846406848609C
:1002C000084640683F210904884358494860084669
:1002D00040681121090408435449486008460068F1
:1002E0000121090608435149086000BF4F480068D2
:1002F0000121490608400028F8D04C484068800891
:1003000080004A494860084640680221084347493E
:10031000486000BF454840680C2108400828F9D1D2
:100320000CBD10B541480068012108433F490860F1
:10033000084640683F4908403C4948600846006814
:100340003D49084039490860084600680121890490
:10035000884336490860084640683F2109048843BD
:10036000324948600846C06A00090001C862084670
:10037000006BFF21543188432C4908630846406BC9
:1003800040084000486300208860FFF763FF10BD0D
:10039000F8B50025002400260027244840680C21D9
:1003A00008400546002D04D0042D06D0082D2AD182
:1003B00007E022482249086029E0204820490860D7
:1003C00025E01A4840680F21890408400446174870
:1003D00040680121090408400646A00C841C002E38
:1003E00004D118486043164908600BE00F48C06A02
:1003F0000007000F471C3946104805F0A3FE604374
:100400000F49086003E00D480D49086000BF00BFB8
:1004100006484068F021084000090B490D5C084877
:100420000068E84006490860F8BD0000001002407E
:10043000002002400CB8FFF8FFFFF6FE00127A0021
:100440001000002000093D001400002010B501211B
:100450000320400402F0CBFA01210920800302F0BE
:10046000D4FA0121032002F0DEFA10BD1CB5FF20F2
:10047000F130009001216846017100218171032152
:10048000417169460920C00601F0FEFE0720009078
:100490000121684601710021817103214171694682
:1004A0000920C00601F0F0FE0320009000216846FC
:1004B00001710121C1716946FE4801F0E5FE01228A
:1004C00007210920C00601F068FF032040020090C8
:1004D0000221684601710021817103214171694641
:1004E0000920C00601F0D0FE01220921C80601F052
:1004F00054FF01220A210920C00601F04EFF092005
:10050000C006808AB022104301460920C00601F0CF
:1005100042FF1CBD1CB5802000900221684601717D
:10052000002181710321417169460920C00601F053
:10053000ABFE1CBD1CB53020009001216846017146
:10054000002181710321417169460920C00601F033
:100550009BFE80200090022168460171002181717C
:100560000321417169460920C00601F08DFE1CBDC2
:100570001CB5302000900021684601718171032173
:10058000417169460920C00601F07EFE802000907E
:10059000002168460171817103214171694609207A
:1005A000C00601F071FE1CBD10B5C349C348006808
:1005B00005F0C8FD0446601EC149884200D90CE020
:1005C000601EC04948610321081F00F06CFF002035
:1005D000BC4988610720086100BF10BD00B587B025
:1005E000B94803F0E1F8E1204002019000200290B8
:1005F0000390049006900C20059001A9B24803F0E6
:10060000EFF80122B149B04803F018FB4021AE4891
:1006100003F052FB01228021AB4803F0FCFA0121D8
:10062000A94803F076F907B000BD00B58BB00121F1
:10063000084602F0DCF91020039000200A90089090
:100640001020029040020990802005909E4828309A
:1006500000900020049007909D4801900020069093
:1006600069469C4801F0DEFC202001F03DFD01229E
:100670000221984801F012FD0121964801F0FCFC8E
:100680000BB000BD00B589B0934802F0A7FAFF2077
:10069000F43007902F2168460183002101844183B3
:1006A00006A98D4802F000FB01218B4802F08AFF69
:1006B00001221146884802F06FFF60216846818060
:1006C0000121C180022101820020039001A98248FA
:1006D00002F0E3FB0821804802F025FD01217E485D
:1006E00002F067FB0120800702F078FA6320079090
:1006F0007A496846018300210184418306A90120CB
:10070000800702F0D1FA0121880702F05BFF012285
:100710001146900702F040FF0121880702F049FBD3
:100720006F4802F05BFA6F4807902F2168460183FB
:1007300000210184418306A96B4802F0B5FA01212A
:10074000674802F03FFF01221146654802F024FF8E
:100750000121634802F02DFB09B000BD00B585B052
:100760000121084602F051F90121880402F03FF905
:10077000052168460170002141700121817001F05E
:100780005FFE03200390002168460174022141743A
:100790000021C17403A9474801F076FD012001F052
:1007A00027FD022001F024FD0021012002F0DAF9EA
:1007B0000121084602F0D6F9032001900021684685
:1007C0000172102141720121817201A801F0A0FC87
:1007D00005B000BD08B51B216846017000214170BD
:1007E0000121817001F02CFE102168460170012169
:1007F0004170817001F024FE0F21684601700221D2
:1008000041700121817001F01BFE152168460170C5
:10081000032141700121817001F012FE0A21684616
:100820000170012181700221417001F009FE08BDB3
:1008300010B52E4801F0DEFD012001F0DEFD7D2027
:10084000400101F0DDFD01F0DEFD01F0E3FD10BD32
:1008500010B5002403F089FA0446002C02D020468B
:1008600003F0D6FA22498868804704F0F7F8044676
:10087000002C02D0204604F0C1F91E48C08900288F
:1008800009D17D2000011B49C88105F067FA05F0F8
:1008900019FC1949088017488078002806D164207F
:1008A0001449887005F0B6F904F04BF81148407807
:1008B000002823E00004004870170000100000200A
:1008C000FFFFFF0000E000E00038014005010500E7
:1008D000540800201C000240000400407FBB0000C0
:1008E00000440140E7030000002C01405555000082
:1008F00058010020000000202401002005D04021E4
:100900000920C00601F03DFD04E040210920C00699
:1009100001F039FD01F06CF910BD38B5002404F088
:100920006CFE10200346FDA202210090002004F07E
:100930004BFF10200346FEA204210090002004F08B
:1009400043FF00BF3FE00321204605F011FC0029D2
:100950000DD110210920C00601F015FD322003F051
:10096000ECF910210920C00601F00BFD26E003215F
:10097000204605F0FDFB01290DD120210920C006EC
:1009800001F001FD322003F0D8F920210920C00632
:1009900001F0F7FC12E00321204605F0E9FB0229F3
:1009A0000CD180210920C00601F0EDFC322003F0BB
:1009B000C4F980210920C00601F0E3FC1E2003F0E9
:1009C000BCF9601CC4B20F2CBDDB38BDF8B50025E6
:1009D00000260024DB480089DB4988424CDCD948EA
:1009E0000189DA480078DA4A5043814238DDD54837
:1009F0000189D64800785043C830814230DA00BFC0
:100A000020E0D248007884420DDABA2061006118F3
:100A10007C22511ACF4A5054610061187B22511A2E
:100A2000CC4A50540CE08220610061187C22511A9B
:100A3000C84A5054610061187B22511AC54A50546B
:100A4000601CC4B2042CDCDBC0480078401CBF49E9
:100A5000087008460078042801DD00200870012590
:100A6000002D0CD00025BB480223802200210090DD
:100A7000084604F0F4FE02E00020B2490881B148C3
:100A8000408900287ED1FA20AE494881B2480078DA
:100A9000002878D1B14989797D2212018818511036
:100AA00005F066FB3030C1B2AD48C174AB498979FD
:100AB0007D2212018818642105F05AFB07460A219D
:100AC00005F056FB3031A6480175A44989797D228D
:100AD000120188180A2105F04BFB07460A2105F090
:100AE00047FB30319E4841759C4989797D2212012E
:100AF00088180A2105F03CFB3031994881752D2179
:100B0000C175964908790A2105F032FB3030C1B22F
:100B100093480176914908790A2105F029FB303183
:100B20008F4841762D2181768C49C8780A2105F0BD
:100B30001FFB3030C1B28A48C1768849C8780A2183
:100B400005F016FB303186480177844988780A2100
:100B500005F00EFB303082490871804988780A21FF
:100B600005F006FB3031C8B27D4948713A208871E2
:100B70007A4948780A2105F0FBFA30307849C87183
:100B8000764901E0FEE350E048780A2105F0F0FAEA
:100B90003031C8B2724908723A2048726F490878F9
:100BA0000A2105F0E5FA30306D4988726B49087802
:100BB0000A2105F0DDFA3031C8B26949C872522104
:100BC00067482030017030218170FF2101310920F8
:100BD000C00601F0BCFB3030C1B261482030C170AA
:100BE0004721C171452101724E214172202181723C
:100BF000422101735B48407804280EDD4E2158489D
:100C0000203081734321C17320210920C00601F0E7
:100C1000B8FB00205349C87005E04C2150482030F3
:100C200081734521C1730126E3E34B480078012815
:100C300072D14D480078401C4B4908700846007836
:100C4000142801DD00200870474800780A2864DA7B
:100C5000464908887D21C90005F08AFA3030C1B2C2
:100C60003F48C17441490888642105F081FA07466C
:100C70000A2105F07DFA3031394801753B49088871
:100C80000A2105F075FA07460A2105F071FA30319C
:100C900033484175354908880A2105F069FA303131
:100CA0002F4881752D21C175304988790A2105F0B9
:100CB0005FFA3030C1B22A4801762C4988790A217E
:100CC00005F056FA3031264841762D2181762749A4
:100CD00048790A2105F04CFA3030C1B22048C1767B
:100CE000224948790A2105F043FA30311C4801773E
:100CF0001E4908790A2105F03BFA3030184908717D
:100D00001A4908790A2105F033FA3031C8B214497A
:100D100048713A2088712BE08AE058E02020415544
:100D2000544F205553422056312E302020000000D1
:100D30002020205A65726F2053747564696F2020DB
:100D40002000000000000020A861000075010020C4
:100D50008813000024000020840500206205002084
:100D600026010020D8010020740100200E08002078
:100D7000FE49C8780A2105F0FBF93030FC49C871FA
:100D8000FA49C8780A2105F0F3F93031C8B2F849B8
:100D900008723A204872F54988780A2105F0E8F986
:100DA0003030F3498872F14988780A2105F0E0F97A
:100DB0003031C8B2EE49C8725321ED482030C171BC
:100DC0004521017254214172202181722EE0E948AF
:100DD0000079012803D15F20E549487126E0E54804
:100DE0000079022803D15F20E14908721EE0E14842
:100DF0000079032803D15F20DD49C87216E0DD4881
:100E00000079042803D15F21D94881750EE0D948C3
:100E10000079052803D15F21D548417606E0D54801
:100E20000079062802D15F21D14801770126E0E24E
:100E3000D148007802287DD1D0480078401CCF49A5
:100E4000087008460078142801DD00200870CB489F
:100E500000780A286FDACA49097A7D2212018818B7
:100E6000511005F085F93030C1B2C148C174C44990
:100E7000097A7D2212018818642105F079F9074664
:100E80000A2105F075F93031B9480175BC49097A74
:100E90007D22120188180A2105F06AF907460A2105
:100EA00005F066F93031B2484175B549097A7D22BD
:100EB000120188180A2105F05BF93031AC488175C0
:100EC0002D21C175AE4988790A2105F051F93030DC
:100ED000C1B2A7480176AA4988790A2105F048F9E4
:100EE0003031A34841762D218176A54948790A21E0
:100EF00005F03EF93030C1B29D48C176A04948792D
:100F00000A2105F035F93031994801779C49087973
:100F10000A2105F02DF93030954908719849087972
:100F20000A2105F025F93031C8B2914948713A20BB
:100F3000887101E060E02EE09149C8780A2105F04F
:100F400017F930308A49C8718D49C8780A2105F0EF
:100F50000FF93031C8B2864908723A204872884980
:100F600088780A2105F004F9303081498872844973
:100F700088780A2105F0FCF83031C8B27C49C87283
:100F800041217B482030C1714C2101724D214172B9
:100F9000202181722EE077480079012803D15F205B
:100FA0007349487126E073480079022803D15F2015
:100FB0006F4908721EE06F480079032803D15F2053
:100FC0006B49C87216E06B480079042803D15F2191
:100FD000674881750EE067480079052803D15F21D5
:100FE0006348417606E063480079062802D15F2114
:100FF0005F4801770126FCE15F4800780A287DD12F
:10100000604989797D2212018818511005F0B0F8E5
:101010003030C1B25648C1745A4989797D221201D3
:101020008818642105F0A4F807460A2105F0A0F805
:1010300030314F480175534989797D221201881852
:101040000A2105F095F807460A2105F091F830319C
:10105000474841754B4989797D22120188180A2138
:1010600005F086F83031424881752D21C17545491A
:1010700008790A2105F07CF83030C1B23C4801768D
:10108000404908790A2105F073F830313848417633
:101090002D2181763B49C8780A2105F069F8303066
:1010A000C1B23348C1763749C8780A2105F060F8E3
:1010B00030312F480177334988780A2105F058F8F4
:1010C00030302B4908712F4988780A2105F050F8F3
:1010D0003031C8B2264948713A2088712949487888
:1010E0000A2105F045F830302149C8712549487872
:1010F0000A2105F03DF83031C8B200E016E01C4985
:1011000008723A2048721F4908780A2105F030F821
:101110003030174988721B4908780A2105F028F8F1
:101120003031C8B21249C872012662E11248007813
:1011300003287DD11449086880470746134905F004
:10114000B1F81349086010494868804707461149BB
:1011500005F0A8F81049086052210548C1744521DE
:101160000175462141753A21817517E00E0800206E
:1011700026010020000000208405002074010020CA
:1011800018080020620500206401002000007A4455
:10119000700100200000C8426C010020DD4800689A
:1011A00005F06CFA07467D21C90004F0CBFF303012
:1011B000C1B2D948C1752E210176D648006805F024
:1011C0005DFA6421009004F0BDFF07460A2104F097
:1011D000B9FF3031D0484176CE48006805F04EFA6C
:1011E0000A21009004F0AEFF07460A2104F0AAFF8E
:1011F0003031C9488176C748006805F03FFA074694
:101200000A2104F09FFF3031C348C176562101778F
:101210005420C14908713A204871C048006805F05F
:101220002DFA07467D21C90004F08CFF303000E024
:101230003CE0B9498871B948006805F01FFA64219B
:10124000009004F07FFF07460A2104F07BFF303155
:10125000B148C1712E20B0490872B048006805F04D
:101260000DFA0A21009004F06DFF07460A2104F0F0
:1012700069FF3031A8484172A848006805F0FEF9BE
:1012800007460A2104F05EFF3031A34881724320F3
:10129000A149C8724321A0482030C1715021017278
:1012A00055214172202181720126A2E09C480078DC
:1012B00004284AD19BA19848103004F091FF542093
:1012C000954908713A2048719B480021415E0029E8
:1012D00003DA2D209049887102E020208E49887120
:1012E0006421954A0020105E04F02CFF07460A2175
:1012F00004F028FF30318848C1710A218E4A00204D
:10130000105E04F01FFF07460A2104F01BFF303176
:10131000814801722E20804948720A21864A0020A5
:10132000105E04F00FFF30317B48817243207A4910
:10133000C872542178482030C171452101724D2175
:10134000417250218172012653E0754800780528CA
:1013500037D15621704820300170784948790A21E8
:1013600004F006FF3030C1B26B4820308170734901
:1013700048790A2104F0FCFE303167482030C17002
:10138000472100E05AE0C171412101724D214172B3
:101390004521817253210173684908790A2104F0BB
:1013A000E7FE3030C1B25C48203081736349087970
:1013B0000A2104F0DDFE303157482030C173012688
:1013C00017E05748007806280AD14C2152482030AF
:1013D000C1714F210172572141725021817208E081
:1013E0004F480078082803D04D480078092800D1DC
:1013F0000126002E22D04A480078052811D010205E
:101400000346454A02210090002004F0DDF9102037
:101410000423414A103205210090002004F0D4F941
:1014200002E0474908688047102004233A4A2032E6
:1014300007210090002004F0C7F900264148808968
:1014400000282CD10A203F4988813F480088002885
:1014500012D13E480088401C3C490880084600885C
:10146000FF21F531884215DB012037490880FF2034
:10147000F530364908800DE034480088401E334975
:10148000088008460088002804DC00202E490880D7
:101490002E4908802D4801882D4801F0FEFD28497D
:1014A00048688047F8BD10B5002819DA294A0307B3
:1014B0001B0F083B9B089B00D2588307DC0EFF23C1
:1014C000A3409A438B071B0E8407E40EA3401A43E4
:1014D000204B0407240F083CA408A4001A5118E06C
:1014E0001D4A03231B02D21883089B00D25883078E
:1014F000DC0EFF23A3409A438B071B0E8407E40EE8
:10150000A3401A43144B032424021B198408A4008B
:101510001A5110BD70010020260100206C0100202E
:1015200084050020526F6F6D2054656D7065726187
:101530007475726500000000240100208001002005
:1015400058010020000000207801002076010020D2
:10155000000400401CED00E000E100E038B500248C
:10156000FA48C078002811D100BF0DE0E001F84929
:1015700040180090E01CC3B2A01CC1B28022002021
:1015800004F06DF9601CC4B2052CEFDB38BD17B553
:1015900082B00021039C029B01940093ED4B1B78C9
:1015A000002B1ED0EB4B5B78002B1AD0E94B5B78FD
:1015B0005B1EDB01E64C1C19E64B1B785B1EDB0057
:1015C000E0183F230370401C33230370401C212389
:1015D0000370401C0370401C33230370401C3F23E6
:1015E000037000212EE06B465B785B1EDB01D84C5C
:1015F0001C196B461B785B1EDB00E0183F23037051
:10160000401C00290AD10370401C33230370401C86
:101610000370401C3F230370401C08E03F2303700D
:10162000401C0370401C0370401C0370401C3F238F
:101630000370019B002B03D0019C18CC01940093F4
:101640004B1CD9B29142CEDB05B010BD10B5C248DB
:10165000006805F0D5F9082005F0FCF9BE490860DE
:101660000020096848600120BB4909680870032010
:10167000B949096848700120B449087004204870CD
:101680000820B449087002204870B0480278B24877
:10169000006803C8FFF77BFFFFF760FF0120AB493D
:1016A00088700020C870087110BDA84949780129C8
:1016B00006D0022909D003290CD0042914D10EE048
:1016C000022801D0A14948700EE0012801D09F49AD
:1016D000487009E0042801D09C49487004E00328C0
:1016E00001D09A49487000BF00BF704738B5044622
:1016F00001209649C870002088700621022003F05E
:101700005BFF10200346224602210090002004F0D7
:101710005BF838BD10B502460B468F48006841683B
:10172000002400BF0DE00878904204D14878984228
:1017300001D1012010BD4868002800D04968601C14
:10174000C4B282480078401EA042ECDC0020F1E7E1
:1017500070B505460E46082005F07CF90446257054
:1017600066707D48006860607B4804607748007858
:10177000401C7649087070BDF1B500240025002793
:1017800075480668006804787348006845780098D2
:10179000012806D002280AD003280ED0042818D128
:1017A00011E0681EC5B2012D00DA052511E0681CA4
:1017B000C5B2052D00DD01250BE0601EC4B2012C71
:1017C00000DA102405E0601CC4B2102C00DD0124F6
:1017D00000BF00BF002702E07668781CC7B25B48F4
:1017E0000078401EB842F7DC706805F009F9002067
:1017F000706056480078401E5449087029462046BB
:10180000FFF7A6FFF8BDF0B585B004460D461646B5
:1018100000200490039050480768002C01D1601C00
:10182000C4B2002D01D1681CC5B20020049022E092
:101830003878A04217D17878A84214D104F0ACFCD3
:101840000621009004F094FCC8B2029004F0A4FCBD
:101850001121009004F08CFCC8B23246019002992C
:10186000FFF7D1FF03907868002800D07F680498C4
:10187000401CC0B204903548017804988142D7DCFE
:10188000012003903470761C3570039805B0F0BDCC
:1018900070B504460D462D484078012806D0022830
:1018A0000AD003280ED0042818D111E0681EC5B252
:1018B000012D00DA052511E0681CC5B2052D00DDFB
:1018C00001250BE0601EC4B2012C00DA102405E0F3
:1018D000601CC4B2102C00DD012400BF00BF2946EB
:1018E0002046FFF735FF70BD7CB500251A4801681A
:1018F00003C90191009000BF1FE068464078401E78
:10190000C0011349411868460078401EC0000C18F9
:1019100000202070641C2070641C2070641C2070E7
:10192000641C2070641C20700198002803D0019969
:1019300003C901910090681CC5B204480078A84210
:10194000DBDC0621022003F037FE7CBD8001002095
:101950008D050020860100207C01002070B55E48C6
:10196000007804F022FC5C480078401C5A4908705A
:101970005A48007805285CD1594841795648007882
:1019800004F0F6FB002954D155488078012850D145
:10199000FFF7AAFF53480068007853490978884246
:1019A0002BD15048006840784F494978884224D16B
:1019B0004D4A51781078FFF76BFF04F0EDFB0646B7
:1019C000062104F0D5FBCCB204F0E6FB064611215B
:1019D00004F0CEFBCDB2444A21462846FFF713FF60
:1019E0003F480079401C3E490871084600791D288F
:1019F00014DB3EA0FFF77AFE10E039494878FFF784
:101A0000BBFE384A12685178364A12681078FFF7E0
:101A100081FE002802D03AA0FFF768FE3048C07867
:101A2000002806D12E4802782E48006803C8FFF728
:101A3000AEFD70BD70B500242A4805680026002060
:101A400027498870FFF750FF002027490870487029
:101A500000BF0CE000202F49085500212D488030A0
:101A600001558030015580300155601C84B2FF2C37
:101A7000F0DD04E06E68284604F0C2FF3546002D14
:101A8000F8D100201749086070BD10B51448C0781F
:101A9000012804D1FFF7CEFFFFF7D8FD14E00020A6
:101AA0000F49887008464079401C487108464079C3
:101AB0000F2801DD0120487109484179092003F010
:101AC000A2FA01200649887010BD012800DA012021
:101AD00003494871704700008801002084050020F8
:101AE000800100207C010020860100202020474149
:101AF0004D452057494E4E455221212120000000DE
:101B0000202047414D45204F56455220212121207C
:101B1000202000008D05002038B504460621022053
:101B200003F04AFD102003462246022100900020C7
:101B300003F04AFE38BD70B50446002545480078DC
:101B4000072804D0082812D009284FD124E0207893
:101B50004F280BD160784B2808D13FA0FFF7DCFF5E
:101B60004D214148417100203A4908703EE02078FB
:101B7000482810D103250CE0E81E205C3A492039A2
:101B8000485528460830215C374810384155681CB4
:101B9000C5B20D2DF0DB29E034A13348203804F024
:101BA0001FFB202030492039087421782E48203826
:101BB000417461788174E178C174217901753A21A9
:101BC0004175A1798175E179C175617A0176A17A52
:101BD00041763A218176217BC176617B0177E17B79
:101BE0004177217C81772021C17700BF00BF70BD84
:101BF00010B52348C07800282AD1FF202049C8709A
:101C000020498878C10F091849104900411A012953
:101C100005D110210920C00600F0B5FB04E0102119
:101C20000920C00600F0ADFB1649C878C10F09189D
:101C300049104900411A012905D120210920C00677
:101C400000F0A1FB04E020210920C00600F099FB70
:101C500010BD00008405002020204254205245532E
:101C60004554204F4B2120004601002020202042D7
:101C7000542D41444452455353202020000000007D
:101C800000000020D8010020044880470448004795
:101C9000FEE7FEE7FEE7FEE7FEE7FEE723030008B8
:101CA000C100000810B50446B548844207D101219F
:101CB000401500F0D4FE0021601500F0D0FE10BDEC
:101CC00010B50022C268AF4B1A400C7964030B6850
:101CD00023438C682343CC6823430C6923434C691A
:101CE00023431A43C26010BD00210160017181606D
:101CF000C160016141617047002904D082680123FD
:101D00001A43826003E0826802231A4382607047AC
:101D1000002A03D003690B43036102E003698B438C
:101D200003617047002905D0C2680123DB031A4311
:101D3000C26004E0C2680123DB039A43C2607047BB
:101D4000002905D0C26801239B031A43C26004E046
:101D5000C26801239B039A43C2607047002905D0E3
:101D6000C2680123DB051A43C26004E0C268012394
:101D7000DB059A43C26070470B041343036270474C
:101D800010B50A460021C1681F24A4060B46A343D0
:101D900019460B4613431946C16010BD002905D0F2
:101DA000C26801239B051A43C26004E0C268012394
:101DB0009B059A43C2607047002807D07249896822
:101DC0000122D2051143704A916006E06E4989688C
:101DD0000122D20591436C4A91607047002807D0D8
:101DE00069498968012292051143674A916006E0BA
:101DF00065498968012292059143634A9160704761
:101E0000002807D0604989680122120611435E4A02
:101E1000916006E05C4989680122120691435A4AA2
:101E20009160704710B50B460021846A1C438462A0
:101E300000BF0C4614432146416110BD002905D066
:101E4000C26801235B031A43C26004E0C268012335
:101E50005B039A43C2607047002905D0C268012322
:101E60001B041A43C26004E0C26801231B049A43A6
:101E7000C2607047002905D0C26801231B031A43C2
:101E8000C26004E0C26801231B039A43C26070472A
:101E900030B501460020002200238C680125ED07A3
:101EA0002C438C6000BF8C68E30FDB07521C0F24AF
:101EB0002403A24201D0002BF5D18C68E40FE40783
:101EC000002C01D1086C00E0002030BD8168102298
:101ED000114381607047816804221143816070471B
:101EE0000146086C80B27047002904D0C268012303
:101EF0001A43C26003E0C26852085200C2607047D1
:101F0000C26802239A43C260C2680A43C260704733
:101F1000002A03D043680B43436002E043688B43CD
:101F20004360704730B50246002000230124240698
:101F30000C40002C05D0946801252D06AC432346A7
:101F400000E013681C460C40002C01D0012000E08A
:101F5000002030BD0160704710B50246002000230C
:101F600054680C40234614680C40002C03D0002B0E
:101F700001D0012000E0002010BD0160704700008A
:101F80000024014003D2FFFF002701400168584AA6
:101F9000114001600021016041608160C1605549CC
:101FA000884208D15349083949680F221143514AE0
:101FB000083A516035E04F491431884208D14D4903
:101FC00008394968F02211434A4A083A516028E02A
:101FD00048492831884209D14649083949680F22C1
:101FE00012021143434A083A51601AE041493C3118
:101FF000884209D13F49083949680F221203114329
:102000003C4A083A51600CE03A495031884208D1C4
:102010003849083949680F2212041143354A083AF1
:102020005160704710B500220268334B1A400C6AA9
:102030008B6823430C6923434C6923438C692343F6
:10204000CC6923434C6A23438C6A23431A430260BE
:10205000CB6843600B6883604B68C36010BD002190
:10206000016041608160C160016141618161C16164
:102070000162416281627047002904D00268012335
:102080001A43026003E00268194B1A40026070476D
:10209000416070470146486880B27047002A03D00B
:1020A00003680B43036002E003688B4303607047DF
:1020B000014600200F4A083A12680A40002A01D05F
:1020C000012000E0002070470A4908394860704745
:1020D00001460020074A083A12680A40002A01D047
:1020E000012000E00020704702490839486070472D
:1020F000FEFF0000080002400F80FFFF3E483F49FE
:102100000860002048608860C8603D4848617047AA
:1021100000213A498279002A35D00A4612680368BC
:102120009A430B461A600A46526803689A430B4664
:102130005A60027951180A6803681A430A602F4AE4
:10214000926803689A432D4B9A601A46D2680368D6
:102150009A432A4BDA604279102A0CD11A469268C7
:1021600003681A43254B9A601A46D26803681A43DB
:10217000224BDA600DE02149427951180A68036860
:102180001A430A6005E0027951180A6803689A4305
:102190000A6070470021016001710C21417100212A
:1021A00081717047154909690143144A11617047EB
:1021B00001460020114A52690A40002A01D001203C
:1021C00000E0002070470D4948617047014600203B
:1021D00000220A4B1B680B401A46084B5B690B40F8
:1021E000002B03D0002A01D0012000E0002070471E
:1021F00002494861704700000000940F000401404C
:10220000FFFF6B0010B504460920C006844209D1C7
:102210000121480400F015FC00210120400400F0D9
:1022200010FC30E06E48844208D10121000200F029
:1022300008FC0021200200F004FC24E069488442EC
:1022400008D10121000200F0FCFB0021200200F077
:10225000F8FB18E06448844209D10121080500F028
:10226000F0FB00210120000500F0EBFB0BE05F48D4
:10227000844208D10121880500F0E3FB0021012000
:10228000800500F0DEFB10BDF0B50A4600210023FA
:10229000002400BF3DE001258D402B4615681D4000
:1022A0002C469C4234D11579012D02D01579022D8E
:1022B00016D185684F000326BE40B5438560557929
:1022C0004E00B540866835438560858801268E407E
:1022D000B5438580858896798E40B6B23543858032
:1022E00005684F000326BE40B543056015794E00D2
:1022F000B540066835430560C5684F000326BE40FB
:10230000B543C560D5794E00B540C6683543C56054
:10231000491C1029BFD3F0BD35490160002101716E
:102320000221417100218171C171704708B50122FC
:1023300012040092009A0A430092009AC261C1619D
:10234000009AC261C2690092C269009208BD024649
:102350000020138A0B40002B01D0012000E0002058
:1023600070470146088A704702460020938A0B4056
:10237000002B01D0012000E0002070470146888A30
:1023800070478161704701857047002A01D08161E3
:1023900000E00185704781827047F0B5002300247A
:1023A0004D07EE0E1546B5402B46CD10AE00054646
:1023B0002035AD594E07F70E0F26BE40B543CE105F
:1023C000B60007462037BD51CD10AE003D46AD5991
:1023D0001D432C46CD10AD003E467451F0BD0000AB
:1023E0000004004800080048000C004800140048A1
:1023F000FFFF00000F49086070470E4948607047B2
:102400000C49886070470C480A49086070470949C0
:102410000861704709480749086070470146002075
:10242000044AD2680A40002A01D0012000E00020BE
:102430007047000000300040AAAA0000CCCC000089
:1024400000218278002A27D0274A03231B02D218B2
:1024500003789B109B00D15802789207D30EFF227D
:102460009A400B469343194642789207120E03781E
:102470009B07DB0E9A4011431B4A03231B02D21811
:1024800003789B109B00D1500278D306DB0E01220B
:102490009A40154B1A6007E00278D306DB0E012242
:1024A0009A40114B80331A607047002905D00F4ABB
:1024B000126902430D4B1A6104E00C4A126982430F
:1024C0000A4B1A617047042806D109490969042298
:1024D0001143074A116105E0054909690422914346
:1024E000034A11617047000000E100E000ED00E0E8
:1024F00000E000E0FD48006801210843FB49086056
:1025000008464068FA490840F849486008460068AB
:10251000F8490840F5490860084600680121890427
:102520008843F2490860084640683F21090488430F
:10253000EE4948600846C06A00090001C8620846C2
:10254000006BFF2154318843E84908630846406B1B
:102550004008400048630020886070470021E34A3B
:10256000917011468870704710B502460021002313
:1025700000205111002902D1DC4C23680BE0012915
:1025800002D1DA4C236A06E0022902D1D74C636AF1
:1025900001E0D64C636BD106C90E01248C401C406F
:1025A000002C01D0012000E0002010BD38B5002033
:1025B00000900024002500BF1120FFF7D5FF05463D
:1025C0000098401C0090052109020098884201D023
:1025D000002DF1D01120FFF7C7FF002801D0012402
:1025E00000E00024204638BD01460020BF4A1068A4
:1025F000F82302469A431046CA001043BB4A1060B3
:102600007047002806D0B949096801221143B74A2A
:10261000116005E0B549096849084900B34A1160ED
:10262000704701460020B14A506BF82302469A4396
:102630001046CA001043AD4A50637047002806D0C8
:10264000AA49496B01221143A84A516305E0A749F1
:10265000496B49084900A54A51637047002806D0D4
:10266000A249496B04229143A04A516305E09F4966
:10267000496B042211439D4A516370479B49096A83
:1026800049084900994A11621146096A0422914396
:10269000964A11621146096A0143116270479349D3
:1026A000096A18229143914A11621146096A01434D
:1026B00011627047002806D08C49496A01221143F3
:1026C0008A4A516205E08949496A49084900874AAE
:1026D00051627047854A52683D231B049A43834BDD
:1026E0005A601A46526803460B431A437F4B5A609E
:1026F0007047002807D07D4909680122120611435E
:102700007A4A116006E0794909680122120691436C
:10271000764A1160704701460020744AD06A000969
:10272000000102460A431046704AD06270470028F2
:1027300007D06E4909680122D20411436B4A116027
:1027400006E06A4909680122D2049143674A116090
:1027500070476649C871704701460020634A506857
:102760008008800002460A431046604A5060704765
:102770005E4840680C2108407047014600205B4AD3
:102780005068F02302469A43104602460A43104618
:10279000564A5060704701460020544A506807234B
:1027A0001B0202469A43104602460A4310464F4A0D
:1027B000506070474D4949680122920391434B4A4A
:1027C00051601146496882B21143484A516011462E
:1027D000096B92159143454A11631146096B020C2E
:1027E0001143424A116370474049096B40229143AB
:1027F0003E4A11631146096B0143116370473B491F
:10280000096B10229143394A11631146096B014348
:10281000116370473549096B89088900334A116390
:102820001146096B014311637047FEB5044600254C
:10283000002600200190009000272C4840680C21C1
:1028400008400546002D04D0042D05D0082D28D1C0
:1028500005E02948206027E02748206024E023483D
:1028600040680F218904084006462048406801213D
:10287000090408400190B00C861C0198002803D17F
:102880001E48704320600BE01848C06A0007000F24
:10289000401C00901848009903F054FC70432060DD
:1028A00002E01548206000BF00BF10484068F021DA
:1028B000084005462D091248475D2068F8406060D1
:1028C0000A48406807210902084005462D0A0C48BD
:1028D000475D6068F840A0600448006BFF2101314B
:1028E0000840884210D00748E0601BE0001002401A
:1028F0000CB8FFF8FFFFF6FE00127A0000093D0059
:1029000089010020809FD500754840680121890316
:102910000840884203D0A0684008E06002E0A06858
:102920008008E0606E48006B40210840402802D0DB
:102930006C48206102E00120C00320616848006B00
:1029400010210840102802D06748606101E020682B
:1029500060616348006B8007800F002802D1A06887
:10296000A06119E05E48006B8007800F012802D14A
:102970002068A06110E05A48006B8007800F022891
:1029800002D18003A06107E05548006B8007800FEB
:10299000032801D15448A061FEBD5149096A014391
:1029A0004F4A11627047002807D04D49096A012239
:1029B000D20311434A4A116206E04949096A0122D9
:1029C000D2039143464A11627047002807D0444918
:1029D000096A012212041143414A116206E040498A
:1029E000096A0122120491433D4A1162704700298D
:1029F00005D03B4A52690243394B5A6104E0384AD8
:102A000052698243364B5A617047002905D0344AD7
:102A100092690243324B9A6104E0314A92698243DF
:102A20002F4B9A617047002905D02D4AD269024385
:102A30002B4BDA6104E02A4AD2698243284BDA61DF
:102A40007047002905D0264A926A0243244B9A62B5
:102A500004E0234A926A8243214B9A62704700291C
:102A600005D01F4AD26802431D4BDA6004E01C4ABD
:102A7000D26882431A4BDA607047002905D0184AA1
:102A800012690243164B1A6104E0154A1269824327
:102A9000134B1A617047002905D0114A527A02433C
:102AA0000F4B5A7204E00E4A527A82430C4B5A7210
:102AB00070470B48406A01210906084308494862EB
:102AC000704701460020064A92680A40002A01D059
:102AD000012000E000207047014988727047000023
:102AE000001002401280000000127A003A4800688C
:102AF0008007800F38490860002088600021364830
:102B0000C160016141618069FF210131084332499F
:102B100088617047014600202F4A106880088000B5
:102B200002460A4310462C4A10607047002905D01F
:102B3000294A12680243284B1A6004E0264A1268A8
:102B40008243254B1A607047002905D0224A12683B
:102B50000243214B1A6004E01F4A126882431E4B55
:102B60001A60704730B500228B071C0F0F23A3405B
:102B70001A46194B08338C10A4001B599343164C6A
:102B800008348D10AD00635123468C10A4001B59EE
:102B90008C07250F0446AC4023430F4C08348D109E
:102BA000AD00635130BD0C49896901430A4A916106
:102BB000704701460020084A9269FF2301331A40FA
:102BC000002A01D0012000E00020704702498969F5
:102BD0000143014A916170470000014010B504466D
:102BE000FE48844208D10121C014FFF738FF0021BC
:102BF000E014FFF734FF56E001208007844208D13B
:102C000001210846FFF739FF00210120FFF735FFBA
:102C100049E0F348844208D101210220FFF72DFF4B
:102C200000210220FFF729FF3DE0EE48844208D151
:102C300001211020FFF721FF00211020FFF71DFFC9
:102C400031E0E948844208D101218015FFF715FFE2
:102C50000021A015FFF711FF25E0E448844209D1C7
:102C600001210804FFF7FBFE002101200004FFF70B
:102C7000F6FE18E0DE48844209D101214804FFF73E
:102C8000EEFE002101204004FFF7E9FE0BE0D948E9
:102C9000844208D101218804FFF7E1FE00210120D0
:102CA0008004FFF7DCFE10BD00220288CB4B984267
:102CB00006D001239B07984202D0C94B984203D10A
:102CC000CD4B1A404B881A43C64B984203D0CB4B8E
:102CD0001A400B891A4302804B68C3620B88038534
:102CE000BE4B984208D0C14B984205D0C04B984289
:102CF00002D0C04B984201D18B7A03860123838294
:102D000070470021C9434160002101800181418059
:102D1000817270470185828270470A4600210188CE
:102D2000B54B19400B461343194601807047416269
:102D30007047C16270470146486A70470146088D76
:102D40007047002904D0028802231A43028004E05D
:102D50000288A94B6E331A4002807047002904D0C4
:102D6000028804231A43028004E00288A24B6C33D9
:102D70001A4002807047002904D0028880231A4339
:102D8000028004E002889C4B103B1A40028070478E
:102D90000288994B68331A40028002880A430280F5
:102DA00070470288954B1A40028002880A430280CD
:102DB0007047002904D0028801231A43028004E0EE
:102DC00002888D4B6F331A40028070470A884B8807
:102DD0001A438B881A43CB881A430B891A434B89B1
:102DE0001A438B891A4344231A52704700210180E9
:102DF00041808180C18001814181818170470029AA
:102E000007D04422125A0123DB031A4344231A52E7
:102E100005E04422125A53045B0C442213527047BB
:102E200070B5002400220023058C734E6F363540A8
:102E30000584028C8388048B6F4D2C40B51E2C407A
:102E40000D882C43751E2A408D892A434D882A43BC
:102E5000624DA84208D0654DA84205D0644DA842F5
:102E600002D0644DA84212D1634D68352A40CD8905
:102E70002A43614D6C352A408D882A435E4D903D32
:102E80002B405F4D2B400D8A2B434D8A2B43838073
:102E900004838D684563028470BD70B500240022F0
:102EA0000023058C544E603635400584028C83889F
:102EB000048B544D2C40514D2C400D782D062D0C7B
:102EC0002C434D4D50352A408D892D052D0C2A431C
:102ED0004D882D052D0C2A43404DA84219D1464D51
:102EE000103D2A40CD892D052D0C2A43424D303509
:102EF0002A408D882D052D0C2A43434D2B40434DF0
:102F00002B400D8AAD042D0C2B434D8AAD042D0CA6
:102F10002B43838004838D688563028470BD70B504
:102F2000002400220023058C334E903E354005845A
:102F3000028C8388848B304D2C402F4D6D352C4076
:102F40000D882C432E4D2A400D7B2D062D0C2A4337
:102F50008D782D062D0C2A43204DA84217D12B4DDC
:102F60002A408D7B2D062D0C2A43274D2A400D79B2
:102F70002D062D0C2A43264D2B40264D2B400D8A25
:102F80002D052D0C2B434D8A2D052D0C2B438380B5
:102F900084838D68C563028470BD70B500220023F0
:102FA0000024058C1A4E35400584038C8488828B5E
:102FB000144D2A40114D2A400D782D062D0C2A4320
:102FC000144D2B400D7B2D072D0C2B438D782D0799
:102FD0002D0C2B43014DA84224D11DE0002C0140B3
:102FE000000400400010004000200040004001406C
:102FF00000440140004801408FFF0000FFFC00003A
:10300000FFFD0000FF8F0000FFFB0000FFF7000046
:10301000FFEF0000FFDF0000FC4D2C400D8AAD05E6
:103020002D0C2C43848082838D680564038470BDDD
:10303000002101804180818081608181C181018284
:103040004182704770B503460020002418461830AE
:1030500001258D40ACB21D8CA5431D84002901D0F3
:10306000082909D14D10281805687026B543056058
:103070000568154305600DE00D1F2D046D0C281823
:10308000056807263603B543056005681606360C45
:103090003543056070BD4163704781637047C1630C
:1030A0007047016470470A460021018BD84B1940D4
:1030B0000B4613431946018370470A460021018BD2
:1030C000D44B194013061B0C1943018370470A4661
:1030D0000021818BCE4B19400B4613431946818347
:1030E00070470A460021818BCA4B194013061B0CFE
:1030F000194381837047002904D0828801231A4331
:10310000828004E08288C24B6F331A40828070470D
:103110000A460021018BBE4B683319400B4613430E
:103120001946018370470A460021018BBA4B1940AA
:1031300013061B0C1943018370470A460021818B3B
:10314000B34B683319400B461343194681837047CC
:103150000A460021818BB04B194013061B0C194302
:10316000818370470A460021018BA94B6C331940BB
:103170000B4613431946018370470A460021018B11
:10318000A64B194013061B0C1943018370470A46CE
:103190000021818B9E4B6C3319400B46134319461B
:1031A000818370470A460021818B9C4B194013068E
:1031B0001B0C1943818370470A460021018B944BF5
:1031C000103B19400B4613431946018370470A46CA
:1031D0000021018B4904490C13061B0C1943018380
:1031E00070470A460021818B894B103B19400B46E2
:1031F00013431946818370470A460021818B490495
:10320000490C13061B0C1943818370470A460021A1
:10321000018C7F4B6E3319400B46134319460184D2
:1032200070470A460021018C794B683319400B46E0
:1032300013431946018470470A460021018C744BE0
:103240005033194013051B0C1943018470470A467B
:103250000021018C6E4B103B194013051B0C1943C8
:10326000018470470A460021018C6D4B19401306FA
:103270001B0C1943018470470A460021018C664BE0
:10328000194013061B0C1943018470470A4600219C
:10329000018C644B194013071B0C194301847047C0
:1032A00002895B4B68331A40028102890A4302811A
:1032B000704730B5002301248C40A3B2048C9C439A
:1032C0000484048C15468D40ADB22C43048430BD7B
:1032D00030B5002304248C40A3B2048C9C430484A6
:1032E000048C15468D40ADB22C43048430BD0029BA
:1032F00004D0828804231A43828004E08288444BED
:103300006C331A4082807047828B474B1A4082830D
:10331000828B0B061B0C1A4382837047F8B50C4650
:103320000021002500260096068C404F3E40068472
:10333000818B058C2607360C00963D4E31401606D3
:10334000360C31431E07360C31433A4E35400127C7
:103350003F03009E3E43354381830584F8BD828B45
:103360002B4B64331A408283828B0A4382837047DB
:10337000F8B50C460021002500260096068C244F47
:10338000903F3E400684818B058C2606360C0096C5
:103390001F4E833E31401E05360C16433143264EE8
:1033A0003540FF270137009E3E4335438183058426
:1033B000F8BD028B1C4B1A400283028B0B061B0CC0
:1033C0001A4302837047F8B50C46002100250026F9
:1033D0000096068C0E4F60373E400684018B058CAC
:1033E0002605360C0096124E31401E07360C31432E
:1033F0001606360C3143064E303E35401027009EEF
:103400003E43354301830584F8BD0000FFBF000043
:103410008FFF0000FF8F0000FFF70000FFFB0000A0
:10342000FFFD0000FFDF0000FFF30000FFEF0000E2
:10343000FF0C0000FF5F0000FFF50000028BD84B7F
:103440001A400283028B0A4302837047F0B50C4690
:1034500000210025068CD24F0B373E400684018B9D
:10346000058CCF4EE73E31401E05360C16433143E6
:10347000CB4EB61C354001262643354301830584D7
:10348000F0BD70B505460C46208800280AD1238976
:10349000A28861882846FFF7D9FFE1882846FFF710
:1034A000CDFF25E0208804280AD12389A2886188DD
:1034B0002846FFF788FFE1882846FFF77AFF17E0E4
:1034C000208808280AD12389A28861882846FFF726
:1034D0004FFFE1882846FFF742FF09E02389A288D1
:1034E00061882846FFF71AFFE1882846FFF70CFF9E
:1034F00070BD002101804180012181800021C180B7
:1035000001817047F8B505460C4600260127608802
:10351000002801D1022600E00026A088012801D160
:10352000022700E001272088002814D12389A288DF
:1035300061882846FFF78AFFE1882846FFF77EFF6B
:1035400023893A4631462846FFF73DFFE188284661
:10355000FFF72FFF13E02389A28861882846FFF731
:1035600032FFE1882846FFF724FF23893A46314697
:103570002846FFF76BFFE1882846FFF75FFFF8BD9D
:103580000146486B70470146886B70470146C86B1F
:1035900070470146086C7047002A03D083890B43AB
:1035A000838102E083898B438381704781827047E6
:1035B00002460020138A0B40002B01D0012000E0BE
:1035C00000207047CA430282704730B5024600208F
:1035D00000230024158A0D402B4695890D402C466A
:1035E000002B03D0002C01D0012000E0002030BDD2
:1035F000CA430282704710B50B4613434824235236
:1036000010BD002A03D083890B43838102E08389A4
:103610008B4383817047002904D0828808231A4392
:10362000828004E082885E4B1B1D1A4082807047B6
:1036300001895B4A521D1140018170470A460021F1
:103640000189574B643B19400B46134319460181CE
:10365000704730B504460D4629462046FFF7EEFF79
:10366000208907210843208130BDF8B504460D4666
:1036700016461F46602D06D13B46012231462046A4
:10368000FFF7A1FE05E03B46012231462046FFF749
:10369000DDFE29462046FFF7D1FF20890721084398
:1036A0002081F8BD30B50C4600210189C9B21D0644
:1036B0002D0C154325432943018130BDFFB5054637
:1036C0000E46174600243A4631462846039BFFF72C
:1036D000E9FF2C893248401D04400720044330484C
:1036E00064380440702004432C81FFBDF0B50446CB
:1036F0000D4616461F463B46324629462046FFF7F2
:10370000D1FF20890121890308432081F0BD8288EF
:10371000234B643B1A40828082880A438280704730
:1037200002891F4B5B1D1A40028102890A430281F4
:10373000704702891A4B743B1A40028102890A437E
:1037400002817047F0B50C46002100250026018952
:10375000058B068C124F7F1D39400F462743394693
:10376000104F3D40FF2702373D430D4F9E3F3E40E7
:103770001F053F0C17433E43018105830684F0BDBE
:10378000002904D0828880231A43828004E0828842
:10379000034B743B1A40828070475022115270478D
:1037A000F3FF0000FCFC000010B50446F74884421B
:1037B00009D101218803FFF752F90021012080037C
:1037C000FFF74DF90BE0F248844208D1012148048B
:1037D000FFF753F9002101204004FFF74EF910BD17
:1037E000F0B589B005460E4600240020089000BFC1
:1037F00000BF28684008400028606C680321090366
:10380000204688430446B06804436C602C68E14855
:103810000440F168706808433169084304432C6030
:10382000AC680321090220468843044670690443BA
:10383000AC606846FEF7F9FFD448854202D106988D
:10384000089001E00298089028680121C903084007
:10385000002809D0326851001923089A5A431046AB
:1038600002F070FC074608E0326891001923089ABC
:103870005A43104602F066FC07466421384602F0BF
:1038800061FC0401200964214843381A0790286824
:103890000121C903084000280AD00799C900084639
:1038A0003230642102F04EFC4007400F044309E02F
:1038B0000799090108463230642102F043FC0007F1
:1038C000000F0443AC8109B0F0BD4B21C901016078
:1038D000002141608160C1600C21016100214161D2
:1038E000704710B5002242680F2424021346A343F8
:1038F0001A464C680B6823438C682343CC682343E7
:103900001A43426010BD0021016041608160C160C6
:103910007047002904D0026801231A43026003E0C3
:1039200002685208520002607047002A03D0036800
:103930000B43036002E003688B4303607047002978
:1039400005D002680123DB031A43026004E0026829
:103950000123DB039A4302607047002905D0826887
:103960000123DB021A43826004E082680123DB0248
:103970009A4382607047002905D042680123DB0426
:103980001A43426004E042680123DB049A43426028
:103990007047002905D0426801239B041A43426006
:1039A00004E0426801239B049A4342607047002A66
:1039B00003D043680B43436002E043688B4343609A
:1039C0007047002905D042680123DB031A43426097
:1039D00004E042680123DB039A43426070470029F8
:1039E00005D042680123DB051A43426004E04268C7
:1039F0000123DB059A43426070474269120E1206AA
:103A0000426142690A4342617047028AFF231B02F6
:103A10001A400282028A0A4302827047002904D0B7
:103A2000026802231A43026003E0026802239A43F9
:103A300002607047826803231B059A438260826894
:103A40000A4382607047002905D0426801231B05A4
:103A50001A43426004E0426801231B059A43426016
:103A60007047426803235B059A43426042680A43F9
:103A700042607047C1690122D2039143C16170471E
:103A8000CA05D20D028570470146888CC005C00D5D
:103A9000704742681202120A426042680B061A43DB
:103AA00042607047002905D0026801235B031A4376
:103AB000026004E0026801235B039A4302607047DE
:103AC00002680123DB029A43026002680A43026033
:103AD0007047426810239A43426042680A4342603A
:103AE0007047426820239A43426042680A4342601A
:103AF0007047002905D0426801239B031A434260A6
:103B000004E0426801239B039A4342607047002906
:103B100004D0826808231A43826003E08268082385
:103B20009A4382607047028AD2B20282028A0B02F2
:103B30001A4302827047002904D0826820231A4366
:103B4000826003E0826820239A43826070470029E4
:103B500004D0826810231A43826003E08268102335
:103B60009A4382607047826807235B049A438260AD
:103B700082684B041A438260704742691202120A3B
:103B8000426142690B061A434261704700380140A6
:103B900000440040F3E9FFFF826804239A438260F7
:103BA00082680A4382607047002904D08268022339
:103BB0001A43826003E0826802239A43826070475E
:103BC000002905D0826801239B031A43826004E028
:103BD000826801239B039A438260704782680123B5
:103BE000DB039A43826082680A43826070470268FE
:103BF0001F235B059A43026002684B051A4302606B
:103C0000704702681F231B049A43026002680B047A
:103C10001A4302607047002A03D083680B43836015
:103C200002E083688B4383607047826801235B03F3
:103C30009A43826082680A4382607047F8B50346FF
:103C40000024002600960025002018460E04340E9D
:103C5000CEB200960127009EB7403D46022C01D10E
:103C6000001D02E0032C00D10830002A03D00668B2
:103C70002E43066002E00668AE430660F8BD002AE7
:103C800003D0038B0B43038302E0038B8B4303833B
:103C90007047826801231B039A43826082680A434B
:103CA0008260704702460020D3690B40002B01D090
:103CB000012000E0002070470162704770B50246A5
:103CC0000B4600240021002500201E04350ED9B229
:103CD00001268E403146012D02D11668314006E0A2
:103CE000022D02D15668314001E0966831401C0C2B
:103CF0000126A6403446D6693440002903D0002C62
:103D000001D0012000E0002070BD10B5002300228A
:103D10000B0C01249C402246026210BD002106E0EB
:103D20000A2100BF0A464B1E99B2002AFAD1024668
:103D3000431E98B2002AF3D17047002106E00649DD
:103D400000BF0A464B1E99B2002AFAD10246431E12
:103D500098B2002AF3D17047E02E0000002101E064
:103D60004A1CD1B28142FBDB704730B500250023ED
:103D70000024F9480078002838D10220F64908705C
:103D800000BF31E00920C006808AF449084004469B
:103D9000F348C05C20430921C90688823C20FFF714
:103DA000DDFFF048008A8407A40F5800EE49085A46
:103DB000A04211D1ED48C05C0F2804DAEB48C05C8A
:103DC000401CEA49C854E948C05C05280AD10125CD
:103DD000E043E749C85405E00020E449C8545800CE
:103DE000E1490C52581CC3B2032BCBDB284630BD33
:103DF00010B50446DF48005D002808D06420D6498D
:103E00004870062C03DAA100DB4A5058804710BDE9
:103E1000FEB506460296029EF007C00F002829D084
:103E2000002425E0D548005DD149095D4840019056
:103E3000019800281AD0002516E00120A840C7B23A
:103E400060004019C0B20090C948015D3940C94ABC
:103E500000981154C948005D7840C8490855009839
:103E6000FFF7C6FF681CC5B2022DE6DB601CC4B2BA
:103E7000032CD7DBFEBD10B5C148407801287CD1AA
:103E8000BF480078401EBE490870084600780128E7
:103E900001DA0A200870BA480078030002F092FDA7
:103EA0000B6C07111B252F39434D57626C004721BE
:103EB000B448C171452101724E21417220218172A5
:103EC0005AE05321AF48C17145210172542141721A
:103ED0002021817250E04121AA48C1714C21017218
:103EE0004D2141722021817246E04321A548C171D4
:103EF0005021017255214172202181723CE05421F0
:103F0000A048C171452101724D2141725021817239
:103F100032E047219B48C171412101724D2141721C
:103F20004521817228E04C219648C1714F210172D0
:103F300057214172502181721EE042219148C17186
:103F400054210172522141725321817214E04221A5
:103F50008C48C171542101725621417245218172F0
:103F60000AE00AE042218748C171542101724121CF
:103F700041724421817200BFC7E083480078012864
:103F80005BD175480079030002F01CFD075605124D
:103F90001F2B394656007D480079401CC1B27B4832
:103FA00001710079172802DD00217848017143E092
:103FB0007648C078401CC1B27448C170C0783B28B4
:103FC00002DD00217148C17036E070488078401CE5
:103FD0006E498870084680783B2801DD0020887093
:103FE0002AE06A480088401C684908800846008822
:103FF0006749884202DD0846644908801CE063483E
:104000008079401CC1B26148817180790C2802DD41
:1040100001215E4881710FE05C484079401CC1B2CB
:104020005A484171417980795A4A105C814202DDD7
:1040300001215648417100BF67E0534800780228CB
:104040005BD145480079030002F0BCFC075605121D
:104050001F2B3946560050480079401CC1B24E48CB
:1040600001710079172802DD00214B48017143E0FE
:104070004948C078401CC1B24748C170C0783B284D
:1040800002DD00214448C17036E043488078401C7E
:1040900041498870084680783B2801DD00208870FF
:1040A0002AE03D480088401C3B49088008460088BB
:1040B0003749884202DD0846374908801CE0364807
:1040C0008079401CC1B23448817180790C2802DDAE
:1040D0000121314881710FE02F484079401CC1B265
:1040E0002D484171417980792A4A105C814202DD74
:1040F00001212948417100BF07E0234800780528C5
:1041000003D1022025490968884710BD10B51C4815
:104110004078012876D11A480078401C1849087068
:10412000084600780A2801DD01200870144800784C
:10413000030002F047FC0B9007353F49535D68725E
:104140007C86900047210F48C171452101724E21A4
:104150004172202181727EE000000020F0FF00000B
:10416000A501002000040048CC010020C801002067
:104170009C0100209F010020B0010020D2010020FE
:10418000A801002046010020840500200E08002020
:1041900033080000C06A000818080020AC010020A5
:1041A0005321FE48C17145210172542141722021E1
:1041B000817250E04121F948C1714C2101724D21B9
:1041C00041722021817246E04321F448C17150219F
:1041D000017255214172202181723CE05421EF4847
:1041E000C171452101724D2141725021817232E02D
:1041F0004721EA48C171412101724D214172452197
:10420000817228E028E04C21E448C1714F210172FD
:1042100057214172502181721DE04221DF48C17156
:1042200054210172522141725321817213E04221C3
:10423000DA48C171542101725621417245218172BF
:1042400009E04221D548C1715421017241214172D6
:104250004421817200BFCBE0D148007801285DD1B4
:10426000D0480079030002F0ADFB075805121F2B60
:104270003A475800CC480079401EC1B2CA48017183
:104280000079FF2802D11721C748017145E0C648CF
:10429000C078401EC1B2C448C170C078FF2802D1A6
:1042A0003B21C148C17038E0BF488078401EBE49FC
:1042B000887008468078FF2801D13B2088702CE068
:1042C000B9480088401EB8490880084600887D210A
:1042D0000901884202DA0846B34908801DE0B24865
:1042E0008079401EC1B2B04881718079012802DA1C
:1042F0000C21AD48817110E0AB484079401EC1B23D
:10430000A94841714079012806DAA7488079401E02
:10431000A649095CA448417100BF69E0A048007843
:1043200002285DD19F480079030002F04BFB07583B
:1043300005121F2B3A4758009D480079401EC1B214
:104340009B4801710079FF2802D11721984801711B
:1043500045E09748C078401EC1B29548C170C0780A
:10436000FF2802D13B219248C17038E09048807804
:10437000401E8F49887008468078FF2801D13B2075
:1043800088702CE08A480088401E894908800846C9
:1043900000887D210901884202DA084684490880A4
:1043A0001DE083488079401EC1B2814881718079C7
:1043B000012802DA0C217E48817110E07C484079A6
:1043C000401EC1B27A4841714079012806DA784826
:1043D0008079401E7549095C7548417100BF07E04E
:1043E0006F480078052803D1012072490968884781
:1043F00010BD10B504462046E10F091849104900C8
:10440000611A0AD1FF2101310920C006FDF7BBFF67
:10441000302162488170C1700AE0FF21013109201A
:10442000C006FDF7AEFF30215C4881703121C170BC
:1044300010BD10B56048407801280AD0594800796D
:10444000401E5849087108460079012801DA062003
:10445000087153480078002803D051480078032899
:1044600017D150484079401C4E4948714879FFF7B0
:10447000C0FF4C484479E00F001940104000201A5A
:1044800001D0012000E000200146082000F0BBFD23
:1044900007E043480078052803D10320454909680F
:1044A000884710BD10B50446002C47D10021434871
:1044B000FDF722FC002101204002FEF7A6FA3F484A
:1044C000FDF7F0FB00213E48FDF7D6FD002101205D
:1044D000FEF78DFA3A48FDF759FD3A48FFF764F9BF
:1044E00000213848FFF715FA002101208003FEF76C
:1044F0008CFA00213448FEF75CFC00210120800783
:10450000FEF757FC3048FEF769FB00212E48FEF706
:1045100076FC0920C006808AB0221043014609209B
:10452000C006FDF738FFFCF723F801F037F800204C
:10453000FFF75FFF01201B49887117E00021012070
:104540000007FEF770FAFBF781FFFCF747F8FCF76E
:1045500099F801F0FDFBFCF73DF901F011F8FBF7CC
:10456000E9FF00200F4988711349487010BD10B54C
:1045700011484078012873D10F480078401E08493F
:10458000087000200C494870012006490871044851
:10459000007801282BD10D48807919E046010020D0
:1045A00084050020000000200E080020C06A0008DA
:1045B00018080020AC010020A801002000240140C0
:1045C000080002400038014000040040620500205D
:1045D0007D2109014018F64908800822F549F44870
:1045E000801C01F0EBFD4D21F348417189E0F34857
:1045F0000078022810D1EF4880797D210901401808
:10460000EF4908800822EB49ED48801C01F0D6FDF7
:104610004D21E948417174E0E8480078002803D151
:104620004D21E54841716CE0E4480078032803D14E
:104630004D21E148417164E0E0480078042803D14D
:104640004D21DD4841715CE0DC480078052808D147
:10465000FBF78EFF4D21D8484171FCF7F7FF50E082
:1046600027E0D6480078062806D10020FFF71AFF79
:104670004D21D148417144E0D0480078072802D14B
:1046800000F071FB3DE0CD480078082806D14D21AF
:10469000C9484171012000F06DFB32E0C748007845
:1046A00009282ED14D21C4484171022000F062FB3F
:1046B00027E0C248007801280BD1C2480079401C8D
:1046C000C04908710846007906281ADD01200871E2
:1046D00017E0BA48007802280BD1BA480079401C8C
:1046E000B84908710846007903280ADD01200871DD
:1046F00007E0B2480078052803D10420B2490968D0
:10470000884710BD70B50024C51800BF05E02E789D
:104710000E706D1C491C661CF4B29442F7DB70BD30
:104720001CB5002000900190A54800787D2109016A
:10473000401AC1B2A24801720822811C002000F078
:10474000D8FC08226946002000F0C2FC00230822A1
:104750009A49491C6846FFF7D5FF1CBDF0B587B0E4
:104760000020069099484078012814D0934800789A
:10477000002803D09148007803280DD101209349E7
:104780004870087053218C4841710A208B49087089
:1047900000208C4908816FE088480078012858D1B2
:1047A000834800787D210901401AC0B206908049F3
:1047B000C8780A2101F0DCFC07017D49C8780A218C
:1047C00001F0D6FC0F43FCB2794908790A2101F0C7
:1047D000CFFC0701764908790A2101F0C9FC0F4393
:1047E000FDB2734948790A2101F0C2FC0701704902
:1047F00048790A2101F0BCFC0F43FEB26C4988796C
:104800000A2101F0B5FC0701694988790A2101F004
:10481000AFFC0F43F8B20A210590069801F0A8FCFE
:1048200007010A21069801F0A3FC0F43F8B2049097
:10483000002001902B46324600940290059904987E
:1048400001F0BEF9C8205F49487000205B4908703C
:1048500012E05A480078022808D1FFF761FFC8200B
:104860005849487000205549087005E053480078C1
:10487000052801D1FDF709F907B0F0BD1CB50020EE
:104880000090019051484078012808D100204B4900
:1048900008704E4948704D214748417150E04748E3
:1048A000007800283AD045480078052804D1FDF763
:1048B000C1F8FBF73FFE17E040480078062803D117
:1048C0000120FFF7EFFD0FE03C48007802280BD1F4
:1048D00008226946002000F0FBFB0023082237492C
:1048E000491C6846FFF70EFF00203449087035491F
:1048F0000881202030492039087048708870C870BD
:10490000087348738873C873087420212A482038B4
:104910004174817441778177C17711E029498879A1
:10492000C10F091849104900411A02D100F036FEA2
:1049300001E000F025FE23488079401C2149887160
:104940001CBD10B51D480078002830D11948817869
:104950001A48C07881422AD1164841781748807891
:10496000814224D113480078142820DCFF20154907
:104970004870002048714879FFF73BFD11484079A5
:1049800013490978884212D00E484479E00F001983
:1049900040104000201A01D0012000E00020014614
:1049A000082000F030FB074840790949087010BD25
:1049B0000E0800206205002046010020840500202A
:1049C0001808002000000020AC010020A8010020F1
:1049D000D501002010B501210448FEF7F6FD00289E
:1049E00003D001210148FEF703FE10BD0004004082
:1049F00010B501221146FE48FEF7CEFD10BD10B5E0
:104A0000FC49FD48FFF75AF9002826D0F949FA4831
:104A1000FFF77BF9F9488078002806D1F7494870FC
:104A2000087001208870FFF7E3FFF44840783228CF
:104A30000EDAF14820308088C1B2F04842784078E0
:104A4000401CEE4B5870D81C815400201946087049
:104A5000EB48C078401CEA49C87010BD10B5002171
:104A60000020E84AE54B9B78022B14D100BF0AE0F6
:104A7000E24BDB1C5B5C1370521C0024DF4BDB1C25
:104A80005C544B1CD9B2DD4B5B788B42F0DC0023CD
:104A9000DA4CA370012010BD70B505460E461021FA
:104AA000D548FFF7FFF8002819D0002404E0285D5E
:104AB000D5490855601CC4B2B442F8DB0021D34884
:104AC000FDF7DAFA3146D148FDF7E2FA0121CF4885
:104AD000FDF7D2FACA488078401CC949887070BD79
:104AE000F0B589B00446CAA103C90891079060795E
:104AF0000002A17940187D210901401A80B2069078
:104B0000A07A0A2101F034FB0701A07A0A2101F002
:104B10002FFB0F43FDB2607A0A2101F029FB070148
:104B2000607A0A2101F024FB0F43FEB2207A0A21A9
:104B300001F01EFB0701207A0A2101F019FB0F4347
:104B4000F8B20590E0790A2101F012FB0701E07943
:104B50000A2101F00DFB0F43F8B20A2104900698D8
:104B600001F006FB07010A21069801F001FB0F4343
:104B7000F8B203900020019033460095029003A8FC
:104B800007C801F01DF8072107A8FFF785FF09B046
:104B9000F0BD70B505460E4610219748FFF782F824
:104BA000002815D000240CE0285D934920310881AD
:104BB00000BF40219048FFF775F80028F9D0601C2D
:104BC000C4B2B442F0DB8E488078401C8C498870B7
:104BD00070BD1CB590A103C90191009007216846E2
:104BE000FFF7D7FF72B600BFBFF34F8F8C488D49D8
:104BF000C860BFF34F8F00BF00BFFEE770B505462A
:104C0000002D72D07F480078F0286FD17D48407821
:104C10005A28FAD17B488078A528F6D1794840797E
:104C2000F7286CD17748C078030001F0CBFE096605
:104C300006162636666666466600724800790128C2
:104C400005D110210920C006FDF79DFB04E01021CD
:104C50000920C006FDF795FB50E06A48007901285D
:104C600005D120210920C006FDF78DFB04E020219D
:104C70000920C006FDF785FB40E062480079012865
:104C800005D180210920C006FDF77DFB04E08021CD
:104C90000920C006FDF775FB30E05A48007901286D
:104CA00005D140210920C006FDF76BFB04E040213F
:104CB0000920C006FDF767FB20E052480079002874
:104CC00002D15949487102E00120574948715649BB
:104CD0004879FFF78EFB54484479E00F00194010E3
:104CE0004000201A03D0012002E021E031E0002042
:104CF0000146082000F087F900E000BF2CE04148A1
:104D00008079F72815D13F48C078062801D1FFF7F0
:104D100060FF3C48C07807281ED13A4800797F28B8
:104D20001AD138484079012816D1002034494870FA
:104D300012E03448007BF7280ED13248C0780928A9
:104D40000AD130480079402806D12E48FFF7C8FE26
:104D500002E02C48FCF7EFFE70BD10B5102126488C
:104D6000FEF7A0FF10BD10B5082130A0FFF711FF1E
:104D7000012010BD10B50446002C04D0012C07D032
:104D8000022C0FD109E002212BA0FFF702FF09E05E
:104D90000A212AA0FFF7FDFE04E009212AA0FFF75F
:104DA000F8FE00BF00BF10BD7FB56C4629480078F3
:104DB0002949097888427CD026480078264908701D
:104DC000F0202070641C5A202070641CA5202070E4
:104DD000641C05202070641C40202070641C1D4948
:104DE00089797D2212018818C117090E091835E04A
:104DF00000440140050105000038014086080020FC
:104E0000D801002022080020540800201C00024085
:104E1000F05AA5090001F700F05AA5060001F700B5
:104E20000400FA0500ED00E00000002041542B5280
:104E300045534554000000004154000041542B5696
:104E4000455253494F4E000041542B414444523D7A
:104E50003F00000062050020E001002009122170DF
:104E6000641C4A4989798818C117090E0918091262
:104E70000902411A2170641C444800792070641CA6
:104E80004248C0782070641C404880782070641CC0
:104E90003E4840782070641C3C4800782070641CB8
:104EA00064213B4A0020105E01F04CF905460A21BE
:104EB00000E01DE001F046F92170641C0A21344A2B
:104EC0000020105E01F03EF905460A2101F03AF992
:104ED0002170641C0A212E4A0020105E01F032F974
:104EE0002170641CF720207010216846FFF7D4FD64
:104EF0007FBD1CB527A103C901910090012188073E
:104F0000FEF763FB00281BD001218807FEF770FB2A
:104F10000A212248007801F02BF9002908D1072145
:104F20006846FFF7B9FD1E484078401C1C49487090
:104F30001A480078401C194908701A4908688047C7
:104F40001CBD10B5002201211748FEF725FB10BD3E
:104F500010B501211448FEF738FB002815D00121B7
:104F60001148FEF745FB11480078401C0F490870B6
:104F7000084600780A2803DC08464078322804DD19
:104F8000FFF7DFFF02200949887010BD620500208D
:104F900024010020F05AA507017FF700E10100205D
:104FA000D8010020DC0100200044014086080020D8
:104FB00070B50446002600F0E5F82546E117090E15
:104FC000491909124900A031C8B200F095F900F062
:104FD00020F9E117090E491909120902611AC8B22C
:104FE00000F08AF900F015F900F0CCF8A12000F0EB
:104FF00083F900F00EF9002000F0B7F9064600F042
:10500000E3F8304670BD70B504460E4600F0BAF8BD
:105010002546E117090E491909124900A031C8B205
:1050200000F06AF900F0F5F8E117090E49190912C4
:105030000902611AC8B200F05FF900F0EAF83046E0
:1050400000F05AF900F0E5F800F0BEF80A20FEF78B
:1050500074FE70BDF8B505460E461746002409E0FB
:10506000E2003346D340D9B22A1990B2FFF7CBFF02
:10507000601CC4B2BC42F3DBF8BDF8B507460C4671
:105080000026002509E036023919491B491E88B25D
:10509000FFF78EFF8619681CC5B2A542F3DB3046C8
:1050A000F8BD10B5FF20FFF783FF0446552C01D152
:1050B000002010BD5521FF20FFF7A5FFFF20FFF7BF
:1050C00077FF0446552C01D10020F2E70120F0E7DC
:1050D00070B506460C46154608E03046721C96B27E
:1050E000FFF766FF2070641C681E85B2002DF4D1A6
:1050F00070BD70B505460C46164606E02178284678
:10510000FFF781FF681C85B2641C3046711E8EB2A9
:105110000028F3D170BD1CB50320C002009001210E
:10512000684601710021817103214171694609209E
:10513000C006FDF7A9F80321C9020920C006FDF742
:1051400020F91CBD1CB50120000300900021684619
:1051500001710121C17169460920C006FDF794F86B
:105160001CBD1CB50120000300900121684601719F
:10517000002181710321417169460920C006FDF7B4
:1051800083F81CBD10B5FFF7ECFF012109030920CE
:10519000C006FDF7F6F80121C9020920C006FDF797
:1051A000F0F80420FEF7BAFD012109030920C0062A
:1051B000FDF7E9F80420FEF7B1FD0121C90209203D
:1051C000C006FDF7E0F810BD10B5FFF7CAFF0121DA
:1051D000C9020920C006FDF7D6F8012109030920FC
:1051E000C006FDF7D0F80420FEF798FD0121C902A2
:1051F0000920C006FDF7C5F80420FEF78FFD012148
:1052000009030920C006FDF7BCF80420FEF786FD5F
:1052100010BD10B50024FFF795FF012109030920F7
:10522000C006FDF7AEF80120FEF778FD0121C902A6
:105230000920C006FDF7A5F80120FEF76FFD07E085
:10524000601CC4B2FA2C03DDFFF7BEFF012010BDC5
:10525000012109030920C006FDF779F80028EFD1E4
:105260000121C9020920C006FDF78DF80020EEE7F4
:1052700010B50121C9020920C006FDF784F8FFF727
:1052800070FF012109030920C006FDF77CF8022008
:10529000FEF744FD0121C9020920C006FDF771F89F
:1052A0000220FEF73BFD0121C9020920C006FDF7DF
:1052B0006AF810BD10B50121C9020920C006FDF72A
:1052C00062F8FFF74EFF012109030920C006FDF730
:1052D00058F80220FEF722FD0121C9020920C0066C
:1052E000FDF74FF80220FEF719FD0121C902092040
:1052F000C006FDF748F810BD70B50446FFF731FF52
:105300000121C9020920C006FDF73DF8002529E06A
:1053100080202040002806D0012109030920C00672
:10532000FDF72FF805E0012109030920C006FDF76C
:105330002AF86006040E0220FEF7F0FC0121C902E3
:105340000920C006FDF71DF80220FEF7E7FC012149
:10535000C9020920C006FDF716F80220FEF7DEFCA0
:10536000681CC5B2082DD3DB70BD70B5054600249E
:10537000FFF7E8FE00261FE00121C9020920C00650
:10538000FDF701F80220FEF7C9FC0121C90209203E
:10539000C006FCF7F6FF6006040E01210903092090
:1053A000C006FCF7D4FF002801D0601CC4B2012065
:1053B000FEF7B4FC701CC6B2082EDDDB002D02D156
:1053C000FFF778FF01E0FFF753FF204670BD0000B4
:1053D00010B54021F848FCF7D4FF8021F648FCF7CF
:1053E000D0FF8021F448FCF7CEFF4021F248FCF7C3
:1053F000CAFF10BD10B54021EF48FCF7C2FF802165
:10540000ED48FCF7C0FF8021EB48FCF7BAFF10BD68
:1054100010B54021E848FCF7B4FF4021E648FCF70E
:10542000B2FF10BDF8B505462C464021E248FCF716
:10543000AAFF002619E0274680200740802F04D1CC
:105440008021DD48FCF79DFF03E08021DA48FCF76E
:105450009AFF6006040E4021D748FCF792FF4021D6
:10546000D548FCF790FF701CC6B2082EE3DBF8BDF0
:1054700010B50446FFF7ACFF7820FFF7D3FFFFF726
:10548000C7FF0020FFF7CEFFFFF7C2FF2046FFF760
:10549000C9FFFFF7BDFFFFF7ADFF10BD10B5044614
:1054A000FFF796FF7820FFF7BDFFFFF7B1FF402021
:1054B000FFF7B8FFFFF7ACFF2046FFF7B3FFFFF79A
:1054C000A7FFFFF797FF10BD70B504460D46002DEE
:1054D00003D0E0B2FFF7E2FF02E0E0B2FFF7C8FF5F
:1054E00070BD70B50646002418E02046B03000219B
:1054F000FFF7EAFF00210220FFF7E6FF002110205E
:10550000FFF7E2FF002505E001213046FFF7DCFF51
:10551000681CC5B2802DF7DB601CC4B2082CE4DB2C
:1055200070BD05E0A54900E0491E0029FCD1401EE0
:105530000028F7D17047014605E0002001E0421C39
:10554000D0B27B28FBDB0A46491E002AF5D1704702
:1055500070B504460D462846B0300021FFF7B4FF71
:10556000A11CF02211400911084610300021FFF75C
:10557000ABFFA11C0807000F0021FFF7A5FF70BDBE
:1055800010B500218D20FFF79FFF00211420FFF7A9
:105590009BFF0021AF20FFF797FF10BD10B5002142
:1055A0008D20FFF791FF00211020FFF78DFF0021D4
:1055B000AE20FFF789FF10BDF8B505460E462C4614
:1055C00018E02046B0300021FFF77EFF00210220C6
:1055D000FFF77AFF00211020FFF776FF002705E094
:1055E00001210020FFF770FF781CC7B2802FF7DB86
:1055F000601CC4B2B442E4DBF8BD70B5002418E00E
:105600002046B0300021FFF75FFF00210220FFF7A6
:105610005BFF00211020FFF757FF002505E0012167
:105620000020FFF751FF681CC5B2802DF7DB601C1E
:10563000C4B2082CE4DB70BD70B5002418E020462D
:10564000B0300021FFF740FF00210220FFF73CFFB0
:1056500000211020FFF738FF002505E00121084652
:10566000FFF732FF681CC5B2802DF7DB601CC4B2A7
:10567000082CE4DB70BDFFB581B007460D4600265F
:10568000002403982038C6B27F2F02DD0027A81C13
:10569000C5B20498102824D129463846FFF758FF90
:1056A000002408E031010919454A505C0121FFF747
:1056B0000BFF601CC4B2082CF4DB681CC1B2384676
:1056C000FFF746FF002409E03101091908313C4A7F
:1056D000505C0121FFF7F8FE601CC4B2082CF3DB1C
:1056E00011E029463846FFF733FF002409E0062180
:1056F0007143344A8918085D0121FFF7E5FE601CFB
:10570000C4B2062CF3DB05B0F0BD10B50246012093
:1057100002E00346534318460B464C1EE1B2002BF1
:10572000F7D110BDFFB583B01E460C9C002002903F
:1057300000253CE0701B401EC1B20A20FFF7E5FFC8
:1057400001460090059800F0FDFC0A21019000F050
:10575000F9FC0F460298002815D1701EA84212DDF0
:10576000002F0ED1E00F00194010684301940399F7
:105770004018C0B22346202200900499FFF77BFF17
:1057800013E001200290E00F0019401068430194DB
:1057900003994018C0B2009038463030C2B2234658
:1057A00004990098FFF767FF00BF681CC5B2B542B7
:1057B000C0DB07B0F0BD0000000400486518000021
:1057C000F46C0008CC6A0008FFB581B004460E46B0
:1057D0001746002500BF0FE07A5D31462046049B46
:1057E000FFF749FF20460830C4B2782C02DD0024C0
:1057F000B01CC6B2681CC5B20A988542ECDB05B085
:10580000F0BDF7B50E461546002731460098FFF764
:105810009FFE00240AE0A9016F4A8918085D012152
:10582000FFF752FE781CC7B2601CC4B2102CF2DB2A
:10583000701CC1B20098FFF78BFE00240CE06900D9
:10584000491C4901644A8918085D0121FFF73CFEA3
:10585000781CC7B2601CC4B2102CF0DBFEBDFFB5D3
:1058600083B006460F461C46002002902046E117F2
:10587000490F0918C910C900611A05D1E117490F6C
:10588000091849050D0E06E02046E117490F0918D1
:10589000C910491CCDB23D4617E029463046FFF7F6
:1058A00057FE01960BE002994A1C02920C9A505C3A
:1058B0000121FFF709FE0198401CC0B20190059933
:1058C00001988842EFDB681CC5B2A542E5DB07B052
:1058D000F0BD1CB5C0200090012168460171002177
:1058E00081710321417169463C48FCF7CDFCC02120
:1058F0003A48FCF746FD19204001FEF71EFA002148
:10590000AE20FFF7E1FD00210220FFF7DDFD0021C1
:105910001020FFF7D9FD00214020FFF7D5FD002121
:10592000B020FFF7D1FD00218120FFF7CDFD002140
:10593000FF20FFF7C9FD0021A120FFF7C5FD0021D1
:10594000A620FFF7C1FD0021A820FFF7BDFD002123
:105950003F20FFF7B9FD0021C820FFF7B5FD00216A
:10596000D320FFF7B1FD00210846FFF7ADFD002170
:10597000D520FFF7A9FD00218020FFF7A5FD00211C
:10598000D820FFF7A1FD00210520FFF79DFD002194
:10599000D920FFF799FD0021F120FFF795FD0021A7
:1059A000DA20FFF791FD00211220FFF78DFD002185
:1059B000DB20FFF789FD00213020FFF785FD002166
:1059C0008D20FFF781FD00211420FFF77DFD0021D0
:1059D000AF20FFF779FD1CBDE20100200004004864
:1059E0001CB51020009001216846017100218171D1
:1059F0000321417169469548FCF746FC1CBD70B512
:105A000004460025FFF7ECFF0120FEF787F900BFF1
:105A100027E08E48808A082188438C498882E007E5
:105A2000C00F002807D00846808A10218843103014
:105A30008649888205E08548808A10218843834909
:105A400088820120FEF76AF98048808A082188430D
:105A500008307E4988820120FEF760F96410681CD6
:105A6000C5B2082DD5DB70BD70B505460C4677482C
:105A7000808A20218843754988820846808A0821C7
:105A80008843724988820846808A202188432030D2
:105A90006E4988822846FFF7B2FF2046FFF7AFFF26
:105AA0006A48808A08218843083068498882084605
:105AB000808A202188436549888270BD1CB52820D2
:105AC000009001216846017100218171032141711B
:105AD00069465E48FCF7D8FB5C48808A0821884309
