:020000040800F2
:10000000880E0020991B0008010200080302000866
:1000100000000000000000000000000000000000E0
:1000200000000000000000000000000007020008BF
:100030000000000000000000090200080B02000898
:10004000AB1B0008AB1B0008AB1B0008AB1B000878
:10005000AB1B0008AB1B0008AB1B0008AB1B000868
:10006000AB1B0008AB1B0008AB1B0008AB1B000858
:10007000AB1B0008AB1B0008AB1B00081B020008F1
:1000800023020008AB1B000800000000AB1B0008A7
:10009000AB1B0008AB1B0008AB1B0008AB1B000828
:1000A000AB1B0008AB1B0008AB1B000813020008C9
:1000B000AB1B000800000000AB1B000800000000A4
:1000C0000448854606F010FB00480047E10100089F
:1000D000C046C046880E002047480078002804D05B
:1000E00045480078401E444908704348008900286C
:1000F00004D041480089401E3F4908813E4840786D
:10010000002804D03C484078401E3B4948703A489B
:100110008078002804D038488078401E364988709E
:1001200035484089002804D033484089401E324970
:10013000488131488089002804D02F488089401E9A
:100140002D4988812C48C078002804D02A48C078DE
:10015000401E2949C8702848C088401C2649C880CC
:10016000704710B500F05EF900F06BF900F021FA6D
:1001700000F03DFA05F0EEFC00F0C5FA04F0CDFE0B
:1001800005F09EFB05F0A6FA00F0F9F900F0D7FAA9
:1001900010BD1CB505F033F908226946002004F0B3
:1001A00099FE002308221549684603F0E5FF082060
:1001B00004F000FE10494871487903F0A1FD0920C0
:1001C00004F0F8FD044601F0FEFB05F00DFE05F01D
:1001D00023FC00F001FB05F012F900F086F91CBDCC
:1001E000FFF7BFFFFFF7D5FF05E002F094F800F03E
:1001F000B6FA00F073FBF8E7000000209505002038
:10020000704700BFFEE77047704710B5FFF764FF07
:1002100010BD10B504F02AFB10BD10B504F096FD1A
:1002200010BD10B504F0FCFA10BD00000CB50020A4
:100230000190009073480068012109040843714946
:10024000086000BF6F480068012149040840009021
:100250000198401C01900098002804D10521090252
:1002600001988842EED1674800680121490408409E
:10027000002802D00120009001E0002000900098AA
:10028000012839D11120604908605E4840685D4905
:100290004860084640684860084640683F210904B5
:1002A00088435849486008464068112109040843BA
:1002B000544948600846006801210906084351492D
:1002C000086000BF4F480068012149060840002827
:1002D000F8D04C484068800880004A494860084689
:1002E0004068022108434749486000BF45484068CC
:1002F0000C2108400828F9D10CBD10B54148006810
:10030000012108433F490860084640683F490840CA
:100310003C494860084600683D4908403949086042
:100320000846006801218904884336490860084668
:1003300040683F2109048843324948600846C06A42
:1003400000090001C8620846006BFF215431884350
:100350002C4908630846406B400840004863002071
:100360008860FFF763FF10BDF8B500250024002664
:100370000027244840680C2108400546002D04D081
:10038000042D06D0082D2AD107E022482249086012
:1003900029E020482049086025E01A4840680F21DC
:1003A00089040840044617484068012109040840B0
:1003B0000646A00C841C002E04D118486043164940
:1003C00008600BE00F48C06A0007000F471C394661
:1003D000104805F0B9FD60430F49086003E00D487F
:1003E0000D49086000BF00BF06484068F021084082
:1003F00000090B490D5C08480068E84006490860A0
:10040000F8BD000000100240002002400CB8FFF8C8
:10041000FFFFF6FE00127A001000002000093D00E8
:100420001400002010B501210320400402F067FAF7
:100430000121880302F071FA0121032002F07BFA06
:1004400010BD1CB5FF20F1300090012168460171FC
:10045000002181710321417169460920C00601F024
:100460009BFE0720009001216846017100218171E7
:100470000321417169460920C00601F08DFE032069
:1004800000900021684601710121C1716946FD4853
:1004900001F082FE012207210920C00601F005FFBC
:1004A00001220921C80601F000FF01220A210920CA
:1004B000C00601F0FAFE03204002009002216846C7
:1004C0000171002181710321417169460920C00633
:1004D00001F062FE0920C006808AB0221043014666
:1004E0000920C00601F0DFFE1CBD1CB58020009075
:1004F0000221684601710021817103214171694621
:100500000920C00601F048FE1CBD1CB5302000903B
:100510000121684601710021817103214171694601
:100520000920C00601F038FE8020009002216846B4
:100530000171002181710321417169460920C006C2
:1005400001F02AFE1CBD1CB5302000900021684639
:10055000017181710321417169460920C00601F0D2
:100560001BFE8020009000216846017181710321EB
:10057000417169460920C00601F00EFE1CBD10B590
:10058000C149C248006805F0DFFC0446601EC0494E
:10059000884200D90CE0601EBE4948610321081F53
:1005A00000F00BFF0020BB4988610720086100BFF5
:1005B00010BD00B587B0B84803F07EF84B20C001ED
:1005C0000190002002900390049006900C2005906A
:1005D00001A9B14803F08CF80122B049AE4803F0FC
:1005E000B5FA0121AC4803F01CF907B000BD00B515
:1005F00089B0AB4802F07AFAFF20F43007902F213F
:100600006846018300210184418306A9A44802F0C1
:10061000D3FA0121A24802F05DFF01221146A04851
:1006200002F042FF6021684681800121C1800221E1
:1006300001820020039001A9994802F0B6FB08212D
:10064000974802F0F8FC0121954802F03AFB01209E
:10065000800702F04BFA63200790924968460183B5
:1006600000210184418306A90120800702F0A4FA39
:100670000121880702F02EFF01221146900702F0A7
:1006800013FF0121880702F01CFB09B000BD00B573
:1006900085B00121084602F040F90121880402F0EA
:1006A0002EF90521684601700021417001218170F9
:1006B00001F04EFE032003900021684601740221E0
:1006C00041740021C17403A96E4801F065FD012049
:1006D00001F016FD022001F013FD0021012002F0BF
:1006E000C9F90121084602F0C5F903200190002153
:1006F00068460172102141720121817201A801F046
:100700008FFC05B000BD08B51B21684601700021B3
:1007100041700121817001F01BFE102168460170BB
:1007200001214170817001F013FE0F2168460170B4
:10073000022141700121817001F00AFE08BD10B54F
:10074000594801F0DFFD012001F0DFFD7D2040016F
:1007500001F0DEFD01F0DFFD01F0E4FD10BD10B59C
:10076000002403F08AFA0446002C02D0204603F04D
:10077000EDFF04F0CFF80446002C02D0204604F030
:100780006DF94A488089002809D17D200001474938
:10079000888105F0E5F905F097FB45490880434855
:1007A0008078002806D164204049887005F034F92B
:1007B00003F0FFFF3D484078002805D04021092084
:1007C000C00601F066FD04E040210920C00601F0EA
:1007D00062FD01F099F910BD10B5002404F00FFE80
:1007E000102334A20221002004F0F0FE102336A2D0
:1007F0000421002004F0EAFE00BF3FE00321204670
:1008000005F0B8FB00290DD110210920C00601F028
:1008100042FD322003F019FA10210920C00601F030
:1008200038FD26E00321204605F0A4FB01290DD167
:1008300020210920C00601F02EFD322003F005FA28
:1008400020210920C00601F024FD12E003212046EA
:1008500005F090FB02290CD180210920C00601F08F
:100860001AFD322003F0F1F980210920C00601F0C1
:1008700010FD1E2003F0E9F9601CC4B20F2CBDDB93
:1008800010BD000000040048701700001000002098
:10089000FFFFFF0000E000E0003801400501050017
:1008A000000400407FBB0000555500000000002000
:1008B0008A01002020204155544F20555342205694
:1008C000312E3020200000002020205A65726F2039
:1008D00053747564696F202020000000F8B500256E
:1008E00000260024F948C088F94988424CDCF748C2
:1008F000C188F8480078F84A5043814238DDF3480F
:10090000C188F44800785043C830814230DA00BFD3
:1009100020E0F048007884420DDABA2061006118C6
:100920007C22511AED4A5054610061187B22511A01
:10093000EA4A50540CE08220610061187C22511A6E
:10094000E64A5054610061187B22511AE34A505420
:10095000601CC4B2042CDCDBDE480078401CDD499E
:10096000087008460078042801DD00200870012581
:10097000002D0CD00025D9480223802200210090B0
:10098000084604F06DFE02E00020D049C880CF4840
:10099000008900287ED1FA20CC490881D04800780F
:1009A000002878D1CF4989797D2212018818511009
:1009B00005F0E0FA3030CC49C870CA4989797D2207
:1009C00012018818642105F0D5FA07460A2105F0BE
:1009D000D1FA3031C8B2C4490871C24989797D223F
:1009E000120188180A2105F0C5FA07460A2105F008
:1009F000C1FA3031C8B2BC494871BA4989797D22FF
:100A0000120188180A2105F0B5FA3031C8B2B6498A
:100A100088712D20C871B34908790A2105F0AAFA16
:100A20003030B1490872AF4908790A2105F0A2FABD
:100A30003031C8B2AC4948722D208872A949C878B3
:100A40000A2105F097FA3030A749C872A549C8783D
:100A50000A2105F08FFA3031C8B2A3490873A149C1
:100A600088780A2105F086FA3030A04908719D493E
:100A700088780A2105F07EFA3031C8B29B49487166
:100A80003A208871974948780A2105F073FA303086
:100A9000964901E0F4E34CE0C871924948780A2194
:100AA00005F068FA3031C8B2904908723A204872AD
:100AB0008C4908780A2105F05DFA30308B4988723C
:100AC000884908780A2105F055FA3031C8B28749BB
:100AD000C87252208649087030208870FF21013189
:100AE0000920C00601F0BBFB30308149C8704720A7
:100AF000C871452008724E2048722020887242201A
:100B000008737C48007804280CDD4E20887343204D
:100B1000C87320210920C00601F0BBFB00207649E4
:100B2000087004E04C20724988734520C873012680
:100B3000F3E36B48007801287ED170480078401CB0
:100B40006E49087008460078142801DD00200870FE
:100B50006A4800780A2870DA694989797D22120189
:100B60008818511005F006FA30305F49C8706449A2
:100B700089797D2212018818642105F0FBF9074666
:100B80000A2105F0F7F93031C8B2574908715C49BC
:100B900089797D22120188180A2105F0EBF90746B0
:100BA0000A2105F0E7F93031C8B24F49487154497C
:100BB00089797D22120188180A2105F0DBF930318C
:100BC000C8B2494988712D20C8714D4908790A2158
:100BD00005F0D0F9303044490872494908790A21B2
:100BE00005F0C8F93031C8B23F4948722D208872EB
:100BF0004349C8780A2105F0BDF930303A49C87236
:100C00003F49C8780A2105F0B5F93031C8B23649F4
:100C100008733B4988780A2105F0ACF93030334934
:100C20000871374988780A2105F0A4F93031C8B233
:100C30002E4948713A2001E07DE02EE0887130496C
:100C400048780A2105F096F930302849C8712C49B6
:100C500048780A2105F08EF93031C8B2234908726C
:100C60003A204872264908780A2105F083F9303085
:100C70001E498872224908780A2105F07BF9303133
:100C8000C8B21A49C87253201949C8714520087260
:100C900054204872202088724BE00C4800790128CB
:100CA00003D15F201149487143E0084800790228C8
:100CB00003D15F200D4908723BE004480079032806
:100CC00020D15F200949C87233E0000000000020F5
:100CD000A861000095010020881300002400002076
:100CE00094050020710500202401002057010020F8
:100CF00079010020EB010020ED010020940100208B
:100D0000CA010020FE480079042803D15F20FD4974
:100D100088710EE0FA480079052803D15F20F9496F
:100D2000487206E0F6480079062802D15F20F549AE
:100D300008730126F1E2F448007802287ED1F348D6
:100D40000078401CF149087008460078142801DD3D
:100D500000200870ED4800780A2870DAEC4989799B
:100D60007D2212018818511005F004F93030E54950
:100D7000C870E74989797D2212018818642105F03D
:100D8000F9F807460A2105F0F5F83031C8B2DD4917
:100D90000871DF4989797D22120188180A2105F03E
:100DA000E9F807460A2105F0E5F83031C8B2D5491F
:100DB0004871D74989797D22120188180A2105F0E6
:100DC000D9F83031C8B2CF4988712D20C871D049C7
:100DD00008790A2105F0CEF83030CA490872CC49AA
:100DE00008790A2105F0C6F83031C8B2C549487201
:100DF0002D208872C649C8780A2105F0BBF830302A
:100E0000C049C872C249C8780A2105F0B3F8303128
:100E1000C8B2BC490873BE4988780A2105F0AAF80F
:100E20003030BC490871BA4988780A2105F0A2F827
:100E30003031C8B2B74948713A2001E060E02EE095
:100E40008871B34948780A2105F094F83030B149E7
:100E5000C871AF4948780A2105F08CF83031C8B222
:100E6000AC4908723A204872A94908780A2105F06D
:100E700081F83030A7498872A54908780A2105F021
:100E800079F83031C8B2A349C8724120A249C8716B
:100E90004C2008724D204872202088722EE098481D
:100EA0000079012803D15F209A49487126E09448CF
:100EB0000079022803D15F20964908721EE090480D
:100EC0000079032803D15F209249C87216E08C484C
:100ED0000079042803D15F208A4988710EE0884890
:100EE0000079052803D15F208649487206E08448CE
:100EF0000079062802D15F208249087301260CE29E
:100F0000814800780A287DD1844989797D2212019F
:100F10008818511005F02EF830307A49C8707F4992
:100F200089797D2212018818642105F023F807468B
:100F30000A2105F01FF83031C8B2724908717749AB
:100F400089797D22120188180A2105F013F80746D5
:100F50000A2105F00FF83031C8B26A4948716F496B
:100F600089797D22120188180A2105F003F83031B1
:100F7000C8B2644988712D20C871684908790A216E
:100F800004F0F8FF30305F490872644908790A219B
:100F900004F0F0FF3031C8B25A4948722D208872EF
:100FA0005E49C8780A2104F0E5FF30305549C8721F
:100FB0005A49C8780A2104F0DDFF3031C8B25149DE
:100FC0000873564988780A2104F0D4FF303051491B
:100FD0000871524988780A2104F0CCFF3031C8B238
:100FE0004C4948713A2088714C4948780A2104F0EC
:100FF000C1FF30304749C871484948780A2104F098
:10100000B9FF00E018E03031C8B2424908723A2016
:101010004872424908780A2104F0ACFF30303D495B
:1010200088723E4908780A2104F0A4FF3031C8B222
:101030003849C872012670E133480078032877D117
:1010400004F0C2FD0746364905F013F8354908603B
:1010500004F0D2FD0746344905F00BF83349086027
:1010600052202849C87045200871462048713A200E
:1010700088712C48006805F0E7F907467D21C90012
:1010800004F062FF30301F49C8712E2008722548D5
:10109000006805F0D9F96421009004F055FF074677
:1010A0000A2104F051FF3031164841721D48006892
:1010B00005F0CAF90A21009004F046FF07460A210C
:1010C00004F042FF30310F4881721648006805F085
:1010D000BBF907460A2104F037FF30310948C172D5
:1010E00056200849087354200A4908713A2048716B
:1010F0000E48006805F0A8F907467D21C90018E0F0
:10110000000000202401002094050020940100200C
:10111000D201002057010020790100207105002034
:1011200000007A44900100200000C8428C01002099
:101130003DE004F009FF3030BB498871BB480068CE
:1011400005F082F96421009004F0FEFE07460A21B2
:1011500004F0FAFE3031B448C1712E20B249087251
:10116000B248006805F070F90A21009004F0ECFE26
:1011700007460A2104F0E8FE3031AB484172AB4823
:10118000006805F061F907460A2104F0DDFE303100
:10119000A54881724320A449C872A549C87150204E
:1011A000087255204872202088720126B5E0A148B7
:1011B0000078042865D152209F4908706F2048703C
:1011C00088706D20C87020200871542048716520F7
:1011D00088716D20C8717020087265204872722075
:1011E00088726120C8727420087375204873722059
:1011F00088736520C87354208B4908713A20487160
:101200008E480021415E002903DA2D20864988712D
:1012100002E02020844988716421884A0020105E01
:1012200004F092FE07460A2104F08EFE30317E481B
:10123000C1710A21814A0020105E04F085FE074634
:101240000A2104F081FE3031774801722E20764960
:1012500048720A21794A0020105E04F075FE303190
:101260007148817243207049C87254207049C87116
:10127000452008724D2048725020887201264CE0AB
:1012800067E06C480078052830D15620684908701E
:101290006B4948790A2104F06DFE3030644988704A
:1012A000674948790A2104F065FE3031C8B26049C7
:1012B000C8704720C871412008724D2048724520EF
:1012C0008872532008735E4908790A2104F052FE9F
:1012D0003030574988735A4908790A2104F04AFE88
:1012E0003031C8B25249C873012616E0514800781F
:1012F000062809D14C204E49C8714F20087257204A
:1013000048725020887208E04A480078082803D0C4
:1013100048480078092800D10126002E19D04548F8
:10132000007805280CD010233F4A0221002004F049
:101330004DF90423404A0521002004F047F901E05B
:1013400000F08CF804233A4A0721002004F03EF90B
:1013500000263C48408900282CD10A203949488180
:1013600039480088002812D138480088401C374985
:10137000088008460088FF21F531884215DB0120EE
:1013800031490880FF20F530304908800DE02F48B2
:101390000088401E2D49088008460088002804DC8B
:1013A00000202949088029490880284801882848C0
:1013B00001F0FBFD03F022FCF8BD10B5002819DA9E
:1013C000244A03071B0F083B9B089B00D258830746
:1013D000DC0EFF23A3409A438B071B0E8407E40E09
:1013E000A3401A431B4B0407240F083CA408A40085
:1013F0001A5118E0184A03231B02D21883089B00D5
:10140000D2588307DC0EFF23A3409A438B071B0EA1
:101410008407E40EA3401A430F4B032424021B1934
:101420008408A4001A5110BD570100208C0100202F
:101430007901002094050020240100208A01002069
:10144000A00100200000002098010020960100204B
:10145000000400401CED00E000E100E038B500248D
:10146000F948C078002811D100BF0DE0E001F7492C
:1014700040180090E01CC3B2A01CC1B28022002022
:1014800004F0EEF8601CC4B2052CEFDB38BD17B5D4
:1014900082B00021039C029B01940093EC4B1B78CB
:1014A000002B1ED0EA4B5B78002B1AD0E84B5B7800
:1014B0005B1EDB01E54C1C19E54B1B785B1EDB005A
:1014C000E0183F230370401C33230370401C21238A
:1014D0000370401C0370401C33230370401C3F23E7
:1014E000037000212EE06B465B785B1EDB01D74C5E
:1014F0001C196B461B785B1EDB00E0183F23037052
:10150000401C00290AD10370401C33230370401C87
:101510000370401C3F230370401C08E03F2303700E
:10152000401C0370401C0370401C0370401C3F2390
:101530000370019B002B03D0019C18CC01940093F5
:101540004B1CD9B29142CEDB05B010BD10B5C148DD
:10155000006805F03BF9082005F062F9BD49086014
:101560000020096848600120BA4909680870032012
:10157000B849096848700120B349087004204870D0
:101580000820B349087002204870AF480278B1487B
:10159000006803C8FFF77BFFFFF760FF0120AA493F
:1015A00088700020C870087110BDA74949780129CA
:1015B00006D0022909D003290CD0042914D10EE049
:1015C000022801D0A04948700EE0012801D09E49B0
:1015D000487009E0042801D09B49487004E00328C2
:1015E00001D09949487000BF00BF704710B504464C
:1015F00001209549C870002088700621022003F060
:10160000DDFE102322460221002003F0DFFF10BD83
:1016100010B502460B468F4800684168002400BFA1
:101620000DE00878904204D14878984201D1012019
:1016300010BD4868002800D04968601CC4B28248C8
:101640000078401EA042ECDC0020F1E770B50546B2
:101650000E46082005F0E4F80446257066707D48C3
:10166000006860607B48046077480078401C7649D9
:10167000087070BDF1B50024002500277548066884
:10168000006804787348006845780098012806D0FF
:1016900002280AD003280ED0042818D111E0681EB1
:1016A000C5B2012D00DA052511E0681CC5B2052D73
:1016B00000DD01250BE0601EC4B2012C00DA10240D
:1016C00005E0601CC4B2102C00DD012400BF00BF87
:1016D000002702E07668781CC7B25B480078401E9D
:1016E000B842F7DC706805F071F800207060564869
:1016F0000078401E5449087029462046FFF7A6FF8F
:10170000F8BDF0B585B004460D461646002004909D
:10171000039050480768002C01D1601CC4B2002D12
:1017200001D1681CC5B20020049022E03878A042A4
:1017300017D17878A84214D104F030FC062100902B
:1017400004F018FCC8B2029004F028FC11210090AB
:1017500004F010FCC8B2324601900299FFF7D1FFA5
:1017600003907868002800D07F680498401CC0B2BD
:1017700004903548017804988142D7DC0120039019
:101780003470761C3570039805B0F0BD70B5044612
:101790000D462D484078012806D002280AD003289B
:1017A0000ED0042818D111E0681EC5B2012D00DA50
:1017B000052511E0681CC5B2052D00DD01250BE0F3
:1017C000601EC4B2012C00DA102405E0601CC4B213
:1017D000102C00DD012400BF00BF29462046FFF782
:1017E00035FF70BD7CB500251A48016803C9019119
:1017F000009000BF1FE068464078401EC0011349BA
:10180000411868460078401EC0000C180020207067
:10181000641C2070641C2070641C2070641C207088
:10182000641C20700198002803D0019903C901911C
:101830000090681CC5B204480078A842DBDC062191
:10184000022003F0BBFD7CBDA00100209D0500200F
:10185000A60100209C01002070B55E48007804F0CD
:10186000A6FB5C480078401C5A4908705A4800782A
:1018700005285CD1594841795648007804F07AFB34
:10188000002954D155488078012850D1FFF7AAFF8C
:101890005348006800785349097888422BD1504852
:1018A000006840784F494978884224D14D4A5178A0
:1018B0001078FFF76BFF04F071FB0646062104F079
:1018C00059FBCCB204F06AFB0646112104F052FB2E
:1018D000CDB2444A21462846FFF713FF3F4800791E
:1018E000401C3E490871084600791D2814DB3EA0C3
:1018F000FFF77CFE10E039494878FFF7BBFE384A15
:1019000012685178364A12681078FFF781FE002875
:1019100002D03AA0FFF76AFE3048C078002806D10E
:101920002E4802782E48006803C8FFF7B0FD70BD4E
:1019300070B500242A4805680026002027498870D1
:10194000FFF750FF002027490870487000BF0CE0E7
:1019500000202F49085500212D4880300155803046
:10196000015580300155601C84B2FF2CF0DD04E08D
:101970006E68284604F02AFF3546002DF8D1002075
:101980001749086070BD10B51448C078012804D10B
:10199000FFF7CEFFFFF7DAFD14E000200F49887053
:1019A00008464079401C4871084640790F2801DDFF
:1019B0000120487109484179092003F026FA0120E5
:1019C0000649887010BD012800DA012003494871DA
:1019D00070470000A801002094050020A00100200D
:1019E0009C010020A6010020202047414D452057A2
:1019F000494E4E4552212121200000002020474120
:101A00004D45204F56455220212121202020000005
:101A10009D05002010B504460621022003F0CEFCEF
:101A2000102322460221002003F0D0FD10BD70B526
:101A3000044600254D480078072804D0082812D015
:101A400009285FD122E020784F280BD160784B28FD
:101A500008D147A0FFF7DEFF4D204949487100201B
:101A6000424908704EE0207848280ED103250AE04C
:101A7000E81E205C4349485528460830205C42490E
:101A80004855681CC5B20D2DF2DB3BE020203D49D6
:101A90000870487088704220C870542008712D204A
:101AA0004871412088714420C871087252204872E0
:101AB000452088725320C8720873202048738873A9
:101AC000C873314908702078487060788870E07871
:101AD000C870207908713A204871A0798871E0793E
:101AE000C871607A0872A07A48723A208872207BA6
:101AF000C872607B0873E07B4873207C8873202069
:101B0000C87300BF00BF70BD10B52048C078002862
:101B10002AD1FF201D49C8701D490878C10F091836
:101B200049104900411A012905D110210920C00698
:101B300000F0B1FB04E010210920C00600F0A9FB71
:101B400014490878C10F091849104900411A0129A0
:101B500005D120210920C00600F09DFB04E02021D2
:101B60000920C00600F095FB10BD00009405002080
:101B700020204254205245534554204F4B212000F1
:101B800079010020570100202401002000000020DE
:101B9000EC010020ED010020044880470448004784
:101BA000FEE7FEE7FEE7FEE7FEE7FEE7FB020008D2
:101BB000C100000810B50446B548844207D1012190
:101BC000401500F0D4FE0021601500F0D0FE10BDDD
:101BD00010B50022C268AF4B1A400C7964030B6841
:101BE00023438C682343CC6823430C6923434C690B
:101BF00023431A43C26010BD00210160017181605E
:101C0000C160016141617047002904D082680123ED
:101C10001A43826003E0826802231A43826070479D
:101C2000002A03D003690B43036102E003698B437D
:101C300003617047002905D0C2680123DB031A4302
:101C4000C26004E0C2680123DB039A43C2607047AC
:101C5000002905D0C26801239B031A43C26004E037
:101C6000C26801239B039A43C2607047002905D0D4
:101C7000C2680123DB051A43C26004E0C268012385
:101C8000DB059A43C26070470B041343036270473D
:101C900010B50A460021C1681F24A4060B46A343C1
:101CA00019460B4613431946C16010BD002905D0E3
:101CB000C26801239B051A43C26004E0C268012385
:101CC0009B059A43C2607047002807D07249896813
:101CD0000122D2051143704A916006E06E4989687D
:101CE0000122D20591436C4A91607047002807D0C9
:101CF00069498968012292051143674A916006E0AB
:101D000065498968012292059143634A9160704751
:101D1000002807D0604989680122120611435E4AF3
:101D2000916006E05C4989680122120691435A4A93
:101D30009160704710B50B460021846A1C43846291
:101D400000BF0C4614432146416110BD002905D057
:101D5000C26801235B031A43C26004E0C268012326
:101D60005B039A43C2607047002905D0C268012313
:101D70001B041A43C26004E0C26801231B049A4397
:101D8000C2607047002905D0C26801231B031A43B3
:101D9000C26004E0C26801231B039A43C26070471B
:101DA00030B501460020002200238C680125ED0794
:101DB0002C438C6000BF8C68E30FDB07521C0F24A0
:101DC0002403A24201D0002BF5D18C68E40FE40774
:101DD000002C01D1086C00E0002030BD8168102289
:101DE000114381607047816804221143816070470C
:101DF0000146086C80B27047002904D0C2680123F4
:101E00001A43C26003E0C26852085200C2607047C1
:101E1000C26802239A43C260C2680A43C260704724
:101E2000002A03D043680B43436002E043688B43BE
:101E30004360704730B50246002000230124240689
:101E40000C40002C05D0946801252D06AC43234698
:101E500000E013681C460C40002C01D0012000E07B
:101E6000002030BD0160704710B5024600200023FD
:101E700054680C40234614680C40002C03D0002BFF
:101E800001D0012000E0002010BD0160704700007B
:101E90000024014003D2FFFF002701400168584A97
:101EA000114001600021016041608160C1605549BD
:101EB000884208D15349083949680F221143514AD1
:101EC000083A516035E04F491431884208D14D49F4
:101ED00008394968F02211434A4A083A516028E01B
:101EE00048492831884209D14649083949680F22B2
:101EF00012021143434A083A51601AE041493C3109
:101F0000884209D13F49083949680F221203114319
:101F10003C4A083A51600CE03A495031884208D1B5
:101F20003849083949680F2212041143354A083AE2
:101F30005160704710B500220268334B1A400C6A9A
:101F40008B6823430C6923434C6923438C692343E7
:101F5000CC6923434C6A23438C6A23431A430260AF
:101F6000CB6843600B6883604B68C36010BD002181
:101F7000016041608160C160016141618161C16155
:101F80000162416281627047002904D00268012326
:101F90001A43026003E00268194B1A40026070475E
:101FA000416070470146486880B27047002A03D0FC
:101FB00003680B43036002E003688B4303607047D0
:101FC000014600200F4A083A12680A40002A01D050
:101FD000012000E0002070470A4908394860704736
:101FE00001460020074A083A12680A40002A01D038
:101FF000012000E00020704702490839486070471E
:10200000FEFF0000080002400F80FFFF3E483F49EE
:102010000860002048608860C8603D48486170479B
:1020200000213A498279002A35D00A4612680368AD
:102030009A430B461A600A46526803689A430B4655
:102040005A60027951180A6803681A430A602F4AD5
:10205000926803689A432D4B9A601A46D2680368C7
:102060009A432A4BDA604279102A0CD11A469268B8
:1020700003681A43254B9A601A46D26803681A43CC
:10208000224BDA600DE02149427951180A68036851
:102090001A430A6005E0027951180A6803689A43F6
:1020A0000A6070470021016001710C21417100211B
:1020B00081717047154909690143144A11617047DC
:1020C00001460020114A52690A40002A01D001202D
:1020D00000E0002070470D4948617047014600202C
:1020E00000220A4B1B680B401A46084B5B690B40E9
:1020F000002B03D0002A01D0012000E0002070470F
:1021000002494861704700000000940F000401403C
:10211000FFFF6B0010B504460920C006844209D1B8
:102120000121480400F015FC00210120400400F0CA
:1021300010FC30E06E48844208D10121000200F01A
:1021400008FC0021200200F004FC24E069488442DD
:1021500008D10121000200F0FCFB0021200200F068
:10216000F8FB18E06448844209D10121080500F019
:10217000F0FB00210120000500F0EBFB0BE05F48C5
:10218000844208D10121880500F0E3FB00210120F1
:10219000800500F0DEFB10BDF0B50A4600210023EB
:1021A000002400BF3DE001258D402B4615681D40F1
:1021B0002C469C4234D11579012D02D01579022D7F
:1021C00016D185684F000326BE40B543856055791A
:1021D0004E00B540866835438560858801268E406F
:1021E000B5438580858896798E40B6B23543858023
:1021F00005684F000326BE40B543056015794E00C3
:10220000B540066835430560C5684F000326BE40EB
:10221000B543C560D5794E00B540C6683543C56045
:10222000491C1029BFD3F0BD35490160002101715F
:102230000221417100218171C171704708B50122ED
:1022400012040092009A0A430092009AC261C1618E
:10225000009AC261C2690092C269009208BD02463A
:102260000020138A0B40002B01D0012000E0002049
:1022700070470146088A704702460020938A0B4047
:10228000002B01D0012000E0002070470146888A21
:1022900070478161704701857047002A01D08161D4
:1022A00000E00185704781827047F0B5002300246B
:1022B0004D07EE0E1546B5402B46CD10AE00054637
:1022C0002035AD594E07F70E0F26BE40B543CE1050
:1022D000B60007462037BD51CD10AE003D46AD5982
:1022E0001D432C46CD10AD003E467451F0BD00009C
:1022F0000004004800080048000C00480014004892
:10230000FFFF00000F49086070470E4948607047A2
:102310000C49886070470C480A49086070470949B1
:102320000861704709480749086070470146002066
:10233000044AD2680A40002A01D0012000E00020AF
:102340007047000000300040AAAA0000CCCC00007A
:1023500000218278002A27D0274A03231B02D218A3
:1023600003789B109B00D15802789207D30EFF226E
:102370009A400B469343194642789207120E03780F
:102380009B07DB0E9A4011431B4A03231B02D21802
:1023900003789B109B00D1500278D306DB0E0122FC
:1023A0009A40154B1A6007E00278D306DB0E012233
:1023B0009A40114B80331A607047002905D00F4AAC
:1023C000126902430D4B1A6104E00C4A1269824300
:1023D0000A4B1A617047042806D109490969042289
:1023E0001143074A116105E0054909690422914337
:1023F000034A11617047000000E100E000ED00E0D9
:1024000000E000E0FD48006801210843FB49086046
:1024100008464068FA490840F8494860084600689C
:10242000F8490840F5490860084600680121890418
:102430008843F2490860084640683F210904884300
:10244000EE4948600846C06A00090001C8620846B3
:10245000006BFF2154318843E84908630846406B0C
:102460004008400048630020886070470021E34A2C
:10247000917011468870704710B502460021002304
:1024800000205111002902D1DC4C23680BE0012906
:1024900002D1DA4C236A06E0022902D1D74C636AE2
:1024A00001E0D64C636BD106C90E01248C401C4060
:1024B000002C01D0012000E0002010BD38B5002024
:1024C00000900024002500BF1120FFF7D5FF05462E
:1024D0000098401C0090052109020098884201D014
:1024E000002DF1D01120FFF7C7FF002801D00124F3
:1024F00000E00024204638BD01460020BF4A106895
:10250000F82302469A431046CA001043BB4A1060A3
:102510007047002806D0B949096801221143B74A1B
:10252000116005E0B549096849084900B34A1160DE
:10253000704701460020B14A506BF82302469A4387
:102540001046CA001043AD4A50637047002806D0B9
:10255000AA49496B01221143A84A516305E0A749E2
:10256000496B49084900A54A51637047002806D0C5
:10257000A249496B04229143A04A516305E09F4957
:10258000496B042211439D4A516370479B49096A74
:1025900049084900994A11621146096A0422914387
:1025A000964A11621146096A0143116270479349C4
:1025B000096A18229143914A11621146096A01433E
:1025C00011627047002806D08C49496A01221143E4
:1025D0008A4A516205E08949496A49084900874A9F
:1025E00051627047854A52683D231B049A43834BCE
:1025F0005A601A46526803460B431A437F4B5A608F
:102600007047002807D07D4909680122120611434E
:102610007A4A116006E0794909680122120691435D
:10262000764A1160704701460020744AD06A00095A
:10263000000102460A431046704AD06270470028E3
:1026400007D06E4909680122D20411436B4A116018
:1026500006E06A4909680122D2049143674A116081
:1026600070476649C871704701460020634A506848
:102670008008800002460A431046604A5060704756
:102680005E4840680C2108407047014600205B4AC4
:102690005068F02302469A43104602460A43104609
:1026A000564A5060704701460020544A506807233C
:1026B0001B0202469A43104602460A4310464F4AFE
:1026C000506070474D4949680122920391434B4A3B
:1026D00051601146496882B21143484A516011461F
:1026E000096B92159143454A11631146096B020C1F
:1026F0001143424A116370474049096B402291439C
:102700003E4A11631146096B0143116370473B490F
:10271000096B10229143394A11631146096B014339
:10272000116370473549096B89088900334A116381
:102730001146096B014311637047FEB5044600253D
:10274000002600200190009000272C4840680C21B2
:1027500008400546002D04D0042D05D0082D28D1B1
:1027600005E02948206027E02748206024E023482E
:1027700040680F218904084006462048406801212E
:10278000090408400190B00C861C0198002803D170
:102790001E48704320600BE01848C06A0007000F15
:1027A000401C00901848009903F0CEFB7043206055
:1027B00002E01548206000BF00BF10484068F021CB
:1027C000084005462D091248475D2068F8406060C2
:1027D0000A48406807210902084005462D0A0C48AE
:1027E000475D6068F840A0600448006BFF2101313C
:1027F0000840884210D00748E0601BE0001002400B
:102800000CB8FFF8FFFFF6FE00127A0000093D0049
:10281000A9010020809FD5007548406801218903E7
:102820000840884203D0A0684008E06002E0A06849
:102830008008E0606E48006B40210840402802D0CC
:102840006C48206102E00120C00320616848006BF1
:1028500010210840102802D06748606101E020681C
:1028600060616348006B8007800F002802D1A06878
:10287000A06119E05E48006B8007800F012802D13B
:102880002068A06110E05A48006B8007800F022882
:1028900002D18003A06107E05548006B8007800FDC
:1028A000032801D15448A061FEBD5149096A014382
:1028B0004F4A11627047002807D04D49096A01222A
:1028C000D20311434A4A116206E04949096A0122CA
:1028D000D2039143464A11627047002807D0444909
:1028E000096A012212041143414A116206E040497B
:1028F000096A0122120491433D4A1162704700297E
:1029000005D03B4A52690243394B5A6104E0384AC8
:1029100052698243364B5A617047002905D0344AC8
:1029200092690243324B9A6104E0314A92698243D0
:102930002F4B9A617047002905D02D4AD269024376
:102940002B4BDA6104E02A4AD2698243284BDA61D0
:102950007047002905D0264A926A0243244B9A62A6
:1029600004E0234A926A8243214B9A62704700290D
:1029700005D01F4AD26802431D4BDA6004E01C4AAE
:10298000D26882431A4BDA607047002905D0184A92
:1029900012690243164B1A6104E0154A1269824318
:1029A000134B1A617047002905D0114A527A02432D
:1029B0000F4B5A7204E00E4A527A82430C4B5A7201
:1029C00070470B48406A01210906084308494862DC
:1029D000704701460020064A92680A40002A01D04A
:1029E000012000E000207047014988727047000014
:1029F000001002401280000000127A003A4800687D
:102A00008007800F38490860002088600021364820
:102A1000C160016141618069FF2101310843324990
:102A200088617047014600202F4A106880088000A6
:102A300002460A4310462C4A10607047002905D010
:102A4000294A12680243284B1A6004E0264A126899
:102A50008243254B1A607047002905D0224A12682C
:102A60000243214B1A6004E01F4A126882431E4B46
:102A70001A60704730B500228B071C0F0F23A3404C
:102A80001A46194B08338C10A4001B599343164C5B
:102A900008348D10AD00635123468C10A4001B59DF
:102AA0008C07250F0446AC4023430F4C08348D108F
:102AB000AD00635130BD0C49896901430A4A9161F7
:102AC000704701460020084A9269FF2301331A40EB
:102AD000002A01D0012000E00020704702498969E6
:102AE0000143014A916170470000014010B504465E
:102AF000FE48844208D10121C014FFF738FF0021AD
:102B0000E014FFF734FF56E001208007844208D12B
:102B100001210846FFF739FF00210120FFF735FFAB
:102B200049E0F348844208D101210220FFF72DFF3C
:102B300000210220FFF729FF3DE0EE48844208D142
:102B400001211020FFF721FF00211020FFF71DFFBA
:102B500031E0E948844208D101218015FFF715FFD3
:102B60000021A015FFF711FF25E0E448844209D1B8
:102B700001210804FFF7FBFE002101200004FFF7FC
:102B8000F6FE18E0DE48844209D101214804FFF72F
:102B9000EEFE002101204004FFF7E9FE0BE0D948DA
:102BA000844208D101218804FFF7E1FE00210120C1
:102BB0008004FFF7DCFE10BD00220288CB4B984258
:102BC00006D001239B07984202D0C94B984203D1FB
:102BD000CD4B1A404B881A43C64B984203D0CB4B7F
:102BE0001A400B891A4302804B68C3620B88038525
:102BF000BE4B984208D0C14B984205D0C04B98427A
:102C000002D0C04B984201D18B7A03860123838284
:102C100070470021C943416000210180018141804A
:102C2000817270470185828270470A4600210188BF
:102C3000B54B19400B46134319460180704741625A
:102C40007047C16270470146486A70470146088D67
:102C50007047002904D0028802231A43028004E04E
:102C60000288A94B6E331A4002807047002904D0B5
:102C7000028804231A43028004E00288A24B6C33CA
:102C80001A4002807047002904D0028880231A432A
:102C9000028004E002889C4B103B1A40028070477F
:102CA0000288994B68331A40028002880A430280E6
:102CB00070470288954B1A40028002880A430280BE
:102CC0007047002904D0028801231A43028004E0DF
:102CD00002888D4B6F331A40028070470A884B88F8
:102CE0001A438B881A43CB881A430B891A434B89A2
:102CF0001A438B891A4344231A52704700210180DA
:102D000041808180C180018141818181704700299A
:102D100007D04422125A0123DB031A4344231A52D8
:102D200005E04422125A53045B0C442213527047AC
:102D300070B5002400220023058C734E6F36354099
:102D40000584028C8388048B6F4D2C40B51E2C406B
:102D50000D882C43751E2A408D892A434D882A43AD
:102D6000624DA84208D0654DA84205D0644DA842E6
:102D700002D0644DA84212D1634D68352A40CD89F6
:102D80002A43614D6C352A408D882A435E4D903D23
:102D90002B405F4D2B400D8A2B434D8A2B43838064
:102DA00004838D684563028470BD70B500240022E1
:102DB0000023058C544E603635400584028C838890
:102DC000048B544D2C40514D2C400D782D062D0C6C
:102DD0002C434D4D50352A408D892D052D0C2A430D
:102DE0004D882D052D0C2A43404DA84219D1464D42
:102DF000103D2A40CD892D052D0C2A43424D3035FA
:102E00002A408D882D052D0C2A43434D2B40434DE0
:102E10002B400D8AAD042D0C2B434D8AAD042D0C97
:102E20002B43838004838D688563028470BD70B5F5
:102E3000002400220023058C334E903E354005844B
:102E4000028C8388848B304D2C402F4D6D352C4067
:102E50000D882C432E4D2A400D7B2D062D0C2A4328
:102E60008D782D062D0C2A43204DA84217D12B4DCD
:102E70002A408D7B2D062D0C2A43274D2A400D79A3
:102E80002D062D0C2A43264D2B40264D2B400D8A16
:102E90002D052D0C2B434D8A2D052D0C2B438380A6
:102EA00084838D68C563028470BD70B500220023E1
:102EB0000024058C1A4E35400584038C8488828B4F
:102EC000144D2A40114D2A400D782D062D0C2A4311
:102ED000144D2B400D7B2D072D0C2B438D782D078A
:102EE0002D0C2B43014DA84224D11DE0002C0140A4
:102EF000000400400010004000200040004001405D
:102F000000440140004801408FFF0000FFFC00002A
:102F1000FFFD0000FF8F0000FFFB0000FFF7000037
:102F2000FFEF0000FFDF0000FC4D2C400D8AAD05D7
:102F30002D0C2C43848082838D680564038470BDCE
:102F4000002101804180818081608181C181018275
:102F50004182704770B5034600200024184618309F
:102F600001258D40ACB21D8CA5431D84002901D0E4
:102F7000082909D14D10281805687026B543056049
:102F80000568154305600DE00D1F2D046D0C281814
:102F9000056807263603B543056005681606360C36
:102FA0003543056070BD4163704781637047C163FD
:102FB0007047016470470A460021018BD84B1940C5
:102FC0000B4613431946018370470A460021018BC3
:102FD000D44B194013061B0C1943018370470A4652
:102FE0000021818BCE4B19400B4613431946818338
:102FF00070470A460021818BCA4B194013061B0CEF
:10300000194381837047002904D0828801231A4321
:10301000828004E08288C24B6F331A4082807047FE
:103020000A460021018BBE4B683319400B461343FF
:103030001946018370470A460021018BBA4B19409B
:1030400013061B0C1943018370470A460021818B2C
:10305000B34B683319400B461343194681837047BD
:103060000A460021818BB04B194013061B0C1943F3
:10307000818370470A460021018BA94B6C331940AC
:103080000B4613431946018370470A460021018B02
:10309000A64B194013061B0C1943018370470A46BF
:1030A0000021818B9E4B6C3319400B46134319460C
:1030B000818370470A460021818B9C4B194013067F
:1030C0001B0C1943818370470A460021018B944BE6
:1030D000103B19400B4613431946018370470A46BB
:1030E0000021018B4904490C13061B0C1943018371
:1030F00070470A460021818B894B103B19400B46D3
:1031000013431946818370470A460021818B490485
:10311000490C13061B0C1943818370470A46002192
:10312000018C7F4B6E3319400B46134319460184C3
:1031300070470A460021018C794B683319400B46D1
:1031400013431946018470470A460021018C744BD1
:103150005033194013051B0C1943018470470A466C
:103160000021018C6E4B103B194013051B0C1943B9
:10317000018470470A460021018C6D4B19401306EB
:103180001B0C1943018470470A460021018C664BD1
:10319000194013061B0C1943018470470A4600218D
:1031A000018C644B194013071B0C194301847047B1
:1031B00002895B4B68331A40028102890A4302810B
:1031C000704730B5002301248C40A3B2048C9C438B
:1031D0000484048C15468D40ADB22C43048430BD6C
:1031E00030B5002304248C40A3B2048C9C43048497
:1031F000048C15468D40ADB22C43048430BD0029AB
:1032000004D0828804231A43828004E08288444BDD
:103210006C331A4082807047828B474B1A408283FE
:10322000828B0B061B0C1A4382837047F8B50C4641
:103230000021002500260096068C404F3E40068463
:10324000818B058C2607360C00963D4E31401606C4
:10325000360C31431E07360C31433A4E35400127B8
:103260003F03009E3E43354381830584F8BD828B36
:103270002B4B64331A408283828B0A4382837047CC
:10328000F8B50C460021002500260096068C244F38
:10329000903F3E400684818B058C2606360C0096B6
:1032A0001F4E833E31401E05360C16433143264ED9
:1032B0003540FF270137009E3E4335438183058417
:1032C000F8BD028B1C4B1A400283028B0B061B0CB1
:1032D0001A4302837047F8B50C46002100250026EA
:1032E0000096068C0E4F60373E400684018B058C9D
:1032F0002605360C0096124E31401E07360C31431F
:103300001606360C3143064E303E35401027009EDF
:103310003E43354301830584F8BD0000FFBF000034
:103320008FFF0000FF8F0000FFF70000FFFB000091
:10333000FFFD0000FFDF0000FFF30000FFEF0000D3
:10334000FF0C0000FF5F0000FFF50000028BD84B70
:103350001A400283028B0A4302837047F0B50C4681
:1033600000210025068CD24F0B373E400684018B8E
:10337000058CCF4EE73E31401E05360C16433143D7
:10338000CB4EB61C354001262643354301830584C8
:10339000F0BD70B505460C46208800280AD1238967
:1033A000A28861882846FFF7D9FFE1882846FFF701
:1033B000CDFF25E0208804280AD12389A2886188CE
:1033C0002846FFF788FFE1882846FFF77AFF17E0D5
:1033D000208808280AD12389A28861882846FFF717
:1033E0004FFFE1882846FFF742FF09E02389A288C2
:1033F00061882846FFF71AFFE1882846FFF70CFF8F
:1034000070BD002101804180012181800021C180A7
:1034100001817047F8B505460C46002601276088F3
:10342000002801D1022600E00026A088012801D151
:10343000022700E001272088002814D12389A288D0
:1034400061882846FFF78AFFE1882846FFF77EFF5C
:1034500023893A4631462846FFF73DFFE188284652
:10346000FFF72FFF13E02389A28861882846FFF722
:1034700032FFE1882846FFF724FF23893A46314688
:103480002846FFF76BFFE1882846FFF75FFFF8BD8E
:103490000146486B70470146886B70470146C86B10
:1034A00070470146086C7047002A03D083890B439C
:1034B000838102E083898B438381704781827047D7
:1034C00002460020138A0B40002B01D0012000E0AF
:1034D00000207047CA430282704730B50246002080
:1034E00000230024158A0D402B4695890D402C465B
:1034F000002B03D0002C01D0012000E0002030BDC3
:10350000CA430282704710B50B4613434824235226
:1035100010BD002A03D083890B43838102E0838995
:103520008B4383817047002904D0828808231A4383
:10353000828004E082885E4B1B1D1A4082807047A7
:1035400001895B4A521D1140018170470A460021E2
:103550000189574B643B19400B46134319460181BF
:10356000704730B504460D4629462046FFF7EEFF6A
:10357000208907210843208130BDF8B504460D4657
:1035800016461F46602D06D13B4601223146204695
:10359000FFF7A1FE05E03B46012231462046FFF73A
:1035A000DDFE29462046FFF7D1FF20890721084389
:1035B0002081F8BD30B50C4600210189C9B21D0635
:1035C0002D0C154325432943018130BDFFB5054628
:1035D0000E46174600243A4631462846039BFFF71D
:1035E000E9FF2C893248401D04400720044330483D
:1035F00064380440702004432C81FFBDF0B50446BC
:103600000D4616461F463B46324629462046FFF7E2
:10361000D1FF20890121890308432081F0BD8288E0
:10362000234B643B1A40828082880A438280704721
:1036300002891F4B5B1D1A40028102890A430281E5
:10364000704702891A4B743B1A40028102890A436F
:1036500002817047F0B50C46002100250026018943
:10366000058B068C124F7F1D39400F462743394684
:10367000104F3D40FF2702373D430D4F9E3F3E40D8
:103680001F053F0C17433E43018105830684F0BDAF
:10369000002904D0828880231A43828004E0828833
:1036A000034B743B1A40828070475022115270477E
:1036B000F3FF0000FCFC000010B50446F74884420C
:1036C00009D101218803FFF752F90021012080036D
:1036D000FFF74DF90BE0F248844208D1012148047C
:1036E000FFF753F9002101204004FFF74EF910BD08
:1036F000F0B589B005460E4600240020089000BFB2
:1037000000BF28684008400028606C680321090356
:10371000204688430446B06804436C602C68E14846
:103720000440F168706808433169084304432C6021
:10373000AC680321090220468843044670690443AB
:10374000AC606846FEF7F9FFD448854202D106987E
:10375000089001E00298089028680121C9030840F8
:10376000002809D0326851001923089A5A4310469C
:1037700002F0EAFB074608E0326891001923089A34
:103780005A43104602F0E0FB07466421384602F037
:10379000DBFB0401200964214843381A079028689C
:1037A0000121C903084000280AD00799C90008462A
:1037B0003230642102F0C8FB4007400F044309E0A7
:1037C0000799090108463230642102F0BDFB000769
:1037D000000F0443AC8109B0F0BD4B21C901016069
:1037E000002141608160C1600C21016100214161C3
:1037F000704710B5002242680F2424021346A343E9
:103800001A464C680B6823438C682343CC682343D7
:103810001A43426010BD0021016041608160C160B7
:103820007047002904D0026801231A43026003E0B4
:1038300002685208520002607047002A03D00368F1
:103840000B43036002E003688B4303607047002969
:1038500005D002680123DB031A43026004E002681A
:103860000123DB039A4302607047002905D0826878
:103870000123DB021A43826004E082680123DB0239
:103880009A4382607047002905D042680123DB0417
:103890001A43426004E042680123DB049A43426019
:1038A0007047002905D0426801239B041A434260F7
:1038B00004E0426801239B049A4342607047002A57
:1038C00003D043680B43436002E043688B4343608B
:1038D0007047002905D042680123DB031A43426088
:1038E00004E042680123DB039A43426070470029E9
:1038F00005D042680123DB051A43426004E04268B8
:103900000123DB059A43426070474269120E12069A
:10391000426142690A4342617047028AFF231B02E7
:103920001A400282028A0A4302827047002904D0A8
:10393000026802231A43026003E0026802239A43EA
:1039400002607047826803231B059A438260826885
:103950000A4382607047002905D0426801231B0595
:103960001A43426004E0426801231B059A43426007
:103970007047426803235B059A43426042680A43EA
:1039800042607047C1690122D2039143C16170470F
:10399000CA05D20D028570470146888CC005C00D4E
:1039A000704742681202120A426042680B061A43CC
:1039B00042607047002905D0026801235B031A4367
:1039C000026004E0026801235B039A4302607047CF
:1039D00002680123DB029A43026002680A43026024
:1039E0007047426810239A43426042680A4342602B
:1039F0007047426820239A43426042680A4342600B
:103A00007047002905D0426801239B031A43426096
:103A100004E0426801239B039A43426070470029F7
:103A200004D0826808231A43826003E08268082376
:103A30009A4382607047028AD2B20282028A0B02E3
:103A40001A4302827047002904D0826820231A4357
:103A5000826003E0826820239A43826070470029D5
:103A600004D0826810231A43826003E08268102326
:103A70009A4382607047826807235B049A4382609E
:103A800082684B041A438260704742691202120A2C
:103A9000426142690B061A43426170470038014097
:103AA00000440040F3E9FFFF826804239A438260E8
:103AB00082680A4382607047002904D0826802232A
:103AC0001A43826003E0826802239A43826070474F
:103AD000002905D0826801239B031A43826004E019
:103AE000826801239B039A438260704782680123A6
:103AF000DB039A43826082680A43826070470268EF
:103B00001F235B059A43026002684B051A4302605B
:103B1000704702681F231B049A43026002680B046B
:103B20001A4302607047002A03D083680B43836006
:103B300002E083688B4383607047826801235B03E4
:103B40009A43826082680A4382607047F8B50346F0
:103B50000024002600960025002018460E04340E8E
:103B6000CEB200960127009EB7403D46022C01D1FF
:103B7000001D02E0032C00D10830002A03D00668A3
:103B80002E43066002E00668AE430660F8BD002AD8
:103B900003D0038B0B43038302E0038B8B4303832C
:103BA0007047826801231B039A43826082680A433C
:103BB0008260704702460020D3690B40002B01D081
:103BC000012000E0002070470162704770B5024696
:103BD0000B4600240021002500201E04350ED9B21A
:103BE00001268E403146012D02D11668314006E093
:103BF000022D02D15668314001E0966831401C0C1C
:103C00000126A6403446D6693440002903D0002C52
:103C100001D0012000E0002070BD10B5002300227B
:103C20000B0C01249C402246026210BD002106E0DC
:103C30000A2100BF0A464B1E99B2002AFAD1024659
:103C4000431E98B2002AF3D17047002106E00649CE
:103C500000BF0A464B1E99B2002AFAD10246431E03
:103C600098B2002AF3D17047E02E0000002101E055
:103C70004A1CD1B28142FBDB704730B500250023DE
:103C80000024F9480078002838D10220F64908704D
:103C900000BF31E00920C006808AF449084004468C
:103CA000F348C05C20430921C90688823C20FFF705
:103CB000DDFFF048008A8407A40F5800EE49085A37
:103CC000A04211D1ED48C05C0F2804DAEB48C05C7B
:103CD000401CEA49C854E948C05C05280AD10125BE
:103CE000E043E749C85405E00020E449C8545800BF
:103CF000E1490C52581CC3B2032BCBDB284630BD24
:103D000010B504462046E10F091849104900611A10
:103D10000AD1FF2101310920C006FEF7BCFA30208C
:103D2000D8498870C8700AE0FF2101310920C00617
:103D3000FEF7AFFA3020D34988703120C87010BD2B
:103D400010B50446002C45D10021CF48FDF75CFF9B
:103D5000002101204002FEF7E0FDCB48FDF72AFFDD
:103D60000021CA48FEF710F900210120FEF7C7FD27
:103D7000C648FEF793F8C648FFF79EFC0021C448EA
:103D8000FFF74FFD002101208003FEF7C6FD002153
:103D9000C048FEF796FF002101208007FEF791FF43
:103DA000BC48FEF7A3FE0021BA48FEF7B0FF092089
:103DB000C006808AB022104301460920C006FEF7E3
:103DC00072FA01F0EDFA0020FFF79AFF0120B249E4
:103DD000087015E0002101200007FEF7ACFDFCF79C
:103DE00021FBFCF7E6FBFCF702FC01F0B3FEFCF75D
:103DF0008AFC01F0C7FA0020A7490870A74948705B
:103E000010BD10B5A5484078012808D10020A4496C
:103E10000870A24948704D209A4948713CE0A0487A
:103E20000078002826D09E480078052804D1FDF7A8
:103E30007FFDFCF76AFB06E099480078062802D16E
:103E40000120FFF77DFF01F0DAFA002094490870A5
:103E500020209449087048708870C87008734873AF
:103E60008873C87390490870487088704873887365
:103E7000C87311E088490878C10F09184910490032
:103E8000411A02D101F08CFA01E001F07BFA82487C
:103E90000078401C8049087010BD10B57F484078FC
:103EA00001287CD17D480078401E7C490870084676
:103EB0000078012801DA0A200870784800780300A9
:103EC00002F066FC0B6C07111B252F39434D57621E
:103ED0006C0047206B49C871452008724E2048721B
:103EE000202088725AE053206649C8714520087224
:103EF000542048722020887250E041206149C871E6
:103F00004C2008724D2048722020887246E04320E1
:103F10005C49C87150200872552048722020887270
:103F20003CE054205749C871452008724D20487222
:103F30005020887232E047205249C87141200872EF
:103F40004D2048724520887228E04C204D49C871A8
:103F50004F20087257204872502088721EE042207D
:103F60004849C87154200872522048725320887200
:103F700014E042204349C871542008725620487208
:103F8000452088720AE00AE042203E49C871542068
:103F90000872412048724420887200BFEBE040481C
:103FA0000078012858D130480079030002F0F0FB76
:103FB000075305111D29374353003C488078401CA6
:103FC0003A49887008468078172801DD00208870FB
:103FD00041E036484078401C3449487008464078F3
:103FE0003B2801DD0020487035E030480078401C57
:103FF0002E490870084600783B2801DD0020087033
:1040000029E02A488079401C28498871084680792F
:104010002749884202DD3320244988711BE0234868
:104020000079401C21490871084600790C2801DDFF
:10403000012008710FE01D48C078401C1B49C87062
:104040000846C07809791B4A515C884202DD01208C
:104050001649C87000BF8EE011480078022871D15F
:104060000148007928E0000000000020F0FF000077
:10407000C701002000040048E0010020DD0100200D
:10408000BE01002079010020002401400800024008
:104090000038014000040040DA010020DB0100206C
:1040A000940500205701002024010020CA010020AF
:1040B000330800008C680008030002F069FB075415
:1040C00005111D2937445400F6488078401CF549F5
:1040D000887008468078172801DD0020887042E04B
:1040E000F0484078401CEF494870084640783B282B
:1040F00001DD0020487036E0EA480078401CE949BC
:104100000870084600783B2801DD002008702AE08E
:10411000E4488079401CE349887108468079E24987
:10412000884202DD3320DF4988711CE0DD480079D8
:10413000401CDC490871084600790C2801DD01208B
:10414000087110E010E0D748C078401CD549C8700D
:104150000846C0780979D54A515C884202DD0120C1
:10416000D049C87000BF06E0D1480078052802D1C8
:104170000220FDF71AFA10BD70B50024C51800BF63
:1041800005E02E780E706D1C491C661CF4B294423A
:10419000F7DB70BD10B5C7484078012873D1C5481A
:1041A0000078401EC24908700020C24948700120B2
:1041B000C1490871BE480078012809D100230822AE
:1041C000BE49BF48FFF7D8FF4D20BE49487175E092
:1041D000B7480078022809D100230822B149B8481D
:1041E000FFF7CAFF4D20B749487167E0B048007833
:1041F000002803D14D20B34948715FE0AC480078F6
:10420000032803D14D20AF49487157E0A8480078F2
:10421000042803D14D20AB4948714FE0A4480078F1
:10422000052807D1FCF78FF94D20A6494871FDF705
:104230008DF943E09E480078062806D14D20A1491B
:1042400048710020FFF77CFD38E099480078072886
:1042500002D100F0B2FC31E095480078082806D180
:104260004D2098494871012000F0AEFC26E09048AE
:104270000078092822D14D2092494871022000F08F
:10428000A3FC1BE0FFE78A480078012803D0884898
:10429000007802280BD188480079401C86490871B3
:1042A00008460079042809DD0120087106E08048ED
:1042B0000078052802D10420FDF777F910BD10B56C
:1042C00008227849002000F016FE10BDF0B587B036
:1042D000002006907748407801287ED07448007806
:1042E000002803D07248007803280AD101207149C0
:1042F000487008705320734948710A206C4908704F
:104300006BE06B480078012854D16C4880790690A6
:104310006A4948780A2101F02DFE0701674948786B
:104320000A2101F027FE0F43FCB2644988780A2174
:1043300001F020FE0701614988780A2101F01AFE88
:104340000F43FDB25D49C8780A2101F013FE070151
:104350005A49C8780A2101F00DFE0F43FEB25749B1
:1043600008790A2101F006FE0701544908790A215B
:1043700001F000FE0F43F8B20A210590069801F003
:10438000F9FD07010A21069801F0F4FD0F43F8B288
:104390000490002001902B4632460094029005992B
:1043A000049801F00FFBC8204349487000204049A1
:1043B000087012E03E480078022808D1FFF77FFF1E
:1043C000C8203D49487000203949087005E0384848
:1043D0000078052801D1FDF7D6FA07B0F0BD10B579
:1043E0003448407801285CD132480078401C31497B
:1043F0000870084600780A2801DD012008702D4861
:104400000078030002F0C4F90B7E07111B252F3939
:1044100043606A747E0047202A49C87145200872AB
:104420004E204872202088726CE053202549C871C4
:1044300045200872542048722020887262E0412092
:104440002049C8714C2008724D2048722020887283
:1044500058E043201B49C87150200872552048720B
:10446000202088724EE054201649C87145200872F9
:104470004D2048725020887244E047201149C8718D
:10448000412008724D204872452088723AE04C2045
:104490000C49C8714F20087257204872502088720A
:1044A00030E030E0D2010020330800008C680008C2
:1044B00094050020DB01002000000020CA0100203C
:1044C00071050020790100204220DB49C871542089
:1044D0000872522048725320887213E04220D64955
:1044E000C87154200872562048724520887209E02D
:1044F0004220D149C871542008724120487244209A
:10450000887200BFC4E0CD48007801285AD1CC4859
:104510000079030002F03CF9075505111D293844C4
:104520005500C8488078401EC64988700846807883
:10453000FF2801D11720887043E0C2484078401E10
:10454000C049487008464078FF2801D13B20487098
:1045500037E0BC480078401EBA4908700846007829
:10456000FF2801D13B2008702BE0B6488079401E1F
:10457000B4498871084680797D210901884202DAB0
:10458000D020B04988711CE0AE480079401EAD498A
:10459000087108460079012801DA0C20087110E042
:1045A000A848C078401EA749C8700846C0780128AE
:1045B00006DA08460079401EA349085CA149C87084
:1045C00000BF65E09D48007802285AD19C480079D8
:1045D000030002F0DDF8075505111D293844550088
:1045E0009A484078401E9949487008464078FF280C
:1045F00001D11720487043E094484078401E934909
:10460000487008464078FF2801D13B20487037E0C9
:104610008E480078401E8D49087008460078FF28B3
:1046200001D13B2008702BE088488079401E8749E3
:104630008871084680797D210901884202DAD020FC
:10464000824988711CE081480079401E7F490871C9
:1046500008460079012801DA0C20087110E07B4837
:10466000C078401E7949C8700846C078012806DA2B
:1046700008460079401E7449085C7449C87000BF40
:1046800006E06E480078052802D10120FCF78DFF76
:1046900010BD10B56E48407801280AD068480079EE
:1046A000401E6749087108460079012801DA062092
:1046B000087162480078002803D060480078032819
:1046C00017D15F484079401C5D4948714879FFF730
:1046D00017FB5B484479E00F001940104000201A96
:1046E00001D0012000E000200146082000F08DFBF1
:1046F00006E052480078052802D10320FCF755FF58
:1047000010BD10B504465348005D00281DD064203C
:104710004B494870230002F03BF80604070A0D10CD
:104720001316FFF7B6FF0FE0FFF759FE0CE0FFF797
:10473000CDFD09E0FFF72EFD06E0FFF7AEFB03E03D
:10474000FFF75FFB00E000BF00BF10BDFEB50646EF
:104750000296029EF007C00F002829D0002425E011
:104760003D48005D3D49095D4840019001980028A1
:104770001AD0002516E00120A840C7B260004019F9
:10478000C0B200903548015D3940324A009811545A
:104790003148005D7840304908550098FFF7B1FF77
:1047A000681CC5B2022DE6DB601CC4B2032CD7DB4B
:1047B000FEBD10B521480078002830D12848807807
:1047C0002249897888422AD1254840781F4949786A
:1047D000884224D122480078142820DCFF20184980
:1047E0004870012048714879FFF78AFA14484079E7
:1047F0001C490978884212D011484479E00F001909
:1048000040104000201A01D0012000E000200146A5
:10481000082000F0FAFA0A4840791249087010BDE1
:1048200010B501211048FEF758FE002803D00121E1
:104830000D48FEF765FE10BD7901002094050020AB
:1048400000000020CA0100208C680008D20100206E
:10485000DB010020C1010020E6010020BE01002094
:1048600071050020E90100200004004010B500247B
:10487000FD49FE48FFF7AAF900284AD02021FB484D
:10488000FFF7A2F9F849F948FFF7C7F9F7482030D0
:104890008088C4B2F02C01D04F2C02D10020F44902
:1048A0000870F448F24909784454F1480078401CF3
:1048B000EF490870F72C01D04B2C06D1EC4800785A
:1048C000ED4908700020EA490870EC480078082893
:1048D0000BD1E7480078152807DBE5480078E64962
:1048E00008700020E24908700EE0E44800780928CA
:1048F0000AD1DF480078132806DBDD480078DE495E
:1049000008700020DA490870DD480078401CDC4956
:10491000087010BD30B5002100200023D94AD64CC4
:104920002478002C12D0D44C23780024D24D2C7043
:1049300000BF08E0CF4C645C1470521C0024CD4DC5
:104940006C544C1CE1B29942F4DB012030BD70B5CF
:1049500005460E4600240CE0295DC448FFF718F810
:1049600000BF4021C148FFF725F90028F9D0601C9D
:10497000C4B2B442F0DBC4480078401CC24908709D
:1049800070BDF0B589B00446C0A103C90891079075
:1049900060790002A17940187D210901401A80B296
:1049A0000690A07A0A2101F0E5FA0701A07A0A210F
:1049B00001F0E0FA0F43FDB2607A0A2101F0DAFA61
:1049C0000701607A0A2101F0D5FA0F43FEB2207A7E
:1049D0000A2101F0CFFA0701207A0A2101F0CAFA70
:1049E0000F43F8B20590E0790A2101F0C3FA0701FC
:1049F000E0790A2101F0BEFA0F43F8B20A210490CF
:104A0000069801F0B7FA07010A21069801F0B2FAF8
:104A10000F43F8B2039000200190334600950290B6
:104A200003A807C800F0CEFF072107A8FFF78FFFF4
:104A300009B0F0BD1CB597A103C9019100900721F1
:104A40006846FFF784FF00BFBFF34F8F9348944938
:104A5000C860BFF34F8F00BF00BFFEE770B50546CB
:104A6000002D72D087480078F0286FD185484078B3
:104A70005A28FAD183488078A528F6D18148407910
:104A8000F7286CD17F48C078030001F081FE0966E9
:104A9000061626366666664666007A48007901285C
:104AA00005D110210920C006FDF7F5FB04E0102117
:104AB0000920C006FDF7EDFB50E07248007901289F
:104AC00005D120210920C006FDF7E5FB04E02021E7
:104AD0000920C006FDF7DDFB40E06A4800790128A7
:104AE00005D180210920C006FDF7D5FB04E0802117
:104AF0000920C006FDF7CDFB30E0624800790128AF
:104B000005D140210920C006FDF7C3FB04E0402188
:104B10000920C006FDF7BFFB20E05A4800790028B5
:104B200002D16049487102E001205E4948715D4947
:104B30004879FFF7E5F85B484479E00F0019401029
:104B40004000201A03D0012002E021E031E00020E3
:104B50000146082000F059F900E000BF2CE0494868
:104B60008079F72815D14748C078062801D1FFF78A
:104B700061FF4448C07807281ED1424800797F2849
:104B80001AD140484079012816D1002046490870C2
:104B900012E03C48007BF7280ED13A48C07809283B
:104BA0000AD138480079402806D13648FFF7E9FE97
:104BB00002E03448FCF73BFF70BD10B508213BA074
:104BC000FFF7C5FE012010BD10B50446002C04D02F
:104BD000012C07D0022C0FD109E0022136A0FFF7EB
:104BE000B6FE09E00A2135A0FFF7B1FE04E0092175
:104BF00035A0FFF7ACFE00BF00BF10BD7FB56C460F
:104C00003448007834490978884267D031480078C0
:104C100031490870F0202070641C5A202070641CF8
:104C2000A5202070641C05202070641C402020708A
:104C3000641C284989797D2212018818C117090E40
:104C4000091809122170641C224989798818C11732
:104C5000090E091809120902411A2170641C1D4825
:104C600000792070641C3AE005010500003801401D
:104C7000EE0100201D080020EA010020940500201C
:104C8000ED0100204F080020EC010020F05AA5099A
:104C90000001F700F05AA5060001F7000400FA052C
:104CA00000ED00E000000020EB01002041542B52F9
:104CB00045534554000000004154000041542B5618
:104CC000455253494F4E000041542B414444523DFC
:104CD0003F00000071050020EF01002035E02F4863
:104CE000C0782070641C2D4880782070641C2B488C
:104CF00040782070641C294800782070641C64216E
:104D0000274A0020105E01F01FF905460A2101F034
:104D10001BF92170641C0A21214A0020105E01F059
:104D200013F905460A2101F00FF92170641C0A21CC
:104D30001B4A0020105E01F007F92170641CF72067
:104D4000207010216846FFF702FE7FBD1CB515A13B
:104D500003C90191009001218807FEF7BEFB0028DE
:104D60001AD001218807FEF7CBFB0A210F480078F3
:104D700001F000F9002908D107216846FFF7E7FD97
:104D80000B480078401C0A49087008480078401C0D
:104D900006490870FCF760FD1CBD0000710500208D
:104DA0008A010020F05AA507017FF700F0010020DA
:104DB000EB01002070B50446002600F0E5F825461A
:104DC000E117090E491909124900A031C8B200F0D3
:104DD00095F900F020F9E117090E491909120902A5
:104DE000611AC8B200F08AF900F015F900F0CCF8A9
:104DF000A12000F083F900F00EF9002000F0B7F9CF
:104E0000064600F0E3F8304670BD70B504460E4625
:104E100000F0BAF82546E117090E491909124900B0
:104E2000A031C8B200F06AF900F0F5F8E117090EF8
:104E3000491909120902611AC8B200F05FF900F0BD
:104E4000EAF8304600F05AF900F0E5F800F0BEF854
:104E50000A20FEF7FAFE70BDF8B505460E46174665
:104E6000002409E0E2003346D340D9B22A1990B2B7
:104E7000FFF7CBFF601CC4B2BC42F3DBF8BDF8B552
:104E800007460C460026002509E036023919491B61
:104E9000491E88B2FFF78EFF8619681CC5B2A5426D
:104EA000F3DB3046F8BD10B5FF20FFF783FF044663
:104EB000552C01D1002010BD5521FF20FFF7A5FF83
:104EC000FF20FFF777FF0446552C01D10020F2E7C1
:104ED0000120F0E770B506460C46154608E030465E
:104EE000721C96B2FFF766FF2070641C681E85B2C4
:104EF000002DF4D170BD70B505460C46164606E08F
:104F000021782846FFF781FF681C85B2641C304673
:104F1000711E8EB20028F3D170BD1CB50320C002F3
:104F200000900121684601710021817103214171C6
:104F300069460920C006FDF72FF90321C90209209F
:104F4000C006FDF7A6F91CBD1CB5012000030090AA
:104F50000021684601710121C17169460920C0061E
:104F6000FDF71AF91CBD1CB50120000300900121BA
:104F70006846017100218171032141716946092050
:104F8000C006FDF709F91CBD10B5FFF7ECFF0121C4
:104F900009030920C006FDF77CF90121C902092097
:104FA000C006FDF776F90420FEF740FE0121090353
:104FB0000920C006FDF76FF90420FEF737FE012136
:104FC000C9020920C006FDF766F910BD10B5FFF74C
:104FD000CAFF0121C9020920C006FDF75CF90121C1
:104FE00009030920C006FDF756F90420FEF71EFE4E
:104FF0000121C9020920C006FDF74BF90420FEF784
:1050000015FE012109030920C006FDF742F904201D
:10501000FEF70CFE10BD10B50024FFF795FF01212F
:1050200009030920C006FDF734F90120FEF7FEFD53
:105030000121C9020920C006FDF72BF90120FEF766
:10504000F5FD07E0601CC4B2FA2C03DDFFF7BEFFDC
:10505000012010BD012109030920C006FDF7FFF85A
:105060000028EFD10121C9020920C006FDF713F97C
:105070000020EEE710B50121C9020920C006FDF7A6
:105080000AF9FFF770FF012109030920C006FDF7A7
:1050900002F90220FEF7CAFD0121C9020920C0065B
:1050A000FDF7F7F80220FEF7C1FD0121C902092032
:1050B000C006FDF7F0F810BD10B50121C9020920A6
:1050C000C006FDF7E8F8FFF74EFF012109030920AC
:1050D000C006FDF7DEF80220FEF7A8FD0121C90297
:1050E0000920C006FDF7D5F80220FEF79FFD01213B
:1050F000C9020920C006FDF7CEF810BD70B5044600
:10510000FFF731FF0121C9020920C006FDF7C3F8EE
:10511000002529E080202040002806D00121090335
:105120000920C006FDF7B5F805E0012109030920B3
:10513000C006FDF7B0F86006040E0220FEF776FD0B
:105140000121C9020920C006FDF7A3F80220FEF7DD
:105150006DFD0121C9020920C006FDF79CF802205F
:10516000FEF764FD681CC5B2082DD3DB70BD70B5B9
:1051700005460024FFF7E8FE00261FE00121C902D2
:105180000920C006FDF787F80220FEF74FFD012138
:10519000C9020920C006FDF77CF86006040E012153
:1051A00009030920C006FDF75AF8002801D0601C49
:1051B000C4B20120FEF73AFD701CC6B2082EDDDB3A
:1051C000002D02D1FFF778FF01E0FFF753FF2046E3
:1051D00070BD000010B54021F848FDF75AF8802155
:1051E000F648FDF756F88021F448FDF754F84021C1
:1051F000F248FDF750F810BD10B54021EF48FDF71B
:1052000048F88021ED48FDF746F88021EB48FDF78E
:1052100040F810BD10B54021E848FDF73AF84021AC
:10522000E648FDF738F810BDF8B505462C46402194
:10523000E248FDF730F8002619E0274680200740B5
:10524000802F04D18021DD48FDF723F803E0802181
:10525000DA48FDF720F86006040E4021D748FDF734
:1052600018F84021D548FDF716F8701CC6B2082E74
:10527000E3DBF8BD10B50446FFF7ACFF7820FFF77D
:10528000D3FFFFF7C7FF0020FFF7CEFFFFF7C2FFF6
:105290002046FFF7C9FFFFF7BDFFFFF7ADFF10BDC9
:1052A00010B50446FFF796FF7820FFF7BDFFFFF724
:1052B000B1FF4020FFF7B8FFFFF7ACFF2046FFF734
:1052C000B3FFFFF7A7FFFFF797FF10BD70B50446C8
:1052D0000D46002D03D0E0B2FFF7E2FF02E0E0B29E
:1052E000FFF7C8FF70BD70B50646002418E02046E1
:1052F000B0300021FFF7EAFF00210220FFF7E6FFB0
:1053000000211020FFF7E2FF002505E001213046D3
:10531000FFF7DCFF681CC5B2802DF7DB601CC4B250
:10532000082CE4DB70BD05E0A54900E0491E00291A
:10533000FCD1401E0028F7D17047014605E000204F
:1053400001E0421CD0B27B28FBDB0A46491E002A42
:10535000F5D1704770B504460D462846B03000219F
:10536000FFF7B4FFA11CF0221140091108461030CC
:105370000021FFF7ABFFA11C0807000F0021FFF77A
:10538000A5FF70BD10B500218D20FFF79FFF002104
:105390001420FFF79BFF0021AF20FFF797FF10BD00
:1053A00010B500218D20FFF791FF00211020FFF79D
:1053B0008DFF0021AE20FFF789FF10BDF8B505462F
:1053C0000E462C4618E02046B0300021FFF77EFF45
:1053D00000210220FFF77AFF00211020FFF776FF5F
:1053E000002705E001210020FFF770FF781CC7B2FD
:1053F000802FF7DB601CC4B2B442E4DBF8BD70B5AB
:10540000002418E02046B0300021FFF75FFF0021A4
:105410000220FFF75BFF00211020FFF757FF002558
:1054200005E001210020FFF751FF681CC5B2802D67
:10543000F7DB601CC4B2082CE4DB70BD70B500243F
:1054400018E02046B0300021FFF740FF0021022085
:10545000FFF73CFF00211020FFF738FF002505E093
:1054600001210846FFF732FF681CC5B2802DF7DB2B
:10547000601CC4B2082CE4DB70BDFFB581B00746E8
:105480000D460026002403982038C6B27F2F02DD87
:105490000027A81CC5B20498102824D129463846F4
:1054A000FFF758FF002408E031010919454A505C14
:1054B0000121FFF70BFF601CC4B2082CF4DB681C51
:1054C000C1B23846FFF746FF002409E0310109194F
:1054D00008313C4A505C0121FFF7F8FE601CC4B261
:1054E000082CF3DB11E029463846FFF733FF002490
:1054F00009E006217143344A8918085D0121FFF74C
:10550000E5FE601CC4B2062CF3DB05B0F0BD10B59F
:105510000246012002E00346534318460B464C1E48
:10552000E1B2002BF7D110BDFFB583B01E460C9C35
:105530000020029000253CE0701B401EC1B20A20F2
:10554000FFF7E5FF01460090059800F0FDFC0A21F9
:10555000019000F0F9FC0F460298002815D1701E4A
:10556000A84212DD002F0ED1E00F00194010684351
:10557000019403994018C0B2234620220090049958
:10558000FFF77BFF13E001200290E00F00194010AD
:105590006843019403994018C0B2009038463030F7
:1055A000C2B2234604990098FFF767FF00BF681C4A
:1055B000C5B2B542C0DB07B0F0BD00000004004832
:1055C00065180000C06A000898680008FFB581B03F
:1055D00004460F46154600260FE0AA5D39462046D0
:1055E000049BFFF74AFF20460830C4B2782C02DD46
:1055F0000024B81CC7B2701CC6B2A85D0028ECD14C
:1056000005B0F0BDF7B50E461546002731460098A7
:10561000FFF7A0FE00240AE0A901704A8918085D7E
:105620000121FFF753FE781CC7B2601CC4B2102CD6
:10563000F2DB701CC1B20098FFF78CFE00240CE076
:105640006900491C4901654A8918085D0121FFF775
:105650003DFE781CC7B2601CC4B2102CF0DBFEBD4E
:10566000FFB583B006460F461C4600200290204638
:10567000E117490F0918C910C900611A05D1E117CE
:10568000490F091849050D0E06E02046E117490F9C
:105690000918C910491CCDB23D4617E029463046CD
:1056A000FFF758FE01960BE002994A1C02920C9AF1
:1056B000505C0121FFF70AFE0198401CC0B2019026
:1056C000059901988842EFDB681CC5B2A542E5DB6D
:1056D00007B0F0BD1CB5C0200090012168460171E3
:1056E000002181710321417169463D48FCF754FD59
:1056F000C0213B48FCF7CDFD19204001FEF7A5FA7B
:105700000021AE20FFF7E2FD00210220FFF7DEFDC1
:1057100000211020FFF7DAFD00214020FFF7D6FD21
:105720000021B020FFF7D2FD00218120FFF7CEFD40
:105730000021FF20FFF7CAFD0021A120FFF7C6FDD1
:105740000021A620FFF7C2FD0021A820FFF7BEFD23
:1057500000213F20FFF7BAFD0021C820FFF7B6FD6A
:105760000021D320FFF7B2FD00210846FFF7AEFD70
:105770000021D520FFF7AAFD00218020FFF7A6FD1C
:105780000021D820FFF7A2FD00210520FFF79EFD94
:105790000021D920FFF79AFD0021F120FFF796FDA7
:1057A0000021DA20FFF792FD00211220FFF78EFD85
:1057B0000021DB20FFF78AFD00213020FFF786FD66
:1057C00000218D20FFF782FD00211420FFF77EFDD0
:1057D0000021AF20FFF77AFD1CBD0000F101002081
:1057E000000400481CB5102000900121684601719A
:1057F000002181710321417169469548FCF7CCFC79
:105800001CBD70B504460025FFF7ECFF0120FEF734
:105810000DFA00BF27E08E48808A082188438C4912
:105820008882E007C00F002807D00846808A102130
:10583000884310308649888205E08548808A102197
:105840008843834988820120FEF7F0F98048808AE6
:105850000821884308307E4988820120FEF7E6F956
:105860006410681CC5B2082DD5DB70BD70B5054647
:105870000C467748808A20218843754988820846EB
:10588000808A08218843724988820846808A2021BC
:10589000884320306E4988822846FFF7B2FF2046B1
:1058A000FFF7AFFF6A48808A0821884308306849BB
:1058B00088820846808A202188436549888270BD95
:1058C0001CB52820009001216846017100218171DA
:1058D0000321417169465E48FCF75EFC5C48808AA2
:1058E000082188435A49888200218020FFF7BEFFA3
:1058F000A8219020FFF7BAFF80218E20FFF7B6FF86
:105900001CBD1CB510200090002168460171C171BA
:1059100069464F48FCF740FC1CBD70B50024FFF7FA
:10592000F0FF0120FEF782F900251DE064104848D1
:10593000808A082188430830454988820120FEF783
:1059400075F94348808A08218843414988820120AB
:10595000FEF76CF910213E48FCF781FC012801D1CB
:1059600080200443681CC5B2082DDFDB204670BDD3
:1059700070B504463648808A20218843344988829D
:105980000846808A08218843314988820846808AEF
:105990002021884320302E4988822046FFF731FF9E
:1059A000FFF7BBFF05462A48808A08218843083054
:1059B000274988820846808A202188432449888292
:1059C000284670BDF8B504460F4615461E46002110
:1059D0008E20FFF74BFF80200799FFF747FF8220BB
:1059E0000699FFF743FF31468420FFF73FFF294622
:1059F0008620FFF73BFF39468820FFF737FF8A20D4
:105A00000899FFF733FF21468C20FFF72FFF8021F5
:105A10008E20FFF72BFFF8BD10B5002414E06100C5
:105A20008131C8B2FFF7A4FF0A4908550846005D56
:105A300000110A2148430749095D0907090F401869
:105A400004490855601CC4B2072CE8DB10BD0000F7
:105A5000000400487105002000B58BB09348FCF7A6
:105A60001DFA934800909348019000200290022074
:105A70000390002004908020059040000690800054
:105A80000790202008900002099000200A906946A3
:105A90008648FCF74FFA01218448FCF775FA012289
:105AA00002218248FCF782FA022181484038FCF743
:105AB000AFF901217E484038FCF79EF97C48403818
:105AC000FCF791F90BB000BD00B587B00121480289
:105AD000FCF723FF01210846FCF711FF744840380A
