:020000040800F2
:10000000D00E0020B51C00080502000807020008F9
:1000100000000000000000000000000000000000E0
:100020000000000000000000000000000B020008BB
:1000300000000000000000000D0200080F02000890
:10004000C71C0008C71C0008C71C0008C71C000804
:10005000C71C0008C71C0008C71C0008C71C0008F4
:10006000C71C0008C71C000837020008C71C00088E
:10007000C71C0008C71C0008C71C00081F02000896
:1000800027020008C71C000800000000C71C000869
:10009000C71C00082F020008C71C0008C71C000866
:1000A000C71C0008C71C0008C71C0008170200086E
:1000B000C71C000800000000C71C0008000000006A
:1000C0000448854606F0DCFB00480047E5010008CF
:1000D000C046C046D00E002048480078002804D012
:1000E00046480078401E4549087044480089002869
:1000F00004D042480089401E404908813F4840786A
:10010000002804D03D484078401E3C4948703B4898
:100110008078002804D039488078401E374988709C
:1001200036484089002804D034484089401E33496D
:10013000488132488089002804D030488089401E98
:100140002E4988812D48C078002804D02B48C078DB
:10015000401E2A49C8702948C088401C2749C880C9
:10016000704710B500F06EF900F07CF900F032FA3B
:1001700000F084FA05F0BAFD00F053FA00F026FB17
:1001800004F097FF05F068FC05F070FB00F008FA3A
:1001900000F04AFB10BD1CB505F0FDF908226946C8
:1001A000002004F063FF002308221549684604F08C
:1001B00076F8082004F0CAFE10494871487903F027
:1001C0002DFE092004F0C2FE044601F08CFC05F06F
:1001D000D7FE05F0EDFC00F09CFB05F0DCF900F02B
:1001E00095F91CBDFFF7BDFFFFF7D5FF05E002F055
:1001F00020F900F029FB00F0E1FBF8E70000002007
:10020000AD050020704700BFFEE77047704710B58E
:10021000FFF762FF10BD10B504F0C3FB10BD10B5B1
:1002200004F034FE10BD10B504F08DFB10BD10B508
:1002300004F05CFE10BD10B5202001F05FFF002827
:1002400002D0202001F066FF10BD00000CB5002098
:100250000190009073480068012109040843714926
:10026000086000BF6F480068012149040840009001
:100270000198401C01900098002804D10521090232
:1002800001988842EED1674800680121490408407E
:10029000002802D00120009001E00020009000988A
:1002A000012839D11120604908605E4840685D49E5
:1002B0004860084640684860084640683F21090495
:1002C000884358494860084640681121090408439A
:1002D000544948600846006801210906084351490D
:1002E000086000BF4F480068012149060840002807
:1002F000F8D04C484068800880004A494860084669
:100300004068022108434749486000BF45484068AB
:100310000C2108400828F9D10CBD10B541480068EF
:10032000012108433F490860084640683F490840AA
:100330003C494860084600683D4908403949086022
:100340000846006801218904884336490860084648
:1003500040683F2109048843324948600846C06A22
:1003600000090001C8620846006BFF215431884330
:100370002C4908630846406B400840004863002051
:100380008860FFF763FF10BDF8B500250024002644
:100390000027244840680C2108400546002D04D061
:1003A000042D06D0082D2AD107E0224822490860F2
:1003B00029E020482049086025E01A4840680F21BC
:1003C0008904084004461748406801210904084090
:1003D0000646A00C841C002E04D118486043164920
:1003E00008600BE00F48C06A0007000F471C394641
:1003F000104805F075FE60430F49086003E00D48A2
:100400000D49086000BF00BF06484068F021084061
:1004100000090B490D5C08480068E840064908607F
:10042000F8BD000000100240002002400CB8FFF8A8
:10043000FFFFF6FE00127A001000002000093D00C8
:100440001400002010B501210320400402F0E5FA59
:1004500001210920800302F0EEFA0121032002F0BD
:10046000F8FA10BD1CB5FF20F1300090012168465C
:100470000171002181710321417169460920C00683
:1004800001F018FF0720009001216846017100214A
:1004900081710321417169460920C00601F00AFFFC
:1004A000032000900021684601710121C171694655
:1004B000FE4801F0FFFE012207210920C00601F0DD
:1004C00082FF032040020090022168460171002152
:1004D00081710321417169460920C00601F0EAFEDD
:1004E00001220921C80601F06EFF01220A2109201C
:1004F000C00601F068FF0920C006808AB0221043C0
:1005000001460920C00601F05CFF1CBD1CB580201F
:10051000009002216846017100218171032141711F
:1005200069460920C00601F0C5FE1CBD1CB530207F
:100530000090012168460171002181710321417100
:1005400069460920C00601F0B5FE80200090022116
:1005500068460171002181710321417169460920BA
:10056000C00601F0A7FE1CBD1CB530200090002184
:100570006846017181710321417169460920C006F5
:1005800001F098FE80200090002168460171817181
:100590000321417169460920C00601F08BFE1CBD94
:1005A00010B5C349C348006805F09AFD0446601EB3
:1005B000C149884200D90CE0601EC049486103214E
:1005C000081F00F086FF0020BC49886107200861F1
:1005D00000BF10BD00B587B0B94803F0FBF8E120BB
:1005E00040020190002002900390049006900C209D
:1005F000059001A9B24803F009F90122B149B048B8
:1006000003F032FB4021AE4803F06CFB0122802155
:10061000AB4803F016FB0121A94803F090F907B09D
:1006200000BD00B58BB00121084602F0F6F910209C
:10063000039000200A900890102002904002099038
:10064000802005909E48283000900020049007905C
:100650009D4801900020069069469C4801F0F8FCF6
:10066000202001F057FD01220221984801F02CFDC5
:100670000121964801F016FD0BB000BD00B589B010
:10068000934802F0C1FAFF20F43007902F2168460A
:10069000018300210184418306A98D4802F01AFBE1
:1006A00001218B4802F0A4FF01221146884802F084
:1006B00089FF6021684681800121C1800221018279
:1006C0000020039001A9824802F0FDFB0821804828
:1006D00002F03FFD01217E4802F081FB01208007EE
:1006E00002F092FA632007907A496846018300215C
:1006F0000184418306A90120800702F0EBFA012161
:10070000880702F075FF01221146900702F05AFF98
:100710000121880702F063FB6F4802F075FA6F4809
:1007200007902F216846018300210184418306A997
:100730006B4802F0CFFA0121674802F059FF01220D
:100740001146654802F03EFF0121634802F047FB75
:1007500009B000BD00B585B00121084602F06BF973
:100760000121880402F059F9052168460170002131
:1007700041700121817001F079FE03200390002176
:1007800068460174022141740021C17403A94748DD
:1007900001F090FD012001F041FD022001F03EFD3D
:1007A0000021012002F0F4F90121084602F0F0F9DD
:1007B000032001900021684601721021417201213D
:1007C000817201A801F0BAFC05B000BD08B51B217B
:1007D00068460170002141700121817001F046FEE0
:1007E00010216846017001214170817001F03EFEC8
:1007F0000F2168460170022141700121817001F0D2
:1008000035FE152168460170032141700121817078
:1008100001F02CFE0A21684601700121817002213D
:10082000417001F023FE08BD10B52E4801F0F8FD1F
:10083000012001F0F8FD7D20400101F0F7FD01F0FD
:10084000F8FD01F0FDFD10BD10B5002403F0A3FA82
:100850000446002C02D0204604F00BF82249886898
:10086000804704F0C9F80446002C02D0204604F06A
:1008700092F91E488089002809D17D2000011B497A
:10088000888105F039FA05F0EBFB19490880174813
:100890008078002806D164201449887005F088F912
:1008A00004F01AF811484078002823E000040048BA
:1008B0007017000010000020FFFFFF0000E000E0C4
:1008C0000038014005010500670800201C000240B7
:1008D000000400407FBB000000440140E70300002B
:1008E000002C0140555500008C0100200000002024
:1008F0008A01002005D040210920C00601F057FDE3
:1009000004E040210920C00601F053FD01F08CF9FC
:1009100010BD10B5002404F03EFE1023FCA20221FD
:10092000002004F01FFF1023FEA20421002004F089
:1009300019FF00BF3FE00321204605F0E7FB002937
:100940000DD110210920C00601F033FD322003F043
:100950000AFA10210920C00601F029FD26E0032132
:10096000204605F0D3FB01290DD120210920C00626
:1009700001F01FFD322003F0F6F920210920C00606
:1009800001F015FD12E00321204605F0BFFB02290E
:100990000CD180210920C00601F00BFD322003F0AC
:1009A000E2F980210920C00601F001FD1E2003F0BC
:1009B000DAF9601CC4B20F2CBDDB10BDF8B5002500
:1009C00000260024DC48C088DC4988424CDCDA4838
:1009D000C188DB480078DB4A5043814238DDD64885
:1009E000C188D74800785043C830814230DA00BF10
:1009F00020E0D348007884420DDABA206100611803
:100A00007C22511AD04A5054610061187B22511A3D
:100A1000CD4A50540CE08220610061187C22511AAA
:100A2000C94A5054610061187B22511AC64A505479
:100A3000601CC4B2042CDCDBC1480078401CC049F7
:100A4000087008460078042801DD002008700125A0
:100A5000002D0CD00025BC480223802200210090EC
:100A6000084604F0C9FE02E00020B349C880B2483D
:100A7000008900287ED1FA20AF490881B348007868
:100A8000002878D1B24989797D2212018818511045
:100A900005F03CFB3030AF49C870AD4989797D2203
:100AA00012018818642105F031FB07460A2105F080
:100AB0002DFB3031C8B2A7490871A54989797D223B
:100AC000120188180A2105F021FB07460A2105F0CA
:100AD0001DFB3031C8B29F4948719D4989797D22FB
:100AE000120188180A2105F011FB3031C8B299496A
:100AF00088712D20C871964908790A2105F006FBF6
:100B0000303094490872924908790A2105F0FEFABA
:100B10003031C8B28F4948722D2088728C49C8780C
:100B20000A2105F0F3FA30308A49C8728849C8783A
:100B30000A2105F0EBFA3031C8B2864908738449BE
:100B400088780A2105F0E2FA30308349087180493B
:100B500088780A2105F0DAFA3031C8B27E49487146
:100B60003A2088717A4948780A2105F0CFFA303066
:100B7000794901E0FEE34CE0C871754948780A21E3
:100B800005F0C4FA3031C8B2734908723A2048728D
:100B90006F4908780A2105F0B9FA30306E49887239
:100BA0006B4908780A2105F0B1FA3031C8B26A49B8
:100BB000C87252206949087030208870FF210131C5
:100BC0000920C00601F0D9FB30306449C8704720C5
:100BD000C871452008724E20487220208872422039
:100BE00008735F48407804280CDD4E20887343204A
:100BF000C87320210920C00601F0D9FB0020584904
:100C0000C87004E04C20554988734520C8730126FC
:100C100093E24E480078012877D152480078401C72
:100C20005049087008460078142801DD002008703B
:100C30004C4800780A2869DA4B4989797D221201EB
:100C40008818511005F062FA30304249C8704649A0
:100C500089797D2212018818642105F057FA074628
:100C60000A2105F053FA3031C8B23A4908713E49B9
:100C700089797D22120188180A2105F047FA074672
:100C80000A2105F043FA3031C8B232494871364979
:100C900089797D22120188180A2105F037FA30314E
:100CA000C8B22C4988712D20C8712F4908790A21B2
:100CB00005F02CFA3030274908722B4908790A21AF
:100CC00005F024FA3031C8B2224948722D208872CA
:100CD0002549C8780A2105F019FA30301D49C87233
:100CE0002149C8780A2105F011FA3031C8B21949F2
:100CF00008731D4988780A2105F008FA3030164932
:100D00000871194988780A2130E096E064E0000013
:100D100020204155544F205553422056312E30202B
:100D2000200000002020205A65726F2053747564E3
:100D3000696F20202000000000000020A861000052
:100D4000A90100208813000024000020AC05002029
:100D50008A0500202401002057010020790100208D
:100D600000020020A8010020DE01002005F0CEF9DD
:100D70003031C8B2FE4948713A208871FD4948783F
:100D80000A2105F0C3F93030F949C871F9494878AA
:100D90000A2105F0BBF93031C8B2F54908723A2092
:100DA0004872F44908780A2105F0B0F93030F0496A
:100DB0008872F04908780A2105F0A8F93031C8B2E4
:100DC000EB49C8725320EC49C87145200872542081
:100DD0004872202088722EE0E8480079012803D16B
:100DE0005F20E349487126E0E4480079022803D1F6
:100DF0005F20DF4908721EE0E0480079032803D134
:100E00005F20DB49C87216E0DC480079042803D172
:100E10005F20DB4988710EE0D8480079052803D1AE
:100E20005F20D749487206E0D4480079062802D1ED
:100E30005F20D34908730126F9E2D24800780228DE
:100E40007ED1D1480078401CCF4908700846007810
:100E5000142801DD00200870CB4800780A2870DAD9
:100E6000CA4989797D2212018818511005F04EF97E
:100E70003030C349C870C54989797D22120188186C
:100E8000642105F043F907460A2105F03FF93031A6
:100E9000C8B2BB490871BD4989797D221201881801
:100EA0000A2105F033F907460A2105F02FF9303100
:100EB000C8B2B3494871B54989797D2212018818B1
:100EC0000A2105F023F93031C8B2AD4988712D20CF
:100ED000C871AE4908790A2105F018F93030A849DF
:100EE0000872AA4908790A2105F010F93031C8B210
:100EF000A34948722D208872A449C8780A2105F0B8
:100F000005F930309E49C872A049C8780A2105F019
:100F1000FDF83031C8B29A4908739C4988780A2193
:100F200005F0F4F8303092490871984988780A2120
:100F300005F0ECF83031C8B28D4948713A2001E033
:100F400060E02EE08871914948780A2105F0DEF8CA
:100F500030308749C8718D4948780A2105F0D6F8A4
:100F60003031C8B2824908723A20487287490878FD
:100F70000A2105F0CBF830307D4988728349087822
:100F80000A2105F0C3F83031C8B27949C87241204E
:100F90007949C8714C2008724D204872202088720F
:100FA0002EE076480079012803D15F20704948710E
:100FB00026E072480079022803D15F206C4908724C
:100FC0001EE06E480079032803D15F206849C8728B
:100FD00016E06A480079042803D15F2068498871C7
:100FE0000EE066480079052803D15F206449487205
:100FF00006E062480079062802D15F206049087344
:10100000012614E25F4800780A287DD16049897979
:101010007D2212018818511005F078F830305849B7
:10102000C8705B4989797D2212018818642105F016
:101030006DF807460A2105F069F83031C8B2504909
:101040000871534989797D22120188180A2105F017
:101050005DF807460A2105F059F83031C8B2484911
:1010600048714B4989797D22120188180A2105F0BF
:101070004DF83031C8B2424988712D20C8714449B9
:1010800008790A2105F042F830303D49087240499C
:1010900008790A2105F03AF83031C8B23849487267
:1010A0002D2088723A49C8780A2105F02FF830308F
:1010B0003349C8723649C8780A2105F027F830311B
:1010C000C8B22F490873324988780A2105F01EF802
:1010D0003030274908712E4988780A2105F016F822
:1010E0003031C8B2224948713A208871284948787D
:1010F0000A2105F00BF830301D49C87124494878A1
:101100000A2105F003F800E018E03031C8B21849B0
:1011100008723A2048721E4908780A2104F0F6FF46
:101120003030134988721A4908780A2104F0EEFF1A
:101130003031C8B20E49C872012678E111480078F2
:1011400003287DD11349086880470746124905F0F6
:101150005CF8124908600F49486880470746104903
:1011600005F053F80F49086052200549C8701BE08C
:1011700057010020DE01002079010020000000203E
:1011800024010020AC050020A8010020E601002079
:101190008A0500209801002000007A44A401002064
:1011A0000000C842A0010020452008714620487177
:1011B0003A208871E248006805F012FA07467D215E
:1011C000C90004F08DFF3030DE49C8712E2008724E
:1011D000DB48006805F004FA6421009004F080FF09
:1011E00007460A2104F07CFF3031D6484172D448CA
:1011F000006805F0F5F90A21009004F071FF074638
:101200000A2104F06DFF3031CE488172CC4800686D
:1012100005F0E6F907460A2104F062FF3031C948BB
:10122000C1725620C74908735420C74908713A2033
:101230004871C648006805F0D3F907467D2100E0F3
:101240003EE0C90004F04CFF3030BF498871BF4810
:10125000006805F0C5F96421009004F041FF0746DD
:101260000A2104F03DFF3031B748C1712E20B64944
:101270000872B648006805F0B3F90A21009004F03E
:101280002FFF07460A2104F02BFF3031AE48417290
:10129000AE48006805F0A4F907460A2104F020FFD3
:1012A0003031A94881724320A749C872A849C87142
:1012B0005020087255204872202088720126B6E01E
:1012C000A4480078042866D152209E4908706F20F7
:1012D000487088706D20C8702020087154204871B3
:1012E000652088716D20C871702008726520487271
:1012F000722088726120C872742008737520487348
:10130000722088736520C87354208F4908713A2071
:10131000487191480021415E002903DA2D208A4955
:10132000887102E020208849887164218A4A00205F
:10133000105E04F0D5FE07460A2104F0D1FE3031DC
:101340008148C1710A21844A0020105E04F0C8FE61
:1013500007460A2104F0C4FE30317B4801722E207A
:10136000794948720A217C4A0020105E04F0B8FED8
:10137000303100E078E07448817243207249C872CD
:1013800054207349C871452008724D20487250207E
:10139000887201264BE06F480078052830D156202E
:1013A0006B4908706D4948790A2104F0AFFE30306E
:1013B00067498870694948790A2104F0A7FE3031ED
:1013C000C8B26349C8704720C871412008724D20D7
:1013D00048724520887253200873604908790A21B1
:1013E00004F094FE30305A4988735C4908790A2128
:1013F00004F08CFE3031C8B25549C873012616E09E
:1014000054480078062809D14C205149C8714F2012
:101410000872572048725020887208E04D480078C2
:10142000082803D04B480078092800D10126002E57
:101430001AD04848007805280CD01023424A0221CF
:10144000002004F08FF904233E4A0521002004F017
:1014500089F902E042490868804704233C4A072191
:10146000002004F07FF900263E48408900282CD156
:101470000A203C4948813C480088002812D13B485A
:101480000088401C3949088008460088FF21F53152
:10149000884215DB012034490880FF20F5303349AC
:1014A00008800DE031480088401E30490880084619
:1014B0000088002804DC00202B4908802B49088084
:1014C0002A4801882A4801F0FEFD254948688047DE
:1014D000F8BD10B5002819DA264A03071B0F083B90
:1014E0009B089B00D2588307DC0EFF23A3409A433E
:1014F0008B071B0E8407E40EA3401A431D4B040701
:10150000240F083CA408A4001A5118E01A4A032327
:101510001B02D21883089B00D2588307DC0EFF23DE
:10152000A3409A438B071B0E8407E40EA3401A4383
:10153000114B032424021B198408A4001A5110BD66
:10154000A40100202401002057010020A001002058
:1015500079010020AC0500208A010020B4010020A0
:101560008C01002000000020AC010020AA01002016
:10157000000400401CED00E000E100E038B500246C
:10158000F948C078002811D100BF0DE0E001F7490B
:1015900040180090E01CC3B2A01CC1B28022002001
:1015A00004F02AF9601CC4B2052CEFDB38BD17B576
:1015B00082B00021039C029B01940093EC4B1B78AA
:1015C000002B1ED0EA4B5B78002B1AD0E84B5B78DF
:1015D0005B1EDB01E54C1C19E54B1B785B1EDB0039
:1015E000E0183F230370401C33230370401C212369
:1015F0000370401C0370401C33230370401C3F23C6
:10160000037000212EE06B465B785B1EDB01D74C3C
:101610001C196B461B785B1EDB00E0183F23037030
:10162000401C00290AD10370401C33230370401C66
:101630000370401C3F230370401C08E03F230370ED
:10164000401C0370401C0370401C0370401C3F236F
:101650000370019B002B03D0019C18CC01940093D4
:101660004B1CD9B29142CEDB05B010BD10B5C148BC
:10167000006805F077F9082005F09EF9BD4908607B
:101680000020096848600120BA49096808700320F1
:10169000B849096848700120B349087004204870AF
:1016A0000820B349087002204870AF480278B1485A
:1016B000006803C8FFF77BFFFFF760FF0120AA491E
:1016C00088700020C870087110BDA74949780129A9
:1016D00006D0022909D003290CD0042914D10EE028
:1016E000022801D0A04948700EE0012801D09E498F
:1016F000487009E0042801D09B49487004E00328A1
:1017000001D09949487000BF00BF704710B504462A
:1017100001209549C870002088700621022003F03E
:1017200019FF102322460221002004F01BF810BDEF
:1017300010B502460B468F4800684168002400BF80
:101740000DE00878904204D14878984201D10120F8
:1017500010BD4868002800D04968601CC4B28248A7
:101760000078401EA042ECDC0020F1E770B5054691
:101770000E46082005F020F90446257066707D4865
:10178000006860607B48046077480078401C7649B8
:10179000087070BDF1B50024002500277548066863
:1017A000006804787348006845780098012806D0DE
:1017B00002280AD003280ED0042818D111E0681E90
:1017C000C5B2012D00DA052511E0681CC5B2052D52
:1017D00000DD01250BE0601EC4B2012C00DA1024EC
:1017E00005E0601CC4B2102C00DD012400BF00BF66
:1017F000002702E07668781CC7B25B480078401E7C
:10180000B842F7DC706805F0ADF80020706056480B
:101810000078401E5449087029462046FFF7A6FF6D
:10182000F8BDF0B585B004460D461646002004907C
:10183000039050480768002C01D1601CC4B2002DF1
:1018400001D1681CC5B20020049022E03878A04283
:1018500017D17878A84214D104F06CFC06210090CE
:1018600004F054FCC8B2029004F064FC1121009012
:1018700004F04CFCC8B2324601900299FFF7D1FF48
:1018800003907868002800D07F680498401CC0B29C
:1018900004903548017804988142D7DC01200390F8
:1018A0003470761C3570039805B0F0BD70B50446F1
:1018B0000D462D484078012806D002280AD003287A
:1018C0000ED0042818D111E0681EC5B2012D00DA2F
:1018D000052511E0681CC5B2052D00DD01250BE0D2
:1018E000601EC4B2012C00DA102405E0601CC4B2F2
:1018F000102C00DD012400BF00BF29462046FFF761
:1019000035FF70BD7CB500251A48016803C90191F7
:10191000009000BF1FE068464078401EC001134998
:10192000411868460078401EC0000C180020207046
:10193000641C2070641C2070641C2070641C207067
:10194000641C20700198002803D0019903C90191FB
:101950000090681CC5B204480078A842DBDC062170
:10196000022003F0F7FD7CBDB4010020B505002086
:10197000BA010020B001002070B55E48007804F084
:10198000E2FB5C480078401C5A4908705A480078CD
:1019900005285CD1594841795648007804F0B6FBD7
:1019A000002954D155488078012850D1FFF7AAFF6B
:1019B0005348006800785349097888422BD1504831
:1019C000006840784F494978884224D14D4A51787F
:1019D0001078FFF76BFF04F0ADFB0646062104F01C
:1019E00095FBCCB204F0A6FB0646112104F08EFB59
:1019F000CDB2444A21462846FFF713FF3F480079FD
:101A0000401C3E490871084600791D2814DB3EA0A1
:101A1000FFF77CFE10E039494878FFF7BBFE384AF3
:101A200012685178364A12681078FFF781FE002854
:101A300002D03AA0FFF76AFE3048C078002806D1ED
:101A40002E4802782E48006803C8FFF7B0FD70BD2D
:101A500070B500242A4805680026002027498870B0
:101A6000FFF750FF002027490870487000BF0CE0C6
:101A700000202F49085500212D4880300155803025
:101A8000015580300155601C84B2FF2CF0DD04E06C
:101A90006E68284604F066FF3546002DF8D1002018
:101AA0001749086070BD10B51448C078012804D1EA
:101AB000FFF7CEFFFFF7DAFD14E000200F49887032
:101AC00008464079401C4871084640790F2801DDDE
:101AD0000120487109484179092003F062FA012088
:101AE0000649887010BD012800DA012003494871B9
:101AF00070470000BC010020AC050020B4010020AC
:101B0000B0010020BA010020202047414D45205758
:101B1000494E4E45522121212000000020204741FE
:101B20004D45204F564552202121212020200000E4
:101B3000B505002010B504460621022003F00AFD79
:101B4000102322460221002003F00CFE10BD70B5C8
:101B5000044600254D480078072804D0082812D0F4
:101B600009285FD122E020784F280BD160784B28DC
:101B700008D147A0FFF7DEFF4D20494948710020FA
:101B8000424908704EE0207848280ED103250AE02B
:101B9000E81E205C4349485528460830205C4249ED
:101BA0004855681CC5B20D2DF2DB3BE020203D49B5
:101BB0000870487088704220C870542008712D2029
:101BC0004871412088714420C871087252204872BF
:101BD000452088725320C872087320204873887388
:101BE000C873314908702078487060788870E07850
:101BF000C870207908713A204871A0798871E0791D
:101C0000C871607A0872A07A48723A208872207B84
:101C1000C872607B0873E07B4873207C8873202047
:101C2000C87300BF00BF70BD10B52048C078002841
:101C30002AD1FF201D49C8701D498878C10F091895
:101C400049104900411A012905D110210920C00677
:101C500000F0AFFB04E010210920C00600F0A7FB54
:101C60001349C878C10F091849104900411A0129C0
:101C700005D120210920C00600F09BFB04E02021B3
:101C80000920C00600F093FB10BD0000AC05002049
:101C900020204254205245534554204F4B212000D0
:101CA00079010020570100202401002000000020BD
:101CB000000200200448804704480047FEE7FEE792
:101CC000FEE7FEE7FEE7FEE71B030008C100000891
:101CD00010B50446B548844207D10121401500F0F3
:101CE000D4FE0021601500F0D0FE10BD10B500221A
:101CF000C268AF4B1A400C7964030B6823438C68AD
:101D00002343CC6823430C6923434C6923431A4380
:101D1000C26010BD0021016001718160C16001617C
:101D200041617047002904D0826801231A43826010
:101D300003E0826802231A4382607047002A03D0BE
:101D400003690B43036102E003698B43036170473E
:101D5000002905D0C2680123DB031A43C26004E0F6
:101D6000C2680123DB039A43C2607047002905D093
:101D7000C26801239B031A43C26004E0C2680123C6
:101D80009B039A43C2607047002905D0C2680123B3
:101D9000DB051A43C26004E0C2680123DB059A43F5
:101DA000C26070470B0413430362704710B50A46C4
:101DB0000021C1681F24A4060B46A34319460B4605
:101DC00013431946C16010BD002905D0C268012324
:101DD0009B051A43C26004E0C26801239B059A4335
:101DE000C2607047002807D0724989680122D20575
:101DF0001143704A916006E06E4989680122D2055C
:101E000091436C4A91607047002807D069498968FE
:101E1000012292051143674A916006E0654989688D
:101E2000012292059143634A91607047002807D0D0
:101E3000604989680122120611435E4A916006E0FA
:101E40005C4989680122120691435A4A91607047A1
:101E500010B50B460021846A1C43846200BF0C4607
:101E600014432146416110BD002905D0C2680123F9
:101E70005B031A43C26004E0C26801235B039A4318
:101E8000C2607047002905D0C26801231B041A43B1
:101E9000C26004E0C26801231B049A43C260704719
:101EA000002905D0C26801231B031A43C26004E065
:101EB000C26801231B039A43C260704730B50146D4
:101EC0000020002200238C680125ED072C438C6044
:101ED00000BF8C68E30FDB07521C0F242403A242CF
:101EE00001D0002BF5D18C68E40FE407002C01D160
:101EF000086C00E0002030BD816810221143816031
:101F00007047816804221143816070470146086C64
:101F100080B27047002904D0C26801231A43C2600E
:101F200003E0C26852085200C2607047C2680223D0
:101F30009A43C260C2680A43C2607047002A03D055
:101F400043680B43436002E043688B434360704740
:101F500030B5024600200023012424060C40002C4A
:101F600005D0946801252D06AC43234600E0136894
:101F70001C460C40002C01D0012000E0002030BDA8
:101F80000160704710B502460020002354680C40E1
:101F9000234614680C40002C03D0002B01D00120F4
:101FA00000E0002010BD01607047000000240140E7
:101FB00003D2FFFF002701400168584A1140016029
:101FC0000021016041608160C1605549884208D1AB
:101FD0005349083949680F221143514A083A516060
:101FE00035E04F491431884208D14D4908394968D4
:101FF000F02211434A4A083A516028E04849283102
:10200000884209D14649083949680F221202114312
:10201000434A083A51601AE041493C31884209D1AB
:102020003F49083949680F22120311433C4A083AD4
:1020300051600CE03A495031884208D1384908399A
:1020400049680F2212041143354A083A516070471B
:1020500010B500220268334B1A400C6A8B68234388
:102060000C6923434C6923438C692343CC69234384
:102070004C6A23438C6A23431A430260CB68436053
:102080000B6883604B68C36010BD00210160416034
:102090008160C160016141618161C1610162416230
:1020A00081627047002904D0026801231A4302604C
:1020B00003E00268194B1A400260704741607047A4
:1020C0000146486880B27047002A03D003680B437A
:1020D000036002E003688B43036070470146002001
:1020E0000F4A083A12680A40002A01D0012000E095
:1020F000002070470A4908394860704701460020AF
:10210000074A083A12680A40002A01D0012000E07C
:10211000002070470249083948607047FEFF000000
:10212000080002400F80FFFF3E483F490860002042
:1021300048608860C8603D484861704700213A495E
:102140008279002A35D00A46126803689A430B4602
:102150001A600A46526803689A430B465A6002792D
:1021600051180A6803681A430A602F4A9268036884
:102170009A432D4B9A601A46D26803689A432A4BB9
:10218000DA604279102A0CD11A46926803681A4321
:10219000254B9A601A46D26803681A43224BDA60CC
:1021A0000DE02149427951180A6803681A430A6010
:1021B00005E0027951180A6803689A430A6070477B
:1021C0000021016001710C21417100218171704772
:1021D000154909690143144A1161704701460020FD
:1021E000114A52690A40002A01D0012000E0002073
:1021F00070470D49486170470146002000220A4B94
:102200001B680B401A46084B5B690B40002B03D040
:10221000002A01D0012000E00020704702494861F7
:10222000704700000000940F00040140FFFF6B00A6
:1022300010B504460920C006844209D10121480492
:1022400000F015FC00210120400400F010FC30E0FB
:102250006E48844208D10121000200F008FC0021F0
:10226000200200F004FC24E06948844208D10121E6
:10227000000200F0FCFB0021200200F0F8FB18E057
:102280006448844209D10121080500F0F0FB0021D7
:102290000120000500F0EBFB0BE05F48844208D111
:1022A0000121880500F0E3FB00210120800500F0FA
:1022B000DEFB10BDF0B50A4600210023002400BF5C
:1022C0003DE001258D402B4615681D402C469C4263
:1022D00034D11579012D02D01579022D16D18568DA
:1022E0004F000326BE40B543856055794E00B5408A
:1022F000866835438560858801268E40B543858094
:10230000858896798E40B6B23543858005684F0042
:102310000326BE40B543056015794E00B5400668FA
:1023200035430560C5684F000326BE40B543C56010
:10233000D5794E00B540C6683543C560491C1029A3
:10234000BFD3F0BD35490160002101710221417107
:1023500000218171C171704708B5012212040092F9
:10236000009A0A430092009AC261C161009AC26158
:10237000C2690092C269009208BD02460020138A19
:102380000B40002B01D0012000E0002070470146E7
:10239000088A704702460020938A0B40002B01D028
:1023A000012000E0002070470146888A7047816163
:1023B000704701857047002A01D0816100E00185E6
:1023C000704781827047F0B5002300244D07EE0E60
:1023D0001546B5402B46CD10AE0005462035AD590B
:1023E0004E07F70E0F26BE40B543CE10B600074687
:1023F0002037BD51CD10AE003D46AD591D432C4692
:10240000CD10AD003E467451F0BD00000004004800
:1024100000080048000C004800140048FFFF0000BE
:102420000F49086070470E49486070470C49886042
:1024300070470C480A4908607047094908617047AD
:10244000094807490860704701460020044AD268DD
:102450000A40002A01D0012000E00020704700005F
:1024600000300040AAAA0000CCCC000000218278F5
:10247000002A27D0274A03231B02D21803789B1077
:102480009B00D15802789207D30EFF229A400B4648
:102490009343194642789207120E03789B07DB0E8E
:1024A0009A4011431B4A03231B02D21803789B1046
:1024B0009B00D1500278D306DB0E01229A40154BC7
:1024C0001A6007E00278D306DB0E01229A40114B16
:1024D00080331A607047002905D00F4A1269024301
:1024E0000D4B1A6104E00C4A126982430A4B1A61CF
:1024F0007047042806D10949096904221143074A93
:10250000116105E00549096904229143034A1161FB
:102510007047000000E100E000ED00E000E000E0B6
:10252000FD48006801210843FB49086008464068EF
:10253000FA490840F849486008460068F8490840E8
:10254000F549086008460068012189048843F2497A
:102550000860084640683F2109048843EE49486006
:102560000846C06A00090001C8620846006BFF21E6
:1025700054318843E84908630846406B40084000EE
:1025800048630020886070470021E34A917011463B
:102590008870704710B502460021002300205111B9
:1025A000002902D1DC4C23680BE0012902D1DA4C6E
:1025B000236A06E0022902D1D74C636A01E0D64CB7
:1025C000636BD106C90E01248C401C40002C01D045
:1025D000012000E0002010BD38B50020009000244C
:1025E000002500BF1120FFF7D5FF05460098401CCD
:1025F0000090052109020098884201D0002DF1D0F9
:102600001120FFF7C7FF002801D0012400E00024BB
:10261000204638BD01460020BF4A1068F823024614
:102620009A431046CA001043BB4A10607047002806
:1026300006D0B949096801221143B74A116005E083
:10264000B549096849084900B34A11607047014615
:102650000020B14A506BF82302469A431046CA0044
:102660001043AD4A50637047002806D0AA49496B11
:1026700001221143A84A516305E0A749496B490863
:102680004900A54A51637047002806D0A249496B0A
:1026900004229143A04A516305E09F49496B0422FB
:1026A00011439D4A516370479B49096A4908490093
:1026B000994A11621146096A04229143964A1162AD
:1026C0001146096A0143116270479349096A182249
:1026D0009143914A11621146096A014311627047A0
:1026E000002806D08C49496A012211438A4A516266
:1026F00005E08949496A49084900874A516270479B
:10270000854A52683D231B049A43834B5A601A46FC
:10271000526803460B431A437F4B5A6070470028A8
:1027200007D07D4909680122120611437A4A1160D7
:1027300006E079490968012212069143764A116040
:10274000704701460020744AD06A00090001024621
:102750000A431046704AD0627047002807D06E497D
:1027600009680122D20411436B4A116006E06A49EC
:1027700009680122D2049143674A11607047664993
:10278000C871704701460020634A50688008800085
:1027900002460A431046604A506070475E484068EF
:1027A0000C2108407047014600205B4A5068F02326
:1027B00002469A43104602460A431046564A506063
:1027C000704701460020544A506807231B02024606
:1027D0009A43104602460A4310464F4A50607047DB
:1027E0004D4949680122920391434B4A5160114679
:1027F000496882B21143484A51601146096B9215EB
:102800009143454A11631146096B020C1143424A38
:10281000116370474049096B402291433E4A11635E
:102820001146096B0143116370473B49096B102244
:102830009143394A11631146096B01431163704793
:102840003549096B89088900334A11631146096BC0
:10285000014311637047FEB50446002500260020A1
:102860000190009000272C4840680C210840054644
:10287000002D04D0042D05D0082D28D105E02948CD
:10288000206027E02748206024E0234840680F218B
:102890008904084006462048406801210904084090
:1028A0000190B00C861C0198002803D11E4870438B
:1028B00020600BE01848C06A0007000F401C009021
:1028C0001848009903F00CFC7043206002E01548A2
:1028D000206000BF00BF10484068F0210840054656
:1028E0002D091248475D2068F84060600A4840683A
:1028F00007210902084005462D0A0C48475D60681B
:10290000F840A0600448006BFF2101310840884274
:1029100010D00748E0601BE0001002400CB8FFF840
:10292000FFFFF6FE00127A0000093D00BD01002005
:10293000809FD5007548406801218903084088427E
:1029400003D0A0684008E06002E0A0688008E06072
:102950006E48006B40210840402802D06C4820613E
:1029600002E00120C00320616848006B102108408C
:10297000102802D06748606101E020686061634808
:10298000006B8007800F002802D1A068A06119E0C9
:102990005E48006B8007800F012802D12068A0618B
:1029A00010E05A48006B8007800F022802D1800394
:1029B000A06107E05548006B8007800F032801D114
:1029C0005448A061FEBD5149096A01434F4A116252
:1029D0007047002807D04D49096A0122D2031143EC
:1029E0004A4A116206E04949096A0122D203914329
:1029F000464A11627047002807D04449096A0122FB
:102A000012041143414A116206E04049096A012259
:102A1000120491433D4A11627047002905D03B4A98
:102A200052690243394B5A6104E0384A5269824381
:102A3000364B5A617047002905D0344A92690243E7
:102A4000324B9A6104E0314A926982432F4B9A617A
:102A50007047002905D02D4AD26902432B4BDA6119
:102A600004E02A4AD2698243284BDA617047002980
:102A700005D0264A926A0243244B9A6204E0234A14
:102A8000926A8243214B9A627047002905D01F4AFF
:102A9000D26802431D4BDA6004E01C4AD2688243CC
:102AA0001A4BDA607047002905D0184A12690243B0
:102AB000164B1A6104E0154A12698243134B1A61DE
:102AC0007047002905D0114A527A02430F4B5A72BF
:102AD00004E00E4A527A82430C4B5A7270470B48FC
:102AE000406A0121090608430849486270470146C7
:102AF0000020064A92680A40002A01D0012000E026
:102B000000207047014988727047000000100240A1
:102B10001280000000127A003A4800688007800F97
:102B2000384908600020886000213648C160016192
:102B300041618069FF210131084332498861704752
:102B4000014600202F4A10688008800002460A4390
:102B500010462C4A10607047002905D0294A126897
:102B60000243284B1A6004E0264A12688243254B30
:102B70001A607047002905D0224A12680243214B8F
:102B80001A6004E01F4A126882431E4B1A607047A5
:102B900030B500228B071C0F0F23A3401A46194B98
:102BA00008338C10A4001B599343164C08348D1025
:102BB000AD00635123468C10A4001B598C07250FD0
:102BC0000446AC4023430F4C08348D10AD006351D4
:102BD00030BD0C49896901430A4A91617047014639
:102BE0000020084A9269FF2301331A40002A01D0CD
:102BF000012000E000207047024989690143014A31
:102C0000916170470000014010B50446FE488442BF
:102C100008D10121C014FFF738FF0021E014FFF7AD
:102C200034FF56E001208007844208D10121084684
:102C3000FFF739FF00210120FFF735FF49E0F34896
:102C4000844208D101210220FFF72DFF002102203C
:102C5000FFF729FF3DE0EE48844208D10121102012
:102C6000FFF721FF00211020FFF71DFF31E0E948A9
:102C7000844208D101218015FFF715FF0021A0151E
:102C8000FFF711FF25E0E448844209D1012108043F
:102C9000FFF7FBFE002101200004FFF7F6FE18E01D
:102CA000DE48844209D101214804FFF7EEFE0021ED
:102CB00001204004FFF7E9FE0BE0D948844208D127
:102CC00001218804FFF7E1FE002101208004FFF7C5
:102CD000DCFE10BD00220288CB4B984206D00123B7
:102CE0009B07984202D0C94B984203D1CD4B1A4062
:102CF0004B881A43C64B984203D0CB4B1A400B89E2
:102D00001A4302804B68C3620B880385BE4B98420E
:102D100008D0C14B984205D0C04B984202D0C04B5E
:102D2000984201D18B7A0386012383827047002168
:102D3000C943416000210180018141808172704757
:102D40000185828270470A4600210188B54B1940EF
:102D50000B46134319460180704741627047C162B8
:102D600070470146486A70470146088D7047002940
:102D700004D0028802231A43028004E00288A94B8F
:102D80006E331A4002807047002904D00288042361
:102D90001A43028004E00288A24B6C331A4002807E
:102DA0007047002904D0028880231A43028004E07F
:102DB00002889C4B103B1A40028070470288994B56
:102DC00068331A40028002880A43028070470288F2
:102DD000954B1A40028002880A43028070470029FE
:102DE00004D0028801231A43028004E002888D4B3C
:102DF0006F331A40028070470A884B881A438B88C9
:102E00001A43CB881A430B891A434B891A438B897F
:102E10001A4344231A527047002101804180818067
:102E2000C1800181418181817047002907D04422FE
:102E3000125A0123DB031A4344231A5205E04422A9
:102E4000125A53045B0C44221352704770B500248D
:102E500000220023058C734E6F3635400584028CAA
:102E60008388048B6F4D2C40B51E2C400D882C435D
:102E7000751E2A408D892A434D882A43624DA842F7
:102E800008D0654DA84205D0644DA84202D0644DDB
:102E9000A84212D1634D68352A40CD892A43614D3D
:102EA0006C352A408D882A435E4D903D2B405F4D06
:102EB0002B400D8A2B434D8A2B43838004838D68DE
:102EC0004563028470BD70B5002400220023058C88
:102ED000544E603635400584028C8388048B544DF3
:102EE0002C40514D2C400D782D062D0C2C434D4D72
:102EF00050352A408D892D052D0C2A434D882D05EE
:102F00002D0C2A43404DA84219D1464D103D2A4070
:102F1000CD892D052D0C2A43424D30352A408D8810
:102F20002D052D0C2A43434D2B40434D2B400D8A3C
:102F3000AD042D0C2B434D8AAD042D0C2B43838007
:102F400004838D688563028470BD70B500240022FF
:102F50000023058C334E903E35400584028C8388D7
:102F6000848B304D2C402F4D6D352C400D882C43DB
:102F70002E4D2A400D7B2D062D0C2A438D782D06D3
:102F80002D0C2A43204DA84217D12B4D2A408D7B72
:102F90002D062D0C2A43274D2A400D792D062D0C88
:102FA0002A43264D2B40264D2B400D8A2D052D0CF6
:102FB0002B434D8A2D052D0C2B43838084838D68F4
:102FC000C563028470BD70B5002200230024058C07
:102FD0001A4E35400584038C8488828B144D2A4018
:102FE000114D2A400D782D062D0C2A43144D2B40EF
:102FF0000D7B2D072D0C2B438D782D072D0C2B438E
:10300000014DA84224D11DE0002C014000040040E5
:1030100000100040002000400040014000440140FA
:10302000004801408FFF0000FFFC0000FFFD000092
:10303000FF8F0000FFFB0000FFF70000FFEF000024
:10304000FFDF0000FC4D2C400D8AAD052D0C2C43FC
:10305000848082838D680564038470BD00210180B3
:103060004180818081608181C1810182418270477C
:1030700070B50346002000241846183001258D4005
:10308000ACB21D8CA5431D84002901D0082909D1AB
:103090004D10281805687026B5430560056815436E
:1030A00005600DE00D1F2D046D0C2818056807261E
:1030B0003603B543056005681606360C35430560D2
:1030C00070BD4163704781637047C163704701649D
:1030D00070470A460021018BD84B19400B46134319
:1030E0001946018370470A460021018BD44B1940D1
:1030F00013061B0C1943018370470A460021818B7C
:10310000CE4B19400B4613431946818370470A463C
:103110000021818BCA4B194013061B0C1943818374
:103120007047002904D0828801231A43828004E07A
:103130008288C24B6F331A40828070470A46002152
:10314000018BBE4B683319400B461343194601836C
:1031500070470A460021018BBA4B194013061B0C1D
:103160001943018370470A460021818BB34B6833B2
:1031700019400B4613431946818370470A460021C4
:10318000818BB04B194013061B0C19438183704788
:103190000A460021018BA94B6C3319400B4613439F
:1031A0001946018370470A460021018BA64B19403E
:1031B00013061B0C1943018370470A460021818BBB
:1031C0009E4B6C3319400B4613431946818370475D
:1031D0000A460021818B9C4B194013061B0C194396
:1031E000818370470A460021018B944B103B1940A4
:1031F0000B4613431946018370470A460021018B91
:103200004904490C13061B0C1943018370470A46F5
:103210000021818B894B103B19400B461343194603
:10322000818370470A460021818B4904490C1306AB
:103230001B0C1943818370470A460021018C7F4B88
:103240006E3319400B4613431946018470470A46F2
:103250000021018C794B683319400B461343194602
:10326000018470470A460021018C744B5033194089
:1032700013051B0C1943018470470A460021018C79
:103280006E4B103B194013051B0C1943018470470A
:103290000A460021018C6D4B194013061B0C194383
:1032A000018470470A460021018C664B19401306C1
:1032B0001B0C1943018470470A460021018C644BA2
:1032C000194013071B0C19430184704702895B4B9B
:1032D00068331A40028102890A430281704730B57F
:1032E000002301248C40A3B2048C9C430484048CEE
:1032F00015468D40ADB22C43048430BD30B500235B
:1033000004248C40A3B2048C9C430484048C154692
:103310008D40ADB22C43048430BD002904D0828896
:1033200004231A43828004E08288444B6C331A40A1
:1033300082807047828B474B1A408283828B0B06B8
:103340001B0C1A4382837047F8B50C4600210025F8
:1033500000260096068C404F3E400684818B058CEB
:103360002607360C00963D4E31401606360C31438A
:103370001E07360C31433A4E354001273F03009E6D
:103380003E43354381830584F8BD828B2B4B6433E8
:103390001A408283828B0A4382837047F8B50C46B9
:1033A0000021002500260096068C244F903F3E40C9
:1033B0000684818B058C2606360C00961F4E833EB4
:1033C00031401E05360C16433143264E3540FF274B
:1033D0000137009E3E43354381830584F8BD028B4F
:1033E0001C4B1A400283028B0B061B0C1A430283F0
:1033F0007047F8B50C460021002500260096068C83
:103400000E4F60373E400684018B058C2605360C36
:103410000096124E31401E07360C31431606360C0C
:103420003143064E303E35401027009E3E43354323
:1034300001830584F8BD0000FFBF00008FFF00007E
:10344000FF8F0000FFF70000FFFB0000FFFD000002
:10345000FFDF0000FFF30000FFEF0000FF0C0000A3
:10346000FF5F0000FFF50000028BD84B1A4002837B
:10347000028B0A4302837047F0B50C4600210025F9
:10348000068CD24F0B373E400684018B058CCF4E05
:10349000E73E31401E05360C16433143CB4EB61C79
:1034A000354001262643354301830584F0BD70B5C0
:1034B00005460C46208800280AD12389A288618805
:1034C0002846FFF7D9FFE1882846FFF7CDFF25E022
:1034D000208804280AD12389A28861882846FFF71A
:1034E00088FFE1882846FFF77AFF17E02088082840
:1034F0000AD12389A28861882846FFF74FFFE18817
:103500002846FFF742FF09E02389A2886188284600
:10351000FFF71AFFE1882846FFF70CFF70BD002176
:1035200001804180012181800021C180018170479B
:10353000F8B505460C46002601276088002801D111
:10354000022600E00026A088012801D1022700E021
:1035500001272088002814D12389A2886188284661
:10356000FFF78AFFE1882846FFF77EFF23893A4666
:1035700031462846FFF73DFFE1882846FFF72FFF39
:1035800013E02389A28861882846FFF732FFE1888B
:103590002846FFF724FF23893A4631462846FFF79D
:1035A0006BFFE1882846FFF75FFFF8BD0146486BD7
:1035B00070470146886B70470146C86B70470146EB
:1035C000086C7047002A03D083890B43838102E093
:1035D00083898B4383817047818270470246002034
:1035E000138A0B40002B01D0012000E0002070471F
:1035F000CA430282704730B50246002000230024EF
:10360000158A0D402B4695890D402C46002B03D082
:10361000002C01D0012000E0002030BDCA4302820E
:10362000704710B50B4613434824235210BD002A9F
:1036300003D083890B43838102E083898B43838199
:103640007047002904D0828808231A43828004E04E
:1036500082885E4B1B1D1A408280704701895B4A3D
:10366000521D1140018170470A4600210189574BC4
:10367000643B19400B46134319460181704730B52E
:1036800004460D4629462046FFF7EEFF2089072114
:103690000843208130BDF8B504460D4616461F4646
:1036A000602D06D13B46012231462046FFF7A1FEA0
:1036B00005E03B46012231462046FFF7DDFE294664
:1036C0002046FFF7D1FF2089072108432081F8BD5C
:1036D00030B50C4600210189C9B21D062D0C1543D9
:1036E00025432943018130BDFFB505460E461746E7
:1036F00000243A4631462846039BFFF7E9FF2C8910
:103700003248401D044007200443304864380440D8
:10371000702004432C81FFBDF0B504460D461646CB
:103720001F463B46324629462046FFF7D1FF2089F7
:103730000121890308432081F0BD8288234B643B2B
:103740001A40828082880A438280704702891F4B18
:103750005B1D1A40028102890A4302817047028977
:103760001A4B743B1A40028102890A430281704756
:10377000F0B50C460021002500260189058B068C3A
:10378000124F7F1D39400F4627433946104F3D40A9
:10379000FF2702373D430D4F9E3F3E401F053F0C24
:1037A00017433E43018105830684F0BD002904D000
:1037B000828880231A43828004E08288034B743B12
:1037C0001A4082807047502211527047F3FF000068
:1037D000FCFC000010B50446F748844209D10121E1
:1037E0008803FFF752F9002101208003FFF74DF90C
:1037F0000BE0F248844208D101214804FFF753F955
:10380000002101204004FFF74EF910BDF0B589B04A
:1038100005460E4600240020089000BF00BF28681F
:103820004008400028606C68032109032046884353
:103830000446B06804436C602C68E1480440F168B9
:10384000706808433169084304432C60AC68032165
:10385000090220468843044670690443AC60684608
:10386000FEF7F9FFD448854202D10698089001E09E
:103870000298089028680121C9030840002809D04F
:10388000326851001923089A5A43104602F028FC66
:10389000074608E0326891001923089A5A431046F7
:1038A00002F01EFC07466421384602F019FC0401B0
:1038B000200964214843381A079028680121C90368
:1038C000084000280AD00799C90008463230642110
:1038D00002F006FC4007400F044309E00799090184
:1038E00008463230642102F0FBFB0007000F04435E
:1038F000AC8109B0F0BD4B21C901016000214160DC
:103900008160C1600C21016100214161704710B5E7
:10391000002242680F2424021346A3431A464C682F
:103920000B6823438C682343CC6823431A434260CB
:1039300010BD0021016041608160C16070470029B5
:1039400004D0026801231A43026003E002685208AF
:10395000520002607047002A03D003680B430360E3
:1039600002E003688B4303607047002905D00268BA
:103970000123DB031A43026004E002680123DB0336
:103980009A4302607047002905D082680123DB0258
:103990001A43826004E082680123DB029A4382605A
:1039A0007047002905D042680123DB041A434260B6
:1039B00004E042680123DB049A4342607047002917
:1039C00005D0426801239B041A43426004E0426828
:1039D00001239B049A4342607047002A03D0436846
:1039E0000B43436002E043688B4343607047002908
:1039F00005D042680123DB031A43426004E04268B9
:103A00000123DB039A4342607047002905D04268D6
:103A10000123DB051A43426004E042680123DB0511
:103A20009A43426070474269120E1206426142692F
:103A30000A4342617047028AFF231B021A40028236
:103A4000028A0A4302827047002904D002680223D6
:103A50001A43026003E0026802239A43026070473F
:103A6000826803231B059A43826082680A4382604E
:103A70007047002905D0426801231B051A434260A4
:103A800004E0426801231B059A4342607047426884
:103A900003235B059A43426042680A4342607047D1
:103AA000C1690122D2039143C1617047CA05D20D99
:103AB000028570470146888CC005C00D704742687A
:103AC0001202120A426042680B061A4342607047B3
:103AD000002905D0026801235B031A43026004E059
:103AE000026801235B039A43026070470268012366
:103AF000DB029A43026002680A4302607047426830
:103B000010239A43426042680A4342607047426809
:103B100020239A43426042680A434260704700296A
:103B200005D0426801239B031A43426004E04268C7
:103B300001239B039A4342607047002904D08268A6
:103B400008231A43826003E0826808239A43826054
:103B50007047028AD2B20282028A0B021A430282A0
:103B60007047002904D0826820231A43826003E052
:103B7000826820239A4382607047002904D08268BB
:103B800010231A43826003E0826810239A43826004
:103B90007047826807235B049A43826082684B0403
:103BA0001A438260704742691202120A42614269F6
:103BB0000B061A4342617047003801400044004040
:103BC000F3E9FFFF826804239A43826082680A4314
:103BD00082607047002904D0826802231A43826001
:103BE00003E0826802239A4382607047002905D06F
:103BF000826801239B031A43826004E082680123E8
:103C00009B039A438260704782680123DB039A43D7
:103C1000826082680A438260704702681F235B05E6
:103C20009A43026002684B051A43026070470268BB
:103C30001F231B049A43026002680B041A430260AC
:103C40007047002A03D083680B43836002E08368D7
:103C50008B4383607047826801235B039A438260D1
:103C600082680A4382607047F8B503460024002644
:103C700000960025002018460E04340ECEB20096A1
:103C80000127009EB7403D46022C01D1001D02E0F5
:103C9000032C00D10830002A03D006682E430660AA
:103CA00002E00668AE430660F8BD002A03D0038B2D
:103CB0000B43038302E0038B8B43038370478268CB
:103CC00001231B039A43826082680A438260704723
:103CD00002460020D3690B40002B01D0012000E0F8
:103CE000002070470162704770B502460B46002401
:103CF0000021002500201E04350ED9B201268E4079
:103D00003146012D02D11668314006E0022D02D164
:103D10005668314001E0966831401C0C0126A640EF
:103D20003446D6693440002903D0002C01D001204C
:103D300000E0002070BD10B5002300220B0C012410
:103D40009C402246026210BD002106E00A2100BF0D
:103D50000A464B1E99B2002AFAD10246431E98B277
:103D6000002AF3D17047002106E0064900BF0A4649
:103D70004B1E99B2002AFAD10246431E98B2002A7D
:103D8000F3D17047E02E0000002101E04A1CD1B2BF
:103D90008142FBDB704730B5002500230024F94841
:103DA0000078002838D10220F649087000BF31E0C1
:103DB0000920C006808AF44908400446F348C05CE4
:103DC00020430921C90688823C20FFF7DDFFF04827
:103DD000008A8407A40F5800EE49085AA04211D166
:103DE000ED48C05C0F2804DAEB48C05C401CEA498F
:103DF000C854E948C05C05280AD10125E043E749D9
:103E0000C85405E00020E449C8545800E1490C5268
:103E1000581CC3B2032BCBDB284630BD10B504467B
:103E20002046E10F091849104900611A0AD1FF2103
:103E300001310920C006FEF7BCFA3020D84988704D
:103E4000C8700AE0FF2101310920C006FEF7AFFA71
:103E50003020D34988703120C87010BD10B5044699
:103E6000002C47D10021CF48FDF75CFF0021012045
:103E70004002FEF7E0FDCB48FDF72AFF0021CA48CB
:103E8000FEF710F900210120FEF7C7FDC648FEF736
:103E900093F8C648FFF79EFC0021C448FFF74FFD8A
:103EA000002101208003FEF7C6FD0021C048FEF777
:103EB00096FF002101208007FEF791FFBC48FEF726
:103EC000A3FE0021BA48FEF7B0FF0920C006808A91
:103ED000B022104301460920C006FEF772FAFCF733
:103EE00043FB01F029FB0020FFF798FF0120B149B7
:103EF000087017E0002101200007FEF7AAFDFCF77B
:103F0000A1FAFCF767FBFCF7B9FB01F0EFFEFCF749
:103F10005DFC01F003FBFCF709FB0020A5490870DC
:103F2000A549487010BD10B5A3484078012808D1B4
:103F30000020A2490870A04948704D209849487156
:103F40003FE09E480078002829D09C48007805284A
:103F500004D1FDF77DFDFCF7E9FA06E0974800780B
:103F6000062802D10120FFF779FF01F014FB0020A1
:103F70009249087020209249087048708870C87073
:103F8000087348738873C8738E49087048708870C6
:103F900048738873C87301207A49C88011E0854945
:103FA0000878C10F091849104900411A02D101F0DF
:103FB000C3FA01E001F0B2FA7E480078401C7D4966
:103FC000087010BD10B57C48407801287CD17A4833
:103FD0000078401E7849087008460078012801DA08
:103FE0000A20087074480078030002F09DFC0B6CF6
:103FF00007111B252F39434D57626C004720684934
:10400000C871452008724E204872202088725AE0FC
:1040100053206349C87145200872542048722020FB
:10402000887250E041205E49C8714C2008724D20D2
:1040300048722020887246E043205949C8715020B8
:10404000087255204872202088723CE05420544960
:10405000C871452008724D2048725020887232E0A5
:1040600047204F49C871412008724D2048724520B1
:10407000887228E04C204A49C8714F2008725720A6
:104080004872502088721EE042204549C871542071
:104090000872522048725320887214E0422040492E
:1040A000C8715420087256204872452088720AE070
:1040B0000AE042203A49C8715420087241204872EF
:1040C0004420887200BFE9E03C480078012858D1BC
:1040D0002C480079030002F027FC075305111D2925
:1040E0003743530038488078401C37498870084669
:1040F0008078172801DD0020887041E03248407840
:10410000401C31494870084640783B2801DD0020BA
:10411000487035E02C480078401C2B490870084650
:1041200000783B2801DD0020087029E026488079CE
:10413000401C25498871084680792449884202DD5F
:104140003320214988711BE01F480079401C1E491B
:104150000871084600790C2801DD012008710FE084
:104160001948C078401C1849C8700846C0780979B9
:10417000174A515C884202DD01201349C87000BF14
:104180008CE027E000000020F0FF0000DB010020B1
:1041900000040048F4010020F1010020D2010020B9
:1041A000790100200024014008000240003801404D
:1041B00000040040EE010020EF010020AC050020CB
:1041C0005701002024010020DE01002033080000F8
:1041D000246A0008F7480078022858D1F648007988
:1041E000030002F0A1FB075305111D2937435300BB
:1041F000F2488078401CF14988700846807817287A
:1042000001DD0020887041E0EC484078401CEB491B
:104210004870084640783B2801DD0020487035E0B2
:10422000E6480078401CE5490870084600783B28BD
:1042300001DD0020087029E0E0488079401CDF495A
:10424000887108468079DE49884202DD3320DB49E7
:1042500088711BE0D9480079401CD849087108468C
:1042600000790C2801DD012008710FE0D348C078E7
:10427000401CD249C8700846C0780979D14A515CBF
:10428000884202DD0120CD49C87000BF06E0C94860
:104290000078052802D10220FDF717FA10BD70B58D
:1042A0000024C51800BF05E02E780E706D1C491C57
:1042B000661CF4B29442F7DB70BD10B5C24840787A
:1042C000012873D1C0480078401EBA490870002008
:1042D000BD4948700120B8490871B64800780128E6
:1042E00009D100230822B949B948FFF7D8FF4D206A
:1042F000B849487175E0AF480078022809D1002319
:104300000822AE49B248FFF7CAFF4D20B1494871B3
:1043100067E0A8480078002803D14D20AD494871D6
:104320005FE0A4480078032803D14D20A9494871D3
:1043300057E0A0480078042803D14D20A5494871D2
:104340004FE09C480078052807D1FCF70DF94D2077
:10435000A0494871FDF78AF943E09648007806289D
:1043600006D14D209B4948710020FFF777FD38E0CA
:1043700090480078072802D100F0C2FC31E08D4857
:104380000078082806D14D2092494871012000F09C
:10439000BEFC26E087480078092822D14D208D49AF
:1043A0004871022000F0B3FC1BE0FFE78148007871
:1043B000012803D07F48007802280BD17E4800797D
:1043C000401C7D49087108460079042809DD012058
:1043D000087106E077480078052802D10420FDF72F
:1043E00074F910BD10B508227449002000F04FFE8A
:1043F00010BDF0B587B000200690734840780128C2
:104400007ED06C480078002803D06A4800780328E2
:104410000AD101206C494870087053206D494871D9
:104420000A20644908706BE062480078012854D182
:10443000664880790690654948780A2101F066FE51
:104440000701624948780A2101F060FE0F43FCB27F
:104450005E4988780A2101F059FE07015B49887896
:104460000A2101F053FE0F43FDB25849C8780A21D2
:1044700001F04CFE07015549C8780A2101F046FEBB
:104480000F43FEB2514908790A2101F03FFE0701AE
:104490004E4908790A2101F039FE0F43F8B20A218A
:1044A0000590069801F032FE07010A21069801F0F6
:1044B0002DFE0F43F8B20490002001902B463246A7
:1044C000009402900599049801F048FBC8203A49ED
:1044D000487000203749087012E0364800780228FA
:1044E00008D1FFF77FFFC8203349487000203149C9
:1044F000087005E02F480078052801D1FDF7D3FAB0
:1045000007B0F0BD10B530484078012878D12E486A
:104510000078401C2C490870084600780A2801DD04
:104520000120087028480078030002F0FDF90B7E96
:1045300007111B252F39555F6A747E0047202549D6
:10454000C871452008724E204872202088726CE0A5
:1045500053202049C87145200872542048722020F9
:10456000887262E041201B49C8714C2008724D20BE
:1045700048722020887258E043201649C8715020A4
:10458000087255204872202088724EE0542011494C
:10459000C871452008724D2048725020887244E04E
:1045A00047200C49C871412008724D2048724520AF
:1045B00088723AE0AC05002000000020E6010020EF
:1045C00033080000246A0008EF010020DE0100200B
:1045D0008A050020790100204C20E149C8714F2054
:1045E000087257204872502088721EE04220DC4931
:1045F000C87154200872522048725320887214E007
:1046000014E04220D649C8715420087256204872DE
:104610004520887209E04220D149C87154200872AF
:10462000412048724420887200BFC4E0CD48007821
:1046300001285AD1CC480079030002F075F90755DA
:1046400005111D2938445500C8488078401EC749C7
:10465000887008468078FF2801D11720887043E0D1
:10466000C2484078401EC149487008464078FF283B
:1046700001D13B20487037E0BC480078401EBB4960
:10468000087008460078FF2801D13B2008702BE015
:10469000B6488079401EB5498871084680797D21E9
:1046A0000901884202DAD020B04988711CE0AF4885
:1046B0000079401EAD49087108460079012801DAE9
:1046C0000C20087110E0A948C078401EA749C870A6
:1046D0000846C078012806DA08460079401EA44939
:1046E000085CA249C87000BF65E09E4800780228B7
:1046F0005AD19D480079030002F016F907550511BB
:104700001D29384455009B484078401E99494870FF
:1047100008464078FF2801D11720487043E09548AB
:104720004078401E9349487008464078FF2801D1E0
:104730003B20487037E08F480078401E8D49087054
:1047400008460078FF2801D13B2008702BE08948FB
:104750008079401E87498871084680797D2109014A
:10476000884202DAD020834988711CE081480079B0
:10477000401E8049087108460079012801DA0C20A2
:10478000087110E07B48C078401E7A49C87008461E
:10479000C078012806DA08460079401E7449085C92
:1047A0007449C87000BF06E06E480078052802D141
:1047B0000120FCF78AFF10BD10B56F484078012832
:1047C0000AD069480079401E674908710846007997
:1047D000012801DA0620087162480078002803D019
:1047E00060480078032817D15F484079401C5E4933
:1047F00048714879FFF712FB5B484479E00F0019D4
:1048000040104000201A01D0012000E000200146A5
:10481000082000F0C6FB06E052480078052802D1C7
:104820000320FCF752FF10BD10B504465348005D4D
:1048300000281DD064204C494870230002F074F811
:104840000604070A0D101316FFF7B6FF0FE0FFF777
:1048500059FE0CE0FFF7CDFD09E0FFF72EFD06E065
:10486000FFF7B0FB03E0FFF75EFB00E000BF00BF17
:1048700010BDFEB506460296029EF007C00F002846
:1048800029D0002425E03E48005D3E49095D4840AE
:104890000190019800281AD0002516E00120A840B8
:1048A000C7B260004019C0B200903648015D39407F
:1048B000324A009811543248005D7840304908551A
:1048C0000098FFF7B1FF681CC5B2022DE6DB601C43
:1048D000C4B2032CD7DBFEBD10B5224800780028F7
:1048E00030D1294880782349897888422AD12648BE
:1048F000407820494978884224D1234800781428F8
:1049000020DCFF2018494870002048714879FFF7E3
:1049100085FA154840791D490978884212D0124815
:104920004479E00F001940104000201A01D0012006
:1049300000E000200146082000F033FB0A484079DF
:104940001249087010BD10B501211148FEF753FE41
:10495000002803D001210E48FEF760FE10BD0000C4
:1049600079010020AC05002000000020DE010020BD
:10497000246A0008E6010020EF010020D501002094
:10498000FA010020D20100208A050020FD0100204C
:104990000004004010B501221146FE48FEF712FE49
:1049A00010BD10B5FC49FD48FFF79EF9002822D044
:1049B000FB488078002806D1F9494870087001202A
:1049C0008870FFF7E7FFF54820308088C1B2F448CF
:1049D00042784078401CF24B5870D81C815400201B
:1049E00019460870EF48C078401CEE49C870EA4983
:1049F000EA48FFF7A0F910BD10B500210020EA4AEF
:104A0000E74B9B78022B14D100BF0AE0E44BDB1C80
:104A10005B5C1370521C0024E14BDB1C5C544B1C90
:104A2000D9B2DF4B5B788B42F0DC0023DC4CA37007
:104A3000012010BD70B505460E461021D748FFF77E
:104A400047F9002819D0002404E0285DD74908550B
:104A5000601CC4B2B442F8DB0021D548FDF722FB4C
:104A60003146D348FDF72AFB0121D148FDF71AFB57
:104A7000CC488078401CCB49887070BDF0B589B0B7
:104A80000446CCA103C90891079060790002A1797E
:104A900040187D210901401A80B20690A07A0A21AF
:104AA00001F034FB0701A07A0A2101F02FFB0F432C
:104AB000FDB2607A0A2101F029FB0701607A0A2120
:104AC00001F024FB0F43FEB2207A0A2101F01EFB05
:104AD0000701207A0A2101F019FB0F43F8B2059073
:104AE000E0790A2101F012FB0701E0790A2101F0C7
:104AF0000DFB0F43F8B20A210490069801F006FB63
:104B000007010A21069801F001FB0F43F8B2039058
:104B10000020019033460095029003A807C801F0D9
:104B20001DF8072107A8FFF785FF09B0F0BD70B594
:104B300005460E4610219948FFF7CAF8002815D0FF
:104B400000240CE0285D95492031088100BF4021F8
:104B50009248FFF7BDF80028F9D0601CC4B2B442F7
:104B6000F0DB90488078401C8E49887070BD1CB581
:104B700092A103C90191009007216846FFF7D7FF72
:104B800000BFBFF34F8F8F488F49C860BFF34F8F6F
:104B900000BF00BFFEE770B50546002D72D0824809
:104BA0000078F0286FD1804840785A28FAD17E48A2
:104BB0008078A528F6D17C484079F7286CD17A48CE
:104BC000C078030001F0B0FE096606162636666658
:104BD0006646660074480079012805D11021092035
:104BE000C006FDF7E6FB04E010210920C006FDF732
:104BF000DEFB50E06C480079012805D12021092016
:104C0000C006FDF7D6FB04E020210920C006FDF711
:104C1000CEFB40E064480079012805D180210920BD
:104C2000C006FDF7C6FB04E080210920C006FDF7A1
:104C3000BEFB30E05C480079012805D14021092005
:104C4000C006FDF7B4FB04E040210920C006FDF7D3
:104C5000B0FB20E054480079002802D15B4948713C
:104C600002E001205949487158494879FFF7D6F8C0
:104C700056484479E00F001940104000201A03D034
:104C8000012002E021E031E000200146082000F090
:104C900088F900E000BF2CE043488079F72815D15F
:104CA0004148C078062801D1FFF761FF3E48C0782F
:104CB00007281ED13C4800797F281AD13A4840790C
:104CC000012816D100203749487012E03648007B91
:104CD000F7280ED13448C07809280AD13248007923
:104CE000402806D13048FFF7C9FE02E02E48FCF705
:104CF0002EFF70BD10B510212848FEF7E9FF10BD4A
:104D000010B5082132A0FFF712FF012010BD10B529
:104D10000446002C04D0012C07D0022C0FD109E04E
:104D200002212EA0FFF703FF09E00A212CA0FFF7C4
:104D3000FEFE04E009212DA0FFF7F9FE00BF00BF31
:104D400010BD7FB56C462C4800782C490978884204
:104D50007ED02948007829490870F0202070641C12
:104D60005A202070641CA5202070641C052020702F
:104D7000641C40202070641C1F4989797D22120127
:104D80008818C117090E091809122170641C1A49E4
:104D9000897935E0004401400501050000380140F3
:104DA0009908002000020020350800206708002034
:104DB0001C000240F05AA5090001F700F05AA506B0
:104DC0000001F7000400FA0500ED00E000000020FB
:104DD00041542B52455345540000000041540000FB
:104DE00041542B56455253494F4E000041542B41DC
:104DF0004444523D3F0000008A0500200802002084
:104E00008818C117090E091809120902411A2170E0
:104E1000641C454800792070641C4348C0782070A9
:104E2000641C414880782070641C3F4840782070A2
:104E3000641C3D4800782070641C64213B4A0020BB
:104E4000105E01F04DF905460A2101F049F900E034
:104E50001BE02170641C0A21344A0020105E01F01E
:104E60003FF905460A2101F03BF92170641C0A2133
:104E70002E4A0020105E01F033F92170641CF720E7
:104E8000207010216846FFF7D5FD7FBD1CB528A115
:104E900003C90191009001218807FEF7ACFB0028AF
:104EA0001CD001218807FEF7B9FB23490878C10F00
:104EB000091849104900411A08D107216846FFF72F
:104EC000B9FD1E484078401C1C4948701A480078BB
:104ED000401C194908701A49086880471CBD10B564
:104EE000002201211748FEF76DFB10BD10B501210E
:104EF0001448FEF780FB002815D001211148FEF769
:104F00008DFB11480078401C0F4908700846007856
:104F10000A2803DC08464078322804DDFFF7DFFF6B
:104F200002200949887010BD8A0500208A010020EE
:104F3000F05AA507017FF7000902002000020020B7
:104F400004020020004401409908002070B5044686
:104F5000002600F0E5F82546E117090E4919091267
:104F60004900A031C8B200F095F900F020F9E1172E
:104F7000090E491909120902611AC8B200F08AF92A
:104F800000F015F900F0CCF8A12000F083F900F052
:104F90000EF9002000F0B7F9064600F0E3F83046BD
:104FA00070BD70B504460E4600F0BAF82546E1170C
:104FB000090E491909124900A031C8B200F06AF976
:104FC00000F0F5F8E117090E491909120902611AF2
:104FD000C8B200F05FF900F0EAF8304600F05AF984
:104FE00000F0E5F800F0BEF80A20FEF7BCFE70BD48
:104FF000F8B505460E461746002409E0E2003346A0
:10500000D340D9B22A1990B2FFF7CBFF601CC4B2CB
:10501000BC42F3DBF8BDF8B507460C460026002578
:1050200009E036023919491B491E88B2FFF78EFF85
:105030008619681CC5B2A542F3DB3046F8BD10B531
:10504000FF20FFF783FF0446552C01D1002010BD3F
:105050005521FF20FFF7A5FFFF20FFF777FF04464C
:10506000552C01D10020F2E70120F0E770B506468B
:105070000C46154608E03046721C96B2FFF766FFF4
:105080002070641C681E85B2002DF4D170BD70B50F
:1050900005460C46164606E021782846FFF781FFB4
:1050A000681C85B2641C3046711E8EB20028F3D194
:1050B00070BD1CB50320C00200900121684601713B
:1050C000002181710321417169460920C006FDF765
:1050D000F1F80321C9020920C006FDF768F91CBDDB
:1050E0001CB50120000300900021684601710121D8
:1050F000C17169460920C006FDF7DCF81CBD1CB56E
:105100000120000300900121684601710021817196
:105110000321417169460920C006FDF7CBF81CBD8B
:1051200010B5FFF7ECFF012109030920C006FDF7C8
:105130003EF90121C9020920C006FDF738F9042013
:10514000FEF702FE012109030920C006FDF731F92F
:105150000420FEF7F9FD0121C9020920C006FDF770
:1051600028F910BD10B5FFF7CAFF0121C9020920B7
:10517000C006FDF71EF9012109030920C006FDF74D
:1051800018F90420FEF7E0FD0121C9020920C0063C
:10519000FDF70DF90420FEF7D7FD012109030920D1
:1051A000C006FDF704F90420FEF7CEFD10BD10B5D2
:1051B0000024FFF795FF012109030920C006FDF730
:1051C000F6F80120FEF7C0FD0121C9020920C00642
:1051D000FDF7EDF80120FEF7B7FD07E0601CC4B253
:1051E000FA2C03DDFFF7BEFF012010BD01210903EA
:1051F0000920C006FDF7C1F80028EFD10121C9023E
:105200000920C006FDF7D5F80020EEE710B5012112
:10521000C9020920C006FDF7CCF8FFF770FF012195
:1052200009030920C006FDF7C4F80220FEF78CFD33
:105230000121C9020920C006FDF7B9F80220FEF7D6
:1052400083FD0121C9020920C006FDF7B2F810BD97
:1052500010B50121C9020920C006FDF7AAF8FFF721
:105260004EFF012109030920C006FDF7A0F8022026
:10527000FEF76AFD0121C9020920C006FDF797F873
:105280000220FEF761FD0121C9020920C006FDF7D9
:1052900090F810BD70B50446FFF731FF0121C90237
:1052A0000920C006FDF785F8002529E08020204070
:1052B000002806D0012109030920C006FDF777F870
:1052C00005E0012109030920C006FDF772F8600618
:1052D000040E0220FEF738FD0121C9020920C00694
:1052E000FDF765F80220FEF72FFD0121C902092014
:1052F000C006FDF75EF80220FEF726FD681CC5B269
:10530000082DD3DB70BD70B505460024FFF7E8FE1D
:1053100000261FE00121C9020920C006FDF749F857
:105320000220FEF711FD0121C9020920C006FDF788
:105330003EF86006040E012109030920C006FDF7AE
:105340001CF8002801D0601CC4B20120FEF7FCFC50
:10535000701CC6B2082EDDDB002D02D1FFF778FFEE
:1053600001E0FFF753FF204670BD000010B540215B
:10537000F848FDF71CF88021F648FDF718F8802161
:10538000F448FDF716F84021F248FDF712F810BD79
:1053900010B54021EF48FDF70AF88021ED48FDF7F0
:1053A00008F88021EB48FDF702F810BD10B5402148
:1053B000E848FCF7FCFF4021E648FCF7FAFF10BD87
:1053C000F8B505462C464021E248FCF7F2FF0026DE
:1053D00019E0274680200740802F04D18021DD4836
:1053E000FCF7E5FF03E08021DA48FCF7E2FF600606
:1053F000040E4021D748FCF7DAFF4021D548FCF7DE
:10540000D8FF701CC6B2082EE3DBF8BD10B5044609
:10541000FFF7ACFF7820FFF7D3FFFFF7C7FF0020AF
:10542000FFF7CEFFFFF7C2FF2046FFF7C9FFFFF7E8
:10543000BDFFFFF7ADFF10BD10B50446FFF796FFA7
:105440007820FFF7BDFFFFF7B1FF4020FFF7B8FF5F
:10545000FFF7ACFF2046FFF7B3FFFFF7A7FFFFF70B
:1054600097FF10BD70B504460D46002D03D0E0B285
:10547000FFF7E2FF02E0E0B2FFF7C8FF70BD70B5D2
:105480000646002418E02046B0300021FFF7EAFF6E
:1054900000210220FFF7E6FF00211020FFF7E2FFC6
:1054A000002505E001213046FFF7DCFF681CC5B28E
:1054B000802DF7DB601CC4B2082CE4DB70BD05E076
:1054C000A54900E0491E0029FCD1401E0028F7D163
:1054D0007047014605E0002001E0421CD0B27B2865
:1054E000FBDB0A46491E002AF5D1704770B5044619
:1054F0000D462846B0300021FFF7B4FFA11CF02272
:1055000011400911084610300021FFF7ABFFA11C24
:105510000807000F0021FFF7A5FF70BD10B500219F
:105520008D20FFF79FFF00211420FFF79BFF002134
:10553000AF20FFF797FF10BD10B500218D20FFF7BA
:1055400091FF00211020FFF78DFF0021AE20FFF713
:1055500089FF10BDF8B505460E462C4618E02046DA
:10556000B0300021FFF77EFF00210220FFF77AFF15
:1055700000211020FFF776FF002705E00121002021
:10558000FFF770FF781CC7B2802FF7DB601CC4B236
:10559000B442E4DBF8BD70B5002418E02046B0301A
:1055A0000021FFF75FFF00210220FFF75BFF0021D2
:1055B0001020FFF757FF002505E001210020FFF72D
:1055C00051FF681CC5B2802DF7DB601CC4B2082CEB
:1055D000E4DB70BD70B5002418E02046B030002137
:1055E000FFF740FF00210220FFF73CFF00211020C1
:1055F000FFF738FF002505E001210846FFF732FFDD
:10560000681CC5B2802DF7DB601CC4B2082CE4DB3B
:1056100070BDFFB581B007460D46002600240398F3
:105620002038C6B27F2F02DD0027A81CC5B204981F
:10563000102824D129463846FFF758FF002408E0F7
:1056400031010919454A505C0121FFF70BFF601C2D
:10565000C4B2082CF4DB681CC1B23846FFF746FF21
:10566000002409E03101091908313C4A505C01214C
:10567000FFF7F8FE601CC4B2082CF3DB11E02946EA
:105680003846FFF733FF002409E006217143344A0E
:105690008918085D0121FFF7E5FE601CC4B2062CE5
:1056A000F3DB05B0F0BD10B50246012002E0034671
:1056B000534318460B464C1EE1B2002BF7D110BDE8
:1056C000FFB583B01E460C9C0020029000253CE0F4
:1056D000701B401EC1B20A20FFF7E5FF0146009093
:1056E000059800F0FDFC0A21019000F0F9FC0F463E
:1056F0000298002815D1701EA84212DD002F0ED18D
:10570000E00F001940106843019403994018C0B29B
:105710002346202200900499FFF77BFF13E001202D
:105720000290E00F0019401068430194039940185B
:10573000C0B2009038463030C2B223460499009877
:10574000FFF767FF00BF681CC5B2B542C0DB07B0FA
:10575000F0BD00000004004865180000586C000807
:10576000306A0008FFB581B004460F461546002692
:105770000FE0AA5D39462046049BFFF74AFF20460A
:105780000830C4B2782C02DD0024B81CC7B2701CEB
:10579000C6B2A85D0028ECD105B0F0BDF7B50E4645
:1057A0001546002731460098FFF7A0FE00240AE0C6
:1057B000A901704A8918085D0121FFF753FE781C82
:1057C000C7B2601CC4B2102CF2DB701CC1B20098CE
:1057D000FFF78CFE00240CE06900491C4901654A72
:1057E0008918085D0121FFF73DFE781CC7B2601CD7
:1057F000C4B2102CF0DBFEBDFFB583B006460F46E9
:105800001C46002002902046E117490F0918C910D4
:10581000C900611A05D1E117490F091849050D0E94
:1058200006E02046E117490F0918C910491CCDB2FE
:105830003D4617E029463046FFF758FE01960BE03B
:1058400002994A1C02920C9A505C0121FFF70AFE51
:105850000198401CC0B20190059901988842EFDB85
:10586000681CC5B2A542E5DB07B0F0BD1CB5C02081
:10587000009001216846017100218171032141716D
:1058800069463D48FCF716FDC0213B48FCF78FFDFB
:1058900019204001FEF767FA0021AE20FFF7E2FD74
:1058A00000210220FFF7DEFD00211020FFF7DAFDC6
:1058B00000214020FFF7D6FD0021B020FFF7D2FDE8
:1058C00000218120FFF7CEFD0021FF20FFF7CAFD58
:1058D0000021A120FFF7C6FD0021A620FFF7C2FD91
:1058E0000021A820FFF7BEFD00213F20FFF7BAFDF1
:1058F0000021C820FFF7B6FD0021D320FFF7B2FD3D
:1059000000210846FFF7AEFD0021D520FFF7AAFDD4
:1059100000218020FFF7A6FD0021D820FFF7A2FD7F
:1059200000210520FFF79EFD0021D920FFF79AFDF9
:105930000021F120FFF796FD0021DA20FFF792FD0C
:1059400000211220FFF78EFD0021DB20FFF78AFDEA
:1059500000213020FFF786FD00218D20FFF782FD1A
:1059600000211420FFF77EFD0021AF20FFF77AFD14
:105970001CBD00000A020020000400481CB51020D5
:10598000009001216846017100218171032141715C
:1059900069469548FCF78EFC1CBD70B50446002591
:1059A000FFF7ECFF0120FEF7CFF900BF27E08E489C
:1059B000808A082188438C498882E007C00F00282C
:1059C00007D00846808A1021884310308649888293
:1059D00005E08548808A1021884383498882012018
:1059E000FEF7B2F98048808A0821884308307E4952
:1059F00088820120FEF7A8F96410681CC5B2082D42
:105A0000D5DB70BD70B505460C467748808A2021ED
:105A10008843754988820846808A082188437249EC
:105A200088820846808A2021884320306E498882F7
:105A30002846FFF7B2FF2046FFF7AFFF6A48808A8B
:105A4000082188430830684988820846808A2021D6
:105A500088436549888270BD1CB5282000900121CB
:105A600068460171002181710321417169465E48D8
:105A7000FCF720FC5C48808A082188435A498882C8
:105A800000218020FFF7BEFFA8219020FFF7BAFF7A
:105A900080218E20FFF7B6FF1CBD1CB510200090A2
:105AA000002168460171C17169464F48FCF702FC4C
:105AB0001CBD70B50024FFF7F0FF0120FEF744F98C
:105AC00000251DE064104848808A0821884308307A
:105AD000454988820120FEF737F94348808A08212A
